{
  "_format": "hh-sol-artifact-1",
  "contractName": "GroupSplit",
  "sourceName": "contracts/GroupSplit.sol",
  "abi": [
    {
      "inputs": [],
      "stateMutability": "nonpayable",
      "type": "constructor"
    },
    {
      "anonymous": false,
      "inputs": [
        {
          "indexed": true,
          "internalType": "uint256",
          "name": "groupId",
          "type": "uint256"
        },
        {
          "indexed": true,
          "internalType": "address",
          "name": "owner",
          "type": "address"
        },
        {
          "indexed": true,
          "internalType": "string",
          "name": "groupName",
          "type": "string"
        },
        {
          "indexed": false,
          "internalType": "uint256",
          "name": "closingTime",
          "type": "uint256"
        }
      ],
      "name": "logGroupClosed",
      "type": "event"
    },
    {
      "anonymous": false,
      "inputs": [
        {
          "indexed": true,
          "internalType": "uint256",
          "name": "groupId",
          "type": "uint256"
        },
        {
          "indexed": true,
          "internalType": "address",
          "name": "owner",
          "type": "address"
        },
        {
          "indexed": true,
          "internalType": "string",
          "name": "groupName",
          "type": "string"
        },
        {
          "indexed": false,
          "internalType": "uint256",
          "name": "creationTime",
          "type": "uint256"
        }
      ],
      "name": "logGroupCreated",
      "type": "event"
    },
    {
      "anonymous": false,
      "inputs": [
        {
          "indexed": true,
          "internalType": "uint256",
          "name": "groupId",
          "type": "uint256"
        },
        {
          "indexed": true,
          "internalType": "address",
          "name": "participant",
          "type": "address"
        },
        {
          "indexed": false,
          "internalType": "string",
          "name": "nickname",
          "type": "string"
        },
        {
          "indexed": false,
          "internalType": "uint256",
          "name": "deposit",
          "type": "uint256"
        }
      ],
      "name": "logGroupDepositReceived",
      "type": "event"
    },
    {
      "anonymous": false,
      "inputs": [
        {
          "indexed": true,
          "internalType": "uint256",
          "name": "groupId",
          "type": "uint256"
        },
        {
          "indexed": true,
          "internalType": "address",
          "name": "owner",
          "type": "address"
        },
        {
          "indexed": true,
          "internalType": "string",
          "name": "groupName",
          "type": "string"
        },
        {
          "indexed": false,
          "internalType": "uint256",
          "name": "openingTime",
          "type": "uint256"
        }
      ],
      "name": "logGroupOpened",
      "type": "event"
    },
    {
      "anonymous": false,
      "inputs": [
        {
          "indexed": true,
          "internalType": "uint256",
          "name": "groupId",
          "type": "uint256"
        },
        {
          "indexed": false,
          "internalType": "uint256",
          "name": "amountWithdrawn",
          "type": "uint256"
        },
        {
          "indexed": false,
          "internalType": "uint256",
          "name": "time",
          "type": "uint256"
        },
        {
          "indexed": false,
          "internalType": "uint256",
          "name": "totalCollected",
          "type": "uint256"
        },
        {
          "indexed": false,
          "internalType": "uint256",
          "name": "totalWithdrawn",
          "type": "uint256"
        }
      ],
      "name": "logGroupWithdrawal",
      "type": "event"
    },
    {
      "anonymous": false,
      "inputs": [
        {
          "indexed": true,
          "internalType": "uint256",
          "name": "groupId",
          "type": "uint256"
        },
        {
          "indexed": true,
          "internalType": "address",
          "name": "owner",
          "type": "address"
        },
        {
          "indexed": false,
          "internalType": "uint256",
          "name": "amount",
          "type": "uint256"
        }
      ],
      "name": "logWithdrawalFailed",
      "type": "event"
    },
    {
      "inputs": [],
      "name": "activeGroups",
      "outputs": [
        {
          "internalType": "uint256",
          "name": "",
          "type": "uint256"
        }
      ],
      "stateMutability": "view",
      "type": "function"
    },
    {
      "inputs": [
        {
          "internalType": "uint256",
          "name": "_groupId",
          "type": "uint256"
        },
        {
          "internalType": "address",
          "name": "_participantAddress",
          "type": "address"
        },
        {
          "internalType": "string",
          "name": "_nickname",
          "type": "string"
        },
        {
          "internalType": "uint256",
          "name": "_deposit",
          "type": "uint256"
        }
      ],
      "name": "addParticipantToGroup",
      "outputs": [],
      "stateMutability": "nonpayable",
      "type": "function"
    },
    {
      "inputs": [
        {
          "internalType": "string",
          "name": "_groupName",
          "type": "string"
        },
        {
          "internalType": "string",
          "name": "_ownerNickname",
          "type": "string"
        }
      ],
      "name": "createGroup",
      "outputs": [],
      "stateMutability": "nonpayable",
      "type": "function"
    },
    {
      "inputs": [
        {
          "internalType": "uint256",
          "name": "_groupId",
          "type": "uint256"
        },
        {
          "internalType": "string",
          "name": "_nickname",
          "type": "string"
        }
      ],
      "name": "depositToGroup",
      "outputs": [],
      "stateMutability": "payable",
      "type": "function"
    },
    {
      "inputs": [],
      "name": "getActivegroups",
      "outputs": [
        {
          "internalType": "uint256",
          "name": "",
          "type": "uint256"
        }
      ],
      "stateMutability": "view",
      "type": "function"
    },
    {
      "inputs": [],
      "name": "getAllGroupIds",
      "outputs": [
        {
          "internalType": "uint256[]",
          "name": "",
          "type": "uint256[]"
        }
      ],
      "stateMutability": "view",
      "type": "function"
    },
    {
      "inputs": [
        {
          "internalType": "uint256",
          "name": "_groupId",
          "type": "uint256"
        }
      ],
      "name": "getGroupIndexById",
      "outputs": [
        {
          "internalType": "uint256",
          "name": "",
          "type": "uint256"
        }
      ],
      "stateMutability": "view",
      "type": "function"
    },
    {
      "inputs": [
        {
          "internalType": "uint256",
          "name": "_groupId",
          "type": "uint256"
        }
      ],
      "name": "getGroupInfoById",
      "outputs": [
        {
          "internalType": "uint256",
          "name": "",
          "type": "uint256"
        },
        {
          "internalType": "string",
          "name": "",
          "type": "string"
        },
        {
          "internalType": "address",
          "name": "",
          "type": "address"
        },
        {
          "internalType": "string",
          "name": "",
          "type": "string"
        },
        {
          "internalType": "uint256",
          "name": "",
          "type": "uint256"
        },
        {
          "internalType": "bool",
          "name": "",
          "type": "bool"
        },
        {
          "internalType": "uint256",
          "name": "",
          "type": "uint256"
        },
        {
          "internalType": "uint256",
          "name": "",
          "type": "uint256"
        },
        {
          "internalType": "uint256",
          "name": "",
          "type": "uint256"
        },
        {
          "internalType": "address[]",
          "name": "",
          "type": "address[]"
        }
      ],
      "stateMutability": "view",
      "type": "function"
    },
    {
      "inputs": [],
      "name": "getGroupsNum",
      "outputs": [
        {
          "internalType": "uint256",
          "name": "",
          "type": "uint256"
        }
      ],
      "stateMutability": "view",
      "type": "function"
    },
    {
      "inputs": [
        {
          "internalType": "uint256",
          "name": "_groupId",
          "type": "uint256"
        },
        {
          "internalType": "address",
          "name": "_participantAddress",
          "type": "address"
        }
      ],
      "name": "getParticipantDetails",
      "outputs": [
        {
          "internalType": "address",
          "name": "participantAddress",
          "type": "address"
        },
        {
          "internalType": "string",
          "name": "nickname",
          "type": "string"
        },
        {
          "internalType": "uint256",
          "name": "totalDeposits",
          "type": "uint256"
        }
      ],
      "stateMutability": "view",
      "type": "function"
    },
    {
      "inputs": [
        {
          "internalType": "uint256",
          "name": "",
          "type": "uint256"
        }
      ],
      "name": "groupIds",
      "outputs": [
        {
          "internalType": "uint256",
          "name": "",
          "type": "uint256"
        }
      ],
      "stateMutability": "view",
      "type": "function"
    },
    {
      "inputs": [
        {
          "internalType": "uint256",
          "name": "",
          "type": "uint256"
        }
      ],
      "name": "groups",
      "outputs": [
        {
          "internalType": "uint256",
          "name": "groupId",
          "type": "uint256"
        },
        {
          "internalType": "string",
          "name": "groupName",
          "type": "string"
        },
        {
          "internalType": "bool",
          "name": "status",
          "type": "bool"
        },
        {
          "internalType": "uint256",
          "name": "creationTime",
          "type": "uint256"
        },
        {
          "internalType": "address",
          "name": "owner",
          "type": "address"
        },
        {
          "internalType": "string",
          "name": "ownerNickname",
          "type": "string"
        },
        {
          "internalType": "uint256",
          "name": "balance",
          "type": "uint256"
        },
        {
          "internalType": "uint256",
          "name": "totalCollected",
          "type": "uint256"
        },
        {
          "internalType": "uint256",
          "name": "totalWithdrawn",
          "type": "uint256"
        }
      ],
      "stateMutability": "view",
      "type": "function"
    },
    {
      "inputs": [
        {
          "internalType": "uint256",
          "name": "_groupId",
          "type": "uint256"
        }
      ],
      "name": "withdrawFromGroup",
      "outputs": [],
      "stateMutability": "payable",
      "type": "function"
    },
    {
      "stateMutability": "payable",
      "type": "receive"
    }
  ],
  "bytecode": "0x6080604052600060035534801561001557600080fd5b506000805460010181558052611567806100306000396000f3fe6080604052600436106100c65760003560e01c80635d39c56b1161007f578063a2a4498b11610059578063a2a4498b14610229578063c97449501461023c578063d0e4567e1461025c578063f6d87c051461027257600080fd5b80635d39c56b146101bf5780636d145730146101d457806396324bd4146101f457600080fd5b80630636f5d4146100d25780631e4a97dd146100f65780632e3dcc06146101185780632f14f6c91461013a57806332bee467146101705780634093d7a11461019f57600080fd5b366100cd57005b600080fd5b3480156100de57600080fd5b506003545b6040519081526020015b60405180910390f35b34801561010257600080fd5b50610116610111366004611071565b610285565b005b34801561012457600080fd5b5061012d61041c565b6040516100ed91906110d5565b34801561014657600080fd5b5061015a610155366004611119565b610474565b6040516100ed9a9998979695949392919061117f565b34801561017c57600080fd5b5061019061018b366004611250565b61069d565b6040516100ed9392919061127c565b3480156101ab57600080fd5b506100e36101ba366004611119565b61081d565b3480156101cb57600080fd5b506000546100e3565b3480156101e057600080fd5b506100e36101ef366004611119565b61083e565b34801561020057600080fd5b5061021461020f366004611119565b6108a3565b6040516100ed999897969594939291906112b0565b610116610237366004611119565b610a20565b34801561024857600080fd5b5061011661025736600461131f565b610bc5565b34801561026857600080fd5b506100e360035481565b61011661028036600461137e565b610d9b565b600080546001818101835582805260038054600b9093027f290decd9548b62a8d60345a988386fc84ba6bc95484008f6362f93160ef3e563019391929091906102cf9084906113d1565b909155506102dd9050610ecf565b815582516102f49060018301906020860190610f35565b506004810180546001600160a01b03191633179055815161031e9060058301906020850190610f35565b5042600382015560028101805460ff1916600190811790915560006006830181905560078301819055600883018190558054909161035b916113e9565b8254600090815260026020526040812082905583546001805480820182559083527fb10e2d527612073b26eecdfd717e6a320cf44b4afac2b0732d9fcbe2b7fa0cf6015583549192506103b2919033908690610bc5565b816001016040516103c3919061143b565b604051908190038120600484015484546003860154845291926001600160a01b0390911691907f8946c268c4725059354ef9b4c2a0ae1a4510e2e45354cb61f70f6ecf7132230f9060200160405180910390a450505050565b6060600180548060200260200160405190810160405280929190818152602001828054801561046a57602002820191906000526020600020905b815481526020019060010190808311610456575b5050505050905090565b60006060600060606000806000806000606060006104918c61083e565b905060008082815481106104a7576104a76114d7565b90600052602060002090600b020190508060000154816001018260040160009054906101000a90046001600160a01b03168360050184600301548560020160009054906101000a900460ff168660060154876007015488600801548960090188805461051290611400565b80601f016020809104026020016040519081016040528092919081815260200182805461053e90611400565b801561058b5780601f106105605761010080835404028352916020019161058b565b820191906000526020600020905b81548152906001019060200180831161056e57829003601f168201915b5050505050985086805461059e90611400565b80601f01602080910402602001604051908101604052809291908181526020018280546105ca90611400565b80156106175780601f106105ec57610100808354040283529160200191610617565b820191906000526020600020905b8154815290600101906020018083116105fa57829003601f168201915b505050505096508080548060200260200160405190810160405280929190818152602001828054801561067357602002820191906000526020600020905b81546001600160a01b03168152600190910190602001808311610655575b505050505090509b509b509b509b509b509b509b509b509b509b5050509193959799509193959799565b600060606000806106ad8661083e565b905060008082815481106106c3576106c36114d7565b600091825260208083206001600160a01b038a81168552600b9390930201600a8101825260408085208151606081019092528054909416815260018401805492965090939284019161071490611400565b80601f016020809104026020016040519081016040528092919081815260200182805461074090611400565b801561078d5780601f106107625761010080835404028352916020019161078d565b820191906000526020600020905b81548152906001019060200180831161077057829003601f168201915b50505091835250506002919091015460209091015280519091506001600160a01b03166108015760405162461bcd60e51b815260206004820152601a60248201527f5061727469636970616e7420646f6573206e6f7420657869737400000000000060448201526064015b60405180910390fd5b8051602082015160409092015190999198509650945050505050565b6001818154811061082d57600080fd5b600091825260209091200154905081565b6000818152600260205260408120546108905760405162461bcd60e51b815260206004820152601460248201527311dc9bdd5c08191bd95cc81b9bdd08195e1a5cdd60621b60448201526064016107f8565b5060009081526002602052604090205490565b600081815481106108b357600080fd5b60009182526020909120600b909102018054600182018054919350906108d890611400565b80601f016020809104026020016040519081016040528092919081815260200182805461090490611400565b80156109515780601f1061092657610100808354040283529160200191610951565b820191906000526020600020905b81548152906001019060200180831161093457829003601f168201915b505050600284015460038501546004860154600587018054969760ff909416969295506001600160a01b0390911693509061098b90611400565b80601f01602080910402602001604051908101604052809291908181526020018280546109b790611400565b8015610a045780601f106109d957610100808354040283529160200191610a04565b820191906000526020600020905b8154815290600101906020018083116109e757829003601f168201915b5050505050908060060154908060070154908060080154905089565b6000610a2b8261083e565b90506000808281548110610a4157610a416114d7565b60009182526020909120600b9091020160048101549091506001600160a01b03163314610ab05760405162461bcd60e51b815260206004820152601d60248201527f4f6e6c792067726f7570206f776e65722063616e20776974686472617700000060448201526064016107f8565b600481015460068201546040516000926001600160a01b031691908381818185875af1925050503d8060008114610b03576040519150601f19603f3d011682016040523d82523d6000602084013e610b08565b606091505b505090508015610b735760068201805460088401819055600091829055600784015460408051938452426020850152830152606082015284907f58641ce868980aeb6306e3e970c4e4198dcaccaaef04e111d3c34200b747fdbe9060800160405180910390a2610bbf565b600482015460068301546040519081526001600160a01b039091169085907fab49030aec719fa86f2138287668534e0d05c4e13cd36669a3f5b8052d327d329060200160405180910390a35b50505050565b6000610bd08561083e565b90508460008281548110610be657610be66114d7565b90600052602060002090600b02016000015414610c3c5760405162461bcd60e51b815260206004820152601460248201527311dc9bdd5c08191bd95cc81b9bdd08195e1a5cdd60621b60448201526064016107f8565b6000808281548110610c5057610c506114d7565b600091825260208083206001600160a01b038981168552600b9390930201600a81019091526040909220549192501615610cbc576001600160a01b0385166000908152600a8201602052604081206002018054859290610cb19084906113d1565b90915550610d5f9050565b604080516060810182526001600160a01b0387811680835260208084018981528486018990526000928352600a8701825294909120835181546001600160a01b03191693169290921782559251805192938493610d1f9260018501920190610f35565b506040919091015160029091015550600981018054600181018255600091825260209091200180546001600160a01b0319166001600160a01b0387161790555b82816006016000828254610d7391906113d1565b9250508190555082816007016000828254610d8e91906113d1565b9091555050505050505050565b816000610da78261083e565b905060008181548110610dbc57610dbc6114d7565b600091825260209091206002600b90920201015460ff161515600114610e165760405162461bcd60e51b815260206004820152600f60248201526e11dc9bdd5c081a5cc818db1bdcd959608a1b60448201526064016107f8565b60003411610e775760405162461bcd60e51b815260206004820152602860248201527f4465706f73697420616d6f756e74206d7573742062652067726561746572207460448201526768616e207a65726f60c01b60648201526084016107f8565b34610e8485338684610bc5565b336001600160a01b0316857f061a3a1f9f4c2bac8da4625370b6afa9f9b2f7b7a03b54591754873cc308126c8684604051610ec09291906114ed565b60405180910390a35050505050565b6000620f4240424433604051602001610f0d93929190928352602083019190915260601b6bffffffffffffffffffffffff1916604082015260540190565b6040516020818303038152906040528051906020012060001c610f30919061150f565b905090565b828054610f4190611400565b90600052602060002090601f016020900481019282610f635760008555610fa9565b82601f10610f7c57805160ff1916838001178555610fa9565b82800160010185558215610fa9579182015b82811115610fa9578251825591602001919060010190610f8e565b50610fb5929150610fb9565b5090565b5b80821115610fb55760008155600101610fba565b634e487b7160e01b600052604160045260246000fd5b600082601f830112610ff557600080fd5b813567ffffffffffffffff8082111561101057611010610fce565b604051601f8301601f19908116603f0116810190828211818310171561103857611038610fce565b8160405283815286602085880101111561105157600080fd5b836020870160208301376000602085830101528094505050505092915050565b6000806040838503121561108457600080fd5b823567ffffffffffffffff8082111561109c57600080fd5b6110a886838701610fe4565b935060208501359150808211156110be57600080fd5b506110cb85828601610fe4565b9150509250929050565b6020808252825182820181905260009190848201906040850190845b8181101561110d578351835292840192918401916001016110f1565b50909695505050505050565b60006020828403121561112b57600080fd5b5035919050565b6000815180845260005b818110156111585760208185018101518683018201520161113c565b8181111561116a576000602083870101525b50601f01601f19169290920160200192915050565b60006101408c83526020818185015261119a8285018e611132565b6001600160a01b038d8116604087015285820360608701529092506111bf838d611132565b92508a608086015289151560a08601528860c08601528760e0860152866101008601528483036101208601528286518085528385019150838801945060005b8181101561121c5785518416835294840194918401916001016111fe565b5050809450505050509b9a5050505050505050505050565b80356001600160a01b038116811461124b57600080fd5b919050565b6000806040838503121561126357600080fd5b8235915061127360208401611234565b90509250929050565b6001600160a01b03841681526060602082018190526000906112a090830185611132565b9050826040830152949350505050565b60006101208b83528060208401526112ca8184018c611132565b8a15156040850152606084018a90526001600160a01b038916608085015283810360a085015290506112fc8188611132565b60c0840196909652505060e0810192909252610100909101529695505050505050565b6000806000806080858703121561133557600080fd5b8435935061134560208601611234565b9250604085013567ffffffffffffffff81111561136157600080fd5b61136d87828801610fe4565b949793965093946060013593505050565b6000806040838503121561139157600080fd5b82359150602083013567ffffffffffffffff8111156113af57600080fd5b6110cb85828601610fe4565b634e487b7160e01b600052601160045260246000fd5b600082198211156113e4576113e46113bb565b500190565b6000828210156113fb576113fb6113bb565b500390565b600181811c9082168061141457607f821691505b6020821081141561143557634e487b7160e01b600052602260045260246000fd5b50919050565b600080835481600182811c91508083168061145757607f831692505b602080841082141561147757634e487b7160e01b86526022600452602486fd5b81801561148b576001811461149c576114c9565b60ff198616895284890196506114c9565b60008a81526020902060005b868110156114c15781548b8201529085019083016114a8565b505084890196505b509498975050505050505050565b634e487b7160e01b600052603260045260246000fd5b6040815260006115006040830185611132565b90508260208301529392505050565b60008261152c57634e487b7160e01b600052601260045260246000fd5b50069056fea2646970667358221220ef5877d11ffa730723f1df2e2813afd2355f04fb6ffa15182e5c955167f8a5b564736f6c63430008090033",
  "linkReferences": {},
  "deployedLinkReferences": {}
}