{
  "_format": "hh-sol-artifact-1",
  "contractName": "ExpenseSplitter",
  "sourceName": "contracts/ExpenseSplitter.sol",
  "abi": [
    {
      "anonymous": false,
      "inputs": [
        {
          "indexed": true,
          "internalType": "uint256",
          "name": "expenseId",
          "type": "uint256"
        },
        {
          "indexed": true,
          "internalType": "address",
          "name": "approver",
          "type": "address"
        },
        {
          "indexed": false,
          "internalType": "uint256",
          "name": "amount",
          "type": "uint256"
        }
      ],
      "name": "LogExpenseApproved",
      "type": "event"
    },
    {
      "anonymous": false,
      "inputs": [
        {
          "indexed": true,
          "internalType": "uint256",
          "name": "expenseId",
          "type": "uint256"
        },
        {
          "indexed": false,
          "internalType": "uint256",
          "name": "amountTransferred",
          "type": "uint256"
        }
      ],
      "name": "LogExpenseCompleted",
      "type": "event"
    },
    {
      "anonymous": false,
      "inputs": [
        {
          "indexed": true,
          "internalType": "uint256",
          "name": "index",
          "type": "uint256"
        },
        {
          "indexed": true,
          "internalType": "address",
          "name": "creator",
          "type": "address"
        },
        {
          "indexed": false,
          "internalType": "uint256",
          "name": "amount",
          "type": "uint256"
        },
        {
          "indexed": false,
          "internalType": "address[]",
          "name": "splitAddresses",
          "type": "address[]"
        }
      ],
      "name": "LogExpenseCreated",
      "type": "event"
    },
    {
      "anonymous": false,
      "inputs": [
        {
          "indexed": true,
          "internalType": "uint256",
          "name": "expenseId",
          "type": "uint256"
        },
        {
          "indexed": true,
          "internalType": "address",
          "name": "creator",
          "type": "address"
        },
        {
          "indexed": false,
          "internalType": "uint256",
          "name": "amount",
          "type": "uint256"
        }
      ],
      "name": "LogTransferFailed",
      "type": "event"
    },
    {
      "inputs": [],
      "name": "activeExpenses",
      "outputs": [
        {
          "internalType": "uint256",
          "name": "",
          "type": "uint256"
        }
      ],
      "stateMutability": "view",
      "type": "function"
    },
    {
      "inputs": [
        {
          "internalType": "uint256",
          "name": "_expenseId",
          "type": "uint256"
        }
      ],
      "name": "approveExpense",
      "outputs": [],
      "stateMutability": "payable",
      "type": "function"
    },
    {
      "inputs": [],
      "name": "cashFlow",
      "outputs": [
        {
          "internalType": "uint256",
          "name": "",
          "type": "uint256"
        }
      ],
      "stateMutability": "view",
      "type": "function"
    },
    {
      "inputs": [
        {
          "internalType": "uint256",
          "name": "_amount",
          "type": "uint256"
        },
        {
          "internalType": "address[]",
          "name": "_splitAddresses",
          "type": "address[]"
        }
      ],
      "name": "createExpense",
      "outputs": [],
      "stateMutability": "nonpayable",
      "type": "function"
    },
    {
      "inputs": [
        {
          "internalType": "uint256",
          "name": "",
          "type": "uint256"
        }
      ],
      "name": "expenses",
      "outputs": [
        {
          "internalType": "address",
          "name": "creator",
          "type": "address"
        },
        {
          "internalType": "uint256",
          "name": "amount",
          "type": "uint256"
        },
        {
          "internalType": "bool",
          "name": "completed",
          "type": "bool"
        },
        {
          "internalType": "uint256",
          "name": "collectedAmount",
          "type": "uint256"
        }
      ],
      "stateMutability": "view",
      "type": "function"
    },
    {
      "inputs": [],
      "name": "getActiveExpenses",
      "outputs": [
        {
          "internalType": "uint256",
          "name": "",
          "type": "uint256"
        }
      ],
      "stateMutability": "view",
      "type": "function"
    },
    {
      "inputs": [
        {
          "internalType": "uint256",
          "name": "_index",
          "type": "uint256"
        }
      ],
      "name": "getExpense",
      "outputs": [
        {
          "internalType": "address",
          "name": "",
          "type": "address"
        },
        {
          "internalType": "uint256",
          "name": "",
          "type": "uint256"
        },
        {
          "internalType": "address[]",
          "name": "",
          "type": "address[]"
        },
        {
          "internalType": "bool",
          "name": "",
          "type": "bool"
        },
        {
          "internalType": "bool[]",
          "name": "",
          "type": "bool[]"
        },
        {
          "internalType": "uint256",
          "name": "",
          "type": "uint256"
        }
      ],
      "stateMutability": "view",
      "type": "function"
    },
    {
      "inputs": [],
      "name": "getExpensesLength",
      "outputs": [
        {
          "internalType": "uint256",
          "name": "",
          "type": "uint256"
        }
      ],
      "stateMutability": "view",
      "type": "function"
    },
    {
      "stateMutability": "payable",
      "type": "receive"
    }
  ],
  "bytecode": "0x60806040526000600155600060025534801561001a57600080fd5b50610bb78061002a6000396000f3fe60806040526004361061007f5760003560e01c8063af4afe0a1161004e578063af4afe0a14610119578063b579e7f114610169578063e23b5bec1461017c578063e3af51cd146100ad57600080fd5b80633014d4891461008b578063662a1233146100ad578063735e5db6146100d157806394e52dfc1461010357600080fd5b3661008657005b600080fd5b34801561009757600080fd5b506100ab6100a636600461093e565b610192565b005b3480156100b957600080fd5b506000545b6040519081526020015b60405180910390f35b3480156100dd57600080fd5b506100f16100ec366004610a0f565b610299565b6040516100c896959493929190610a6c565b34801561010f57600080fd5b506100be60015481565b34801561012557600080fd5b50610139610134366004610a0f565b61043e565b604080516001600160a01b03909516855260208501939093529015159183019190915260608201526080016100c8565b6100ab610177366004610a0f565b610485565b34801561018857600080fd5b506100be60025481565b60008054600181018255908052600681027f290decd9548b62a8d60345a988386fc84ba6bc95484008f6362f93160ef3e563810180546001600160a01b031916331781557f290decd9548b62a8d60345a988386fc84ba6bc95484008f6362f93160ef3e564820185905583519091610233917f290decd9548b62a8d60345a988386fc84ba6bc95484008f6362f93160ef3e565909101906020860190610892565b506000816005018190555060018060008282546102509190610b00565b9091555050604051339083907f824eb3e7dda5ce351ec7b252f76d2836f46c6b709b6f6e8de1dab80ce948d1829061028b9088908890610b18565b60405180910390a350505050565b600080606060006060600080600088815481106102b8576102b8610b39565b906000526020600020906006020190506000816002018054905067ffffffffffffffff8111156102ea576102ea61090c565b604051908082528060200260200182016040528015610313578160200160208202803683370190505b50905060005b60028301548110156103a15782600301600084600201838154811061034057610340610b39565b60009182526020808320909101546001600160a01b03168352820192909252604001902054825160ff9091169083908390811061037f5761037f610b39565b911515602092830291909101909101528061039981610b4f565b915050610319565b508154600183015460048401546005850154600286018054604080516020808402820181019092528281526001600160a01b0390971696929460ff169388939092909186919083018282801561042057602002820191906000526020600020905b81546001600160a01b03168152600190910190602001808311610402575b50505050509350975097509750975097509750505091939550919395565b6000818154811061044e57600080fd5b600091825260209091206006909102018054600182015460048301546005909301546001600160a01b0390921693509160ff169084565b600080828154811061049957610499610b39565b60009182526020909120600690910201600481015490915060ff16156105065760405162461bcd60e51b815260206004820152601960248201527f457870656e736520616c726561647920636f6d706c657465640000000000000060448201526064015b60405180910390fd5b33600090815260038201602052604090205460ff161561055b5760405162461bcd60e51b815260206004820152601060248201526f105b1c9958591e48185c1c1c9bdd995960821b60448201526064016104fd565b600034116105ab5760405162461bcd60e51b815260206004820152601860248201527f4d7573742073656e642045544820746f20617070726f7665000000000000000060448201526064016104fd565b6000805b600283015481101561061057336001600160a01b03168360020182815481106105da576105da610b39565b6000918252602090912001546001600160a01b031614156105fe5760019150610610565b8061060881610b4f565b9150506105af565b50806106755760405162461bcd60e51b815260206004820152602e60248201527f596f7520617265206e6f7420617574686f72697a656420746f20617070726f7660448201526d65207468697320657870656e736560901b60648201526084016104fd565b3360009081526003830160205260408120805460ff191660011790556005830180543492906106a5908490610b00565b9250508190555034600260008282546106be9190610b00565b9091555050604051348152339084907fb7eb06caae3f4145fad5d1f3617d854f9c04b02c7135cd23e178453c6701acdc9060200160405180910390a3600160005b600284015481101561076d5783600301600085600201838154811061072657610726610b39565b60009182526020808320909101546001600160a01b0316835282019290925260400190205460ff1661075b576000915061076d565b8061076581610b4f565b9150506106ff565b50801561088c5760048301805460ff1916600190811790915580548190600090610798908390610b6a565b909155505060058301805460009182905584546040519192916001600160a01b039091169083908381818185875af1925050503d80600081146107f7576040519150601f19603f3d011682016040523d82523d6000602084013e6107fc565b606091505b50509050801561084557857f37830338d9ed156f5f52d3d7077d2a3afdc0b9dce9d3279b94b004c081436b608360405161083891815260200190565b60405180910390a2610889565b84546040518381526001600160a01b039091169087907f3ab7c38c040cba24621cf00dbe3dd5823495cac6b3a66bc5f456b1fbe67948a59060200160405180910390a35b50505b50505050565b8280548282559060005260206000209081019282156108e7579160200282015b828111156108e757825182546001600160a01b0319166001600160a01b039091161782556020909201916001909101906108b2565b506108f39291506108f7565b5090565b5b808211156108f357600081556001016108f8565b634e487b7160e01b600052604160045260246000fd5b80356001600160a01b038116811461093957600080fd5b919050565b6000806040838503121561095157600080fd5b8235915060208084013567ffffffffffffffff8082111561097157600080fd5b818601915086601f83011261098557600080fd5b8135818111156109975761099761090c565b8060051b604051601f19603f830116810181811085821117156109bc576109bc61090c565b6040529182528482019250838101850191898311156109da57600080fd5b938501935b828510156109ff576109f085610922565b845293850193928501926109df565b8096505050505050509250929050565b600060208284031215610a2157600080fd5b5035919050565b600081518084526020808501945080840160005b83811015610a615781516001600160a01b031687529582019590820190600101610a3c565b509495945050505050565b60018060a01b038716815260006020878184015260c06040840152610a9460c0840188610a28565b8615156060850152838103608085015285518082528287019183019060005b81811015610ad1578351151583529284019291840191600101610ab3565b50508093505050508260a0830152979650505050505050565b634e487b7160e01b600052601160045260246000fd5b60008219821115610b1357610b13610aea565b500190565b828152604060208201526000610b316040830184610a28565b949350505050565b634e487b7160e01b600052603260045260246000fd5b6000600019821415610b6357610b63610aea565b5060010190565b600082821015610b7c57610b7c610aea565b50039056fea2646970667358221220da6bd6b9ed8e286b5787728ca65ea753d4036efa851e7821a8babacc022a103a64736f6c63430008090033",
  "linkReferences": {},
  "deployedLinkReferences": {}
}