{"contracts/GroupSplit.sol":{"GroupSplit":{"abi":[{"inputs":[{"internalType":"address","name":"_usdcTokenAddress","type":"address"}],"stateMutability":"nonpayable","type":"constructor"},{"anonymous":false,"inputs":[{"indexed":true,"internalType":"uint256","name":"groupId","type":"uint256"},{"indexed":true,"internalType":"address","name":"owner","type":"address"},{"indexed":true,"internalType":"string","name":"groupName","type":"string"},{"indexed":false,"internalType":"uint256","name":"closingTime","type":"uint256"},{"indexed":false,"internalType":"bool","name":"isUSDC","type":"bool"}],"name":"logGroupClosed","type":"event"},{"anonymous":false,"inputs":[{"indexed":true,"internalType":"uint256","name":"groupId","type":"uint256"},{"indexed":true,"internalType":"address","name":"owner","type":"address"},{"indexed":true,"internalType":"string","name":"groupName","type":"string"},{"indexed":false,"internalType":"uint256","name":"creationTime","type":"uint256"},{"indexed":false,"internalType":"bool","name":"isUSDC","type":"bool"}],"name":"logGroupCreated","type":"event"},{"anonymous":false,"inputs":[{"indexed":true,"internalType":"uint256","name":"groupId","type":"uint256"},{"indexed":true,"internalType":"address","name":"participant","type":"address"},{"indexed":false,"internalType":"string","name":"nickname","type":"string"},{"indexed":false,"internalType":"uint256","name":"deposit","type":"uint256"},{"indexed":false,"internalType":"bool","name":"isUSDC","type":"bool"}],"name":"logGroupDepositReceived","type":"event"},{"anonymous":false,"inputs":[{"indexed":true,"internalType":"uint256","name":"groupId","type":"uint256"},{"indexed":true,"internalType":"address","name":"owner","type":"address"},{"indexed":true,"internalType":"string","name":"groupName","type":"string"},{"indexed":false,"internalType":"uint256","name":"openingTime","type":"uint256"},{"indexed":false,"internalType":"bool","name":"isUSDC","type":"bool"}],"name":"logGroupOpened","type":"event"},{"anonymous":false,"inputs":[{"indexed":true,"internalType":"uint256","name":"groupId","type":"uint256"},{"indexed":false,"internalType":"uint256","name":"amountWithdrawn","type":"uint256"},{"indexed":false,"internalType":"uint256","name":"time","type":"uint256"},{"indexed":false,"internalType":"uint256","name":"totalCollected","type":"uint256"},{"indexed":false,"internalType":"uint256","name":"totalWithdrawn","type":"uint256"},{"indexed":false,"internalType":"bool","name":"isUSDC","type":"bool"}],"name":"logGroupWithdrawal","type":"event"},{"anonymous":false,"inputs":[{"indexed":true,"internalType":"uint256","name":"groupId","type":"uint256"},{"indexed":true,"internalType":"address","name":"owner","type":"address"},{"indexed":false,"internalType":"uint256","name":"amount","type":"uint256"},{"indexed":false,"internalType":"bool","name":"isUSDC","type":"bool"}],"name":"logWithdrawalFailed","type":"event"},{"inputs":[],"name":"USDC","outputs":[{"internalType":"contract IERC20","name":"","type":"address"}],"stateMutability":"view","type":"function"},{"inputs":[],"name":"activeGroups","outputs":[{"internalType":"uint256","name":"","type":"uint256"}],"stateMutability":"view","type":"function"},{"inputs":[{"internalType":"uint256","name":"_groupId","type":"uint256"},{"internalType":"address","name":"_participantAddress","type":"address"},{"internalType":"string","name":"_nickname","type":"string"},{"internalType":"uint256","name":"_deposit","type":"uint256"}],"name":"addParticipantToGroup","outputs":[],"stateMutability":"nonpayable","type":"function"},{"inputs":[{"internalType":"string","name":"_groupName","type":"string"},{"internalType":"string","name":"_ownerNickname","type":"string"},{"internalType":"bool","name":"isUSDC","type":"bool"}],"name":"createGroup","outputs":[],"stateMutability":"nonpayable","type":"function"},{"inputs":[{"internalType":"uint256","name":"_groupId","type":"uint256"},{"internalType":"string","name":"_nickname","type":"string"},{"internalType":"bool","name":"isUSDCDeposit","type":"bool"},{"internalType":"uint256","name":"usdcAmount","type":"uint256"}],"name":"depositToGroup","outputs":[],"stateMutability":"payable","type":"function"},{"inputs":[],"name":"getActivegroups","outputs":[{"internalType":"uint256","name":"","type":"uint256"}],"stateMutability":"view","type":"function"},{"inputs":[],"name":"getAllGroupIds","outputs":[{"internalType":"uint256[]","name":"","type":"uint256[]"}],"stateMutability":"view","type":"function"},{"inputs":[{"internalType":"uint256","name":"_groupId","type":"uint256"}],"name":"getGroupIndexById","outputs":[{"internalType":"uint256","name":"","type":"uint256"}],"stateMutability":"view","type":"function"},{"inputs":[{"internalType":"uint256","name":"_groupId","type":"uint256"}],"name":"getGroupInfoById","outputs":[{"internalType":"uint256","name":"","type":"uint256"},{"internalType":"string","name":"","type":"string"},{"internalType":"bool","name":"","type":"bool"},{"internalType":"address","name":"","type":"address"},{"internalType":"string","name":"","type":"string"},{"internalType":"uint256","name":"","type":"uint256"},{"internalType":"uint256","name":"","type":"uint256"},{"internalType":"uint256","name":"","type":"uint256"},{"internalType":"uint256","name":"","type":"uint256"},{"internalType":"uint256","name":"","type":"uint256"},{"internalType":"address[]","name":"","type":"address[]"}],"stateMutability":"view","type":"function"},{"inputs":[],"name":"getGroupsNum","outputs":[{"internalType":"uint256","name":"","type":"uint256"}],"stateMutability":"view","type":"function"},{"inputs":[{"internalType":"uint256","name":"_groupId","type":"uint256"},{"internalType":"address","name":"_participantAddress","type":"address"}],"name":"getParticipantDetails","outputs":[{"internalType":"address","name":"participantAddress","type":"address"},{"internalType":"string","name":"nickname","type":"string"},{"internalType":"uint256","name":"totalDeposits","type":"uint256"}],"stateMutability":"view","type":"function"},{"inputs":[{"internalType":"uint256","name":"","type":"uint256"}],"name":"groupIds","outputs":[{"internalType":"uint256","name":"","type":"uint256"}],"stateMutability":"view","type":"function"},{"inputs":[{"internalType":"uint256","name":"","type":"uint256"}],"name":"groups","outputs":[{"internalType":"uint256","name":"groupId","type":"uint256"},{"internalType":"string","name":"groupName","type":"string"},{"internalType":"bool","name":"isUSDC","type":"bool"},{"internalType":"uint256","name":"status","type":"uint256"},{"internalType":"uint256","name":"creationTime","type":"uint256"},{"internalType":"address","name":"owner","type":"address"},{"internalType":"string","name":"ownerNickname","type":"string"},{"internalType":"uint256","name":"balance","type":"uint256"},{"internalType":"uint256","name":"totalCollected","type":"uint256"},{"internalType":"uint256","name":"totalWithdrawn","type":"uint256"}],"stateMutability":"view","type":"function"},{"inputs":[{"internalType":"uint256","name":"_groupId","type":"uint256"}],"name":"withdrawFromGroup","outputs":[],"stateMutability":"payable","type":"function"}],"evm":{"bytecode":{"linkReferences":{},"object":"6080604052600060035534801561001557600080fd5b50604051611b93380380611b9383398101604081905261003491610064565b6000805460010181558052600480546001600160a01b0319166001600160a01b0392909216919091179055610094565b60006020828403121561007657600080fd5b81516001600160a01b038116811461008d57600080fd5b9392505050565b611af0806100a36000396000f3fe6080604052600436106100dd5760003560e01c806389a302711161007f578063a30013e111610059578063a30013e114610266578063c974495014610286578063d0e4567e146102a6578063f35ea5d0146102bc57600080fd5b806389a30271146101e357806396324bd41461021b578063a2a4498b1461025157600080fd5b806332bee467116100bb57806332bee4671461015f5780634093d7a11461018e5780635d39c56b146101ae5780636d145730146101c357600080fd5b80630636f5d4146100e25780632e3dcc06146101065780632f14f6c914610128575b600080fd5b3480156100ee57600080fd5b506003545b6040519081526020015b60405180910390f35b34801561011257600080fd5b5061011b6102cf565b6040516100fd919061134d565b34801561013457600080fd5b50610148610143366004611391565b610327565b6040516100fd9b9a999897969594939291906113fa565b34801561016b57600080fd5b5061017f61017a3660046114d3565b61055a565b6040516100fd939291906114ff565b34801561019a57600080fd5b506100f36101a9366004611391565b6106da565b3480156101ba57600080fd5b506000546100f3565b3480156101cf57600080fd5b506100f36101de366004611391565b6106fb565b3480156101ef57600080fd5b50600454610203906001600160a01b031681565b6040516001600160a01b0390911681526020016100fd565b34801561022757600080fd5b5061023b610236366004611391565b610762565b6040516100fd9a99989796959493929190611533565b61026461025f366004611391565b6108e4565b005b34801561027257600080fd5b5061026461028136600461165f565b610cc6565b34801561029257600080fd5b506102646102a13660046116d7565b610e86565b3480156102b257600080fd5b506100f360035481565b6102646102ca366004611736565b611025565b6060600180548060200260200160405190810160405280929190818152602001828054801561031d57602002820191906000526020600020905b815481526020019060010190808311610309575b5050505050905090565b6000606060008060606000806000806000606060006103458d6106fb565b9050600080828154811061035b5761035b611797565b90600052602060002090600c020190508060000154816001018260020160009054906101000a900460ff168360050160009054906101000a90046001600160a01b031684600601856004015486600301548760070154886008015489600901548a600a018980546103cb906117ad565b80601f01602080910402602001604051908101604052809291908181526020018280546103f7906117ad565b80156104445780601f1061041957610100808354040283529160200191610444565b820191906000526020600020905b81548152906001019060200180831161042757829003601f168201915b50505050509950868054610457906117ad565b80601f0160208091040260200160405190810160405280929190818152602001828054610483906117ad565b80156104d05780601f106104a5576101008083540402835291602001916104d0565b820191906000526020600020905b8154815290600101906020018083116104b357829003601f168201915b505050505096508080548060200260200160405190810160405280929190818152602001828054801561052c57602002820191906000526020600020905b81546001600160a01b0316815260019091019060200180831161050e575b505050505090509c509c509c509c509c509c509c509c509c509c509c50505091939597999b90929496989a50565b6000606060008061056a866106fb565b9050600080828154811061058057610580611797565b600091825260208083206001600160a01b038a81168552600c9390930201600b810182526040808520815160608101909252805490941681526001840180549296509093928401916105d1906117ad565b80601f01602080910402602001604051908101604052809291908181526020018280546105fd906117ad565b801561064a5780601f1061061f5761010080835404028352916020019161064a565b820191906000526020600020905b81548152906001019060200180831161062d57829003601f168201915b50505091835250506002919091015460209091015280519091506001600160a01b03166106be5760405162461bcd60e51b815260206004820152601a60248201527f5061727469636970616e7420646f6573206e6f7420657869737400000000000060448201526064015b60405180910390fd5b8051602082015160409092015190999198509650945050505050565b600181815481106106ea57600080fd5b600091825260209091200154905081565b600081815260026020526040812054810361074f5760405162461bcd60e51b815260206004820152601460248201527311dc9bdd5c08191bd95cc81b9bdd08195e1a5cdd60621b60448201526064016106b5565b5060009081526002602052604090205490565b6000818154811061077257600080fd5b60009182526020909120600c90910201805460018201805491935090610797906117ad565b80601f01602080910402602001604051908101604052809291908181526020018280546107c3906117ad565b80156108105780601f106107e557610100808354040283529160200191610810565b820191906000526020600020905b8154815290600101906020018083116107f357829003601f168201915b5050506002840154600385015460048601546005870154600688018054979860ff909516979396509194506001600160a01b0316929161084f906117ad565b80601f016020809104026020016040519081016040528092919081815260200182805461087b906117ad565b80156108c85780601f1061089d576101008083540402835291602001916108c8565b820191906000526020600020905b8154815290600101906020018083116108ab57829003601f168201915b505050505090806007015490806008015490806009015490508a565b60006108ef826106fb565b9050600080828154811061090557610905611797565b60009182526020909120600c9091020160058101549091506001600160a01b031633146109745760405162461bcd60e51b815260206004820152601d60248201527f4f6e6c792067726f7570206f776e65722063616e20776974686472617700000060448201526064016106b5565b60008160070154116109c15760405162461bcd60e51b81526020600482015260166024820152754e6f2062616c616e636520746f20776974686472617760501b60448201526064016106b5565b60008082600701549050808360090160008282546109df91906117fd565b909155505060006007840155600283015460ff1615610ac05760048054600585015460405163a9059cbb60e01b81526001600160a01b039182169381019390935260248301849052169063a9059cbb906044016020604051808303816000875af1158015610a51573d6000803e3d6000fd5b505050506040513d601f19601f82011682018060405250810190610a759190611816565b915081610abb5760405162461bcd60e51b81526020600482015260146024820152731554d110c8151c985b9cd9995c8819985a5b195960621b60448201526064016106b5565b610b5d565b60058301546040516001600160a01b03909116908290600081818185875af1925050503d8060008114610b0f576040519150601f19603f3d011682016040523d82523d6000602084013e610b14565b606091505b50508092505081610b5d5760405162461bcd60e51b815260206004820152601360248201527211551208151c985b9cd9995c8819985a5b1959606a1b60448201526064016106b5565b81610be65780836007018190555080836009016000828254610b7f919061183a565b90915550506005830154600784015460028501546040805192835260ff909116151560208301526001600160a01b039092169187917f2f78437c72aa947f251fe01f835b4450a48d4b480aed48c6ec52096b66bcf995910160405180910390a35050505050565b600160038401556008830154600984015460028501546040805185815242602082015290810193909352606083019190915260ff161515608082015285907f4737f4b5f110339198b10ac9c9ecc84dda24e5e07af201b6228e352bf22b80789060a00160405180910390a282600101604051610c62919061184d565b604080519182900382206005860154600287015442855260ff161515602085015290926001600160a01b039091169188917f258a2e08c90ae0f3b8822777e4a046207be1faf120cf603acd32c2b82427765291015b60405180910390a45050505050565b600080546001818101835582805260038054600c9093027f290decd9548b62a8d60345a988386fc84ba6bc95484008f6362f93160ef3e56301939192909190610d109084906117fd565b9091555050600054604051610d3191869133918791429144916020016118c3565b60408051601f198184030181529190528051602090910120815560018101610d59858261196f565b506005810180546001600160a01b0319163317905560068101610d7c848261196f565b504260048201556002600382018190556000600783018190556008830181905560098301819055908201805460ff19168415151790558054610dc09060019061183a565b8254600090815260026020526040812082905583546001805480820182559083527fb10e2d527612073b26eecdfd717e6a320cf44b4afac2b0732d9fcbe2b7fa0cf601558354919250610e17919033908790610e86565b81600101604051610e28919061184d565b60408051918290038220600585015485546004870154600288015490865260ff161515602086015291936001600160a01b03909116927f349b4d94306c01936126a1bde7b3c123a28136a2c761880ad044f5cade7a5a4d9101610cb7565b6000610e91856106fb565b90508460008281548110610ea757610ea7611797565b90600052602060002090600c02016000015414610efd5760405162461bcd60e51b815260206004820152601460248201527311dc9bdd5c08191bd95cc81b9bdd08195e1a5cdd60621b60448201526064016106b5565b6000808281548110610f1157610f11611797565b600091825260208083206001600160a01b038981168552600c9390930201600b81019091526040909220549192501615610f7d576001600160a01b0385166000908152600b8201602052604081206002018054859290610f729084906117fd565b9091555061101d9050565b604080516060810182526001600160a01b0387811680835260208084018981528486018990526000928352600b8701909152939020825181546001600160a01b03191692169190911781559151909182916001820190610fdd908261196f565b506040919091015160029091015550600a81018054600181018255600091825260209091200180546001600160a01b0319166001600160a01b0387161790555b505050505050565b836000611031826106fb565b905060026000828154811061104857611048611797565b90600052602060002090600c020160030154146110995760405162461bcd60e51b815260206004820152600f60248201526e11dc9bdd5c081a5cc818db1bdcd959608a1b60448201526064016106b5565b60006110a4876106fb565b905060008082815481106110ba576110ba611797565b600091825260209091206002600c909202019081015490915060ff161515861515146111345760405162461bcd60e51b815260206004820152602360248201527f496e76616c6964206465706f736974207479706520666f72207468697320677260448201526206f75760ec1b60648201526084016106b5565b60008615611296576000861161115c5760405162461bcd60e51b81526004016106b590611a2f565b60048054604051636eb1769f60e11b815233928101929092523060248301526001600160a01b03169063dd62ed3e90604401602060405180830381865afa1580156111ab573d6000803e3d6000fd5b505050506040513d601f19601f820116820180604052508101906111cf9190611a77565b50600480546040516323b872dd60e01b81523392810192909252306024830152604482018890526001600160a01b0316906323b872dd906064016020604051808303816000875af1158015611228573d6000803e3d6000fd5b505050506040513d601f19601f8201168201806040525081019061124c9190611816565b61128f5760405162461bcd60e51b81526020600482015260146024820152731554d110c8151c985b9cd9995c8819985a5b195960621b60448201526064016106b5565b50846112b9565b600034116112b65760405162461bcd60e51b81526004016106b590611a2f565b50345b6112c589338a84610e86565b808260070160008282546112d991906117fd565b92505081905550808260080160008282546112f491906117fd565b9091555050600282015460405133918b917fb5493b1023d3022b165a5630e4e5d5368e76adb463e90c2020a7a3d3b31606b89161133a918d91879160ff90911690611a90565b60405180910390a3505050505050505050565b6020808252825182820181905260009190848201906040850190845b8181101561138557835183529284019291840191600101611369565b50909695505050505050565b6000602082840312156113a357600080fd5b5035919050565b60005b838110156113c55781810151838201526020016113ad565b50506000910152565b600081518084526113e68160208601602086016113aa565b601f01601f19169290920160200192915050565b60006101608d8352602081818501526114158285018f6113ce565b8d151560408601526001600160a01b038d811660608701528582036080870152909250611442838d6113ce565b92508a60a08601528960c08601528860e086015287610100860152866101208601528483036101408601528286518085528385019150838801945060005b8181101561149e578551841683529484019491840191600101611480565b5050809450505050509c9b505050505050505050505050565b80356001600160a01b03811681146114ce57600080fd5b919050565b600080604083850312156114e657600080fd5b823591506114f6602084016114b7565b90509250929050565b6001600160a01b0384168152606060208201819052600090611523908301856113ce565b9050826040830152949350505050565b60006101408c835280602084015261154d8184018d6113ce565b8b15156040850152606084018b9052608084018a90526001600160a01b03891660a085015283810360c0850152905061158681886113ce565b60e0840196909652505061010081019290925261012090910152979650505050505050565b634e487b7160e01b600052604160045260246000fd5b600082601f8301126115d257600080fd5b813567ffffffffffffffff808211156115ed576115ed6115ab565b604051601f8301601f19908116603f01168101908282118183101715611615576116156115ab565b8160405283815286602085880101111561162e57600080fd5b836020870160208301376000602085830101528094505050505092915050565b801515811461165c57600080fd5b50565b60008060006060848603121561167457600080fd5b833567ffffffffffffffff8082111561168c57600080fd5b611698878388016115c1565b945060208601359150808211156116ae57600080fd5b506116bb868287016115c1565b92505060408401356116cc8161164e565b809150509250925092565b600080600080608085870312156116ed57600080fd5b843593506116fd602086016114b7565b9250604085013567ffffffffffffffff81111561171957600080fd5b611725878288016115c1565b949793965093946060013593505050565b6000806000806080858703121561174c57600080fd5b84359350602085013567ffffffffffffffff81111561176a57600080fd5b611776878288016115c1565b93505060408501356117878161164e565b9396929550929360600135925050565b634e487b7160e01b600052603260045260246000fd5b600181811c908216806117c157607f821691505b6020821081036117e157634e487b7160e01b600052602260045260246000fd5b50919050565b634e487b7160e01b600052601160045260246000fd5b80820180821115611810576118106117e7565b92915050565b60006020828403121561182857600080fd5b81516118338161164e565b9392505050565b81810381811115611810576118106117e7565b600080835461185b816117ad565b600182811680156118735760018114611888576118b7565b60ff19841687528215158302870194506118b7565b8760005260208060002060005b858110156118ae5781548a820152908401908201611895565b50505082870194505b50929695505050505050565b600087516118d5818460208c016113aa565b606088901b6bffffffffffffffffffffffff19169083019081528651611902816014840160208b016113aa565b0160148101959095525050603483019190915260548201526074019392505050565b601f82111561196a57600081815260208120601f850160051c8101602086101561194b5750805b601f850160051c820191505b8181101561101d57828155600101611957565b505050565b815167ffffffffffffffff811115611989576119896115ab565b61199d8161199784546117ad565b84611924565b602080601f8311600181146119d257600084156119ba5750858301515b600019600386901b1c1916600185901b17855561101d565b600085815260208120601f198616915b82811015611a01578886015182559484019460019091019084016119e2565b5085821015611a1f5787850151600019600388901b60f8161c191681555b5050505050600190811b01905550565b60208082526028908201527f4465706f73697420616d6f756e74206d7573742062652067726561746572207460408201526768616e207a65726f60c01b606082015260800190565b600060208284031215611a8957600080fd5b5051919050565b606081526000611aa360608301866113ce565b60208301949094525090151560409091015291905056fea26469706673582212204661ab9bea340c5397a0674b8ce1346a2bdaa8e832c93e81a13801936f0a698564736f6c63430008140033","opcodes":"PUSH1 0x80 PUSH1 0x40 MSTORE PUSH1 0x0 PUSH1 0x3 SSTORE CALLVALUE DUP1 ISZERO PUSH2 0x15 JUMPI PUSH1 0x0 DUP1 REVERT JUMPDEST POP PUSH1 0x40 MLOAD PUSH2 0x1B93 CODESIZE SUB DUP1 PUSH2 0x1B93 DUP4 CODECOPY DUP2 ADD PUSH1 0x40 DUP2 SWAP1 MSTORE PUSH2 0x34 SWAP2 PUSH2 0x64 JUMP JUMPDEST PUSH1 0x0 DUP1 SLOAD PUSH1 0x1 ADD DUP2 SSTORE DUP1 MSTORE PUSH1 0x4 DUP1 SLOAD PUSH1 0x1 PUSH1 0x1 PUSH1 0xA0 SHL SUB NOT AND PUSH1 0x1 PUSH1 0x1 PUSH1 0xA0 SHL SUB SWAP3 SWAP1 SWAP3 AND SWAP2 SWAP1 SWAP2 OR SWAP1 SSTORE PUSH2 0x94 JUMP JUMPDEST PUSH1 0x0 PUSH1 0x20 DUP3 DUP5 SUB SLT ISZERO PUSH2 0x76 JUMPI PUSH1 0x0 DUP1 REVERT JUMPDEST DUP2 MLOAD PUSH1 0x1 PUSH1 0x1 PUSH1 0xA0 SHL SUB DUP2 AND DUP2 EQ PUSH2 0x8D JUMPI PUSH1 0x0 DUP1 REVERT JUMPDEST SWAP4 SWAP3 POP POP POP JUMP JUMPDEST PUSH2 0x1AF0 DUP1 PUSH2 0xA3 PUSH1 0x0 CODECOPY PUSH1 0x0 RETURN INVALID PUSH1 0x80 PUSH1 0x40 MSTORE PUSH1 0x4 CALLDATASIZE LT PUSH2 0xDD JUMPI PUSH1 0x0 CALLDATALOAD PUSH1 0xE0 SHR DUP1 PUSH4 0x89A30271 GT PUSH2 0x7F JUMPI DUP1 PUSH4 0xA30013E1 GT PUSH2 0x59 JUMPI DUP1 PUSH4 0xA30013E1 EQ PUSH2 0x266 JUMPI DUP1 PUSH4 0xC9744950 EQ PUSH2 0x286 JUMPI DUP1 PUSH4 0xD0E4567E EQ PUSH2 0x2A6 JUMPI DUP1 PUSH4 0xF35EA5D0 EQ PUSH2 0x2BC JUMPI PUSH1 0x0 DUP1 REVERT JUMPDEST DUP1 PUSH4 0x89A30271 EQ PUSH2 0x1E3 JUMPI DUP1 PUSH4 0x96324BD4 EQ PUSH2 0x21B JUMPI DUP1 PUSH4 0xA2A4498B EQ PUSH2 0x251 JUMPI PUSH1 0x0 DUP1 REVERT JUMPDEST DUP1 PUSH4 0x32BEE467 GT PUSH2 0xBB JUMPI DUP1 PUSH4 0x32BEE467 EQ PUSH2 0x15F JUMPI DUP1 PUSH4 0x4093D7A1 EQ PUSH2 0x18E JUMPI DUP1 PUSH4 0x5D39C56B EQ PUSH2 0x1AE JUMPI DUP1 PUSH4 0x6D145730 EQ PUSH2 0x1C3 JUMPI PUSH1 0x0 DUP1 REVERT JUMPDEST DUP1 PUSH4 0x636F5D4 EQ PUSH2 0xE2 JUMPI DUP1 PUSH4 0x2E3DCC06 EQ PUSH2 0x106 JUMPI DUP1 PUSH4 0x2F14F6C9 EQ PUSH2 0x128 JUMPI JUMPDEST PUSH1 0x0 DUP1 REVERT JUMPDEST CALLVALUE DUP1 ISZERO PUSH2 0xEE JUMPI PUSH1 0x0 DUP1 REVERT JUMPDEST POP PUSH1 0x3 SLOAD JUMPDEST PUSH1 0x40 MLOAD SWAP1 DUP2 MSTORE PUSH1 0x20 ADD JUMPDEST PUSH1 0x40 MLOAD DUP1 SWAP2 SUB SWAP1 RETURN JUMPDEST CALLVALUE DUP1 ISZERO PUSH2 0x112 JUMPI PUSH1 0x0 DUP1 REVERT JUMPDEST POP PUSH2 0x11B PUSH2 0x2CF JUMP JUMPDEST PUSH1 0x40 MLOAD PUSH2 0xFD SWAP2 SWAP1 PUSH2 0x134D JUMP JUMPDEST CALLVALUE DUP1 ISZERO PUSH2 0x134 JUMPI PUSH1 0x0 DUP1 REVERT JUMPDEST POP PUSH2 0x148 PUSH2 0x143 CALLDATASIZE PUSH1 0x4 PUSH2 0x1391 JUMP JUMPDEST PUSH2 0x327 JUMP JUMPDEST PUSH1 0x40 MLOAD PUSH2 0xFD SWAP12 SWAP11 SWAP10 SWAP9 SWAP8 SWAP7 SWAP6 SWAP5 SWAP4 SWAP3 SWAP2 SWAP1 PUSH2 0x13FA JUMP JUMPDEST CALLVALUE DUP1 ISZERO PUSH2 0x16B JUMPI PUSH1 0x0 DUP1 REVERT JUMPDEST POP PUSH2 0x17F PUSH2 0x17A CALLDATASIZE PUSH1 0x4 PUSH2 0x14D3 JUMP JUMPDEST PUSH2 0x55A JUMP JUMPDEST PUSH1 0x40 MLOAD PUSH2 0xFD SWAP4 SWAP3 SWAP2 SWAP1 PUSH2 0x14FF JUMP JUMPDEST CALLVALUE DUP1 ISZERO PUSH2 0x19A JUMPI PUSH1 0x0 DUP1 REVERT JUMPDEST POP PUSH2 0xF3 PUSH2 0x1A9 CALLDATASIZE PUSH1 0x4 PUSH2 0x1391 JUMP JUMPDEST PUSH2 0x6DA JUMP JUMPDEST CALLVALUE DUP1 ISZERO PUSH2 0x1BA JUMPI PUSH1 0x0 DUP1 REVERT JUMPDEST POP PUSH1 0x0 SLOAD PUSH2 0xF3 JUMP JUMPDEST CALLVALUE DUP1 ISZERO PUSH2 0x1CF JUMPI PUSH1 0x0 DUP1 REVERT JUMPDEST POP PUSH2 0xF3 PUSH2 0x1DE CALLDATASIZE PUSH1 0x4 PUSH2 0x1391 JUMP JUMPDEST PUSH2 0x6FB JUMP JUMPDEST CALLVALUE DUP1 ISZERO PUSH2 0x1EF JUMPI PUSH1 0x0 DUP1 REVERT JUMPDEST POP PUSH1 0x4 SLOAD PUSH2 0x203 SWAP1 PUSH1 0x1 PUSH1 0x1 PUSH1 0xA0 SHL SUB AND DUP2 JUMP JUMPDEST PUSH1 0x40 MLOAD PUSH1 0x1 PUSH1 0x1 PUSH1 0xA0 SHL SUB SWAP1 SWAP2 AND DUP2 MSTORE PUSH1 0x20 ADD PUSH2 0xFD JUMP JUMPDEST CALLVALUE DUP1 ISZERO PUSH2 0x227 JUMPI PUSH1 0x0 DUP1 REVERT JUMPDEST POP PUSH2 0x23B PUSH2 0x236 CALLDATASIZE PUSH1 0x4 PUSH2 0x1391 JUMP JUMPDEST PUSH2 0x762 JUMP JUMPDEST PUSH1 0x40 MLOAD PUSH2 0xFD SWAP11 SWAP10 SWAP9 SWAP8 SWAP7 SWAP6 SWAP5 SWAP4 SWAP3 SWAP2 SWAP1 PUSH2 0x1533 JUMP JUMPDEST PUSH2 0x264 PUSH2 0x25F CALLDATASIZE PUSH1 0x4 PUSH2 0x1391 JUMP JUMPDEST PUSH2 0x8E4 JUMP JUMPDEST STOP JUMPDEST CALLVALUE DUP1 ISZERO PUSH2 0x272 JUMPI PUSH1 0x0 DUP1 REVERT JUMPDEST POP PUSH2 0x264 PUSH2 0x281 CALLDATASIZE PUSH1 0x4 PUSH2 0x165F JUMP JUMPDEST PUSH2 0xCC6 JUMP JUMPDEST CALLVALUE DUP1 ISZERO PUSH2 0x292 JUMPI PUSH1 0x0 DUP1 REVERT JUMPDEST POP PUSH2 0x264 PUSH2 0x2A1 CALLDATASIZE PUSH1 0x4 PUSH2 0x16D7 JUMP JUMPDEST PUSH2 0xE86 JUMP JUMPDEST CALLVALUE DUP1 ISZERO PUSH2 0x2B2 JUMPI PUSH1 0x0 DUP1 REVERT JUMPDEST POP PUSH2 0xF3 PUSH1 0x3 SLOAD DUP2 JUMP JUMPDEST PUSH2 0x264 PUSH2 0x2CA CALLDATASIZE PUSH1 0x4 PUSH2 0x1736 JUMP JUMPDEST PUSH2 0x1025 JUMP JUMPDEST PUSH1 0x60 PUSH1 0x1 DUP1 SLOAD DUP1 PUSH1 0x20 MUL PUSH1 0x20 ADD PUSH1 0x40 MLOAD SWAP1 DUP2 ADD PUSH1 0x40 MSTORE DUP1 SWAP3 SWAP2 SWAP1 DUP2 DUP2 MSTORE PUSH1 0x20 ADD DUP3 DUP1 SLOAD DUP1 ISZERO PUSH2 0x31D JUMPI PUSH1 0x20 MUL DUP3 ADD SWAP2 SWAP1 PUSH1 0x0 MSTORE PUSH1 0x20 PUSH1 0x0 KECCAK256 SWAP1 JUMPDEST DUP2 SLOAD DUP2 MSTORE PUSH1 0x20 ADD SWAP1 PUSH1 0x1 ADD SWAP1 DUP1 DUP4 GT PUSH2 0x309 JUMPI JUMPDEST POP POP POP POP POP SWAP1 POP SWAP1 JUMP JUMPDEST PUSH1 0x0 PUSH1 0x60 PUSH1 0x0 DUP1 PUSH1 0x60 PUSH1 0x0 DUP1 PUSH1 0x0 DUP1 PUSH1 0x0 PUSH1 0x60 PUSH1 0x0 PUSH2 0x345 DUP14 PUSH2 0x6FB JUMP JUMPDEST SWAP1 POP PUSH1 0x0 DUP1 DUP3 DUP2 SLOAD DUP2 LT PUSH2 0x35B JUMPI PUSH2 0x35B PUSH2 0x1797 JUMP JUMPDEST SWAP1 PUSH1 0x0 MSTORE PUSH1 0x20 PUSH1 0x0 KECCAK256 SWAP1 PUSH1 0xC MUL ADD SWAP1 POP DUP1 PUSH1 0x0 ADD SLOAD DUP2 PUSH1 0x1 ADD DUP3 PUSH1 0x2 ADD PUSH1 0x0 SWAP1 SLOAD SWAP1 PUSH2 0x100 EXP SWAP1 DIV PUSH1 0xFF AND DUP4 PUSH1 0x5 ADD PUSH1 0x0 SWAP1 SLOAD SWAP1 PUSH2 0x100 EXP SWAP1 DIV PUSH1 0x1 PUSH1 0x1 PUSH1 0xA0 SHL SUB AND DUP5 PUSH1 0x6 ADD DUP6 PUSH1 0x4 ADD SLOAD DUP7 PUSH1 0x3 ADD SLOAD DUP8 PUSH1 0x7 ADD SLOAD DUP9 PUSH1 0x8 ADD SLOAD DUP10 PUSH1 0x9 ADD SLOAD DUP11 PUSH1 0xA ADD DUP10 DUP1 SLOAD PUSH2 0x3CB SWAP1 PUSH2 0x17AD JUMP JUMPDEST DUP1 PUSH1 0x1F ADD PUSH1 0x20 DUP1 SWAP2 DIV MUL PUSH1 0x20 ADD PUSH1 0x40 MLOAD SWAP1 DUP2 ADD PUSH1 0x40 MSTORE DUP1 SWAP3 SWAP2 SWAP1 DUP2 DUP2 MSTORE PUSH1 0x20 ADD DUP3 DUP1 SLOAD PUSH2 0x3F7 SWAP1 PUSH2 0x17AD JUMP JUMPDEST DUP1 ISZERO PUSH2 0x444 JUMPI DUP1 PUSH1 0x1F LT PUSH2 0x419 JUMPI PUSH2 0x100 DUP1 DUP4 SLOAD DIV MUL DUP4 MSTORE SWAP2 PUSH1 0x20 ADD SWAP2 PUSH2 0x444 JUMP JUMPDEST DUP3 ADD SWAP2 SWAP1 PUSH1 0x0 MSTORE PUSH1 0x20 PUSH1 0x0 KECCAK256 SWAP1 JUMPDEST DUP2 SLOAD DUP2 MSTORE SWAP1 PUSH1 0x1 ADD SWAP1 PUSH1 0x20 ADD DUP1 DUP4 GT PUSH2 0x427 JUMPI DUP3 SWAP1 SUB PUSH1 0x1F AND DUP3 ADD SWAP2 JUMPDEST POP POP POP POP POP SWAP10 POP DUP7 DUP1 SLOAD PUSH2 0x457 SWAP1 PUSH2 0x17AD JUMP JUMPDEST DUP1 PUSH1 0x1F ADD PUSH1 0x20 DUP1 SWAP2 DIV MUL PUSH1 0x20 ADD PUSH1 0x40 MLOAD SWAP1 DUP2 ADD PUSH1 0x40 MSTORE DUP1 SWAP3 SWAP2 SWAP1 DUP2 DUP2 MSTORE PUSH1 0x20 ADD DUP3 DUP1 SLOAD PUSH2 0x483 SWAP1 PUSH2 0x17AD JUMP JUMPDEST DUP1 ISZERO PUSH2 0x4D0 JUMPI DUP1 PUSH1 0x1F LT PUSH2 0x4A5 JUMPI PUSH2 0x100 DUP1 DUP4 SLOAD DIV MUL DUP4 MSTORE SWAP2 PUSH1 0x20 ADD SWAP2 PUSH2 0x4D0 JUMP JUMPDEST DUP3 ADD SWAP2 SWAP1 PUSH1 0x0 MSTORE PUSH1 0x20 PUSH1 0x0 KECCAK256 SWAP1 JUMPDEST DUP2 SLOAD DUP2 MSTORE SWAP1 PUSH1 0x1 ADD SWAP1 PUSH1 0x20 ADD DUP1 DUP4 GT PUSH2 0x4B3 JUMPI DUP3 SWAP1 SUB PUSH1 0x1F AND DUP3 ADD SWAP2 JUMPDEST POP POP POP POP POP SWAP7 POP DUP1 DUP1 SLOAD DUP1 PUSH1 0x20 MUL PUSH1 0x20 ADD PUSH1 0x40 MLOAD SWAP1 DUP2 ADD PUSH1 0x40 MSTORE DUP1 SWAP3 SWAP2 SWAP1 DUP2 DUP2 MSTORE PUSH1 0x20 ADD DUP3 DUP1 SLOAD DUP1 ISZERO PUSH2 0x52C JUMPI PUSH1 0x20 MUL DUP3 ADD SWAP2 SWAP1 PUSH1 0x0 MSTORE PUSH1 0x20 PUSH1 0x0 KECCAK256 SWAP1 JUMPDEST DUP2 SLOAD PUSH1 0x1 PUSH1 0x1 PUSH1 0xA0 SHL SUB AND DUP2 MSTORE PUSH1 0x1 SWAP1 SWAP2 ADD SWAP1 PUSH1 0x20 ADD DUP1 DUP4 GT PUSH2 0x50E JUMPI JUMPDEST POP POP POP POP POP SWAP1 POP SWAP13 POP SWAP13 POP SWAP13 POP SWAP13 POP SWAP13 POP SWAP13 POP SWAP13 POP SWAP13 POP SWAP13 POP SWAP13 POP SWAP13 POP POP POP SWAP2 SWAP4 SWAP6 SWAP8 SWAP10 SWAP12 SWAP1 SWAP3 SWAP5 SWAP7 SWAP9 SWAP11 POP JUMP JUMPDEST PUSH1 0x0 PUSH1 0x60 PUSH1 0x0 DUP1 PUSH2 0x56A DUP7 PUSH2 0x6FB JUMP JUMPDEST SWAP1 POP PUSH1 0x0 DUP1 DUP3 DUP2 SLOAD DUP2 LT PUSH2 0x580 JUMPI PUSH2 0x580 PUSH2 0x1797 JUMP JUMPDEST PUSH1 0x0 SWAP2 DUP3 MSTORE PUSH1 0x20 DUP1 DUP4 KECCAK256 PUSH1 0x1 PUSH1 0x1 PUSH1 0xA0 SHL SUB DUP11 DUP2 AND DUP6 MSTORE PUSH1 0xC SWAP4 SWAP1 SWAP4 MUL ADD PUSH1 0xB DUP2 ADD DUP3 MSTORE PUSH1 0x40 DUP1 DUP6 KECCAK256 DUP2 MLOAD PUSH1 0x60 DUP2 ADD SWAP1 SWAP3 MSTORE DUP1 SLOAD SWAP1 SWAP5 AND DUP2 MSTORE PUSH1 0x1 DUP5 ADD DUP1 SLOAD SWAP3 SWAP7 POP SWAP1 SWAP4 SWAP3 DUP5 ADD SWAP2 PUSH2 0x5D1 SWAP1 PUSH2 0x17AD JUMP JUMPDEST DUP1 PUSH1 0x1F ADD PUSH1 0x20 DUP1 SWAP2 DIV MUL PUSH1 0x20 ADD PUSH1 0x40 MLOAD SWAP1 DUP2 ADD PUSH1 0x40 MSTORE DUP1 SWAP3 SWAP2 SWAP1 DUP2 DUP2 MSTORE PUSH1 0x20 ADD DUP3 DUP1 SLOAD PUSH2 0x5FD SWAP1 PUSH2 0x17AD JUMP JUMPDEST DUP1 ISZERO PUSH2 0x64A JUMPI DUP1 PUSH1 0x1F LT PUSH2 0x61F JUMPI PUSH2 0x100 DUP1 DUP4 SLOAD DIV MUL DUP4 MSTORE SWAP2 PUSH1 0x20 ADD SWAP2 PUSH2 0x64A JUMP JUMPDEST DUP3 ADD SWAP2 SWAP1 PUSH1 0x0 MSTORE PUSH1 0x20 PUSH1 0x0 KECCAK256 SWAP1 JUMPDEST DUP2 SLOAD DUP2 MSTORE SWAP1 PUSH1 0x1 ADD SWAP1 PUSH1 0x20 ADD DUP1 DUP4 GT PUSH2 0x62D JUMPI DUP3 SWAP1 SUB PUSH1 0x1F AND DUP3 ADD SWAP2 JUMPDEST POP POP POP SWAP2 DUP4 MSTORE POP POP PUSH1 0x2 SWAP2 SWAP1 SWAP2 ADD SLOAD PUSH1 0x20 SWAP1 SWAP2 ADD MSTORE DUP1 MLOAD SWAP1 SWAP2 POP PUSH1 0x1 PUSH1 0x1 PUSH1 0xA0 SHL SUB AND PUSH2 0x6BE JUMPI PUSH1 0x40 MLOAD PUSH3 0x461BCD PUSH1 0xE5 SHL DUP2 MSTORE PUSH1 0x20 PUSH1 0x4 DUP3 ADD MSTORE PUSH1 0x1A PUSH1 0x24 DUP3 ADD MSTORE PUSH32 0x5061727469636970616E7420646F6573206E6F74206578697374000000000000 PUSH1 0x44 DUP3 ADD MSTORE PUSH1 0x64 ADD JUMPDEST PUSH1 0x40 MLOAD DUP1 SWAP2 SUB SWAP1 REVERT JUMPDEST DUP1 MLOAD PUSH1 0x20 DUP3 ADD MLOAD PUSH1 0x40 SWAP1 SWAP3 ADD MLOAD SWAP1 SWAP10 SWAP2 SWAP9 POP SWAP7 POP SWAP5 POP POP POP POP POP JUMP JUMPDEST PUSH1 0x1 DUP2 DUP2 SLOAD DUP2 LT PUSH2 0x6EA JUMPI PUSH1 0x0 DUP1 REVERT JUMPDEST PUSH1 0x0 SWAP2 DUP3 MSTORE PUSH1 0x20 SWAP1 SWAP2 KECCAK256 ADD SLOAD SWAP1 POP DUP2 JUMP JUMPDEST PUSH1 0x0 DUP2 DUP2 MSTORE PUSH1 0x2 PUSH1 0x20 MSTORE PUSH1 0x40 DUP2 KECCAK256 SLOAD DUP2 SUB PUSH2 0x74F JUMPI PUSH1 0x40 MLOAD PUSH3 0x461BCD PUSH1 0xE5 SHL DUP2 MSTORE PUSH1 0x20 PUSH1 0x4 DUP3 ADD MSTORE PUSH1 0x14 PUSH1 0x24 DUP3 ADD MSTORE PUSH20 0x11DC9BDD5C08191BD95CC81B9BDD08195E1A5CDD PUSH1 0x62 SHL PUSH1 0x44 DUP3 ADD MSTORE PUSH1 0x64 ADD PUSH2 0x6B5 JUMP JUMPDEST POP PUSH1 0x0 SWAP1 DUP2 MSTORE PUSH1 0x2 PUSH1 0x20 MSTORE PUSH1 0x40 SWAP1 KECCAK256 SLOAD SWAP1 JUMP JUMPDEST PUSH1 0x0 DUP2 DUP2 SLOAD DUP2 LT PUSH2 0x772 JUMPI PUSH1 0x0 DUP1 REVERT JUMPDEST PUSH1 0x0 SWAP2 DUP3 MSTORE PUSH1 0x20 SWAP1 SWAP2 KECCAK256 PUSH1 0xC SWAP1 SWAP2 MUL ADD DUP1 SLOAD PUSH1 0x1 DUP3 ADD DUP1 SLOAD SWAP2 SWAP4 POP SWAP1 PUSH2 0x797 SWAP1 PUSH2 0x17AD JUMP JUMPDEST DUP1 PUSH1 0x1F ADD PUSH1 0x20 DUP1 SWAP2 DIV MUL PUSH1 0x20 ADD PUSH1 0x40 MLOAD SWAP1 DUP2 ADD PUSH1 0x40 MSTORE DUP1 SWAP3 SWAP2 SWAP1 DUP2 DUP2 MSTORE PUSH1 0x20 ADD DUP3 DUP1 SLOAD PUSH2 0x7C3 SWAP1 PUSH2 0x17AD JUMP JUMPDEST DUP1 ISZERO PUSH2 0x810 JUMPI DUP1 PUSH1 0x1F LT PUSH2 0x7E5 JUMPI PUSH2 0x100 DUP1 DUP4 SLOAD DIV MUL DUP4 MSTORE SWAP2 PUSH1 0x20 ADD SWAP2 PUSH2 0x810 JUMP JUMPDEST DUP3 ADD SWAP2 SWAP1 PUSH1 0x0 MSTORE PUSH1 0x20 PUSH1 0x0 KECCAK256 SWAP1 JUMPDEST DUP2 SLOAD DUP2 MSTORE SWAP1 PUSH1 0x1 ADD SWAP1 PUSH1 0x20 ADD DUP1 DUP4 GT PUSH2 0x7F3 JUMPI DUP3 SWAP1 SUB PUSH1 0x1F AND DUP3 ADD SWAP2 JUMPDEST POP POP POP PUSH1 0x2 DUP5 ADD SLOAD PUSH1 0x3 DUP6 ADD SLOAD PUSH1 0x4 DUP7 ADD SLOAD PUSH1 0x5 DUP8 ADD SLOAD PUSH1 0x6 DUP9 ADD DUP1 SLOAD SWAP8 SWAP9 PUSH1 0xFF SWAP1 SWAP6 AND SWAP8 SWAP4 SWAP7 POP SWAP2 SWAP5 POP PUSH1 0x1 PUSH1 0x1 PUSH1 0xA0 SHL SUB AND SWAP3 SWAP2 PUSH2 0x84F SWAP1 PUSH2 0x17AD JUMP JUMPDEST DUP1 PUSH1 0x1F ADD PUSH1 0x20 DUP1 SWAP2 DIV MUL PUSH1 0x20 ADD PUSH1 0x40 MLOAD SWAP1 DUP2 ADD PUSH1 0x40 MSTORE DUP1 SWAP3 SWAP2 SWAP1 DUP2 DUP2 MSTORE PUSH1 0x20 ADD DUP3 DUP1 SLOAD PUSH2 0x87B SWAP1 PUSH2 0x17AD JUMP JUMPDEST DUP1 ISZERO PUSH2 0x8C8 JUMPI DUP1 PUSH1 0x1F LT PUSH2 0x89D JUMPI PUSH2 0x100 DUP1 DUP4 SLOAD DIV MUL DUP4 MSTORE SWAP2 PUSH1 0x20 ADD SWAP2 PUSH2 0x8C8 JUMP JUMPDEST DUP3 ADD SWAP2 SWAP1 PUSH1 0x0 MSTORE PUSH1 0x20 PUSH1 0x0 KECCAK256 SWAP1 JUMPDEST DUP2 SLOAD DUP2 MSTORE SWAP1 PUSH1 0x1 ADD SWAP1 PUSH1 0x20 ADD DUP1 DUP4 GT PUSH2 0x8AB JUMPI DUP3 SWAP1 SUB PUSH1 0x1F AND DUP3 ADD SWAP2 JUMPDEST POP POP POP POP POP SWAP1 DUP1 PUSH1 0x7 ADD SLOAD SWAP1 DUP1 PUSH1 0x8 ADD SLOAD SWAP1 DUP1 PUSH1 0x9 ADD SLOAD SWAP1 POP DUP11 JUMP JUMPDEST PUSH1 0x0 PUSH2 0x8EF DUP3 PUSH2 0x6FB JUMP JUMPDEST SWAP1 POP PUSH1 0x0 DUP1 DUP3 DUP2 SLOAD DUP2 LT PUSH2 0x905 JUMPI PUSH2 0x905 PUSH2 0x1797 JUMP JUMPDEST PUSH1 0x0 SWAP2 DUP3 MSTORE PUSH1 0x20 SWAP1 SWAP2 KECCAK256 PUSH1 0xC SWAP1 SWAP2 MUL ADD PUSH1 0x5 DUP2 ADD SLOAD SWAP1 SWAP2 POP PUSH1 0x1 PUSH1 0x1 PUSH1 0xA0 SHL SUB AND CALLER EQ PUSH2 0x974 JUMPI PUSH1 0x40 MLOAD PUSH3 0x461BCD PUSH1 0xE5 SHL DUP2 MSTORE PUSH1 0x20 PUSH1 0x4 DUP3 ADD MSTORE PUSH1 0x1D PUSH1 0x24 DUP3 ADD MSTORE PUSH32 0x4F6E6C792067726F7570206F776E65722063616E207769746864726177000000 PUSH1 0x44 DUP3 ADD MSTORE PUSH1 0x64 ADD PUSH2 0x6B5 JUMP JUMPDEST PUSH1 0x0 DUP2 PUSH1 0x7 ADD SLOAD GT PUSH2 0x9C1 JUMPI PUSH1 0x40 MLOAD PUSH3 0x461BCD PUSH1 0xE5 SHL DUP2 MSTORE PUSH1 0x20 PUSH1 0x4 DUP3 ADD MSTORE PUSH1 0x16 PUSH1 0x24 DUP3 ADD MSTORE PUSH22 0x4E6F2062616C616E636520746F207769746864726177 PUSH1 0x50 SHL PUSH1 0x44 DUP3 ADD MSTORE PUSH1 0x64 ADD PUSH2 0x6B5 JUMP JUMPDEST PUSH1 0x0 DUP1 DUP3 PUSH1 0x7 ADD SLOAD SWAP1 POP DUP1 DUP4 PUSH1 0x9 ADD PUSH1 0x0 DUP3 DUP3 SLOAD PUSH2 0x9DF SWAP2 SWAP1 PUSH2 0x17FD JUMP JUMPDEST SWAP1 SWAP2 SSTORE POP POP PUSH1 0x0 PUSH1 0x7 DUP5 ADD SSTORE PUSH1 0x2 DUP4 ADD SLOAD PUSH1 0xFF AND ISZERO PUSH2 0xAC0 JUMPI PUSH1 0x4 DUP1 SLOAD PUSH1 0x5 DUP6 ADD SLOAD PUSH1 0x40 MLOAD PUSH4 0xA9059CBB PUSH1 0xE0 SHL DUP2 MSTORE PUSH1 0x1 PUSH1 0x1 PUSH1 0xA0 SHL SUB SWAP2 DUP3 AND SWAP4 DUP2 ADD SWAP4 SWAP1 SWAP4 MSTORE PUSH1 0x24 DUP4 ADD DUP5 SWAP1 MSTORE AND SWAP1 PUSH4 0xA9059CBB SWAP1 PUSH1 0x44 ADD PUSH1 0x20 PUSH1 0x40 MLOAD DUP1 DUP4 SUB DUP2 PUSH1 0x0 DUP8 GAS CALL ISZERO DUP1 ISZERO PUSH2 0xA51 JUMPI RETURNDATASIZE PUSH1 0x0 DUP1 RETURNDATACOPY RETURNDATASIZE PUSH1 0x0 REVERT JUMPDEST POP POP POP POP PUSH1 0x40 MLOAD RETURNDATASIZE PUSH1 0x1F NOT PUSH1 0x1F DUP3 ADD AND DUP3 ADD DUP1 PUSH1 0x40 MSTORE POP DUP2 ADD SWAP1 PUSH2 0xA75 SWAP2 SWAP1 PUSH2 0x1816 JUMP JUMPDEST SWAP2 POP DUP2 PUSH2 0xABB JUMPI PUSH1 0x40 MLOAD PUSH3 0x461BCD PUSH1 0xE5 SHL DUP2 MSTORE PUSH1 0x20 PUSH1 0x4 DUP3 ADD MSTORE PUSH1 0x14 PUSH1 0x24 DUP3 ADD MSTORE PUSH20 0x1554D110C8151C985B9CD9995C8819985A5B1959 PUSH1 0x62 SHL PUSH1 0x44 DUP3 ADD MSTORE PUSH1 0x64 ADD PUSH2 0x6B5 JUMP JUMPDEST PUSH2 0xB5D JUMP JUMPDEST PUSH1 0x5 DUP4 ADD SLOAD PUSH1 0x40 MLOAD PUSH1 0x1 PUSH1 0x1 PUSH1 0xA0 SHL SUB SWAP1 SWAP2 AND SWAP1 DUP3 SWAP1 PUSH1 0x0 DUP2 DUP2 DUP2 DUP6 DUP8 GAS CALL SWAP3 POP POP POP RETURNDATASIZE DUP1 PUSH1 0x0 DUP2 EQ PUSH2 0xB0F JUMPI PUSH1 0x40 MLOAD SWAP2 POP PUSH1 0x1F NOT PUSH1 0x3F RETURNDATASIZE ADD AND DUP3 ADD PUSH1 0x40 MSTORE RETURNDATASIZE DUP3 MSTORE RETURNDATASIZE PUSH1 0x0 PUSH1 0x20 DUP5 ADD RETURNDATACOPY PUSH2 0xB14 JUMP JUMPDEST PUSH1 0x60 SWAP2 POP JUMPDEST POP POP DUP1 SWAP3 POP POP DUP2 PUSH2 0xB5D JUMPI PUSH1 0x40 MLOAD PUSH3 0x461BCD PUSH1 0xE5 SHL DUP2 MSTORE PUSH1 0x20 PUSH1 0x4 DUP3 ADD MSTORE PUSH1 0x13 PUSH1 0x24 DUP3 ADD MSTORE PUSH19 0x11551208151C985B9CD9995C8819985A5B1959 PUSH1 0x6A SHL PUSH1 0x44 DUP3 ADD MSTORE PUSH1 0x64 ADD PUSH2 0x6B5 JUMP JUMPDEST DUP2 PUSH2 0xBE6 JUMPI DUP1 DUP4 PUSH1 0x7 ADD DUP2 SWAP1 SSTORE POP DUP1 DUP4 PUSH1 0x9 ADD PUSH1 0x0 DUP3 DUP3 SLOAD PUSH2 0xB7F SWAP2 SWAP1 PUSH2 0x183A JUMP JUMPDEST SWAP1 SWAP2 SSTORE POP POP PUSH1 0x5 DUP4 ADD SLOAD PUSH1 0x7 DUP5 ADD SLOAD PUSH1 0x2 DUP6 ADD SLOAD PUSH1 0x40 DUP1 MLOAD SWAP3 DUP4 MSTORE PUSH1 0xFF SWAP1 SWAP2 AND ISZERO ISZERO PUSH1 0x20 DUP4 ADD MSTORE PUSH1 0x1 PUSH1 0x1 PUSH1 0xA0 SHL SUB SWAP1 SWAP3 AND SWAP2 DUP8 SWAP2 PUSH32 0x2F78437C72AA947F251FE01F835B4450A48D4B480AED48C6EC52096B66BCF995 SWAP2 ADD PUSH1 0x40 MLOAD DUP1 SWAP2 SUB SWAP1 LOG3 POP POP POP POP POP JUMP JUMPDEST PUSH1 0x1 PUSH1 0x3 DUP5 ADD SSTORE PUSH1 0x8 DUP4 ADD SLOAD PUSH1 0x9 DUP5 ADD SLOAD PUSH1 0x2 DUP6 ADD SLOAD PUSH1 0x40 DUP1 MLOAD DUP6 DUP2 MSTORE TIMESTAMP PUSH1 0x20 DUP3 ADD MSTORE SWAP1 DUP2 ADD SWAP4 SWAP1 SWAP4 MSTORE PUSH1 0x60 DUP4 ADD SWAP2 SWAP1 SWAP2 MSTORE PUSH1 0xFF AND ISZERO ISZERO PUSH1 0x80 DUP3 ADD MSTORE DUP6 SWAP1 PUSH32 0x4737F4B5F110339198B10AC9C9ECC84DDA24E5E07AF201B6228E352BF22B8078 SWAP1 PUSH1 0xA0 ADD PUSH1 0x40 MLOAD DUP1 SWAP2 SUB SWAP1 LOG2 DUP3 PUSH1 0x1 ADD PUSH1 0x40 MLOAD PUSH2 0xC62 SWAP2 SWAP1 PUSH2 0x184D JUMP JUMPDEST PUSH1 0x40 DUP1 MLOAD SWAP2 DUP3 SWAP1 SUB DUP3 KECCAK256 PUSH1 0x5 DUP7 ADD SLOAD PUSH1 0x2 DUP8 ADD SLOAD TIMESTAMP DUP6 MSTORE PUSH1 0xFF AND ISZERO ISZERO PUSH1 0x20 DUP6 ADD MSTORE SWAP1 SWAP3 PUSH1 0x1 PUSH1 0x1 PUSH1 0xA0 SHL SUB SWAP1 SWAP2 AND SWAP2 DUP9 SWAP2 PUSH32 0x258A2E08C90AE0F3B8822777E4A046207BE1FAF120CF603ACD32C2B824277652 SWAP2 ADD JUMPDEST PUSH1 0x40 MLOAD DUP1 SWAP2 SUB SWAP1 LOG4 POP POP POP POP POP JUMP JUMPDEST PUSH1 0x0 DUP1 SLOAD PUSH1 0x1 DUP2 DUP2 ADD DUP4 SSTORE DUP3 DUP1 MSTORE PUSH1 0x3 DUP1 SLOAD PUSH1 0xC SWAP1 SWAP4 MUL PUSH32 0x290DECD9548B62A8D60345A988386FC84BA6BC95484008F6362F93160EF3E563 ADD SWAP4 SWAP2 SWAP3 SWAP1 SWAP2 SWAP1 PUSH2 0xD10 SWAP1 DUP5 SWAP1 PUSH2 0x17FD JUMP JUMPDEST SWAP1 SWAP2 SSTORE POP POP PUSH1 0x0 SLOAD PUSH1 0x40 MLOAD PUSH2 0xD31 SWAP2 DUP7 SWAP2 CALLER SWAP2 DUP8 SWAP2 TIMESTAMP SWAP2 PREVRANDAO SWAP2 PUSH1 0x20 ADD PUSH2 0x18C3 JUMP JUMPDEST PUSH1 0x40 DUP1 MLOAD PUSH1 0x1F NOT DUP2 DUP5 SUB ADD DUP2 MSTORE SWAP2 SWAP1 MSTORE DUP1 MLOAD PUSH1 0x20 SWAP1 SWAP2 ADD KECCAK256 DUP2 SSTORE PUSH1 0x1 DUP2 ADD PUSH2 0xD59 DUP6 DUP3 PUSH2 0x196F JUMP JUMPDEST POP PUSH1 0x5 DUP2 ADD DUP1 SLOAD PUSH1 0x1 PUSH1 0x1 PUSH1 0xA0 SHL SUB NOT AND CALLER OR SWAP1 SSTORE PUSH1 0x6 DUP2 ADD PUSH2 0xD7C DUP5 DUP3 PUSH2 0x196F JUMP JUMPDEST POP TIMESTAMP PUSH1 0x4 DUP3 ADD SSTORE PUSH1 0x2 PUSH1 0x3 DUP3 ADD DUP2 SWAP1 SSTORE PUSH1 0x0 PUSH1 0x7 DUP4 ADD DUP2 SWAP1 SSTORE PUSH1 0x8 DUP4 ADD DUP2 SWAP1 SSTORE PUSH1 0x9 DUP4 ADD DUP2 SWAP1 SSTORE SWAP1 DUP3 ADD DUP1 SLOAD PUSH1 0xFF NOT AND DUP5 ISZERO ISZERO OR SWAP1 SSTORE DUP1 SLOAD PUSH2 0xDC0 SWAP1 PUSH1 0x1 SWAP1 PUSH2 0x183A JUMP JUMPDEST DUP3 SLOAD PUSH1 0x0 SWAP1 DUP2 MSTORE PUSH1 0x2 PUSH1 0x20 MSTORE PUSH1 0x40 DUP2 KECCAK256 DUP3 SWAP1 SSTORE DUP4 SLOAD PUSH1 0x1 DUP1 SLOAD DUP1 DUP3 ADD DUP3 SSTORE SWAP1 DUP4 MSTORE PUSH32 0xB10E2D527612073B26EECDFD717E6A320CF44B4AFAC2B0732D9FCBE2B7FA0CF6 ADD SSTORE DUP4 SLOAD SWAP2 SWAP3 POP PUSH2 0xE17 SWAP2 SWAP1 CALLER SWAP1 DUP8 SWAP1 PUSH2 0xE86 JUMP JUMPDEST DUP2 PUSH1 0x1 ADD PUSH1 0x40 MLOAD PUSH2 0xE28 SWAP2 SWAP1 PUSH2 0x184D JUMP JUMPDEST PUSH1 0x40 DUP1 MLOAD SWAP2 DUP3 SWAP1 SUB DUP3 KECCAK256 PUSH1 0x5 DUP6 ADD SLOAD DUP6 SLOAD PUSH1 0x4 DUP8 ADD SLOAD PUSH1 0x2 DUP9 ADD SLOAD SWAP1 DUP7 MSTORE PUSH1 0xFF AND ISZERO ISZERO PUSH1 0x20 DUP7 ADD MSTORE SWAP2 SWAP4 PUSH1 0x1 PUSH1 0x1 PUSH1 0xA0 SHL SUB SWAP1 SWAP2 AND SWAP3 PUSH32 0x349B4D94306C01936126A1BDE7B3C123A28136A2C761880AD044F5CADE7A5A4D SWAP2 ADD PUSH2 0xCB7 JUMP JUMPDEST PUSH1 0x0 PUSH2 0xE91 DUP6 PUSH2 0x6FB JUMP JUMPDEST SWAP1 POP DUP5 PUSH1 0x0 DUP3 DUP2 SLOAD DUP2 LT PUSH2 0xEA7 JUMPI PUSH2 0xEA7 PUSH2 0x1797 JUMP JUMPDEST SWAP1 PUSH1 0x0 MSTORE PUSH1 0x20 PUSH1 0x0 KECCAK256 SWAP1 PUSH1 0xC MUL ADD PUSH1 0x0 ADD SLOAD EQ PUSH2 0xEFD JUMPI PUSH1 0x40 MLOAD PUSH3 0x461BCD PUSH1 0xE5 SHL DUP2 MSTORE PUSH1 0x20 PUSH1 0x4 DUP3 ADD MSTORE PUSH1 0x14 PUSH1 0x24 DUP3 ADD MSTORE PUSH20 0x11DC9BDD5C08191BD95CC81B9BDD08195E1A5CDD PUSH1 0x62 SHL PUSH1 0x44 DUP3 ADD MSTORE PUSH1 0x64 ADD PUSH2 0x6B5 JUMP JUMPDEST PUSH1 0x0 DUP1 DUP3 DUP2 SLOAD DUP2 LT PUSH2 0xF11 JUMPI PUSH2 0xF11 PUSH2 0x1797 JUMP JUMPDEST PUSH1 0x0 SWAP2 DUP3 MSTORE PUSH1 0x20 DUP1 DUP4 KECCAK256 PUSH1 0x1 PUSH1 0x1 PUSH1 0xA0 SHL SUB DUP10 DUP2 AND DUP6 MSTORE PUSH1 0xC SWAP4 SWAP1 SWAP4 MUL ADD PUSH1 0xB DUP2 ADD SWAP1 SWAP2 MSTORE PUSH1 0x40 SWAP1 SWAP3 KECCAK256 SLOAD SWAP2 SWAP3 POP AND ISZERO PUSH2 0xF7D JUMPI PUSH1 0x1 PUSH1 0x1 PUSH1 0xA0 SHL SUB DUP6 AND PUSH1 0x0 SWAP1 DUP2 MSTORE PUSH1 0xB DUP3 ADD PUSH1 0x20 MSTORE PUSH1 0x40 DUP2 KECCAK256 PUSH1 0x2 ADD DUP1 SLOAD DUP6 SWAP3 SWAP1 PUSH2 0xF72 SWAP1 DUP5 SWAP1 PUSH2 0x17FD JUMP JUMPDEST SWAP1 SWAP2 SSTORE POP PUSH2 0x101D SWAP1 POP JUMP JUMPDEST PUSH1 0x40 DUP1 MLOAD PUSH1 0x60 DUP2 ADD DUP3 MSTORE PUSH1 0x1 PUSH1 0x1 PUSH1 0xA0 SHL SUB DUP8 DUP2 AND DUP1 DUP4 MSTORE PUSH1 0x20 DUP1 DUP5 ADD DUP10 DUP2 MSTORE DUP5 DUP7 ADD DUP10 SWAP1 MSTORE PUSH1 0x0 SWAP3 DUP4 MSTORE PUSH1 0xB DUP8 ADD SWAP1 SWAP2 MSTORE SWAP4 SWAP1 KECCAK256 DUP3 MLOAD DUP2 SLOAD PUSH1 0x1 PUSH1 0x1 PUSH1 0xA0 SHL SUB NOT AND SWAP3 AND SWAP2 SWAP1 SWAP2 OR DUP2 SSTORE SWAP2 MLOAD SWAP1 SWAP2 DUP3 SWAP2 PUSH1 0x1 DUP3 ADD SWAP1 PUSH2 0xFDD SWAP1 DUP3 PUSH2 0x196F JUMP JUMPDEST POP PUSH1 0x40 SWAP2 SWAP1 SWAP2 ADD MLOAD PUSH1 0x2 SWAP1 SWAP2 ADD SSTORE POP PUSH1 0xA DUP2 ADD DUP1 SLOAD PUSH1 0x1 DUP2 ADD DUP3 SSTORE PUSH1 0x0 SWAP2 DUP3 MSTORE PUSH1 0x20 SWAP1 SWAP2 KECCAK256 ADD DUP1 SLOAD PUSH1 0x1 PUSH1 0x1 PUSH1 0xA0 SHL SUB NOT AND PUSH1 0x1 PUSH1 0x1 PUSH1 0xA0 SHL SUB DUP8 AND OR SWAP1 SSTORE JUMPDEST POP POP POP POP POP POP JUMP JUMPDEST DUP4 PUSH1 0x0 PUSH2 0x1031 DUP3 PUSH2 0x6FB JUMP JUMPDEST SWAP1 POP PUSH1 0x2 PUSH1 0x0 DUP3 DUP2 SLOAD DUP2 LT PUSH2 0x1048 JUMPI PUSH2 0x1048 PUSH2 0x1797 JUMP JUMPDEST SWAP1 PUSH1 0x0 MSTORE PUSH1 0x20 PUSH1 0x0 KECCAK256 SWAP1 PUSH1 0xC MUL ADD PUSH1 0x3 ADD SLOAD EQ PUSH2 0x1099 JUMPI PUSH1 0x40 MLOAD PUSH3 0x461BCD PUSH1 0xE5 SHL DUP2 MSTORE PUSH1 0x20 PUSH1 0x4 DUP3 ADD MSTORE PUSH1 0xF PUSH1 0x24 DUP3 ADD MSTORE PUSH15 0x11DC9BDD5C081A5CC818DB1BDCD959 PUSH1 0x8A SHL PUSH1 0x44 DUP3 ADD MSTORE PUSH1 0x64 ADD PUSH2 0x6B5 JUMP JUMPDEST PUSH1 0x0 PUSH2 0x10A4 DUP8 PUSH2 0x6FB JUMP JUMPDEST SWAP1 POP PUSH1 0x0 DUP1 DUP3 DUP2 SLOAD DUP2 LT PUSH2 0x10BA JUMPI PUSH2 0x10BA PUSH2 0x1797 JUMP JUMPDEST PUSH1 0x0 SWAP2 DUP3 MSTORE PUSH1 0x20 SWAP1 SWAP2 KECCAK256 PUSH1 0x2 PUSH1 0xC SWAP1 SWAP3 MUL ADD SWAP1 DUP2 ADD SLOAD SWAP1 SWAP2 POP PUSH1 0xFF AND ISZERO ISZERO DUP7 ISZERO ISZERO EQ PUSH2 0x1134 JUMPI PUSH1 0x40 MLOAD PUSH3 0x461BCD PUSH1 0xE5 SHL DUP2 MSTORE PUSH1 0x20 PUSH1 0x4 DUP3 ADD MSTORE PUSH1 0x23 PUSH1 0x24 DUP3 ADD MSTORE PUSH32 0x496E76616C6964206465706F736974207479706520666F722074686973206772 PUSH1 0x44 DUP3 ADD MSTORE PUSH3 0x6F757 PUSH1 0xEC SHL PUSH1 0x64 DUP3 ADD MSTORE PUSH1 0x84 ADD PUSH2 0x6B5 JUMP JUMPDEST PUSH1 0x0 DUP7 ISZERO PUSH2 0x1296 JUMPI PUSH1 0x0 DUP7 GT PUSH2 0x115C JUMPI PUSH1 0x40 MLOAD PUSH3 0x461BCD PUSH1 0xE5 SHL DUP2 MSTORE PUSH1 0x4 ADD PUSH2 0x6B5 SWAP1 PUSH2 0x1A2F JUMP JUMPDEST PUSH1 0x4 DUP1 SLOAD PUSH1 0x40 MLOAD PUSH4 0x6EB1769F PUSH1 0xE1 SHL DUP2 MSTORE CALLER SWAP3 DUP2 ADD SWAP3 SWAP1 SWAP3 MSTORE ADDRESS PUSH1 0x24 DUP4 ADD MSTORE PUSH1 0x1 PUSH1 0x1 PUSH1 0xA0 SHL SUB AND SWAP1 PUSH4 0xDD62ED3E SWAP1 PUSH1 0x44 ADD PUSH1 0x20 PUSH1 0x40 MLOAD DUP1 DUP4 SUB DUP2 DUP7 GAS STATICCALL ISZERO DUP1 ISZERO PUSH2 0x11AB JUMPI RETURNDATASIZE PUSH1 0x0 DUP1 RETURNDATACOPY RETURNDATASIZE PUSH1 0x0 REVERT JUMPDEST POP POP POP POP PUSH1 0x40 MLOAD RETURNDATASIZE PUSH1 0x1F NOT PUSH1 0x1F DUP3 ADD AND DUP3 ADD DUP1 PUSH1 0x40 MSTORE POP DUP2 ADD SWAP1 PUSH2 0x11CF SWAP2 SWAP1 PUSH2 0x1A77 JUMP JUMPDEST POP PUSH1 0x4 DUP1 SLOAD PUSH1 0x40 MLOAD PUSH4 0x23B872DD PUSH1 0xE0 SHL DUP2 MSTORE CALLER SWAP3 DUP2 ADD SWAP3 SWAP1 SWAP3 MSTORE ADDRESS PUSH1 0x24 DUP4 ADD MSTORE PUSH1 0x44 DUP3 ADD DUP9 SWAP1 MSTORE PUSH1 0x1 PUSH1 0x1 PUSH1 0xA0 SHL SUB AND SWAP1 PUSH4 0x23B872DD SWAP1 PUSH1 0x64 ADD PUSH1 0x20 PUSH1 0x40 MLOAD DUP1 DUP4 SUB DUP2 PUSH1 0x0 DUP8 GAS CALL ISZERO DUP1 ISZERO PUSH2 0x1228 JUMPI RETURNDATASIZE PUSH1 0x0 DUP1 RETURNDATACOPY RETURNDATASIZE PUSH1 0x0 REVERT JUMPDEST POP POP POP POP PUSH1 0x40 MLOAD RETURNDATASIZE PUSH1 0x1F NOT PUSH1 0x1F DUP3 ADD AND DUP3 ADD DUP1 PUSH1 0x40 MSTORE POP DUP2 ADD SWAP1 PUSH2 0x124C SWAP2 SWAP1 PUSH2 0x1816 JUMP JUMPDEST PUSH2 0x128F JUMPI PUSH1 0x40 MLOAD PUSH3 0x461BCD PUSH1 0xE5 SHL DUP2 MSTORE PUSH1 0x20 PUSH1 0x4 DUP3 ADD MSTORE PUSH1 0x14 PUSH1 0x24 DUP3 ADD MSTORE PUSH20 0x1554D110C8151C985B9CD9995C8819985A5B1959 PUSH1 0x62 SHL PUSH1 0x44 DUP3 ADD MSTORE PUSH1 0x64 ADD PUSH2 0x6B5 JUMP JUMPDEST POP DUP5 PUSH2 0x12B9 JUMP JUMPDEST PUSH1 0x0 CALLVALUE GT PUSH2 0x12B6 JUMPI PUSH1 0x40 MLOAD PUSH3 0x461BCD PUSH1 0xE5 SHL DUP2 MSTORE PUSH1 0x4 ADD PUSH2 0x6B5 SWAP1 PUSH2 0x1A2F JUMP JUMPDEST POP CALLVALUE JUMPDEST PUSH2 0x12C5 DUP10 CALLER DUP11 DUP5 PUSH2 0xE86 JUMP JUMPDEST DUP1 DUP3 PUSH1 0x7 ADD PUSH1 0x0 DUP3 DUP3 SLOAD PUSH2 0x12D9 SWAP2 SWAP1 PUSH2 0x17FD JUMP JUMPDEST SWAP3 POP POP DUP2 SWAP1 SSTORE POP DUP1 DUP3 PUSH1 0x8 ADD PUSH1 0x0 DUP3 DUP3 SLOAD PUSH2 0x12F4 SWAP2 SWAP1 PUSH2 0x17FD JUMP JUMPDEST SWAP1 SWAP2 SSTORE POP POP PUSH1 0x2 DUP3 ADD SLOAD PUSH1 0x40 MLOAD CALLER SWAP2 DUP12 SWAP2 PUSH32 0xB5493B1023D3022B165A5630E4E5D5368E76ADB463E90C2020A7A3D3B31606B8 SWAP2 PUSH2 0x133A SWAP2 DUP14 SWAP2 DUP8 SWAP2 PUSH1 0xFF SWAP1 SWAP2 AND SWAP1 PUSH2 0x1A90 JUMP JUMPDEST PUSH1 0x40 MLOAD DUP1 SWAP2 SUB SWAP1 LOG3 POP POP POP POP POP POP POP POP POP JUMP JUMPDEST PUSH1 0x20 DUP1 DUP3 MSTORE DUP3 MLOAD DUP3 DUP3 ADD DUP2 SWAP1 MSTORE PUSH1 0x0 SWAP2 SWAP1 DUP5 DUP3 ADD SWAP1 PUSH1 0x40 DUP6 ADD SWAP1 DUP5 JUMPDEST DUP2 DUP2 LT ISZERO PUSH2 0x1385 JUMPI DUP4 MLOAD DUP4 MSTORE SWAP3 DUP5 ADD SWAP3 SWAP2 DUP5 ADD SWAP2 PUSH1 0x1 ADD PUSH2 0x1369 JUMP JUMPDEST POP SWAP1 SWAP7 SWAP6 POP POP POP POP POP POP JUMP JUMPDEST PUSH1 0x0 PUSH1 0x20 DUP3 DUP5 SUB SLT ISZERO PUSH2 0x13A3 JUMPI PUSH1 0x0 DUP1 REVERT JUMPDEST POP CALLDATALOAD SWAP2 SWAP1 POP JUMP JUMPDEST PUSH1 0x0 JUMPDEST DUP4 DUP2 LT ISZERO PUSH2 0x13C5 JUMPI DUP2 DUP2 ADD MLOAD DUP4 DUP3 ADD MSTORE PUSH1 0x20 ADD PUSH2 0x13AD JUMP JUMPDEST POP POP PUSH1 0x0 SWAP2 ADD MSTORE JUMP JUMPDEST PUSH1 0x0 DUP2 MLOAD DUP1 DUP5 MSTORE PUSH2 0x13E6 DUP2 PUSH1 0x20 DUP7 ADD PUSH1 0x20 DUP7 ADD PUSH2 0x13AA JUMP JUMPDEST PUSH1 0x1F ADD PUSH1 0x1F NOT AND SWAP3 SWAP1 SWAP3 ADD PUSH1 0x20 ADD SWAP3 SWAP2 POP POP JUMP JUMPDEST PUSH1 0x0 PUSH2 0x160 DUP14 DUP4 MSTORE PUSH1 0x20 DUP2 DUP2 DUP6 ADD MSTORE PUSH2 0x1415 DUP3 DUP6 ADD DUP16 PUSH2 0x13CE JUMP JUMPDEST DUP14 ISZERO ISZERO PUSH1 0x40 DUP7 ADD MSTORE PUSH1 0x1 PUSH1 0x1 PUSH1 0xA0 SHL SUB DUP14 DUP2 AND PUSH1 0x60 DUP8 ADD MSTORE DUP6 DUP3 SUB PUSH1 0x80 DUP8 ADD MSTORE SWAP1 SWAP3 POP PUSH2 0x1442 DUP4 DUP14 PUSH2 0x13CE JUMP JUMPDEST SWAP3 POP DUP11 PUSH1 0xA0 DUP7 ADD MSTORE DUP10 PUSH1 0xC0 DUP7 ADD MSTORE DUP9 PUSH1 0xE0 DUP7 ADD MSTORE DUP8 PUSH2 0x100 DUP7 ADD MSTORE DUP7 PUSH2 0x120 DUP7 ADD MSTORE DUP5 DUP4 SUB PUSH2 0x140 DUP7 ADD MSTORE DUP3 DUP7 MLOAD DUP1 DUP6 MSTORE DUP4 DUP6 ADD SWAP2 POP DUP4 DUP9 ADD SWAP5 POP PUSH1 0x0 JUMPDEST DUP2 DUP2 LT ISZERO PUSH2 0x149E JUMPI DUP6 MLOAD DUP5 AND DUP4 MSTORE SWAP5 DUP5 ADD SWAP5 SWAP2 DUP5 ADD SWAP2 PUSH1 0x1 ADD PUSH2 0x1480 JUMP JUMPDEST POP POP DUP1 SWAP5 POP POP POP POP POP SWAP13 SWAP12 POP POP POP POP POP POP POP POP POP POP POP POP JUMP JUMPDEST DUP1 CALLDATALOAD PUSH1 0x1 PUSH1 0x1 PUSH1 0xA0 SHL SUB DUP2 AND DUP2 EQ PUSH2 0x14CE JUMPI PUSH1 0x0 DUP1 REVERT JUMPDEST SWAP2 SWAP1 POP JUMP JUMPDEST PUSH1 0x0 DUP1 PUSH1 0x40 DUP4 DUP6 SUB SLT ISZERO PUSH2 0x14E6 JUMPI PUSH1 0x0 DUP1 REVERT JUMPDEST DUP3 CALLDATALOAD SWAP2 POP PUSH2 0x14F6 PUSH1 0x20 DUP5 ADD PUSH2 0x14B7 JUMP JUMPDEST SWAP1 POP SWAP3 POP SWAP3 SWAP1 POP JUMP JUMPDEST PUSH1 0x1 PUSH1 0x1 PUSH1 0xA0 SHL SUB DUP5 AND DUP2 MSTORE PUSH1 0x60 PUSH1 0x20 DUP3 ADD DUP2 SWAP1 MSTORE PUSH1 0x0 SWAP1 PUSH2 0x1523 SWAP1 DUP4 ADD DUP6 PUSH2 0x13CE JUMP JUMPDEST SWAP1 POP DUP3 PUSH1 0x40 DUP4 ADD MSTORE SWAP5 SWAP4 POP POP POP POP JUMP JUMPDEST PUSH1 0x0 PUSH2 0x140 DUP13 DUP4 MSTORE DUP1 PUSH1 0x20 DUP5 ADD MSTORE PUSH2 0x154D DUP2 DUP5 ADD DUP14 PUSH2 0x13CE JUMP JUMPDEST DUP12 ISZERO ISZERO PUSH1 0x40 DUP6 ADD MSTORE PUSH1 0x60 DUP5 ADD DUP12 SWAP1 MSTORE PUSH1 0x80 DUP5 ADD DUP11 SWAP1 MSTORE PUSH1 0x1 PUSH1 0x1 PUSH1 0xA0 SHL SUB DUP10 AND PUSH1 0xA0 DUP6 ADD MSTORE DUP4 DUP2 SUB PUSH1 0xC0 DUP6 ADD MSTORE SWAP1 POP PUSH2 0x1586 DUP2 DUP9 PUSH2 0x13CE JUMP JUMPDEST PUSH1 0xE0 DUP5 ADD SWAP7 SWAP1 SWAP7 MSTORE POP POP PUSH2 0x100 DUP2 ADD SWAP3 SWAP1 SWAP3 MSTORE PUSH2 0x120 SWAP1 SWAP2 ADD MSTORE SWAP8 SWAP7 POP POP POP POP POP POP POP JUMP JUMPDEST PUSH4 0x4E487B71 PUSH1 0xE0 SHL PUSH1 0x0 MSTORE PUSH1 0x41 PUSH1 0x4 MSTORE PUSH1 0x24 PUSH1 0x0 REVERT JUMPDEST PUSH1 0x0 DUP3 PUSH1 0x1F DUP4 ADD SLT PUSH2 0x15D2 JUMPI PUSH1 0x0 DUP1 REVERT JUMPDEST DUP2 CALLDATALOAD PUSH8 0xFFFFFFFFFFFFFFFF DUP1 DUP3 GT ISZERO PUSH2 0x15ED JUMPI PUSH2 0x15ED PUSH2 0x15AB JUMP JUMPDEST PUSH1 0x40 MLOAD PUSH1 0x1F DUP4 ADD PUSH1 0x1F NOT SWAP1 DUP2 AND PUSH1 0x3F ADD AND DUP2 ADD SWAP1 DUP3 DUP3 GT DUP2 DUP4 LT OR ISZERO PUSH2 0x1615 JUMPI PUSH2 0x1615 PUSH2 0x15AB JUMP JUMPDEST DUP2 PUSH1 0x40 MSTORE DUP4 DUP2 MSTORE DUP7 PUSH1 0x20 DUP6 DUP9 ADD ADD GT ISZERO PUSH2 0x162E JUMPI PUSH1 0x0 DUP1 REVERT JUMPDEST DUP4 PUSH1 0x20 DUP8 ADD PUSH1 0x20 DUP4 ADD CALLDATACOPY PUSH1 0x0 PUSH1 0x20 DUP6 DUP4 ADD ADD MSTORE DUP1 SWAP5 POP POP POP POP POP SWAP3 SWAP2 POP POP JUMP JUMPDEST DUP1 ISZERO ISZERO DUP2 EQ PUSH2 0x165C JUMPI PUSH1 0x0 DUP1 REVERT JUMPDEST POP JUMP JUMPDEST PUSH1 0x0 DUP1 PUSH1 0x0 PUSH1 0x60 DUP5 DUP7 SUB SLT ISZERO PUSH2 0x1674 JUMPI PUSH1 0x0 DUP1 REVERT JUMPDEST DUP4 CALLDATALOAD PUSH8 0xFFFFFFFFFFFFFFFF DUP1 DUP3 GT ISZERO PUSH2 0x168C JUMPI PUSH1 0x0 DUP1 REVERT JUMPDEST PUSH2 0x1698 DUP8 DUP4 DUP9 ADD PUSH2 0x15C1 JUMP JUMPDEST SWAP5 POP PUSH1 0x20 DUP7 ADD CALLDATALOAD SWAP2 POP DUP1 DUP3 GT ISZERO PUSH2 0x16AE JUMPI PUSH1 0x0 DUP1 REVERT JUMPDEST POP PUSH2 0x16BB DUP7 DUP3 DUP8 ADD PUSH2 0x15C1 JUMP JUMPDEST SWAP3 POP POP PUSH1 0x40 DUP5 ADD CALLDATALOAD PUSH2 0x16CC DUP2 PUSH2 0x164E JUMP JUMPDEST DUP1 SWAP2 POP POP SWAP3 POP SWAP3 POP SWAP3 JUMP JUMPDEST PUSH1 0x0 DUP1 PUSH1 0x0 DUP1 PUSH1 0x80 DUP6 DUP8 SUB SLT ISZERO PUSH2 0x16ED JUMPI PUSH1 0x0 DUP1 REVERT JUMPDEST DUP5 CALLDATALOAD SWAP4 POP PUSH2 0x16FD PUSH1 0x20 DUP7 ADD PUSH2 0x14B7 JUMP JUMPDEST SWAP3 POP PUSH1 0x40 DUP6 ADD CALLDATALOAD PUSH8 0xFFFFFFFFFFFFFFFF DUP2 GT ISZERO PUSH2 0x1719 JUMPI PUSH1 0x0 DUP1 REVERT JUMPDEST PUSH2 0x1725 DUP8 DUP3 DUP9 ADD PUSH2 0x15C1 JUMP JUMPDEST SWAP5 SWAP8 SWAP4 SWAP7 POP SWAP4 SWAP5 PUSH1 0x60 ADD CALLDATALOAD SWAP4 POP POP POP JUMP JUMPDEST PUSH1 0x0 DUP1 PUSH1 0x0 DUP1 PUSH1 0x80 DUP6 DUP8 SUB SLT ISZERO PUSH2 0x174C JUMPI PUSH1 0x0 DUP1 REVERT JUMPDEST DUP5 CALLDATALOAD SWAP4 POP PUSH1 0x20 DUP6 ADD CALLDATALOAD PUSH8 0xFFFFFFFFFFFFFFFF DUP2 GT ISZERO PUSH2 0x176A JUMPI PUSH1 0x0 DUP1 REVERT JUMPDEST PUSH2 0x1776 DUP8 DUP3 DUP9 ADD PUSH2 0x15C1 JUMP JUMPDEST SWAP4 POP POP PUSH1 0x40 DUP6 ADD CALLDATALOAD PUSH2 0x1787 DUP2 PUSH2 0x164E JUMP JUMPDEST SWAP4 SWAP7 SWAP3 SWAP6 POP SWAP3 SWAP4 PUSH1 0x60 ADD CALLDATALOAD SWAP3 POP POP JUMP JUMPDEST PUSH4 0x4E487B71 PUSH1 0xE0 SHL PUSH1 0x0 MSTORE PUSH1 0x32 PUSH1 0x4 MSTORE PUSH1 0x24 PUSH1 0x0 REVERT JUMPDEST PUSH1 0x1 DUP2 DUP2 SHR SWAP1 DUP3 AND DUP1 PUSH2 0x17C1 JUMPI PUSH1 0x7F DUP3 AND SWAP2 POP JUMPDEST PUSH1 0x20 DUP3 LT DUP2 SUB PUSH2 0x17E1 JUMPI PUSH4 0x4E487B71 PUSH1 0xE0 SHL PUSH1 0x0 MSTORE PUSH1 0x22 PUSH1 0x4 MSTORE PUSH1 0x24 PUSH1 0x0 REVERT JUMPDEST POP SWAP2 SWAP1 POP JUMP JUMPDEST PUSH4 0x4E487B71 PUSH1 0xE0 SHL PUSH1 0x0 MSTORE PUSH1 0x11 PUSH1 0x4 MSTORE PUSH1 0x24 PUSH1 0x0 REVERT JUMPDEST DUP1 DUP3 ADD DUP1 DUP3 GT ISZERO PUSH2 0x1810 JUMPI PUSH2 0x1810 PUSH2 0x17E7 JUMP JUMPDEST SWAP3 SWAP2 POP POP JUMP JUMPDEST PUSH1 0x0 PUSH1 0x20 DUP3 DUP5 SUB SLT ISZERO PUSH2 0x1828 JUMPI PUSH1 0x0 DUP1 REVERT JUMPDEST DUP2 MLOAD PUSH2 0x1833 DUP2 PUSH2 0x164E JUMP JUMPDEST SWAP4 SWAP3 POP POP POP JUMP JUMPDEST DUP2 DUP2 SUB DUP2 DUP2 GT ISZERO PUSH2 0x1810 JUMPI PUSH2 0x1810 PUSH2 0x17E7 JUMP JUMPDEST PUSH1 0x0 DUP1 DUP4 SLOAD PUSH2 0x185B DUP2 PUSH2 0x17AD JUMP JUMPDEST PUSH1 0x1 DUP3 DUP2 AND DUP1 ISZERO PUSH2 0x1873 JUMPI PUSH1 0x1 DUP2 EQ PUSH2 0x1888 JUMPI PUSH2 0x18B7 JUMP JUMPDEST PUSH1 0xFF NOT DUP5 AND DUP8 MSTORE DUP3 ISZERO ISZERO DUP4 MUL DUP8 ADD SWAP5 POP PUSH2 0x18B7 JUMP JUMPDEST DUP8 PUSH1 0x0 MSTORE PUSH1 0x20 DUP1 PUSH1 0x0 KECCAK256 PUSH1 0x0 JUMPDEST DUP6 DUP2 LT ISZERO PUSH2 0x18AE JUMPI DUP2 SLOAD DUP11 DUP3 ADD MSTORE SWAP1 DUP5 ADD SWAP1 DUP3 ADD PUSH2 0x1895 JUMP JUMPDEST POP POP POP DUP3 DUP8 ADD SWAP5 POP JUMPDEST POP SWAP3 SWAP7 SWAP6 POP POP POP POP POP POP JUMP JUMPDEST PUSH1 0x0 DUP8 MLOAD PUSH2 0x18D5 DUP2 DUP5 PUSH1 0x20 DUP13 ADD PUSH2 0x13AA JUMP JUMPDEST PUSH1 0x60 DUP9 SWAP1 SHL PUSH12 0xFFFFFFFFFFFFFFFFFFFFFFFF NOT AND SWAP1 DUP4 ADD SWAP1 DUP2 MSTORE DUP7 MLOAD PUSH2 0x1902 DUP2 PUSH1 0x14 DUP5 ADD PUSH1 0x20 DUP12 ADD PUSH2 0x13AA JUMP JUMPDEST ADD PUSH1 0x14 DUP2 ADD SWAP6 SWAP1 SWAP6 MSTORE POP POP PUSH1 0x34 DUP4 ADD SWAP2 SWAP1 SWAP2 MSTORE PUSH1 0x54 DUP3 ADD MSTORE PUSH1 0x74 ADD SWAP4 SWAP3 POP POP POP JUMP JUMPDEST PUSH1 0x1F DUP3 GT ISZERO PUSH2 0x196A JUMPI PUSH1 0x0 DUP2 DUP2 MSTORE PUSH1 0x20 DUP2 KECCAK256 PUSH1 0x1F DUP6 ADD PUSH1 0x5 SHR DUP2 ADD PUSH1 0x20 DUP7 LT ISZERO PUSH2 0x194B JUMPI POP DUP1 JUMPDEST PUSH1 0x1F DUP6 ADD PUSH1 0x5 SHR DUP3 ADD SWAP2 POP JUMPDEST DUP2 DUP2 LT ISZERO PUSH2 0x101D JUMPI DUP3 DUP2 SSTORE PUSH1 0x1 ADD PUSH2 0x1957 JUMP JUMPDEST POP POP POP JUMP JUMPDEST DUP2 MLOAD PUSH8 0xFFFFFFFFFFFFFFFF DUP2 GT ISZERO PUSH2 0x1989 JUMPI PUSH2 0x1989 PUSH2 0x15AB JUMP JUMPDEST PUSH2 0x199D DUP2 PUSH2 0x1997 DUP5 SLOAD PUSH2 0x17AD JUMP JUMPDEST DUP5 PUSH2 0x1924 JUMP JUMPDEST PUSH1 0x20 DUP1 PUSH1 0x1F DUP4 GT PUSH1 0x1 DUP2 EQ PUSH2 0x19D2 JUMPI PUSH1 0x0 DUP5 ISZERO PUSH2 0x19BA JUMPI POP DUP6 DUP4 ADD MLOAD JUMPDEST PUSH1 0x0 NOT PUSH1 0x3 DUP7 SWAP1 SHL SHR NOT AND PUSH1 0x1 DUP6 SWAP1 SHL OR DUP6 SSTORE PUSH2 0x101D JUMP JUMPDEST PUSH1 0x0 DUP6 DUP2 MSTORE PUSH1 0x20 DUP2 KECCAK256 PUSH1 0x1F NOT DUP7 AND SWAP2 JUMPDEST DUP3 DUP2 LT ISZERO PUSH2 0x1A01 JUMPI DUP9 DUP7 ADD MLOAD DUP3 SSTORE SWAP5 DUP5 ADD SWAP5 PUSH1 0x1 SWAP1 SWAP2 ADD SWAP1 DUP5 ADD PUSH2 0x19E2 JUMP JUMPDEST POP DUP6 DUP3 LT ISZERO PUSH2 0x1A1F JUMPI DUP8 DUP6 ADD MLOAD PUSH1 0x0 NOT PUSH1 0x3 DUP9 SWAP1 SHL PUSH1 0xF8 AND SHR NOT AND DUP2 SSTORE JUMPDEST POP POP POP POP POP PUSH1 0x1 SWAP1 DUP2 SHL ADD SWAP1 SSTORE POP JUMP JUMPDEST PUSH1 0x20 DUP1 DUP3 MSTORE PUSH1 0x28 SWAP1 DUP3 ADD MSTORE PUSH32 0x4465706F73697420616D6F756E74206D75737420626520677265617465722074 PUSH1 0x40 DUP3 ADD MSTORE PUSH8 0x68616E207A65726F PUSH1 0xC0 SHL PUSH1 0x60 DUP3 ADD MSTORE PUSH1 0x80 ADD SWAP1 JUMP JUMPDEST PUSH1 0x0 PUSH1 0x20 DUP3 DUP5 SUB SLT ISZERO PUSH2 0x1A89 JUMPI PUSH1 0x0 DUP1 REVERT JUMPDEST POP MLOAD SWAP2 SWAP1 POP JUMP JUMPDEST PUSH1 0x60 DUP2 MSTORE PUSH1 0x0 PUSH2 0x1AA3 PUSH1 0x60 DUP4 ADD DUP7 PUSH2 0x13CE JUMP JUMPDEST PUSH1 0x20 DUP4 ADD SWAP5 SWAP1 SWAP5 MSTORE POP SWAP1 ISZERO ISZERO PUSH1 0x40 SWAP1 SWAP2 ADD MSTORE SWAP2 SWAP1 POP JUMP INVALID LOG2 PUSH5 0x6970667358 0x22 SLT KECCAK256 CHAINID PUSH2 0xAB9B 0xEA CALLVALUE 0xC MSTORE8 SWAP8 LOG0 PUSH8 0x4B8CE1346A2BDAA8 0xE8 ORIGIN 0xC9 RETURNDATACOPY DUP2 LOG1 CODESIZE ADD SWAP4 PUSH16 0xA698564736F6C634300081400330000 "},"methodIdentifiers":{"USDC()":"89a30271","activeGroups()":"d0e4567e","addParticipantToGroup(uint256,address,string,uint256)":"c9744950","createGroup(string,string,bool)":"a30013e1","depositToGroup(uint256,string,bool,uint256)":"f35ea5d0","getActivegroups()":"0636f5d4","getAllGroupIds()":"2e3dcc06","getGroupIndexById(uint256)":"6d145730","getGroupInfoById(uint256)":"2f14f6c9","getGroupsNum()":"5d39c56b","getParticipantDetails(uint256,address)":"32bee467","groupIds(uint256)":"4093d7a1","groups(uint256)":"96324bd4","withdrawFromGroup(uint256)":"a2a4498b"}}}}}