{"contracts/GroupSplit.sol":{"GroupSplit":{"abi":[{"anonymous":false,"inputs":[{"indexed":true,"internalType":"uint256","name":"groupId","type":"uint256"},{"indexed":true,"internalType":"address","name":"owner","type":"address"},{"indexed":true,"internalType":"string","name":"groupName","type":"string"},{"indexed":false,"internalType":"uint256","name":"closingTime","type":"uint256"}],"name":"logGroupClosed","type":"event"},{"anonymous":false,"inputs":[{"indexed":true,"internalType":"uint256","name":"groupId","type":"uint256"},{"indexed":true,"internalType":"address","name":"owner","type":"address"},{"indexed":true,"internalType":"string","name":"groupName","type":"string"},{"indexed":false,"internalType":"uint256","name":"creationTime","type":"uint256"}],"name":"logGroupCreated","type":"event"},{"anonymous":false,"inputs":[{"indexed":true,"internalType":"uint256","name":"groupId","type":"uint256"},{"indexed":true,"internalType":"address","name":"participant","type":"address"},{"indexed":false,"internalType":"string","name":"nickname","type":"string"},{"indexed":false,"internalType":"uint256","name":"deposit","type":"uint256"}],"name":"logGroupDepositReceived","type":"event"},{"anonymous":false,"inputs":[{"indexed":true,"internalType":"uint256","name":"groupId","type":"uint256"},{"indexed":true,"internalType":"address","name":"owner","type":"address"},{"indexed":true,"internalType":"string","name":"groupName","type":"string"},{"indexed":false,"internalType":"uint256","name":"openingTime","type":"uint256"}],"name":"logGroupOpened","type":"event"},{"anonymous":false,"inputs":[{"indexed":true,"internalType":"uint256","name":"groupId","type":"uint256"},{"indexed":false,"internalType":"uint256","name":"amountTransferred","type":"uint256"},{"indexed":false,"internalType":"string","name":"time","type":"string"},{"indexed":false,"internalType":"uint256","name":"balance","type":"uint256"},{"indexed":false,"internalType":"uint256","name":"totalCollected","type":"uint256"},{"indexed":false,"internalType":"uint256","name":"totalWithdrawn","type":"uint256"}],"name":"logGroupWithdrawal","type":"event"},{"anonymous":false,"inputs":[{"indexed":true,"internalType":"uint256","name":"groupId","type":"uint256"},{"indexed":true,"internalType":"address","name":"owner","type":"address"},{"indexed":false,"internalType":"uint256","name":"amount","type":"uint256"}],"name":"logTransferFailed","type":"event"},{"inputs":[],"name":"activeGroups","outputs":[{"internalType":"uint256","name":"","type":"uint256"}],"stateMutability":"view","type":"function"},{"inputs":[{"internalType":"uint256","name":"_groupId","type":"uint256"},{"internalType":"address","name":"_participantAddress","type":"address"},{"internalType":"string","name":"_nickname","type":"string"},{"internalType":"uint256","name":"_deposit","type":"uint256"}],"name":"addParticipantToGroup","outputs":[],"stateMutability":"nonpayable","type":"function"},{"inputs":[{"internalType":"string","name":"_groupName","type":"string"},{"internalType":"string","name":"_ownerNickname","type":"string"},{"internalType":"string","name":"_url","type":"string"}],"name":"createGroup","outputs":[],"stateMutability":"nonpayable","type":"function"},{"inputs":[{"internalType":"uint256","name":"_groupId","type":"uint256"},{"internalType":"string","name":"_nickname","type":"string"}],"name":"depositToGroup","outputs":[],"stateMutability":"payable","type":"function"},{"inputs":[],"name":"getAllGroupIds","outputs":[{"internalType":"uint256[]","name":"","type":"uint256[]"}],"stateMutability":"view","type":"function"},{"inputs":[{"internalType":"uint256","name":"_url","type":"uint256"}],"name":"getGroupIdByUrl","outputs":[{"internalType":"uint256","name":"","type":"uint256"}],"stateMutability":"view","type":"function"},{"inputs":[{"internalType":"uint256","name":"_groupId","type":"uint256"}],"name":"getGroupIndexById","outputs":[{"internalType":"uint256","name":"","type":"uint256"}],"stateMutability":"view","type":"function"},{"inputs":[{"internalType":"uint256","name":"_groupId","type":"uint256"}],"name":"getGroupInfoById","outputs":[{"internalType":"uint256","name":"","type":"uint256"},{"internalType":"string","name":"","type":"string"},{"internalType":"address","name":"","type":"address"},{"internalType":"string","name":"","type":"string"},{"internalType":"string","name":"","type":"string"},{"internalType":"uint256","name":"","type":"uint256"},{"internalType":"bool","name":"","type":"bool"},{"internalType":"uint256","name":"","type":"uint256"},{"internalType":"uint256","name":"","type":"uint256"},{"internalType":"uint256","name":"","type":"uint256"},{"internalType":"address[]","name":"","type":"address[]"}],"stateMutability":"view","type":"function"},{"inputs":[],"name":"getGroupsNum","outputs":[{"internalType":"uint256","name":"","type":"uint256"}],"stateMutability":"view","type":"function"},{"inputs":[{"internalType":"uint256","name":"","type":"uint256"}],"name":"groupIds","outputs":[{"internalType":"uint256","name":"","type":"uint256"}],"stateMutability":"view","type":"function"},{"inputs":[{"internalType":"uint256","name":"","type":"uint256"}],"name":"groups","outputs":[{"internalType":"uint256","name":"groupId","type":"uint256"},{"internalType":"string","name":"groupName","type":"string"},{"internalType":"bool","name":"status","type":"bool"},{"internalType":"string","name":"url","type":"string"},{"internalType":"uint256","name":"creationTime","type":"uint256"},{"internalType":"address","name":"owner","type":"address"},{"internalType":"string","name":"ownerNickname","type":"string"},{"internalType":"uint256","name":"balance","type":"uint256"},{"internalType":"uint256","name":"totalCollected","type":"uint256"},{"internalType":"uint256","name":"totalWithdrawn","type":"uint256"}],"stateMutability":"view","type":"function"},{"inputs":[{"internalType":"uint256","name":"_groupId","type":"uint256"}],"name":"withdrawFunds","outputs":[],"stateMutability":"payable","type":"function"}],"evm":{"bytecode":{"linkReferences":{},"object":"6080604052600060045534801561001557600080fd5b50611341806100256000396000f3fe6080604052600436106100a75760003560e01c80636d145730116100645780636d1457301461018457806396324bd4146101a4578063b1cacc8e146101da578063c9744950146101fa578063d0e4567e1461021a578063f6d87c051461023057600080fd5b8063155dd5ee146100ac5780632e3dcc06146100bf5780632f14f6c9146100ea5780633073efdd146101215780634093d7a1146101415780635d39c56b1461016f575b600080fd5b6100bd6100ba366004610dbc565b50565b005b3480156100cb57600080fd5b506100d4610243565b6040516100e19190610dd5565b60405180910390f35b3480156100f657600080fd5b5061010a610105366004610dbc565b61029b565b6040516100e19b9a99989796959493929190610e66565b34801561012d57600080fd5b506100bd61013c366004610fd4565b610559565b34801561014d57600080fd5b5061016161015c366004610dbc565b61073c565b6040519081526020016100e1565b34801561017b57600080fd5b50600054610161565b34801561019057600080fd5b5061016161019f366004610dbc565b61075d565b3480156101b057600080fd5b506101c46101bf366004610dbc565b6107ca565b6040516100e19a9998979695949392919061105c565b3480156101e657600080fd5b506101616101f5366004610dbc565b6109d9565b34801561020657600080fd5b506100bd6102153660046110e1565b610a1e565b34801561022657600080fd5b5061016160045481565b6100bd61023e36600461114e565b610b89565b6060600180548060200260200160405190810160405280929190818152602001828054801561029157602002820191906000526020600020905b81548152602001906001019080831161027d575b5050505050905090565b6000606060006060806000806000806000606060006102b98d61075d565b905060008082815481106102cf576102cf611195565b90600052602060002090600c020190508060000154816001018260050160009054906101000a90046001600160a01b0316836006018460030185600401548660020160009054906101000a900460ff168760070154886008015489600901548a600a0189805461033e906111ab565b80601f016020809104026020016040519081016040528092919081815260200182805461036a906111ab565b80156103b75780601f1061038c576101008083540402835291602001916103b7565b820191906000526020600020905b81548152906001019060200180831161039a57829003601f168201915b505050505099508780546103ca906111ab565b80601f01602080910402602001604051908101604052809291908181526020018280546103f6906111ab565b80156104435780601f1061041857610100808354040283529160200191610443565b820191906000526020600020905b81548152906001019060200180831161042657829003601f168201915b50505050509750868054610456906111ab565b80601f0160208091040260200160405190810160405280929190818152602001828054610482906111ab565b80156104cf5780601f106104a4576101008083540402835291602001916104cf565b820191906000526020600020905b8154815290600101906020018083116104b257829003601f168201915b505050505096508080548060200260200160405190810160405280929190818152602001828054801561052b57602002820191906000526020600020905b81546001600160a01b0316815260019091019060200180831161050d575b505050505090509c509c509c509c509c509c509c509c509c509c509c50505091939597999b90929496989a50565b600080546001818101835582805260048054600c9093027f290decd9548b62a8d60345a988386fc84ba6bc95484008f6362f93160ef3e563019391929091906105a39084906111fc565b909155506105b19050610cbd565b815583516105c89060018301906020870190610d23565b506005810180546001600160a01b0319163317905582516105f29060068301906020860190610d23565b5081516106089060038301906020850190610d23565b5042600482015560028101805460ff1916600190811790915560006007830181905560088301819055600983018190558054909161064591611214565b8254600090815260026020908152604080832084905585549051939450926003929161067591848801910161122b565b60408051601f19818403018152918152815160209283012083529082019290925281016000908120929092558354600180548082018255938190527fb10e2d527612073b26eecdfd717e6a320cf44b4afac2b0732d9fcbe2b7fa0cf690930155516106e29184019061122b565b604051908190038120600584015484546004860154845291926001600160a01b0390911691907f8946c268c4725059354ef9b4c2a0ae1a4510e2e45354cb61f70f6ecf7132230f9060200160405180910390a45050505050565b6001818154811061074c57600080fd5b600091825260209091200154905081565b6000805482825260026020526040822054106107b75760405162461bcd60e51b815260206004820152601460248201527311dc9bdd5c08191bd95cc81b9bdd08195e1a5cdd60621b60448201526064015b60405180910390fd5b5060009081526002602052604090205490565b600081815481106107da57600080fd5b60009182526020909120600c909102018054600182018054919350906107ff906111ab565b80601f016020809104026020016040519081016040528092919081815260200182805461082b906111ab565b80156108785780601f1061084d57610100808354040283529160200191610878565b820191906000526020600020905b81548152906001019060200180831161085b57829003601f168201915b5050506002840154600385018054949560ff90921694919350915061089c906111ab565b80601f01602080910402602001604051908101604052809291908181526020018280546108c8906111ab565b80156109155780601f106108ea57610100808354040283529160200191610915565b820191906000526020600020905b8154815290600101906020018083116108f857829003601f168201915b5050505060048301546005840154600685018054949592946001600160a01b03909216935090610944906111ab565b80601f0160208091040260200160405190810160405280929190818152602001828054610970906111ab565b80156109bd5780601f10610992576101008083540402835291602001916109bd565b820191906000526020600020905b8154815290600101906020018083116109a057829003601f168201915b505050505090806007015490806008015490806009015490508a565b600060036000836040516020016109f291815260200190565b604051602081830303815290604052805190602001208152602001908152602001600020549050919050565b6000610a298561075d565b90506000808281548110610a3f57610a3f611195565b600091825260208083206001600160a01b038981168552600c9390930201600b81019091526040909220549192501615610aab576001600160a01b0385166000908152600b8201602052604081206002018054859290610aa09084906111fc565b90915550610b4d9050565b604080516060810182526001600160a01b0387811680835260208084018981528486018990526000928352600b8701825294909120835181546001600160a01b03191693169290921782559251805192939192610b0e9260018501920190610d23565b5060409190910151600290910155600a81018054600181018255600091825260209091200180546001600160a01b0319166001600160a01b0387161790555b82816007016000828254610b6191906111fc565b9250508190555082816008016000828254610b7c91906111fc565b9091555050505050505050565b816000610b958261075d565b905060008181548110610baa57610baa611195565b600091825260209091206002600c90920201015460ff161515600114610c045760405162461bcd60e51b815260206004820152600f60248201526e11dc9bdd5c081a5cc818db1bdcd959608a1b60448201526064016107ae565b60003411610c655760405162461bcd60e51b815260206004820152602860248201527f4465706f73697420616d6f756e74206d7573742062652067726561746572207460448201526768616e207a65726f60c01b60648201526084016107ae565b34610c7285338684610a1e565b336001600160a01b0316857f061a3a1f9f4c2bac8da4625370b6afa9f9b2f7b7a03b54591754873cc308126c8684604051610cae9291906112c7565b60405180910390a35050505050565b6000620f4240424433604051602001610cfb93929190928352602083019190915260601b6bffffffffffffffffffffffff1916604082015260540190565b6040516020818303038152906040528051906020012060001c610d1e91906112e9565b905090565b828054610d2f906111ab565b90600052602060002090601f016020900481019282610d515760008555610d97565b82601f10610d6a57805160ff1916838001178555610d97565b82800160010185558215610d97579182015b82811115610d97578251825591602001919060010190610d7c565b50610da3929150610da7565b5090565b5b80821115610da35760008155600101610da8565b600060208284031215610dce57600080fd5b5035919050565b6020808252825182820181905260009190848201906040850190845b81811015610e0d57835183529284019291840191600101610df1565b50909695505050505050565b6000815180845260005b81811015610e3f57602081850181015186830182015201610e23565b81811115610e51576000602083870101525b50601f01601f19169290920160200192915050565b60006101608d835260208181850152610e818285018f610e19565b6001600160a01b038e811660408701528582036060870152909250610ea6838e610e19565b92508483036080860152610eba838d610e19565b92508a60a086015289151560c08601528860e086015287610100860152866101208601528483036101408601528286518085528385019150838801945060005b81811015610f18578551841683529484019491840191600101610efa565b5050809450505050509c9b505050505050505050505050565b634e487b7160e01b600052604160045260246000fd5b600082601f830112610f5857600080fd5b813567ffffffffffffffff80821115610f7357610f73610f31565b604051601f8301601f19908116603f01168101908282118183101715610f9b57610f9b610f31565b81604052838152866020858801011115610fb457600080fd5b836020870160208301376000602085830101528094505050505092915050565b600080600060608486031215610fe957600080fd5b833567ffffffffffffffff8082111561100157600080fd5b61100d87838801610f47565b9450602086013591508082111561102357600080fd5b61102f87838801610f47565b9350604086013591508082111561104557600080fd5b5061105286828701610f47565b9150509250925092565b60006101408c83528060208401526110768184018d610e19565b90508a151560408401528281036060840152611092818b610e19565b608084018a90526001600160a01b03891660a085015283810360c085015290506110bc8188610e19565b60e0840196909652505061010081019290925261012090910152979650505050505050565b600080600080608085870312156110f757600080fd5b8435935060208501356001600160a01b038116811461111557600080fd5b9250604085013567ffffffffffffffff81111561113157600080fd5b61113d87828801610f47565b949793965093946060013593505050565b6000806040838503121561116157600080fd5b82359150602083013567ffffffffffffffff81111561117f57600080fd5b61118b85828601610f47565b9150509250929050565b634e487b7160e01b600052603260045260246000fd5b600181811c908216806111bf57607f821691505b602082108114156111e057634e487b7160e01b600052602260045260246000fd5b50919050565b634e487b7160e01b600052601160045260246000fd5b6000821982111561120f5761120f6111e6565b500190565b600082821015611226576112266111e6565b500390565b600080835481600182811c91508083168061124757607f831692505b602080841082141561126757634e487b7160e01b86526022600452602486fd5b81801561127b576001811461128c576112b9565b60ff198616895284890196506112b9565b60008a81526020902060005b868110156112b15781548b820152908501908301611298565b505084890196505b509498975050505050505050565b6040815260006112da6040830185610e19565b90508260208301529392505050565b60008261130657634e487b7160e01b600052601260045260246000fd5b50069056fea2646970667358221220614a2fd724aa8ecdcec1162a7fb20ac2f6055c9fe89e4192ac9fa4b24a8d7c2a64736f6c63430008090033","opcodes":"PUSH1 0x80 PUSH1 0x40 MSTORE PUSH1 0x0 PUSH1 0x4 SSTORE CALLVALUE DUP1 ISZERO PUSH2 0x15 JUMPI PUSH1 0x0 DUP1 REVERT JUMPDEST POP PUSH2 0x1341 DUP1 PUSH2 0x25 PUSH1 0x0 CODECOPY PUSH1 0x0 RETURN INVALID PUSH1 0x80 PUSH1 0x40 MSTORE PUSH1 0x4 CALLDATASIZE LT PUSH2 0xA7 JUMPI PUSH1 0x0 CALLDATALOAD PUSH1 0xE0 SHR DUP1 PUSH4 0x6D145730 GT PUSH2 0x64 JUMPI DUP1 PUSH4 0x6D145730 EQ PUSH2 0x184 JUMPI DUP1 PUSH4 0x96324BD4 EQ PUSH2 0x1A4 JUMPI DUP1 PUSH4 0xB1CACC8E EQ PUSH2 0x1DA JUMPI DUP1 PUSH4 0xC9744950 EQ PUSH2 0x1FA JUMPI DUP1 PUSH4 0xD0E4567E EQ PUSH2 0x21A JUMPI DUP1 PUSH4 0xF6D87C05 EQ PUSH2 0x230 JUMPI PUSH1 0x0 DUP1 REVERT JUMPDEST DUP1 PUSH4 0x155DD5EE EQ PUSH2 0xAC JUMPI DUP1 PUSH4 0x2E3DCC06 EQ PUSH2 0xBF JUMPI DUP1 PUSH4 0x2F14F6C9 EQ PUSH2 0xEA JUMPI DUP1 PUSH4 0x3073EFDD EQ PUSH2 0x121 JUMPI DUP1 PUSH4 0x4093D7A1 EQ PUSH2 0x141 JUMPI DUP1 PUSH4 0x5D39C56B EQ PUSH2 0x16F JUMPI JUMPDEST PUSH1 0x0 DUP1 REVERT JUMPDEST PUSH2 0xBD PUSH2 0xBA CALLDATASIZE PUSH1 0x4 PUSH2 0xDBC JUMP JUMPDEST POP JUMP JUMPDEST STOP JUMPDEST CALLVALUE DUP1 ISZERO PUSH2 0xCB JUMPI PUSH1 0x0 DUP1 REVERT JUMPDEST POP PUSH2 0xD4 PUSH2 0x243 JUMP JUMPDEST PUSH1 0x40 MLOAD PUSH2 0xE1 SWAP2 SWAP1 PUSH2 0xDD5 JUMP JUMPDEST PUSH1 0x40 MLOAD DUP1 SWAP2 SUB SWAP1 RETURN JUMPDEST CALLVALUE DUP1 ISZERO PUSH2 0xF6 JUMPI PUSH1 0x0 DUP1 REVERT JUMPDEST POP PUSH2 0x10A PUSH2 0x105 CALLDATASIZE PUSH1 0x4 PUSH2 0xDBC JUMP JUMPDEST PUSH2 0x29B JUMP JUMPDEST PUSH1 0x40 MLOAD PUSH2 0xE1 SWAP12 SWAP11 SWAP10 SWAP9 SWAP8 SWAP7 SWAP6 SWAP5 SWAP4 SWAP3 SWAP2 SWAP1 PUSH2 0xE66 JUMP JUMPDEST CALLVALUE DUP1 ISZERO PUSH2 0x12D JUMPI PUSH1 0x0 DUP1 REVERT JUMPDEST POP PUSH2 0xBD PUSH2 0x13C CALLDATASIZE PUSH1 0x4 PUSH2 0xFD4 JUMP JUMPDEST PUSH2 0x559 JUMP JUMPDEST CALLVALUE DUP1 ISZERO PUSH2 0x14D JUMPI PUSH1 0x0 DUP1 REVERT JUMPDEST POP PUSH2 0x161 PUSH2 0x15C CALLDATASIZE PUSH1 0x4 PUSH2 0xDBC JUMP JUMPDEST PUSH2 0x73C JUMP JUMPDEST PUSH1 0x40 MLOAD SWAP1 DUP2 MSTORE PUSH1 0x20 ADD PUSH2 0xE1 JUMP JUMPDEST CALLVALUE DUP1 ISZERO PUSH2 0x17B JUMPI PUSH1 0x0 DUP1 REVERT JUMPDEST POP PUSH1 0x0 SLOAD PUSH2 0x161 JUMP JUMPDEST CALLVALUE DUP1 ISZERO PUSH2 0x190 JUMPI PUSH1 0x0 DUP1 REVERT JUMPDEST POP PUSH2 0x161 PUSH2 0x19F CALLDATASIZE PUSH1 0x4 PUSH2 0xDBC JUMP JUMPDEST PUSH2 0x75D JUMP JUMPDEST CALLVALUE DUP1 ISZERO PUSH2 0x1B0 JUMPI PUSH1 0x0 DUP1 REVERT JUMPDEST POP PUSH2 0x1C4 PUSH2 0x1BF CALLDATASIZE PUSH1 0x4 PUSH2 0xDBC JUMP JUMPDEST PUSH2 0x7CA JUMP JUMPDEST PUSH1 0x40 MLOAD PUSH2 0xE1 SWAP11 SWAP10 SWAP9 SWAP8 SWAP7 SWAP6 SWAP5 SWAP4 SWAP3 SWAP2 SWAP1 PUSH2 0x105C JUMP JUMPDEST CALLVALUE DUP1 ISZERO PUSH2 0x1E6 JUMPI PUSH1 0x0 DUP1 REVERT JUMPDEST POP PUSH2 0x161 PUSH2 0x1F5 CALLDATASIZE PUSH1 0x4 PUSH2 0xDBC JUMP JUMPDEST PUSH2 0x9D9 JUMP JUMPDEST CALLVALUE DUP1 ISZERO PUSH2 0x206 JUMPI PUSH1 0x0 DUP1 REVERT JUMPDEST POP PUSH2 0xBD PUSH2 0x215 CALLDATASIZE PUSH1 0x4 PUSH2 0x10E1 JUMP JUMPDEST PUSH2 0xA1E JUMP JUMPDEST CALLVALUE DUP1 ISZERO PUSH2 0x226 JUMPI PUSH1 0x0 DUP1 REVERT JUMPDEST POP PUSH2 0x161 PUSH1 0x4 SLOAD DUP2 JUMP JUMPDEST PUSH2 0xBD PUSH2 0x23E CALLDATASIZE PUSH1 0x4 PUSH2 0x114E JUMP JUMPDEST PUSH2 0xB89 JUMP JUMPDEST PUSH1 0x60 PUSH1 0x1 DUP1 SLOAD DUP1 PUSH1 0x20 MUL PUSH1 0x20 ADD PUSH1 0x40 MLOAD SWAP1 DUP2 ADD PUSH1 0x40 MSTORE DUP1 SWAP3 SWAP2 SWAP1 DUP2 DUP2 MSTORE PUSH1 0x20 ADD DUP3 DUP1 SLOAD DUP1 ISZERO PUSH2 0x291 JUMPI PUSH1 0x20 MUL DUP3 ADD SWAP2 SWAP1 PUSH1 0x0 MSTORE PUSH1 0x20 PUSH1 0x0 KECCAK256 SWAP1 JUMPDEST DUP2 SLOAD DUP2 MSTORE PUSH1 0x20 ADD SWAP1 PUSH1 0x1 ADD SWAP1 DUP1 DUP4 GT PUSH2 0x27D JUMPI JUMPDEST POP POP POP POP POP SWAP1 POP SWAP1 JUMP JUMPDEST PUSH1 0x0 PUSH1 0x60 PUSH1 0x0 PUSH1 0x60 DUP1 PUSH1 0x0 DUP1 PUSH1 0x0 DUP1 PUSH1 0x0 PUSH1 0x60 PUSH1 0x0 PUSH2 0x2B9 DUP14 PUSH2 0x75D JUMP JUMPDEST SWAP1 POP PUSH1 0x0 DUP1 DUP3 DUP2 SLOAD DUP2 LT PUSH2 0x2CF JUMPI PUSH2 0x2CF PUSH2 0x1195 JUMP JUMPDEST SWAP1 PUSH1 0x0 MSTORE PUSH1 0x20 PUSH1 0x0 KECCAK256 SWAP1 PUSH1 0xC MUL ADD SWAP1 POP DUP1 PUSH1 0x0 ADD SLOAD DUP2 PUSH1 0x1 ADD DUP3 PUSH1 0x5 ADD PUSH1 0x0 SWAP1 SLOAD SWAP1 PUSH2 0x100 EXP SWAP1 DIV PUSH1 0x1 PUSH1 0x1 PUSH1 0xA0 SHL SUB AND DUP4 PUSH1 0x6 ADD DUP5 PUSH1 0x3 ADD DUP6 PUSH1 0x4 ADD SLOAD DUP7 PUSH1 0x2 ADD PUSH1 0x0 SWAP1 SLOAD SWAP1 PUSH2 0x100 EXP SWAP1 DIV PUSH1 0xFF AND DUP8 PUSH1 0x7 ADD SLOAD DUP9 PUSH1 0x8 ADD SLOAD DUP10 PUSH1 0x9 ADD SLOAD DUP11 PUSH1 0xA ADD DUP10 DUP1 SLOAD PUSH2 0x33E SWAP1 PUSH2 0x11AB JUMP JUMPDEST DUP1 PUSH1 0x1F ADD PUSH1 0x20 DUP1 SWAP2 DIV MUL PUSH1 0x20 ADD PUSH1 0x40 MLOAD SWAP1 DUP2 ADD PUSH1 0x40 MSTORE DUP1 SWAP3 SWAP2 SWAP1 DUP2 DUP2 MSTORE PUSH1 0x20 ADD DUP3 DUP1 SLOAD PUSH2 0x36A SWAP1 PUSH2 0x11AB JUMP JUMPDEST DUP1 ISZERO PUSH2 0x3B7 JUMPI DUP1 PUSH1 0x1F LT PUSH2 0x38C JUMPI PUSH2 0x100 DUP1 DUP4 SLOAD DIV MUL DUP4 MSTORE SWAP2 PUSH1 0x20 ADD SWAP2 PUSH2 0x3B7 JUMP JUMPDEST DUP3 ADD SWAP2 SWAP1 PUSH1 0x0 MSTORE PUSH1 0x20 PUSH1 0x0 KECCAK256 SWAP1 JUMPDEST DUP2 SLOAD DUP2 MSTORE SWAP1 PUSH1 0x1 ADD SWAP1 PUSH1 0x20 ADD DUP1 DUP4 GT PUSH2 0x39A JUMPI DUP3 SWAP1 SUB PUSH1 0x1F AND DUP3 ADD SWAP2 JUMPDEST POP POP POP POP POP SWAP10 POP DUP8 DUP1 SLOAD PUSH2 0x3CA SWAP1 PUSH2 0x11AB JUMP JUMPDEST DUP1 PUSH1 0x1F ADD PUSH1 0x20 DUP1 SWAP2 DIV MUL PUSH1 0x20 ADD PUSH1 0x40 MLOAD SWAP1 DUP2 ADD PUSH1 0x40 MSTORE DUP1 SWAP3 SWAP2 SWAP1 DUP2 DUP2 MSTORE PUSH1 0x20 ADD DUP3 DUP1 SLOAD PUSH2 0x3F6 SWAP1 PUSH2 0x11AB JUMP JUMPDEST DUP1 ISZERO PUSH2 0x443 JUMPI DUP1 PUSH1 0x1F LT PUSH2 0x418 JUMPI PUSH2 0x100 DUP1 DUP4 SLOAD DIV MUL DUP4 MSTORE SWAP2 PUSH1 0x20 ADD SWAP2 PUSH2 0x443 JUMP JUMPDEST DUP3 ADD SWAP2 SWAP1 PUSH1 0x0 MSTORE PUSH1 0x20 PUSH1 0x0 KECCAK256 SWAP1 JUMPDEST DUP2 SLOAD DUP2 MSTORE SWAP1 PUSH1 0x1 ADD SWAP1 PUSH1 0x20 ADD DUP1 DUP4 GT PUSH2 0x426 JUMPI DUP3 SWAP1 SUB PUSH1 0x1F AND DUP3 ADD SWAP2 JUMPDEST POP POP POP POP POP SWAP8 POP DUP7 DUP1 SLOAD PUSH2 0x456 SWAP1 PUSH2 0x11AB JUMP JUMPDEST DUP1 PUSH1 0x1F ADD PUSH1 0x20 DUP1 SWAP2 DIV MUL PUSH1 0x20 ADD PUSH1 0x40 MLOAD SWAP1 DUP2 ADD PUSH1 0x40 MSTORE DUP1 SWAP3 SWAP2 SWAP1 DUP2 DUP2 MSTORE PUSH1 0x20 ADD DUP3 DUP1 SLOAD PUSH2 0x482 SWAP1 PUSH2 0x11AB JUMP JUMPDEST DUP1 ISZERO PUSH2 0x4CF JUMPI DUP1 PUSH1 0x1F LT PUSH2 0x4A4 JUMPI PUSH2 0x100 DUP1 DUP4 SLOAD DIV MUL DUP4 MSTORE SWAP2 PUSH1 0x20 ADD SWAP2 PUSH2 0x4CF JUMP JUMPDEST DUP3 ADD SWAP2 SWAP1 PUSH1 0x0 MSTORE PUSH1 0x20 PUSH1 0x0 KECCAK256 SWAP1 JUMPDEST DUP2 SLOAD DUP2 MSTORE SWAP1 PUSH1 0x1 ADD SWAP1 PUSH1 0x20 ADD DUP1 DUP4 GT PUSH2 0x4B2 JUMPI DUP3 SWAP1 SUB PUSH1 0x1F AND DUP3 ADD SWAP2 JUMPDEST POP POP POP POP POP SWAP7 POP DUP1 DUP1 SLOAD DUP1 PUSH1 0x20 MUL PUSH1 0x20 ADD PUSH1 0x40 MLOAD SWAP1 DUP2 ADD PUSH1 0x40 MSTORE DUP1 SWAP3 SWAP2 SWAP1 DUP2 DUP2 MSTORE PUSH1 0x20 ADD DUP3 DUP1 SLOAD DUP1 ISZERO PUSH2 0x52B JUMPI PUSH1 0x20 MUL DUP3 ADD SWAP2 SWAP1 PUSH1 0x0 MSTORE PUSH1 0x20 PUSH1 0x0 KECCAK256 SWAP1 JUMPDEST DUP2 SLOAD PUSH1 0x1 PUSH1 0x1 PUSH1 0xA0 SHL SUB AND DUP2 MSTORE PUSH1 0x1 SWAP1 SWAP2 ADD SWAP1 PUSH1 0x20 ADD DUP1 DUP4 GT PUSH2 0x50D JUMPI JUMPDEST POP POP POP POP POP SWAP1 POP SWAP13 POP SWAP13 POP SWAP13 POP SWAP13 POP SWAP13 POP SWAP13 POP SWAP13 POP SWAP13 POP SWAP13 POP SWAP13 POP SWAP13 POP POP POP SWAP2 SWAP4 SWAP6 SWAP8 SWAP10 SWAP12 SWAP1 SWAP3 SWAP5 SWAP7 SWAP9 SWAP11 POP JUMP JUMPDEST PUSH1 0x0 DUP1 SLOAD PUSH1 0x1 DUP2 DUP2 ADD DUP4 SSTORE DUP3 DUP1 MSTORE PUSH1 0x4 DUP1 SLOAD PUSH1 0xC SWAP1 SWAP4 MUL PUSH32 0x290DECD9548B62A8D60345A988386FC84BA6BC95484008F6362F93160EF3E563 ADD SWAP4 SWAP2 SWAP3 SWAP1 SWAP2 SWAP1 PUSH2 0x5A3 SWAP1 DUP5 SWAP1 PUSH2 0x11FC JUMP JUMPDEST SWAP1 SWAP2 SSTORE POP PUSH2 0x5B1 SWAP1 POP PUSH2 0xCBD JUMP JUMPDEST DUP2 SSTORE DUP4 MLOAD PUSH2 0x5C8 SWAP1 PUSH1 0x1 DUP4 ADD SWAP1 PUSH1 0x20 DUP8 ADD SWAP1 PUSH2 0xD23 JUMP JUMPDEST POP PUSH1 0x5 DUP2 ADD DUP1 SLOAD PUSH1 0x1 PUSH1 0x1 PUSH1 0xA0 SHL SUB NOT AND CALLER OR SWAP1 SSTORE DUP3 MLOAD PUSH2 0x5F2 SWAP1 PUSH1 0x6 DUP4 ADD SWAP1 PUSH1 0x20 DUP7 ADD SWAP1 PUSH2 0xD23 JUMP JUMPDEST POP DUP2 MLOAD PUSH2 0x608 SWAP1 PUSH1 0x3 DUP4 ADD SWAP1 PUSH1 0x20 DUP6 ADD SWAP1 PUSH2 0xD23 JUMP JUMPDEST POP TIMESTAMP PUSH1 0x4 DUP3 ADD SSTORE PUSH1 0x2 DUP2 ADD DUP1 SLOAD PUSH1 0xFF NOT AND PUSH1 0x1 SWAP1 DUP2 OR SWAP1 SWAP2 SSTORE PUSH1 0x0 PUSH1 0x7 DUP4 ADD DUP2 SWAP1 SSTORE PUSH1 0x8 DUP4 ADD DUP2 SWAP1 SSTORE PUSH1 0x9 DUP4 ADD DUP2 SWAP1 SSTORE DUP1 SLOAD SWAP1 SWAP2 PUSH2 0x645 SWAP2 PUSH2 0x1214 JUMP JUMPDEST DUP3 SLOAD PUSH1 0x0 SWAP1 DUP2 MSTORE PUSH1 0x2 PUSH1 0x20 SWAP1 DUP2 MSTORE PUSH1 0x40 DUP1 DUP4 KECCAK256 DUP5 SWAP1 SSTORE DUP6 SLOAD SWAP1 MLOAD SWAP4 SWAP5 POP SWAP3 PUSH1 0x3 SWAP3 SWAP2 PUSH2 0x675 SWAP2 DUP5 DUP9 ADD SWAP2 ADD PUSH2 0x122B JUMP JUMPDEST PUSH1 0x40 DUP1 MLOAD PUSH1 0x1F NOT DUP2 DUP5 SUB ADD DUP2 MSTORE SWAP2 DUP2 MSTORE DUP2 MLOAD PUSH1 0x20 SWAP3 DUP4 ADD KECCAK256 DUP4 MSTORE SWAP1 DUP3 ADD SWAP3 SWAP1 SWAP3 MSTORE DUP2 ADD PUSH1 0x0 SWAP1 DUP2 KECCAK256 SWAP3 SWAP1 SWAP3 SSTORE DUP4 SLOAD PUSH1 0x1 DUP1 SLOAD DUP1 DUP3 ADD DUP3 SSTORE SWAP4 DUP2 SWAP1 MSTORE PUSH32 0xB10E2D527612073B26EECDFD717E6A320CF44B4AFAC2B0732D9FCBE2B7FA0CF6 SWAP1 SWAP4 ADD SSTORE MLOAD PUSH2 0x6E2 SWAP2 DUP5 ADD SWAP1 PUSH2 0x122B JUMP JUMPDEST PUSH1 0x40 MLOAD SWAP1 DUP2 SWAP1 SUB DUP2 KECCAK256 PUSH1 0x5 DUP5 ADD SLOAD DUP5 SLOAD PUSH1 0x4 DUP7 ADD SLOAD DUP5 MSTORE SWAP2 SWAP3 PUSH1 0x1 PUSH1 0x1 PUSH1 0xA0 SHL SUB SWAP1 SWAP2 AND SWAP2 SWAP1 PUSH32 0x8946C268C4725059354EF9B4C2A0AE1A4510E2E45354CB61F70F6ECF7132230F SWAP1 PUSH1 0x20 ADD PUSH1 0x40 MLOAD DUP1 SWAP2 SUB SWAP1 LOG4 POP POP POP POP POP JUMP JUMPDEST PUSH1 0x1 DUP2 DUP2 SLOAD DUP2 LT PUSH2 0x74C JUMPI PUSH1 0x0 DUP1 REVERT JUMPDEST PUSH1 0x0 SWAP2 DUP3 MSTORE PUSH1 0x20 SWAP1 SWAP2 KECCAK256 ADD SLOAD SWAP1 POP DUP2 JUMP JUMPDEST PUSH1 0x0 DUP1 SLOAD DUP3 DUP3 MSTORE PUSH1 0x2 PUSH1 0x20 MSTORE PUSH1 0x40 DUP3 KECCAK256 SLOAD LT PUSH2 0x7B7 JUMPI PUSH1 0x40 MLOAD PUSH3 0x461BCD PUSH1 0xE5 SHL DUP2 MSTORE PUSH1 0x20 PUSH1 0x4 DUP3 ADD MSTORE PUSH1 0x14 PUSH1 0x24 DUP3 ADD MSTORE PUSH20 0x11DC9BDD5C08191BD95CC81B9BDD08195E1A5CDD PUSH1 0x62 SHL PUSH1 0x44 DUP3 ADD MSTORE PUSH1 0x64 ADD JUMPDEST PUSH1 0x40 MLOAD DUP1 SWAP2 SUB SWAP1 REVERT JUMPDEST POP PUSH1 0x0 SWAP1 DUP2 MSTORE PUSH1 0x2 PUSH1 0x20 MSTORE PUSH1 0x40 SWAP1 KECCAK256 SLOAD SWAP1 JUMP JUMPDEST PUSH1 0x0 DUP2 DUP2 SLOAD DUP2 LT PUSH2 0x7DA JUMPI PUSH1 0x0 DUP1 REVERT JUMPDEST PUSH1 0x0 SWAP2 DUP3 MSTORE PUSH1 0x20 SWAP1 SWAP2 KECCAK256 PUSH1 0xC SWAP1 SWAP2 MUL ADD DUP1 SLOAD PUSH1 0x1 DUP3 ADD DUP1 SLOAD SWAP2 SWAP4 POP SWAP1 PUSH2 0x7FF SWAP1 PUSH2 0x11AB JUMP JUMPDEST DUP1 PUSH1 0x1F ADD PUSH1 0x20 DUP1 SWAP2 DIV MUL PUSH1 0x20 ADD PUSH1 0x40 MLOAD SWAP1 DUP2 ADD PUSH1 0x40 MSTORE DUP1 SWAP3 SWAP2 SWAP1 DUP2 DUP2 MSTORE PUSH1 0x20 ADD DUP3 DUP1 SLOAD PUSH2 0x82B SWAP1 PUSH2 0x11AB JUMP JUMPDEST DUP1 ISZERO PUSH2 0x878 JUMPI DUP1 PUSH1 0x1F LT PUSH2 0x84D JUMPI PUSH2 0x100 DUP1 DUP4 SLOAD DIV MUL DUP4 MSTORE SWAP2 PUSH1 0x20 ADD SWAP2 PUSH2 0x878 JUMP JUMPDEST DUP3 ADD SWAP2 SWAP1 PUSH1 0x0 MSTORE PUSH1 0x20 PUSH1 0x0 KECCAK256 SWAP1 JUMPDEST DUP2 SLOAD DUP2 MSTORE SWAP1 PUSH1 0x1 ADD SWAP1 PUSH1 0x20 ADD DUP1 DUP4 GT PUSH2 0x85B JUMPI DUP3 SWAP1 SUB PUSH1 0x1F AND DUP3 ADD SWAP2 JUMPDEST POP POP POP PUSH1 0x2 DUP5 ADD SLOAD PUSH1 0x3 DUP6 ADD DUP1 SLOAD SWAP5 SWAP6 PUSH1 0xFF SWAP1 SWAP3 AND SWAP5 SWAP2 SWAP4 POP SWAP2 POP PUSH2 0x89C SWAP1 PUSH2 0x11AB JUMP JUMPDEST DUP1 PUSH1 0x1F ADD PUSH1 0x20 DUP1 SWAP2 DIV MUL PUSH1 0x20 ADD PUSH1 0x40 MLOAD SWAP1 DUP2 ADD PUSH1 0x40 MSTORE DUP1 SWAP3 SWAP2 SWAP1 DUP2 DUP2 MSTORE PUSH1 0x20 ADD DUP3 DUP1 SLOAD PUSH2 0x8C8 SWAP1 PUSH2 0x11AB JUMP JUMPDEST DUP1 ISZERO PUSH2 0x915 JUMPI DUP1 PUSH1 0x1F LT PUSH2 0x8EA JUMPI PUSH2 0x100 DUP1 DUP4 SLOAD DIV MUL DUP4 MSTORE SWAP2 PUSH1 0x20 ADD SWAP2 PUSH2 0x915 JUMP JUMPDEST DUP3 ADD SWAP2 SWAP1 PUSH1 0x0 MSTORE PUSH1 0x20 PUSH1 0x0 KECCAK256 SWAP1 JUMPDEST DUP2 SLOAD DUP2 MSTORE SWAP1 PUSH1 0x1 ADD SWAP1 PUSH1 0x20 ADD DUP1 DUP4 GT PUSH2 0x8F8 JUMPI DUP3 SWAP1 SUB PUSH1 0x1F AND DUP3 ADD SWAP2 JUMPDEST POP POP POP POP PUSH1 0x4 DUP4 ADD SLOAD PUSH1 0x5 DUP5 ADD SLOAD PUSH1 0x6 DUP6 ADD DUP1 SLOAD SWAP5 SWAP6 SWAP3 SWAP5 PUSH1 0x1 PUSH1 0x1 PUSH1 0xA0 SHL SUB SWAP1 SWAP3 AND SWAP4 POP SWAP1 PUSH2 0x944 SWAP1 PUSH2 0x11AB JUMP JUMPDEST DUP1 PUSH1 0x1F ADD PUSH1 0x20 DUP1 SWAP2 DIV MUL PUSH1 0x20 ADD PUSH1 0x40 MLOAD SWAP1 DUP2 ADD PUSH1 0x40 MSTORE DUP1 SWAP3 SWAP2 SWAP1 DUP2 DUP2 MSTORE PUSH1 0x20 ADD DUP3 DUP1 SLOAD PUSH2 0x970 SWAP1 PUSH2 0x11AB JUMP JUMPDEST DUP1 ISZERO PUSH2 0x9BD JUMPI DUP1 PUSH1 0x1F LT PUSH2 0x992 JUMPI PUSH2 0x100 DUP1 DUP4 SLOAD DIV MUL DUP4 MSTORE SWAP2 PUSH1 0x20 ADD SWAP2 PUSH2 0x9BD JUMP JUMPDEST DUP3 ADD SWAP2 SWAP1 PUSH1 0x0 MSTORE PUSH1 0x20 PUSH1 0x0 KECCAK256 SWAP1 JUMPDEST DUP2 SLOAD DUP2 MSTORE SWAP1 PUSH1 0x1 ADD SWAP1 PUSH1 0x20 ADD DUP1 DUP4 GT PUSH2 0x9A0 JUMPI DUP3 SWAP1 SUB PUSH1 0x1F AND DUP3 ADD SWAP2 JUMPDEST POP POP POP POP POP SWAP1 DUP1 PUSH1 0x7 ADD SLOAD SWAP1 DUP1 PUSH1 0x8 ADD SLOAD SWAP1 DUP1 PUSH1 0x9 ADD SLOAD SWAP1 POP DUP11 JUMP JUMPDEST PUSH1 0x0 PUSH1 0x3 PUSH1 0x0 DUP4 PUSH1 0x40 MLOAD PUSH1 0x20 ADD PUSH2 0x9F2 SWAP2 DUP2 MSTORE PUSH1 0x20 ADD SWAP1 JUMP JUMPDEST PUSH1 0x40 MLOAD PUSH1 0x20 DUP2 DUP4 SUB SUB DUP2 MSTORE SWAP1 PUSH1 0x40 MSTORE DUP1 MLOAD SWAP1 PUSH1 0x20 ADD KECCAK256 DUP2 MSTORE PUSH1 0x20 ADD SWAP1 DUP2 MSTORE PUSH1 0x20 ADD PUSH1 0x0 KECCAK256 SLOAD SWAP1 POP SWAP2 SWAP1 POP JUMP JUMPDEST PUSH1 0x0 PUSH2 0xA29 DUP6 PUSH2 0x75D JUMP JUMPDEST SWAP1 POP PUSH1 0x0 DUP1 DUP3 DUP2 SLOAD DUP2 LT PUSH2 0xA3F JUMPI PUSH2 0xA3F PUSH2 0x1195 JUMP JUMPDEST PUSH1 0x0 SWAP2 DUP3 MSTORE PUSH1 0x20 DUP1 DUP4 KECCAK256 PUSH1 0x1 PUSH1 0x1 PUSH1 0xA0 SHL SUB DUP10 DUP2 AND DUP6 MSTORE PUSH1 0xC SWAP4 SWAP1 SWAP4 MUL ADD PUSH1 0xB DUP2 ADD SWAP1 SWAP2 MSTORE PUSH1 0x40 SWAP1 SWAP3 KECCAK256 SLOAD SWAP2 SWAP3 POP AND ISZERO PUSH2 0xAAB JUMPI PUSH1 0x1 PUSH1 0x1 PUSH1 0xA0 SHL SUB DUP6 AND PUSH1 0x0 SWAP1 DUP2 MSTORE PUSH1 0xB DUP3 ADD PUSH1 0x20 MSTORE PUSH1 0x40 DUP2 KECCAK256 PUSH1 0x2 ADD DUP1 SLOAD DUP6 SWAP3 SWAP1 PUSH2 0xAA0 SWAP1 DUP5 SWAP1 PUSH2 0x11FC JUMP JUMPDEST SWAP1 SWAP2 SSTORE POP PUSH2 0xB4D SWAP1 POP JUMP JUMPDEST PUSH1 0x40 DUP1 MLOAD PUSH1 0x60 DUP2 ADD DUP3 MSTORE PUSH1 0x1 PUSH1 0x1 PUSH1 0xA0 SHL SUB DUP8 DUP2 AND DUP1 DUP4 MSTORE PUSH1 0x20 DUP1 DUP5 ADD DUP10 DUP2 MSTORE DUP5 DUP7 ADD DUP10 SWAP1 MSTORE PUSH1 0x0 SWAP3 DUP4 MSTORE PUSH1 0xB DUP8 ADD DUP3 MSTORE SWAP5 SWAP1 SWAP2 KECCAK256 DUP4 MLOAD DUP2 SLOAD PUSH1 0x1 PUSH1 0x1 PUSH1 0xA0 SHL SUB NOT AND SWAP4 AND SWAP3 SWAP1 SWAP3 OR DUP3 SSTORE SWAP3 MLOAD DUP1 MLOAD SWAP3 SWAP4 SWAP2 SWAP3 PUSH2 0xB0E SWAP3 PUSH1 0x1 DUP6 ADD SWAP3 ADD SWAP1 PUSH2 0xD23 JUMP JUMPDEST POP PUSH1 0x40 SWAP2 SWAP1 SWAP2 ADD MLOAD PUSH1 0x2 SWAP1 SWAP2 ADD SSTORE PUSH1 0xA DUP2 ADD DUP1 SLOAD PUSH1 0x1 DUP2 ADD DUP3 SSTORE PUSH1 0x0 SWAP2 DUP3 MSTORE PUSH1 0x20 SWAP1 SWAP2 KECCAK256 ADD DUP1 SLOAD PUSH1 0x1 PUSH1 0x1 PUSH1 0xA0 SHL SUB NOT AND PUSH1 0x1 PUSH1 0x1 PUSH1 0xA0 SHL SUB DUP8 AND OR SWAP1 SSTORE JUMPDEST DUP3 DUP2 PUSH1 0x7 ADD PUSH1 0x0 DUP3 DUP3 SLOAD PUSH2 0xB61 SWAP2 SWAP1 PUSH2 0x11FC JUMP JUMPDEST SWAP3 POP POP DUP2 SWAP1 SSTORE POP DUP3 DUP2 PUSH1 0x8 ADD PUSH1 0x0 DUP3 DUP3 SLOAD PUSH2 0xB7C SWAP2 SWAP1 PUSH2 0x11FC JUMP JUMPDEST SWAP1 SWAP2 SSTORE POP POP POP POP POP POP POP POP JUMP JUMPDEST DUP2 PUSH1 0x0 PUSH2 0xB95 DUP3 PUSH2 0x75D JUMP JUMPDEST SWAP1 POP PUSH1 0x0 DUP2 DUP2 SLOAD DUP2 LT PUSH2 0xBAA JUMPI PUSH2 0xBAA PUSH2 0x1195 JUMP JUMPDEST PUSH1 0x0 SWAP2 DUP3 MSTORE PUSH1 0x20 SWAP1 SWAP2 KECCAK256 PUSH1 0x2 PUSH1 0xC SWAP1 SWAP3 MUL ADD ADD SLOAD PUSH1 0xFF AND ISZERO ISZERO PUSH1 0x1 EQ PUSH2 0xC04 JUMPI PUSH1 0x40 MLOAD PUSH3 0x461BCD PUSH1 0xE5 SHL DUP2 MSTORE PUSH1 0x20 PUSH1 0x4 DUP3 ADD MSTORE PUSH1 0xF PUSH1 0x24 DUP3 ADD MSTORE PUSH15 0x11DC9BDD5C081A5CC818DB1BDCD959 PUSH1 0x8A SHL PUSH1 0x44 DUP3 ADD MSTORE PUSH1 0x64 ADD PUSH2 0x7AE JUMP JUMPDEST PUSH1 0x0 CALLVALUE GT PUSH2 0xC65 JUMPI PUSH1 0x40 MLOAD PUSH3 0x461BCD PUSH1 0xE5 SHL DUP2 MSTORE PUSH1 0x20 PUSH1 0x4 DUP3 ADD MSTORE PUSH1 0x28 PUSH1 0x24 DUP3 ADD MSTORE PUSH32 0x4465706F73697420616D6F756E74206D75737420626520677265617465722074 PUSH1 0x44 DUP3 ADD MSTORE PUSH8 0x68616E207A65726F PUSH1 0xC0 SHL PUSH1 0x64 DUP3 ADD MSTORE PUSH1 0x84 ADD PUSH2 0x7AE JUMP JUMPDEST CALLVALUE PUSH2 0xC72 DUP6 CALLER DUP7 DUP5 PUSH2 0xA1E JUMP JUMPDEST CALLER PUSH1 0x1 PUSH1 0x1 PUSH1 0xA0 SHL SUB AND DUP6 PUSH32 0x61A3A1F9F4C2BAC8DA4625370B6AFA9F9B2F7B7A03B54591754873CC308126C DUP7 DUP5 PUSH1 0x40 MLOAD PUSH2 0xCAE SWAP3 SWAP2 SWAP1 PUSH2 0x12C7 JUMP JUMPDEST PUSH1 0x40 MLOAD DUP1 SWAP2 SUB SWAP1 LOG3 POP POP POP POP POP JUMP JUMPDEST PUSH1 0x0 PUSH3 0xF4240 TIMESTAMP DIFFICULTY CALLER PUSH1 0x40 MLOAD PUSH1 0x20 ADD PUSH2 0xCFB SWAP4 SWAP3 SWAP2 SWAP1 SWAP3 DUP4 MSTORE PUSH1 0x20 DUP4 ADD SWAP2 SWAP1 SWAP2 MSTORE PUSH1 0x60 SHL PUSH12 0xFFFFFFFFFFFFFFFFFFFFFFFF NOT AND PUSH1 0x40 DUP3 ADD MSTORE PUSH1 0x54 ADD SWAP1 JUMP JUMPDEST PUSH1 0x40 MLOAD PUSH1 0x20 DUP2 DUP4 SUB SUB DUP2 MSTORE SWAP1 PUSH1 0x40 MSTORE DUP1 MLOAD SWAP1 PUSH1 0x20 ADD KECCAK256 PUSH1 0x0 SHR PUSH2 0xD1E SWAP2 SWAP1 PUSH2 0x12E9 JUMP JUMPDEST SWAP1 POP SWAP1 JUMP JUMPDEST DUP3 DUP1 SLOAD PUSH2 0xD2F SWAP1 PUSH2 0x11AB JUMP JUMPDEST SWAP1 PUSH1 0x0 MSTORE PUSH1 0x20 PUSH1 0x0 KECCAK256 SWAP1 PUSH1 0x1F ADD PUSH1 0x20 SWAP1 DIV DUP2 ADD SWAP3 DUP3 PUSH2 0xD51 JUMPI PUSH1 0x0 DUP6 SSTORE PUSH2 0xD97 JUMP JUMPDEST DUP3 PUSH1 0x1F LT PUSH2 0xD6A JUMPI DUP1 MLOAD PUSH1 0xFF NOT AND DUP4 DUP1 ADD OR DUP6 SSTORE PUSH2 0xD97 JUMP JUMPDEST DUP3 DUP1 ADD PUSH1 0x1 ADD DUP6 SSTORE DUP3 ISZERO PUSH2 0xD97 JUMPI SWAP2 DUP3 ADD JUMPDEST DUP3 DUP2 GT ISZERO PUSH2 0xD97 JUMPI DUP3 MLOAD DUP3 SSTORE SWAP2 PUSH1 0x20 ADD SWAP2 SWAP1 PUSH1 0x1 ADD SWAP1 PUSH2 0xD7C JUMP JUMPDEST POP PUSH2 0xDA3 SWAP3 SWAP2 POP PUSH2 0xDA7 JUMP JUMPDEST POP SWAP1 JUMP JUMPDEST JUMPDEST DUP1 DUP3 GT ISZERO PUSH2 0xDA3 JUMPI PUSH1 0x0 DUP2 SSTORE PUSH1 0x1 ADD PUSH2 0xDA8 JUMP JUMPDEST PUSH1 0x0 PUSH1 0x20 DUP3 DUP5 SUB SLT ISZERO PUSH2 0xDCE JUMPI PUSH1 0x0 DUP1 REVERT JUMPDEST POP CALLDATALOAD SWAP2 SWAP1 POP JUMP JUMPDEST PUSH1 0x20 DUP1 DUP3 MSTORE DUP3 MLOAD DUP3 DUP3 ADD DUP2 SWAP1 MSTORE PUSH1 0x0 SWAP2 SWAP1 DUP5 DUP3 ADD SWAP1 PUSH1 0x40 DUP6 ADD SWAP1 DUP5 JUMPDEST DUP2 DUP2 LT ISZERO PUSH2 0xE0D JUMPI DUP4 MLOAD DUP4 MSTORE SWAP3 DUP5 ADD SWAP3 SWAP2 DUP5 ADD SWAP2 PUSH1 0x1 ADD PUSH2 0xDF1 JUMP JUMPDEST POP SWAP1 SWAP7 SWAP6 POP POP POP POP POP POP JUMP JUMPDEST PUSH1 0x0 DUP2 MLOAD DUP1 DUP5 MSTORE PUSH1 0x0 JUMPDEST DUP2 DUP2 LT ISZERO PUSH2 0xE3F JUMPI PUSH1 0x20 DUP2 DUP6 ADD DUP2 ADD MLOAD DUP7 DUP4 ADD DUP3 ADD MSTORE ADD PUSH2 0xE23 JUMP JUMPDEST DUP2 DUP2 GT ISZERO PUSH2 0xE51 JUMPI PUSH1 0x0 PUSH1 0x20 DUP4 DUP8 ADD ADD MSTORE JUMPDEST POP PUSH1 0x1F ADD PUSH1 0x1F NOT AND SWAP3 SWAP1 SWAP3 ADD PUSH1 0x20 ADD SWAP3 SWAP2 POP POP JUMP JUMPDEST PUSH1 0x0 PUSH2 0x160 DUP14 DUP4 MSTORE PUSH1 0x20 DUP2 DUP2 DUP6 ADD MSTORE PUSH2 0xE81 DUP3 DUP6 ADD DUP16 PUSH2 0xE19 JUMP JUMPDEST PUSH1 0x1 PUSH1 0x1 PUSH1 0xA0 SHL SUB DUP15 DUP2 AND PUSH1 0x40 DUP8 ADD MSTORE DUP6 DUP3 SUB PUSH1 0x60 DUP8 ADD MSTORE SWAP1 SWAP3 POP PUSH2 0xEA6 DUP4 DUP15 PUSH2 0xE19 JUMP JUMPDEST SWAP3 POP DUP5 DUP4 SUB PUSH1 0x80 DUP7 ADD MSTORE PUSH2 0xEBA DUP4 DUP14 PUSH2 0xE19 JUMP JUMPDEST SWAP3 POP DUP11 PUSH1 0xA0 DUP7 ADD MSTORE DUP10 ISZERO ISZERO PUSH1 0xC0 DUP7 ADD MSTORE DUP9 PUSH1 0xE0 DUP7 ADD MSTORE DUP8 PUSH2 0x100 DUP7 ADD MSTORE DUP7 PUSH2 0x120 DUP7 ADD MSTORE DUP5 DUP4 SUB PUSH2 0x140 DUP7 ADD MSTORE DUP3 DUP7 MLOAD DUP1 DUP6 MSTORE DUP4 DUP6 ADD SWAP2 POP DUP4 DUP9 ADD SWAP5 POP PUSH1 0x0 JUMPDEST DUP2 DUP2 LT ISZERO PUSH2 0xF18 JUMPI DUP6 MLOAD DUP5 AND DUP4 MSTORE SWAP5 DUP5 ADD SWAP5 SWAP2 DUP5 ADD SWAP2 PUSH1 0x1 ADD PUSH2 0xEFA JUMP JUMPDEST POP POP DUP1 SWAP5 POP POP POP POP POP SWAP13 SWAP12 POP POP POP POP POP POP POP POP POP POP POP POP JUMP JUMPDEST PUSH4 0x4E487B71 PUSH1 0xE0 SHL PUSH1 0x0 MSTORE PUSH1 0x41 PUSH1 0x4 MSTORE PUSH1 0x24 PUSH1 0x0 REVERT JUMPDEST PUSH1 0x0 DUP3 PUSH1 0x1F DUP4 ADD SLT PUSH2 0xF58 JUMPI PUSH1 0x0 DUP1 REVERT JUMPDEST DUP2 CALLDATALOAD PUSH8 0xFFFFFFFFFFFFFFFF DUP1 DUP3 GT ISZERO PUSH2 0xF73 JUMPI PUSH2 0xF73 PUSH2 0xF31 JUMP JUMPDEST PUSH1 0x40 MLOAD PUSH1 0x1F DUP4 ADD PUSH1 0x1F NOT SWAP1 DUP2 AND PUSH1 0x3F ADD AND DUP2 ADD SWAP1 DUP3 DUP3 GT DUP2 DUP4 LT OR ISZERO PUSH2 0xF9B JUMPI PUSH2 0xF9B PUSH2 0xF31 JUMP JUMPDEST DUP2 PUSH1 0x40 MSTORE DUP4 DUP2 MSTORE DUP7 PUSH1 0x20 DUP6 DUP9 ADD ADD GT ISZERO PUSH2 0xFB4 JUMPI PUSH1 0x0 DUP1 REVERT JUMPDEST DUP4 PUSH1 0x20 DUP8 ADD PUSH1 0x20 DUP4 ADD CALLDATACOPY PUSH1 0x0 PUSH1 0x20 DUP6 DUP4 ADD ADD MSTORE DUP1 SWAP5 POP POP POP POP POP SWAP3 SWAP2 POP POP JUMP JUMPDEST PUSH1 0x0 DUP1 PUSH1 0x0 PUSH1 0x60 DUP5 DUP7 SUB SLT ISZERO PUSH2 0xFE9 JUMPI PUSH1 0x0 DUP1 REVERT JUMPDEST DUP4 CALLDATALOAD PUSH8 0xFFFFFFFFFFFFFFFF DUP1 DUP3 GT ISZERO PUSH2 0x1001 JUMPI PUSH1 0x0 DUP1 REVERT JUMPDEST PUSH2 0x100D DUP8 DUP4 DUP9 ADD PUSH2 0xF47 JUMP JUMPDEST SWAP5 POP PUSH1 0x20 DUP7 ADD CALLDATALOAD SWAP2 POP DUP1 DUP3 GT ISZERO PUSH2 0x1023 JUMPI PUSH1 0x0 DUP1 REVERT JUMPDEST PUSH2 0x102F DUP8 DUP4 DUP9 ADD PUSH2 0xF47 JUMP JUMPDEST SWAP4 POP PUSH1 0x40 DUP7 ADD CALLDATALOAD SWAP2 POP DUP1 DUP3 GT ISZERO PUSH2 0x1045 JUMPI PUSH1 0x0 DUP1 REVERT JUMPDEST POP PUSH2 0x1052 DUP7 DUP3 DUP8 ADD PUSH2 0xF47 JUMP JUMPDEST SWAP2 POP POP SWAP3 POP SWAP3 POP SWAP3 JUMP JUMPDEST PUSH1 0x0 PUSH2 0x140 DUP13 DUP4 MSTORE DUP1 PUSH1 0x20 DUP5 ADD MSTORE PUSH2 0x1076 DUP2 DUP5 ADD DUP14 PUSH2 0xE19 JUMP JUMPDEST SWAP1 POP DUP11 ISZERO ISZERO PUSH1 0x40 DUP5 ADD MSTORE DUP3 DUP2 SUB PUSH1 0x60 DUP5 ADD MSTORE PUSH2 0x1092 DUP2 DUP12 PUSH2 0xE19 JUMP JUMPDEST PUSH1 0x80 DUP5 ADD DUP11 SWAP1 MSTORE PUSH1 0x1 PUSH1 0x1 PUSH1 0xA0 SHL SUB DUP10 AND PUSH1 0xA0 DUP6 ADD MSTORE DUP4 DUP2 SUB PUSH1 0xC0 DUP6 ADD MSTORE SWAP1 POP PUSH2 0x10BC DUP2 DUP9 PUSH2 0xE19 JUMP JUMPDEST PUSH1 0xE0 DUP5 ADD SWAP7 SWAP1 SWAP7 MSTORE POP POP PUSH2 0x100 DUP2 ADD SWAP3 SWAP1 SWAP3 MSTORE PUSH2 0x120 SWAP1 SWAP2 ADD MSTORE SWAP8 SWAP7 POP POP POP POP POP POP POP JUMP JUMPDEST PUSH1 0x0 DUP1 PUSH1 0x0 DUP1 PUSH1 0x80 DUP6 DUP8 SUB SLT ISZERO PUSH2 0x10F7 JUMPI PUSH1 0x0 DUP1 REVERT JUMPDEST DUP5 CALLDATALOAD SWAP4 POP PUSH1 0x20 DUP6 ADD CALLDATALOAD PUSH1 0x1 PUSH1 0x1 PUSH1 0xA0 SHL SUB DUP2 AND DUP2 EQ PUSH2 0x1115 JUMPI PUSH1 0x0 DUP1 REVERT JUMPDEST SWAP3 POP PUSH1 0x40 DUP6 ADD CALLDATALOAD PUSH8 0xFFFFFFFFFFFFFFFF DUP2 GT ISZERO PUSH2 0x1131 JUMPI PUSH1 0x0 DUP1 REVERT JUMPDEST PUSH2 0x113D DUP8 DUP3 DUP9 ADD PUSH2 0xF47 JUMP JUMPDEST SWAP5 SWAP8 SWAP4 SWAP7 POP SWAP4 SWAP5 PUSH1 0x60 ADD CALLDATALOAD SWAP4 POP POP POP JUMP JUMPDEST PUSH1 0x0 DUP1 PUSH1 0x40 DUP4 DUP6 SUB SLT ISZERO PUSH2 0x1161 JUMPI PUSH1 0x0 DUP1 REVERT JUMPDEST DUP3 CALLDATALOAD SWAP2 POP PUSH1 0x20 DUP4 ADD CALLDATALOAD PUSH8 0xFFFFFFFFFFFFFFFF DUP2 GT ISZERO PUSH2 0x117F JUMPI PUSH1 0x0 DUP1 REVERT JUMPDEST PUSH2 0x118B DUP6 DUP3 DUP7 ADD PUSH2 0xF47 JUMP JUMPDEST SWAP2 POP POP SWAP3 POP SWAP3 SWAP1 POP JUMP JUMPDEST PUSH4 0x4E487B71 PUSH1 0xE0 SHL PUSH1 0x0 MSTORE PUSH1 0x32 PUSH1 0x4 MSTORE PUSH1 0x24 PUSH1 0x0 REVERT JUMPDEST PUSH1 0x1 DUP2 DUP2 SHR SWAP1 DUP3 AND DUP1 PUSH2 0x11BF JUMPI PUSH1 0x7F DUP3 AND SWAP2 POP JUMPDEST PUSH1 0x20 DUP3 LT DUP2 EQ ISZERO PUSH2 0x11E0 JUMPI PUSH4 0x4E487B71 PUSH1 0xE0 SHL PUSH1 0x0 MSTORE PUSH1 0x22 PUSH1 0x4 MSTORE PUSH1 0x24 PUSH1 0x0 REVERT JUMPDEST POP SWAP2 SWAP1 POP JUMP JUMPDEST PUSH4 0x4E487B71 PUSH1 0xE0 SHL PUSH1 0x0 MSTORE PUSH1 0x11 PUSH1 0x4 MSTORE PUSH1 0x24 PUSH1 0x0 REVERT JUMPDEST PUSH1 0x0 DUP3 NOT DUP3 GT ISZERO PUSH2 0x120F JUMPI PUSH2 0x120F PUSH2 0x11E6 JUMP JUMPDEST POP ADD SWAP1 JUMP JUMPDEST PUSH1 0x0 DUP3 DUP3 LT ISZERO PUSH2 0x1226 JUMPI PUSH2 0x1226 PUSH2 0x11E6 JUMP JUMPDEST POP SUB SWAP1 JUMP JUMPDEST PUSH1 0x0 DUP1 DUP4 SLOAD DUP2 PUSH1 0x1 DUP3 DUP2 SHR SWAP2 POP DUP1 DUP4 AND DUP1 PUSH2 0x1247 JUMPI PUSH1 0x7F DUP4 AND SWAP3 POP JUMPDEST PUSH1 0x20 DUP1 DUP5 LT DUP3 EQ ISZERO PUSH2 0x1267 JUMPI PUSH4 0x4E487B71 PUSH1 0xE0 SHL DUP7 MSTORE PUSH1 0x22 PUSH1 0x4 MSTORE PUSH1 0x24 DUP7 REVERT JUMPDEST DUP2 DUP1 ISZERO PUSH2 0x127B JUMPI PUSH1 0x1 DUP2 EQ PUSH2 0x128C JUMPI PUSH2 0x12B9 JUMP JUMPDEST PUSH1 0xFF NOT DUP7 AND DUP10 MSTORE DUP5 DUP10 ADD SWAP7 POP PUSH2 0x12B9 JUMP JUMPDEST PUSH1 0x0 DUP11 DUP2 MSTORE PUSH1 0x20 SWAP1 KECCAK256 PUSH1 0x0 JUMPDEST DUP7 DUP2 LT ISZERO PUSH2 0x12B1 JUMPI DUP2 SLOAD DUP12 DUP3 ADD MSTORE SWAP1 DUP6 ADD SWAP1 DUP4 ADD PUSH2 0x1298 JUMP JUMPDEST POP POP DUP5 DUP10 ADD SWAP7 POP JUMPDEST POP SWAP5 SWAP9 SWAP8 POP POP POP POP POP POP POP POP JUMP JUMPDEST PUSH1 0x40 DUP2 MSTORE PUSH1 0x0 PUSH2 0x12DA PUSH1 0x40 DUP4 ADD DUP6 PUSH2 0xE19 JUMP JUMPDEST SWAP1 POP DUP3 PUSH1 0x20 DUP4 ADD MSTORE SWAP4 SWAP3 POP POP POP JUMP JUMPDEST PUSH1 0x0 DUP3 PUSH2 0x1306 JUMPI PUSH4 0x4E487B71 PUSH1 0xE0 SHL PUSH1 0x0 MSTORE PUSH1 0x12 PUSH1 0x4 MSTORE PUSH1 0x24 PUSH1 0x0 REVERT JUMPDEST POP MOD SWAP1 JUMP INVALID LOG2 PUSH5 0x6970667358 0x22 SLT KECCAK256 PUSH2 0x4A2F 0xD7 0x24 0xAA DUP15 0xCD 0xCE 0xC1 AND 0x2A PUSH32 0xB20AC2F6055C9FE89E4192AC9FA4B24A8D7C2A64736F6C634300080900330000 "},"methodIdentifiers":{"activeGroups()":"d0e4567e","addParticipantToGroup(uint256,address,string,uint256)":"c9744950","createGroup(string,string,string)":"3073efdd","depositToGroup(uint256,string)":"f6d87c05","getAllGroupIds()":"2e3dcc06","getGroupIdByUrl(uint256)":"b1cacc8e","getGroupIndexById(uint256)":"6d145730","getGroupInfoById(uint256)":"2f14f6c9","getGroupsNum()":"5d39c56b","groupIds(uint256)":"4093d7a1","groups(uint256)":"96324bd4","withdrawFunds(uint256)":"155dd5ee"}}}}}