{"contracts/GroupSplitV2.sol":{"GroupSplitV2":{"abi":[{"inputs":[],"name":"InvalidInitialization","type":"error"},{"inputs":[],"name":"NotInitializing","type":"error"},{"anonymous":false,"inputs":[{"indexed":false,"internalType":"uint64","name":"version","type":"uint64"}],"name":"Initialized","type":"event"},{"anonymous":false,"inputs":[{"indexed":true,"internalType":"uint256","name":"groupId","type":"uint256"},{"indexed":true,"internalType":"address","name":"owner","type":"address"},{"indexed":true,"internalType":"string","name":"groupName","type":"string"},{"indexed":false,"internalType":"uint256","name":"closingTime","type":"uint256"},{"indexed":false,"internalType":"bool","name":"isUSDC","type":"bool"}],"name":"logGroupClosed","type":"event"},{"anonymous":false,"inputs":[{"indexed":true,"internalType":"uint256","name":"groupId","type":"uint256"},{"indexed":true,"internalType":"address","name":"owner","type":"address"},{"indexed":true,"internalType":"string","name":"groupName","type":"string"},{"indexed":false,"internalType":"uint256","name":"creationTime","type":"uint256"},{"indexed":false,"internalType":"bool","name":"isUSDC","type":"bool"}],"name":"logGroupCreated","type":"event"},{"anonymous":false,"inputs":[{"indexed":true,"internalType":"uint256","name":"groupId","type":"uint256"},{"indexed":true,"internalType":"address","name":"participant","type":"address"},{"indexed":false,"internalType":"string","name":"nickname","type":"string"},{"indexed":false,"internalType":"uint256","name":"deposit","type":"uint256"},{"indexed":false,"internalType":"bool","name":"isUSDC","type":"bool"}],"name":"logGroupDepositReceived","type":"event"},{"anonymous":false,"inputs":[{"indexed":true,"internalType":"uint256","name":"groupId","type":"uint256"},{"indexed":true,"internalType":"address","name":"owner","type":"address"},{"indexed":true,"internalType":"string","name":"groupName","type":"string"},{"indexed":false,"internalType":"uint256","name":"openingTime","type":"uint256"},{"indexed":false,"internalType":"bool","name":"isUSDC","type":"bool"}],"name":"logGroupOpened","type":"event"},{"anonymous":false,"inputs":[{"indexed":true,"internalType":"uint256","name":"groupId","type":"uint256"},{"indexed":false,"internalType":"uint256","name":"amountWithdrawn","type":"uint256"},{"indexed":false,"internalType":"uint256","name":"time","type":"uint256"},{"indexed":false,"internalType":"uint256","name":"totalCollected","type":"uint256"},{"indexed":false,"internalType":"uint256","name":"totalWithdrawn","type":"uint256"},{"indexed":false,"internalType":"bool","name":"isUSDC","type":"bool"}],"name":"logGroupWithdrawal","type":"event"},{"anonymous":false,"inputs":[{"indexed":true,"internalType":"uint256","name":"groupId","type":"uint256"},{"indexed":true,"internalType":"address","name":"owner","type":"address"},{"indexed":false,"internalType":"uint256","name":"amount","type":"uint256"},{"indexed":false,"internalType":"bool","name":"isUSDC","type":"bool"}],"name":"logWithdrawalFailed","type":"event"},{"inputs":[],"name":"USDC","outputs":[{"internalType":"contract IERC20","name":"","type":"address"}],"stateMutability":"view","type":"function"},{"inputs":[],"name":"contractOpenedGroupsStat","outputs":[{"internalType":"uint256","name":"","type":"uint256"}],"stateMutability":"view","type":"function"},{"inputs":[],"name":"contractTotalCollectedEthStat","outputs":[{"internalType":"uint256","name":"","type":"uint256"}],"stateMutability":"view","type":"function"},{"inputs":[],"name":"contractTotalCollectedUSDCStat","outputs":[{"internalType":"uint256","name":"","type":"uint256"}],"stateMutability":"view","type":"function"},{"inputs":[{"internalType":"string","name":"_groupName","type":"string"},{"internalType":"string","name":"_ownerNickname","type":"string"},{"internalType":"bool","name":"isUSDC","type":"bool"}],"name":"createGroup","outputs":[],"stateMutability":"nonpayable","type":"function"},{"inputs":[{"internalType":"uint256","name":"_groupId","type":"uint256"},{"internalType":"string","name":"_nickname","type":"string"},{"internalType":"bool","name":"isUSDCDeposit","type":"bool"},{"internalType":"uint256","name":"usdcAmount","type":"uint256"}],"name":"depositToGroup","outputs":[],"stateMutability":"payable","type":"function"},{"inputs":[],"name":"getAllGroupIds","outputs":[{"internalType":"uint256[]","name":"","type":"uint256[]"}],"stateMutability":"view","type":"function"},{"inputs":[{"internalType":"uint256","name":"_groupId","type":"uint256"}],"name":"getGroupInfoById","outputs":[{"internalType":"uint256","name":"","type":"uint256"},{"internalType":"string","name":"","type":"string"},{"internalType":"bool","name":"","type":"bool"},{"internalType":"address","name":"","type":"address"},{"internalType":"string","name":"","type":"string"},{"internalType":"uint256","name":"","type":"uint256"},{"internalType":"uint256","name":"","type":"uint256"},{"internalType":"uint256","name":"","type":"uint256"},{"internalType":"uint256","name":"","type":"uint256"},{"internalType":"uint256","name":"","type":"uint256"},{"internalType":"address[]","name":"","type":"address[]"}],"stateMutability":"view","type":"function"},{"inputs":[],"name":"getGroupsNum","outputs":[{"internalType":"uint256","name":"","type":"uint256"}],"stateMutability":"view","type":"function"},{"inputs":[{"internalType":"uint256","name":"_groupId","type":"uint256"},{"internalType":"address","name":"_participantAddress","type":"address"}],"name":"getParticipantDetails","outputs":[{"internalType":"address","name":"participantAddress","type":"address"},{"internalType":"string","name":"nickname","type":"string"},{"internalType":"uint256","name":"totalDeposits","type":"uint256"},{"internalType":"uint256","name":"lastDeposited","type":"uint256"}],"stateMutability":"view","type":"function"},{"inputs":[{"internalType":"uint256","name":"","type":"uint256"}],"name":"groupIds","outputs":[{"internalType":"uint256","name":"","type":"uint256"}],"stateMutability":"view","type":"function"},{"inputs":[{"internalType":"uint256","name":"","type":"uint256"}],"name":"groups","outputs":[{"internalType":"uint256","name":"groupId","type":"uint256"},{"internalType":"string","name":"groupName","type":"string"},{"internalType":"bool","name":"isUSDC","type":"bool"},{"internalType":"uint256","name":"status","type":"uint256"},{"internalType":"uint256","name":"creationTime","type":"uint256"},{"internalType":"address","name":"owner","type":"address"},{"internalType":"string","name":"ownerNickname","type":"string"},{"internalType":"uint256","name":"balance","type":"uint256"},{"internalType":"uint256","name":"totalCollected","type":"uint256"},{"internalType":"uint256","name":"totalWithdrawn","type":"uint256"}],"stateMutability":"view","type":"function"},{"inputs":[{"internalType":"address","name":"_usdcTokenAddress","type":"address"}],"name":"initialize","outputs":[],"stateMutability":"nonpayable","type":"function"},{"inputs":[{"internalType":"uint256","name":"_groupId","type":"uint256"}],"name":"withdrawFromGroup","outputs":[],"stateMutability":"payable","type":"function"}],"evm":{"bytecode":{"linkReferences":{},"object":"608060405234801561001057600080fd5b50611d09806100206000396000f3fe6080604052600436106100dd5760003560e01c80637ceee3401161007f578063a2a4498b11610059578063a2a4498b14610263578063a30013e114610278578063c4d66de814610298578063f35ea5d0146102b857600080fd5b80637ceee340146101df57806389a30271146101f557806396324bd41461022d57600080fd5b806332bee467116100bb57806332bee467146101645780633756eeb8146101945780634093d7a1146101aa5780635d39c56b146101ca57600080fd5b806306e0b1cc146100e25780632e3dcc061461010b5780632f14f6c91461012d575b600080fd5b3480156100ee57600080fd5b506100f860045481565b6040519081526020015b60405180910390f35b34801561011757600080fd5b506101206102cb565b60405161010291906115b0565b34801561013957600080fd5b5061014d6101483660046115f4565b610323565b6040516101029b9a9998979695949392919061165d565b34801561017057600080fd5b5061018461017f366004611736565b610556565b6040516101029493929190611762565b3480156101a057600080fd5b506100f860055481565b3480156101b657600080fd5b506100f86101c53660046115f4565b6106e9565b3480156101d657600080fd5b506000546100f8565b3480156101eb57600080fd5b506100f860035481565b34801561020157600080fd5b50600654610215906001600160a01b031681565b6040516001600160a01b039091168152602001610102565b34801561023957600080fd5b5061024d6102483660046115f4565b61070a565b6040516101029a99989796959493929190611799565b6102766102713660046115f4565b61088c565b005b34801561028457600080fd5b506102766102933660046118c5565b610c6c565b3480156102a457600080fd5b506102766102b336600461193d565b610e41565b6102766102c636600461195f565b610f7d565b6060600180548060200260200160405190810160405280929190818152602001828054801561031957602002820191906000526020600020905b815481526020019060010190808311610305575b5050505050905090565b6000606060008060606000806000806000606060006103418d61137a565b90506000808281548110610357576103576119c0565b90600052602060002090600c020190508060000154816001018260020160009054906101000a900460ff168360050160009054906101000a90046001600160a01b031684600601856004015486600301548760070154886008015489600901548a600a018980546103c7906119d6565b80601f01602080910402602001604051908101604052809291908181526020018280546103f3906119d6565b80156104405780601f1061041557610100808354040283529160200191610440565b820191906000526020600020905b81548152906001019060200180831161042357829003601f168201915b50505050509950868054610453906119d6565b80601f016020809104026020016040519081016040528092919081815260200182805461047f906119d6565b80156104cc5780601f106104a1576101008083540402835291602001916104cc565b820191906000526020600020905b8154815290600101906020018083116104af57829003601f168201915b505050505096508080548060200260200160405190810160405280929190818152602001828054801561052857602002820191906000526020600020905b81546001600160a01b0316815260019091019060200180831161050a575b505050505090509c509c509c509c509c509c509c509c509c509c509c50505091939597999b90929496989a50565b6000606060008060006105688761137a565b9050600080828154811061057e5761057e6119c0565b600091825260208083206001600160a01b038b81168552600c9390930201600b810182526040808520815160808101909252805490941681526001840180549296509093928401916105cf906119d6565b80601f01602080910402602001604051908101604052809291908181526020018280546105fb906119d6565b80156106485780601f1061061d57610100808354040283529160200191610648565b820191906000526020600020905b81548152906001019060200180831161062b57829003601f168201915b50505091835250506002820154602082015260039091015460409091015280519091506001600160a01b03166106c55760405162461bcd60e51b815260206004820152601a60248201527f5061727469636970616e7420646f6573206e6f7420657869737400000000000060448201526064015b60405180910390fd5b805160208201516040830151606090930151919b909a509198509650945050505050565b600181815481106106f957600080fd5b600091825260209091200154905081565b6000818154811061071a57600080fd5b60009182526020909120600c9091020180546001820180549193509061073f906119d6565b80601f016020809104026020016040519081016040528092919081815260200182805461076b906119d6565b80156107b85780601f1061078d576101008083540402835291602001916107b8565b820191906000526020600020905b81548152906001019060200180831161079b57829003601f168201915b5050506002840154600385015460048601546005870154600688018054979860ff909516979396509194506001600160a01b031692916107f7906119d6565b80601f0160208091040260200160405190810160405280929190818152602001828054610823906119d6565b80156108705780601f1061084557610100808354040283529160200191610870565b820191906000526020600020905b81548152906001019060200180831161085357829003601f168201915b505050505090806007015490806008015490806009015490508a565b60006108978261137a565b905060008082815481106108ad576108ad6119c0565b60009182526020909120600c9091020160058101549091506001600160a01b0316331461091c5760405162461bcd60e51b815260206004820152601d60248201527f4f6e6c792067726f7570206f776e65722063616e20776974686472617700000060448201526064016106bc565b60008160070154116109695760405162461bcd60e51b81526020600482015260166024820152754e6f2062616c616e636520746f20776974686472617760501b60448201526064016106bc565b60008082600701549050808360090160008282546109879190611a26565b909155505060006007840155600283015460ff1615610a6657600654600584015460405163a9059cbb60e01b81526001600160a01b0391821660048201526024810184905291169063a9059cbb906044016020604051808303816000875af11580156109f7573d6000803e3d6000fd5b505050506040513d601f19601f82011682018060405250810190610a1b9190611a3f565b915081610a615760405162461bcd60e51b81526020600482015260146024820152731554d110c8151c985b9cd9995c8819985a5b195960621b60448201526064016106bc565b610b03565b60058301546040516001600160a01b03909116908290600081818185875af1925050503d8060008114610ab5576040519150601f19603f3d011682016040523d82523d6000602084013e610aba565b606091505b50508092505081610b035760405162461bcd60e51b815260206004820152601360248201527211551208151c985b9cd9995c8819985a5b1959606a1b60448201526064016106bc565b81610b8c5780836007018190555080836009016000828254610b259190611a5c565b90915550506005830154600784015460028501546040805192835260ff909116151560208301526001600160a01b039092169187917f2f78437c72aa947f251fe01f835b4450a48d4b480aed48c6ec52096b66bcf995910160405180910390a35050505050565b600160038401556008830154600984015460028501546040805185815242602082015290810193909352606083019190915260ff161515608082015285907f4737f4b5f110339198b10ac9c9ecc84dda24e5e07af201b6228e352bf22b80789060a00160405180910390a282600101604051610c089190611a6f565b604080519182900382206005860154600287015442855260ff161515602085015290926001600160a01b039091169188917f258a2e08c90ae0f3b8822777e4a046207be1faf120cf603acd32c2b82427765291015b60405180910390a45050505050565b600080546001818101835582805260038054600c9093027f290decd9548b62a8d60345a988386fc84ba6bc95484008f6362f93160ef3e56301939192909190610cb6908490611a26565b9091555050600054604051610cd691339186914291449190602001611ae5565b60408051601f198184030181528282528051602091820120845582820190915260038252624e455760e81b908201526001820190610d149082611b88565b506005810180546001600160a01b0319163317905560068101610d378482611b88565b504260048201556002600382018190556000600783018190556008830181905560098301819055908201805460ff19168415151790558054610d7b90600190611a5c565b8254600090815260026020526040812082905583546001805480820182559083527fb10e2d527612073b26eecdfd717e6a320cf44b4afac2b0732d9fcbe2b7fa0cf601558354919250610dd29190339087906113e1565b81600101604051610de39190611a6f565b60408051918290038220600585015485546004870154600288015490865260ff161515602086015291936001600160a01b03909116927f349b4d94306c01936126a1bde7b3c123a28136a2c761880ad044f5cade7a5a4d9101610c5d565b7ff0c57e16840df040f15088dc2f81fe391c3923bec73e23a9662efc9c229c6a008054600160401b810460ff16159067ffffffffffffffff16600081158015610e875750825b905060008267ffffffffffffffff166001148015610ea45750303b155b905081158015610eb2575080155b15610ed05760405163f92ee8a960e01b815260040160405180910390fd5b845467ffffffffffffffff191660011785558315610efa57845460ff60401b1916600160401b1785555b6000600381905560048190556005819055805460010181558052600680546001600160a01b0319166001600160a01b0388161790558315610f7557845460ff60401b19168555604051600181527fc7f505b2f371ae2175ee4913f4499e1f2633a7b5936321eed1cdaeb6115181d29060200160405180910390a15b505050505050565b836000610f898261137a565b9050600260008281548110610fa057610fa06119c0565b90600052602060002090600c02016003015414610ff15760405162461bcd60e51b815260206004820152600f60248201526e11dc9bdd5c081a5cc818db1bdcd959608a1b60448201526064016106bc565b6000610ffc8761137a565b90506000808281548110611012576110126119c0565b600091825260209091206002600c909202019081015490915060ff1615158615151461108c5760405162461bcd60e51b815260206004820152602360248201527f496e76616c6964206465706f736974207479706520666f72207468697320677260448201526206f75760ec1b60648201526084016106bc565b6000861561128857600086116110b45760405162461bcd60e51b81526004016106bc90611c48565b34156111025760405162461bcd60e51b815260206004820152601760248201527f4e6f2065746865722073686f756c642062652073656e7400000000000000000060448201526064016106bc565b6006546040516370a0823160e01b81523360048201526000916001600160a01b0316906370a0823190602401602060405180830381865afa15801561114b573d6000803e3d6000fd5b505050506040513d601f19601f8201168201806040525081019061116f9190611c90565b9050868110156111c15760405162461bcd60e51b815260206004820152601960248201527f496e73756666696369656e7420555344432062616c616e63650000000000000060448201526064016106bc565b6006546040516323b872dd60e01b8152336004820152306024820152604481018990526001600160a01b03909116906323b872dd906064016020604051808303816000875af1158015611218573d6000803e3d6000fd5b505050506040513d601f19601f8201168201806040525081019061123c9190611a3f565b61127f5760405162461bcd60e51b81526020600482015260146024820152731554d110c8151c985b9cd9995c8819985a5b195960621b60448201526064016106bc565b869150506112ab565b600034116112a85760405162461bcd60e51b81526004016106bc90611c48565b50345b6112b789338a846113e1565b808260070160008282546112cb9190611a26565b92505081905550808260080160008282546112e69190611a26565b9091555050861561130e5780600560008282546113039190611a26565b909155506113269050565b80600460008282546113209190611a26565b90915550505b600282015460405133918b917fb5493b1023d3022b165a5630e4e5d5368e76adb463e90c2020a7a3d3b31606b891611367918d91879160ff90911690611ca9565b60405180910390a3505050505050505050565b60008181526002602052604081205481036113ce5760405162461bcd60e51b815260206004820152601460248201527311dc9bdd5c08191bd95cc81b9bdd08195e1a5cdd60621b60448201526064016106bc565b5060009081526002602052604090205490565b60006113ec8561137a565b90508460008281548110611402576114026119c0565b90600052602060002090600c020160000154146114585760405162461bcd60e51b815260206004820152601460248201527311dc9bdd5c08191bd95cc81b9bdd08195e1a5cdd60621b60448201526064016106bc565b600080828154811061146c5761146c6119c0565b600091825260208083206001600160a01b038981168552600c9390930201600b810190915260409092205491925016156114f8576001600160a01b0385166000908152600b82016020526040812060020180548592906114cd908490611a26565b90915550506001600160a01b0385166000908152600b82016020526040902042600390910155610f75565b604080516080810182526001600160a01b0387811680835260208084018981528486018990524260608601526000928352600b8701909152939020825181546001600160a01b0319169216919091178155915190918291600182019061155e9082611b88565b506040820151600282015560609091015160039091015550600a81018054600181018255600091825260209091200180546001600160a01b0387166001600160a01b0319909116179055505050505050565b6020808252825182820181905260009190848201906040850190845b818110156115e8578351835292840192918401916001016115cc565b50909695505050505050565b60006020828403121561160657600080fd5b5035919050565b60005b83811015611628578181015183820152602001611610565b50506000910152565b6000815180845261164981602086016020860161160d565b601f01601f19169290920160200192915050565b60006101608d8352602081818501526116788285018f611631565b8d151560408601526001600160a01b038d8116606087015285820360808701529092506116a5838d611631565b92508a60a08601528960c08601528860e086015287610100860152866101208601528483036101408601528286518085528385019150838801945060005b818110156117015785518416835294840194918401916001016116e3565b5050809450505050509c9b505050505050505050505050565b80356001600160a01b038116811461173157600080fd5b919050565b6000806040838503121561174957600080fd5b823591506117596020840161171a565b90509250929050565b6001600160a01b038516815260806020820181905260009061178690830186611631565b6040830194909452506060015292915050565b60006101408c83528060208401526117b38184018d611631565b8b15156040850152606084018b9052608084018a90526001600160a01b03891660a085015283810360c085015290506117ec8188611631565b60e0840196909652505061010081019290925261012090910152979650505050505050565b634e487b7160e01b600052604160045260246000fd5b600082601f83011261183857600080fd5b813567ffffffffffffffff8082111561185357611853611811565b604051601f8301601f19908116603f0116810190828211818310171561187b5761187b611811565b8160405283815286602085880101111561189457600080fd5b836020870160208301376000602085830101528094505050505092915050565b80151581146118c257600080fd5b50565b6000806000606084860312156118da57600080fd5b833567ffffffffffffffff808211156118f257600080fd5b6118fe87838801611827565b9450602086013591508082111561191457600080fd5b5061192186828701611827565b9250506040840135611932816118b4565b809150509250925092565b60006020828403121561194f57600080fd5b6119588261171a565b9392505050565b6000806000806080858703121561197557600080fd5b84359350602085013567ffffffffffffffff81111561199357600080fd5b61199f87828801611827565b93505060408501356119b0816118b4565b9396929550929360600135925050565b634e487b7160e01b600052603260045260246000fd5b600181811c908216806119ea57607f821691505b602082108103611a0a57634e487b7160e01b600052602260045260246000fd5b50919050565b634e487b7160e01b600052601160045260246000fd5b80820180821115611a3957611a39611a10565b92915050565b600060208284031215611a5157600080fd5b8151611958816118b4565b81810381811115611a3957611a39611a10565b6000808354611a7d816119d6565b60018281168015611a955760018114611aaa57611ad9565b60ff1984168752821515830287019450611ad9565b8760005260208060002060005b85811015611ad05781548a820152908401908201611ab7565b50505082870194505b50929695505050505050565b624e455760e81b81526bffffffffffffffffffffffff198660601b16600382015260008551611b1b816017850160208a0161160d565b6017920191820194909452603781019290925260578201526077019392505050565b601f821115611b8357600081815260208120601f850160051c81016020861015611b645750805b601f850160051c820191505b81811015610f7557828155600101611b70565b505050565b815167ffffffffffffffff811115611ba257611ba2611811565b611bb681611bb084546119d6565b84611b3d565b602080601f831160018114611beb5760008415611bd35750858301515b600019600386901b1c1916600185901b178555610f75565b600085815260208120601f198616915b82811015611c1a57888601518255948401946001909101908401611bfb565b5085821015611c385787850151600019600388901b60f8161c191681555b5050505050600190811b01905550565b60208082526028908201527f4465706f73697420616d6f756e74206d7573742062652067726561746572207460408201526768616e207a65726f60c01b606082015260800190565b600060208284031215611ca257600080fd5b5051919050565b606081526000611cbc6060830186611631565b60208301949094525090151560409091015291905056fea2646970667358221220649918755c49cfa5bff58661a04054493a2c15541c1032b38b98d5bb3c11af1964736f6c63430008140033","opcodes":"PUSH1 0x80 PUSH1 0x40 MSTORE CALLVALUE DUP1 ISZERO PUSH2 0x10 JUMPI PUSH1 0x0 DUP1 REVERT JUMPDEST POP PUSH2 0x1D09 DUP1 PUSH2 0x20 PUSH1 0x0 CODECOPY PUSH1 0x0 RETURN INVALID PUSH1 0x80 PUSH1 0x40 MSTORE PUSH1 0x4 CALLDATASIZE LT PUSH2 0xDD JUMPI PUSH1 0x0 CALLDATALOAD PUSH1 0xE0 SHR DUP1 PUSH4 0x7CEEE340 GT PUSH2 0x7F JUMPI DUP1 PUSH4 0xA2A4498B GT PUSH2 0x59 JUMPI DUP1 PUSH4 0xA2A4498B EQ PUSH2 0x263 JUMPI DUP1 PUSH4 0xA30013E1 EQ PUSH2 0x278 JUMPI DUP1 PUSH4 0xC4D66DE8 EQ PUSH2 0x298 JUMPI DUP1 PUSH4 0xF35EA5D0 EQ PUSH2 0x2B8 JUMPI PUSH1 0x0 DUP1 REVERT JUMPDEST DUP1 PUSH4 0x7CEEE340 EQ PUSH2 0x1DF JUMPI DUP1 PUSH4 0x89A30271 EQ PUSH2 0x1F5 JUMPI DUP1 PUSH4 0x96324BD4 EQ PUSH2 0x22D JUMPI PUSH1 0x0 DUP1 REVERT JUMPDEST DUP1 PUSH4 0x32BEE467 GT PUSH2 0xBB JUMPI DUP1 PUSH4 0x32BEE467 EQ PUSH2 0x164 JUMPI DUP1 PUSH4 0x3756EEB8 EQ PUSH2 0x194 JUMPI DUP1 PUSH4 0x4093D7A1 EQ PUSH2 0x1AA JUMPI DUP1 PUSH4 0x5D39C56B EQ PUSH2 0x1CA JUMPI PUSH1 0x0 DUP1 REVERT JUMPDEST DUP1 PUSH4 0x6E0B1CC EQ PUSH2 0xE2 JUMPI DUP1 PUSH4 0x2E3DCC06 EQ PUSH2 0x10B JUMPI DUP1 PUSH4 0x2F14F6C9 EQ PUSH2 0x12D JUMPI JUMPDEST PUSH1 0x0 DUP1 REVERT JUMPDEST CALLVALUE DUP1 ISZERO PUSH2 0xEE JUMPI PUSH1 0x0 DUP1 REVERT JUMPDEST POP PUSH2 0xF8 PUSH1 0x4 SLOAD DUP2 JUMP JUMPDEST PUSH1 0x40 MLOAD SWAP1 DUP2 MSTORE PUSH1 0x20 ADD JUMPDEST PUSH1 0x40 MLOAD DUP1 SWAP2 SUB SWAP1 RETURN JUMPDEST CALLVALUE DUP1 ISZERO PUSH2 0x117 JUMPI PUSH1 0x0 DUP1 REVERT JUMPDEST POP PUSH2 0x120 PUSH2 0x2CB JUMP JUMPDEST PUSH1 0x40 MLOAD PUSH2 0x102 SWAP2 SWAP1 PUSH2 0x15B0 JUMP JUMPDEST CALLVALUE DUP1 ISZERO PUSH2 0x139 JUMPI PUSH1 0x0 DUP1 REVERT JUMPDEST POP PUSH2 0x14D PUSH2 0x148 CALLDATASIZE PUSH1 0x4 PUSH2 0x15F4 JUMP JUMPDEST PUSH2 0x323 JUMP JUMPDEST PUSH1 0x40 MLOAD PUSH2 0x102 SWAP12 SWAP11 SWAP10 SWAP9 SWAP8 SWAP7 SWAP6 SWAP5 SWAP4 SWAP3 SWAP2 SWAP1 PUSH2 0x165D JUMP JUMPDEST CALLVALUE DUP1 ISZERO PUSH2 0x170 JUMPI PUSH1 0x0 DUP1 REVERT JUMPDEST POP PUSH2 0x184 PUSH2 0x17F CALLDATASIZE PUSH1 0x4 PUSH2 0x1736 JUMP JUMPDEST PUSH2 0x556 JUMP JUMPDEST PUSH1 0x40 MLOAD PUSH2 0x102 SWAP5 SWAP4 SWAP3 SWAP2 SWAP1 PUSH2 0x1762 JUMP JUMPDEST CALLVALUE DUP1 ISZERO PUSH2 0x1A0 JUMPI PUSH1 0x0 DUP1 REVERT JUMPDEST POP PUSH2 0xF8 PUSH1 0x5 SLOAD DUP2 JUMP JUMPDEST CALLVALUE DUP1 ISZERO PUSH2 0x1B6 JUMPI PUSH1 0x0 DUP1 REVERT JUMPDEST POP PUSH2 0xF8 PUSH2 0x1C5 CALLDATASIZE PUSH1 0x4 PUSH2 0x15F4 JUMP JUMPDEST PUSH2 0x6E9 JUMP JUMPDEST CALLVALUE DUP1 ISZERO PUSH2 0x1D6 JUMPI PUSH1 0x0 DUP1 REVERT JUMPDEST POP PUSH1 0x0 SLOAD PUSH2 0xF8 JUMP JUMPDEST CALLVALUE DUP1 ISZERO PUSH2 0x1EB JUMPI PUSH1 0x0 DUP1 REVERT JUMPDEST POP PUSH2 0xF8 PUSH1 0x3 SLOAD DUP2 JUMP JUMPDEST CALLVALUE DUP1 ISZERO PUSH2 0x201 JUMPI PUSH1 0x0 DUP1 REVERT JUMPDEST POP PUSH1 0x6 SLOAD PUSH2 0x215 SWAP1 PUSH1 0x1 PUSH1 0x1 PUSH1 0xA0 SHL SUB AND DUP2 JUMP JUMPDEST PUSH1 0x40 MLOAD PUSH1 0x1 PUSH1 0x1 PUSH1 0xA0 SHL SUB SWAP1 SWAP2 AND DUP2 MSTORE PUSH1 0x20 ADD PUSH2 0x102 JUMP JUMPDEST CALLVALUE DUP1 ISZERO PUSH2 0x239 JUMPI PUSH1 0x0 DUP1 REVERT JUMPDEST POP PUSH2 0x24D PUSH2 0x248 CALLDATASIZE PUSH1 0x4 PUSH2 0x15F4 JUMP JUMPDEST PUSH2 0x70A JUMP JUMPDEST PUSH1 0x40 MLOAD PUSH2 0x102 SWAP11 SWAP10 SWAP9 SWAP8 SWAP7 SWAP6 SWAP5 SWAP4 SWAP3 SWAP2 SWAP1 PUSH2 0x1799 JUMP JUMPDEST PUSH2 0x276 PUSH2 0x271 CALLDATASIZE PUSH1 0x4 PUSH2 0x15F4 JUMP JUMPDEST PUSH2 0x88C JUMP JUMPDEST STOP JUMPDEST CALLVALUE DUP1 ISZERO PUSH2 0x284 JUMPI PUSH1 0x0 DUP1 REVERT JUMPDEST POP PUSH2 0x276 PUSH2 0x293 CALLDATASIZE PUSH1 0x4 PUSH2 0x18C5 JUMP JUMPDEST PUSH2 0xC6C JUMP JUMPDEST CALLVALUE DUP1 ISZERO PUSH2 0x2A4 JUMPI PUSH1 0x0 DUP1 REVERT JUMPDEST POP PUSH2 0x276 PUSH2 0x2B3 CALLDATASIZE PUSH1 0x4 PUSH2 0x193D JUMP JUMPDEST PUSH2 0xE41 JUMP JUMPDEST PUSH2 0x276 PUSH2 0x2C6 CALLDATASIZE PUSH1 0x4 PUSH2 0x195F JUMP JUMPDEST PUSH2 0xF7D JUMP JUMPDEST PUSH1 0x60 PUSH1 0x1 DUP1 SLOAD DUP1 PUSH1 0x20 MUL PUSH1 0x20 ADD PUSH1 0x40 MLOAD SWAP1 DUP2 ADD PUSH1 0x40 MSTORE DUP1 SWAP3 SWAP2 SWAP1 DUP2 DUP2 MSTORE PUSH1 0x20 ADD DUP3 DUP1 SLOAD DUP1 ISZERO PUSH2 0x319 JUMPI PUSH1 0x20 MUL DUP3 ADD SWAP2 SWAP1 PUSH1 0x0 MSTORE PUSH1 0x20 PUSH1 0x0 KECCAK256 SWAP1 JUMPDEST DUP2 SLOAD DUP2 MSTORE PUSH1 0x20 ADD SWAP1 PUSH1 0x1 ADD SWAP1 DUP1 DUP4 GT PUSH2 0x305 JUMPI JUMPDEST POP POP POP POP POP SWAP1 POP SWAP1 JUMP JUMPDEST PUSH1 0x0 PUSH1 0x60 PUSH1 0x0 DUP1 PUSH1 0x60 PUSH1 0x0 DUP1 PUSH1 0x0 DUP1 PUSH1 0x0 PUSH1 0x60 PUSH1 0x0 PUSH2 0x341 DUP14 PUSH2 0x137A JUMP JUMPDEST SWAP1 POP PUSH1 0x0 DUP1 DUP3 DUP2 SLOAD DUP2 LT PUSH2 0x357 JUMPI PUSH2 0x357 PUSH2 0x19C0 JUMP JUMPDEST SWAP1 PUSH1 0x0 MSTORE PUSH1 0x20 PUSH1 0x0 KECCAK256 SWAP1 PUSH1 0xC MUL ADD SWAP1 POP DUP1 PUSH1 0x0 ADD SLOAD DUP2 PUSH1 0x1 ADD DUP3 PUSH1 0x2 ADD PUSH1 0x0 SWAP1 SLOAD SWAP1 PUSH2 0x100 EXP SWAP1 DIV PUSH1 0xFF AND DUP4 PUSH1 0x5 ADD PUSH1 0x0 SWAP1 SLOAD SWAP1 PUSH2 0x100 EXP SWAP1 DIV PUSH1 0x1 PUSH1 0x1 PUSH1 0xA0 SHL SUB AND DUP5 PUSH1 0x6 ADD DUP6 PUSH1 0x4 ADD SLOAD DUP7 PUSH1 0x3 ADD SLOAD DUP8 PUSH1 0x7 ADD SLOAD DUP9 PUSH1 0x8 ADD SLOAD DUP10 PUSH1 0x9 ADD SLOAD DUP11 PUSH1 0xA ADD DUP10 DUP1 SLOAD PUSH2 0x3C7 SWAP1 PUSH2 0x19D6 JUMP JUMPDEST DUP1 PUSH1 0x1F ADD PUSH1 0x20 DUP1 SWAP2 DIV MUL PUSH1 0x20 ADD PUSH1 0x40 MLOAD SWAP1 DUP2 ADD PUSH1 0x40 MSTORE DUP1 SWAP3 SWAP2 SWAP1 DUP2 DUP2 MSTORE PUSH1 0x20 ADD DUP3 DUP1 SLOAD PUSH2 0x3F3 SWAP1 PUSH2 0x19D6 JUMP JUMPDEST DUP1 ISZERO PUSH2 0x440 JUMPI DUP1 PUSH1 0x1F LT PUSH2 0x415 JUMPI PUSH2 0x100 DUP1 DUP4 SLOAD DIV MUL DUP4 MSTORE SWAP2 PUSH1 0x20 ADD SWAP2 PUSH2 0x440 JUMP JUMPDEST DUP3 ADD SWAP2 SWAP1 PUSH1 0x0 MSTORE PUSH1 0x20 PUSH1 0x0 KECCAK256 SWAP1 JUMPDEST DUP2 SLOAD DUP2 MSTORE SWAP1 PUSH1 0x1 ADD SWAP1 PUSH1 0x20 ADD DUP1 DUP4 GT PUSH2 0x423 JUMPI DUP3 SWAP1 SUB PUSH1 0x1F AND DUP3 ADD SWAP2 JUMPDEST POP POP POP POP POP SWAP10 POP DUP7 DUP1 SLOAD PUSH2 0x453 SWAP1 PUSH2 0x19D6 JUMP JUMPDEST DUP1 PUSH1 0x1F ADD PUSH1 0x20 DUP1 SWAP2 DIV MUL PUSH1 0x20 ADD PUSH1 0x40 MLOAD SWAP1 DUP2 ADD PUSH1 0x40 MSTORE DUP1 SWAP3 SWAP2 SWAP1 DUP2 DUP2 MSTORE PUSH1 0x20 ADD DUP3 DUP1 SLOAD PUSH2 0x47F SWAP1 PUSH2 0x19D6 JUMP JUMPDEST DUP1 ISZERO PUSH2 0x4CC JUMPI DUP1 PUSH1 0x1F LT PUSH2 0x4A1 JUMPI PUSH2 0x100 DUP1 DUP4 SLOAD DIV MUL DUP4 MSTORE SWAP2 PUSH1 0x20 ADD SWAP2 PUSH2 0x4CC JUMP JUMPDEST DUP3 ADD SWAP2 SWAP1 PUSH1 0x0 MSTORE PUSH1 0x20 PUSH1 0x0 KECCAK256 SWAP1 JUMPDEST DUP2 SLOAD DUP2 MSTORE SWAP1 PUSH1 0x1 ADD SWAP1 PUSH1 0x20 ADD DUP1 DUP4 GT PUSH2 0x4AF JUMPI DUP3 SWAP1 SUB PUSH1 0x1F AND DUP3 ADD SWAP2 JUMPDEST POP POP POP POP POP SWAP7 POP DUP1 DUP1 SLOAD DUP1 PUSH1 0x20 MUL PUSH1 0x20 ADD PUSH1 0x40 MLOAD SWAP1 DUP2 ADD PUSH1 0x40 MSTORE DUP1 SWAP3 SWAP2 SWAP1 DUP2 DUP2 MSTORE PUSH1 0x20 ADD DUP3 DUP1 SLOAD DUP1 ISZERO PUSH2 0x528 JUMPI PUSH1 0x20 MUL DUP3 ADD SWAP2 SWAP1 PUSH1 0x0 MSTORE PUSH1 0x20 PUSH1 0x0 KECCAK256 SWAP1 JUMPDEST DUP2 SLOAD PUSH1 0x1 PUSH1 0x1 PUSH1 0xA0 SHL SUB AND DUP2 MSTORE PUSH1 0x1 SWAP1 SWAP2 ADD SWAP1 PUSH1 0x20 ADD DUP1 DUP4 GT PUSH2 0x50A JUMPI JUMPDEST POP POP POP POP POP SWAP1 POP SWAP13 POP SWAP13 POP SWAP13 POP SWAP13 POP SWAP13 POP SWAP13 POP SWAP13 POP SWAP13 POP SWAP13 POP SWAP13 POP SWAP13 POP POP POP SWAP2 SWAP4 SWAP6 SWAP8 SWAP10 SWAP12 SWAP1 SWAP3 SWAP5 SWAP7 SWAP9 SWAP11 POP JUMP JUMPDEST PUSH1 0x0 PUSH1 0x60 PUSH1 0x0 DUP1 PUSH1 0x0 PUSH2 0x568 DUP8 PUSH2 0x137A JUMP JUMPDEST SWAP1 POP PUSH1 0x0 DUP1 DUP3 DUP2 SLOAD DUP2 LT PUSH2 0x57E JUMPI PUSH2 0x57E PUSH2 0x19C0 JUMP JUMPDEST PUSH1 0x0 SWAP2 DUP3 MSTORE PUSH1 0x20 DUP1 DUP4 KECCAK256 PUSH1 0x1 PUSH1 0x1 PUSH1 0xA0 SHL SUB DUP12 DUP2 AND DUP6 MSTORE PUSH1 0xC SWAP4 SWAP1 SWAP4 MUL ADD PUSH1 0xB DUP2 ADD DUP3 MSTORE PUSH1 0x40 DUP1 DUP6 KECCAK256 DUP2 MLOAD PUSH1 0x80 DUP2 ADD SWAP1 SWAP3 MSTORE DUP1 SLOAD SWAP1 SWAP5 AND DUP2 MSTORE PUSH1 0x1 DUP5 ADD DUP1 SLOAD SWAP3 SWAP7 POP SWAP1 SWAP4 SWAP3 DUP5 ADD SWAP2 PUSH2 0x5CF SWAP1 PUSH2 0x19D6 JUMP JUMPDEST DUP1 PUSH1 0x1F ADD PUSH1 0x20 DUP1 SWAP2 DIV MUL PUSH1 0x20 ADD PUSH1 0x40 MLOAD SWAP1 DUP2 ADD PUSH1 0x40 MSTORE DUP1 SWAP3 SWAP2 SWAP1 DUP2 DUP2 MSTORE PUSH1 0x20 ADD DUP3 DUP1 SLOAD PUSH2 0x5FB SWAP1 PUSH2 0x19D6 JUMP JUMPDEST DUP1 ISZERO PUSH2 0x648 JUMPI DUP1 PUSH1 0x1F LT PUSH2 0x61D JUMPI PUSH2 0x100 DUP1 DUP4 SLOAD DIV MUL DUP4 MSTORE SWAP2 PUSH1 0x20 ADD SWAP2 PUSH2 0x648 JUMP JUMPDEST DUP3 ADD SWAP2 SWAP1 PUSH1 0x0 MSTORE PUSH1 0x20 PUSH1 0x0 KECCAK256 SWAP1 JUMPDEST DUP2 SLOAD DUP2 MSTORE SWAP1 PUSH1 0x1 ADD SWAP1 PUSH1 0x20 ADD DUP1 DUP4 GT PUSH2 0x62B JUMPI DUP3 SWAP1 SUB PUSH1 0x1F AND DUP3 ADD SWAP2 JUMPDEST POP POP POP SWAP2 DUP4 MSTORE POP POP PUSH1 0x2 DUP3 ADD SLOAD PUSH1 0x20 DUP3 ADD MSTORE PUSH1 0x3 SWAP1 SWAP2 ADD SLOAD PUSH1 0x40 SWAP1 SWAP2 ADD MSTORE DUP1 MLOAD SWAP1 SWAP2 POP PUSH1 0x1 PUSH1 0x1 PUSH1 0xA0 SHL SUB AND PUSH2 0x6C5 JUMPI PUSH1 0x40 MLOAD PUSH3 0x461BCD PUSH1 0xE5 SHL DUP2 MSTORE PUSH1 0x20 PUSH1 0x4 DUP3 ADD MSTORE PUSH1 0x1A PUSH1 0x24 DUP3 ADD MSTORE PUSH32 0x5061727469636970616E7420646F6573206E6F74206578697374000000000000 PUSH1 0x44 DUP3 ADD MSTORE PUSH1 0x64 ADD JUMPDEST PUSH1 0x40 MLOAD DUP1 SWAP2 SUB SWAP1 REVERT JUMPDEST DUP1 MLOAD PUSH1 0x20 DUP3 ADD MLOAD PUSH1 0x40 DUP4 ADD MLOAD PUSH1 0x60 SWAP1 SWAP4 ADD MLOAD SWAP2 SWAP12 SWAP1 SWAP11 POP SWAP2 SWAP9 POP SWAP7 POP SWAP5 POP POP POP POP POP JUMP JUMPDEST PUSH1 0x1 DUP2 DUP2 SLOAD DUP2 LT PUSH2 0x6F9 JUMPI PUSH1 0x0 DUP1 REVERT JUMPDEST PUSH1 0x0 SWAP2 DUP3 MSTORE PUSH1 0x20 SWAP1 SWAP2 KECCAK256 ADD SLOAD SWAP1 POP DUP2 JUMP JUMPDEST PUSH1 0x0 DUP2 DUP2 SLOAD DUP2 LT PUSH2 0x71A JUMPI PUSH1 0x0 DUP1 REVERT JUMPDEST PUSH1 0x0 SWAP2 DUP3 MSTORE PUSH1 0x20 SWAP1 SWAP2 KECCAK256 PUSH1 0xC SWAP1 SWAP2 MUL ADD DUP1 SLOAD PUSH1 0x1 DUP3 ADD DUP1 SLOAD SWAP2 SWAP4 POP SWAP1 PUSH2 0x73F SWAP1 PUSH2 0x19D6 JUMP JUMPDEST DUP1 PUSH1 0x1F ADD PUSH1 0x20 DUP1 SWAP2 DIV MUL PUSH1 0x20 ADD PUSH1 0x40 MLOAD SWAP1 DUP2 ADD PUSH1 0x40 MSTORE DUP1 SWAP3 SWAP2 SWAP1 DUP2 DUP2 MSTORE PUSH1 0x20 ADD DUP3 DUP1 SLOAD PUSH2 0x76B SWAP1 PUSH2 0x19D6 JUMP JUMPDEST DUP1 ISZERO PUSH2 0x7B8 JUMPI DUP1 PUSH1 0x1F LT PUSH2 0x78D JUMPI PUSH2 0x100 DUP1 DUP4 SLOAD DIV MUL DUP4 MSTORE SWAP2 PUSH1 0x20 ADD SWAP2 PUSH2 0x7B8 JUMP JUMPDEST DUP3 ADD SWAP2 SWAP1 PUSH1 0x0 MSTORE PUSH1 0x20 PUSH1 0x0 KECCAK256 SWAP1 JUMPDEST DUP2 SLOAD DUP2 MSTORE SWAP1 PUSH1 0x1 ADD SWAP1 PUSH1 0x20 ADD DUP1 DUP4 GT PUSH2 0x79B JUMPI DUP3 SWAP1 SUB PUSH1 0x1F AND DUP3 ADD SWAP2 JUMPDEST POP POP POP PUSH1 0x2 DUP5 ADD SLOAD PUSH1 0x3 DUP6 ADD SLOAD PUSH1 0x4 DUP7 ADD SLOAD PUSH1 0x5 DUP8 ADD SLOAD PUSH1 0x6 DUP9 ADD DUP1 SLOAD SWAP8 SWAP9 PUSH1 0xFF SWAP1 SWAP6 AND SWAP8 SWAP4 SWAP7 POP SWAP2 SWAP5 POP PUSH1 0x1 PUSH1 0x1 PUSH1 0xA0 SHL SUB AND SWAP3 SWAP2 PUSH2 0x7F7 SWAP1 PUSH2 0x19D6 JUMP JUMPDEST DUP1 PUSH1 0x1F ADD PUSH1 0x20 DUP1 SWAP2 DIV MUL PUSH1 0x20 ADD PUSH1 0x40 MLOAD SWAP1 DUP2 ADD PUSH1 0x40 MSTORE DUP1 SWAP3 SWAP2 SWAP1 DUP2 DUP2 MSTORE PUSH1 0x20 ADD DUP3 DUP1 SLOAD PUSH2 0x823 SWAP1 PUSH2 0x19D6 JUMP JUMPDEST DUP1 ISZERO PUSH2 0x870 JUMPI DUP1 PUSH1 0x1F LT PUSH2 0x845 JUMPI PUSH2 0x100 DUP1 DUP4 SLOAD DIV MUL DUP4 MSTORE SWAP2 PUSH1 0x20 ADD SWAP2 PUSH2 0x870 JUMP JUMPDEST DUP3 ADD SWAP2 SWAP1 PUSH1 0x0 MSTORE PUSH1 0x20 PUSH1 0x0 KECCAK256 SWAP1 JUMPDEST DUP2 SLOAD DUP2 MSTORE SWAP1 PUSH1 0x1 ADD SWAP1 PUSH1 0x20 ADD DUP1 DUP4 GT PUSH2 0x853 JUMPI DUP3 SWAP1 SUB PUSH1 0x1F AND DUP3 ADD SWAP2 JUMPDEST POP POP POP POP POP SWAP1 DUP1 PUSH1 0x7 ADD SLOAD SWAP1 DUP1 PUSH1 0x8 ADD SLOAD SWAP1 DUP1 PUSH1 0x9 ADD SLOAD SWAP1 POP DUP11 JUMP JUMPDEST PUSH1 0x0 PUSH2 0x897 DUP3 PUSH2 0x137A JUMP JUMPDEST SWAP1 POP PUSH1 0x0 DUP1 DUP3 DUP2 SLOAD DUP2 LT PUSH2 0x8AD JUMPI PUSH2 0x8AD PUSH2 0x19C0 JUMP JUMPDEST PUSH1 0x0 SWAP2 DUP3 MSTORE PUSH1 0x20 SWAP1 SWAP2 KECCAK256 PUSH1 0xC SWAP1 SWAP2 MUL ADD PUSH1 0x5 DUP2 ADD SLOAD SWAP1 SWAP2 POP PUSH1 0x1 PUSH1 0x1 PUSH1 0xA0 SHL SUB AND CALLER EQ PUSH2 0x91C JUMPI PUSH1 0x40 MLOAD PUSH3 0x461BCD PUSH1 0xE5 SHL DUP2 MSTORE PUSH1 0x20 PUSH1 0x4 DUP3 ADD MSTORE PUSH1 0x1D PUSH1 0x24 DUP3 ADD MSTORE PUSH32 0x4F6E6C792067726F7570206F776E65722063616E207769746864726177000000 PUSH1 0x44 DUP3 ADD MSTORE PUSH1 0x64 ADD PUSH2 0x6BC JUMP JUMPDEST PUSH1 0x0 DUP2 PUSH1 0x7 ADD SLOAD GT PUSH2 0x969 JUMPI PUSH1 0x40 MLOAD PUSH3 0x461BCD PUSH1 0xE5 SHL DUP2 MSTORE PUSH1 0x20 PUSH1 0x4 DUP3 ADD MSTORE PUSH1 0x16 PUSH1 0x24 DUP3 ADD MSTORE PUSH22 0x4E6F2062616C616E636520746F207769746864726177 PUSH1 0x50 SHL PUSH1 0x44 DUP3 ADD MSTORE PUSH1 0x64 ADD PUSH2 0x6BC JUMP JUMPDEST PUSH1 0x0 DUP1 DUP3 PUSH1 0x7 ADD SLOAD SWAP1 POP DUP1 DUP4 PUSH1 0x9 ADD PUSH1 0x0 DUP3 DUP3 SLOAD PUSH2 0x987 SWAP2 SWAP1 PUSH2 0x1A26 JUMP JUMPDEST SWAP1 SWAP2 SSTORE POP POP PUSH1 0x0 PUSH1 0x7 DUP5 ADD SSTORE PUSH1 0x2 DUP4 ADD SLOAD PUSH1 0xFF AND ISZERO PUSH2 0xA66 JUMPI PUSH1 0x6 SLOAD PUSH1 0x5 DUP5 ADD SLOAD PUSH1 0x40 MLOAD PUSH4 0xA9059CBB PUSH1 0xE0 SHL DUP2 MSTORE PUSH1 0x1 PUSH1 0x1 PUSH1 0xA0 SHL SUB SWAP2 DUP3 AND PUSH1 0x4 DUP3 ADD MSTORE PUSH1 0x24 DUP2 ADD DUP5 SWAP1 MSTORE SWAP2 AND SWAP1 PUSH4 0xA9059CBB SWAP1 PUSH1 0x44 ADD PUSH1 0x20 PUSH1 0x40 MLOAD DUP1 DUP4 SUB DUP2 PUSH1 0x0 DUP8 GAS CALL ISZERO DUP1 ISZERO PUSH2 0x9F7 JUMPI RETURNDATASIZE PUSH1 0x0 DUP1 RETURNDATACOPY RETURNDATASIZE PUSH1 0x0 REVERT JUMPDEST POP POP POP POP PUSH1 0x40 MLOAD RETURNDATASIZE PUSH1 0x1F NOT PUSH1 0x1F DUP3 ADD AND DUP3 ADD DUP1 PUSH1 0x40 MSTORE POP DUP2 ADD SWAP1 PUSH2 0xA1B SWAP2 SWAP1 PUSH2 0x1A3F JUMP JUMPDEST SWAP2 POP DUP2 PUSH2 0xA61 JUMPI PUSH1 0x40 MLOAD PUSH3 0x461BCD PUSH1 0xE5 SHL DUP2 MSTORE PUSH1 0x20 PUSH1 0x4 DUP3 ADD MSTORE PUSH1 0x14 PUSH1 0x24 DUP3 ADD MSTORE PUSH20 0x1554D110C8151C985B9CD9995C8819985A5B1959 PUSH1 0x62 SHL PUSH1 0x44 DUP3 ADD MSTORE PUSH1 0x64 ADD PUSH2 0x6BC JUMP JUMPDEST PUSH2 0xB03 JUMP JUMPDEST PUSH1 0x5 DUP4 ADD SLOAD PUSH1 0x40 MLOAD PUSH1 0x1 PUSH1 0x1 PUSH1 0xA0 SHL SUB SWAP1 SWAP2 AND SWAP1 DUP3 SWAP1 PUSH1 0x0 DUP2 DUP2 DUP2 DUP6 DUP8 GAS CALL SWAP3 POP POP POP RETURNDATASIZE DUP1 PUSH1 0x0 DUP2 EQ PUSH2 0xAB5 JUMPI PUSH1 0x40 MLOAD SWAP2 POP PUSH1 0x1F NOT PUSH1 0x3F RETURNDATASIZE ADD AND DUP3 ADD PUSH1 0x40 MSTORE RETURNDATASIZE DUP3 MSTORE RETURNDATASIZE PUSH1 0x0 PUSH1 0x20 DUP5 ADD RETURNDATACOPY PUSH2 0xABA JUMP JUMPDEST PUSH1 0x60 SWAP2 POP JUMPDEST POP POP DUP1 SWAP3 POP POP DUP2 PUSH2 0xB03 JUMPI PUSH1 0x40 MLOAD PUSH3 0x461BCD PUSH1 0xE5 SHL DUP2 MSTORE PUSH1 0x20 PUSH1 0x4 DUP3 ADD MSTORE PUSH1 0x13 PUSH1 0x24 DUP3 ADD MSTORE PUSH19 0x11551208151C985B9CD9995C8819985A5B1959 PUSH1 0x6A SHL PUSH1 0x44 DUP3 ADD MSTORE PUSH1 0x64 ADD PUSH2 0x6BC JUMP JUMPDEST DUP2 PUSH2 0xB8C JUMPI DUP1 DUP4 PUSH1 0x7 ADD DUP2 SWAP1 SSTORE POP DUP1 DUP4 PUSH1 0x9 ADD PUSH1 0x0 DUP3 DUP3 SLOAD PUSH2 0xB25 SWAP2 SWAP1 PUSH2 0x1A5C JUMP JUMPDEST SWAP1 SWAP2 SSTORE POP POP PUSH1 0x5 DUP4 ADD SLOAD PUSH1 0x7 DUP5 ADD SLOAD PUSH1 0x2 DUP6 ADD SLOAD PUSH1 0x40 DUP1 MLOAD SWAP3 DUP4 MSTORE PUSH1 0xFF SWAP1 SWAP2 AND ISZERO ISZERO PUSH1 0x20 DUP4 ADD MSTORE PUSH1 0x1 PUSH1 0x1 PUSH1 0xA0 SHL SUB SWAP1 SWAP3 AND SWAP2 DUP8 SWAP2 PUSH32 0x2F78437C72AA947F251FE01F835B4450A48D4B480AED48C6EC52096B66BCF995 SWAP2 ADD PUSH1 0x40 MLOAD DUP1 SWAP2 SUB SWAP1 LOG3 POP POP POP POP POP JUMP JUMPDEST PUSH1 0x1 PUSH1 0x3 DUP5 ADD SSTORE PUSH1 0x8 DUP4 ADD SLOAD PUSH1 0x9 DUP5 ADD SLOAD PUSH1 0x2 DUP6 ADD SLOAD PUSH1 0x40 DUP1 MLOAD DUP6 DUP2 MSTORE TIMESTAMP PUSH1 0x20 DUP3 ADD MSTORE SWAP1 DUP2 ADD SWAP4 SWAP1 SWAP4 MSTORE PUSH1 0x60 DUP4 ADD SWAP2 SWAP1 SWAP2 MSTORE PUSH1 0xFF AND ISZERO ISZERO PUSH1 0x80 DUP3 ADD MSTORE DUP6 SWAP1 PUSH32 0x4737F4B5F110339198B10AC9C9ECC84DDA24E5E07AF201B6228E352BF22B8078 SWAP1 PUSH1 0xA0 ADD PUSH1 0x40 MLOAD DUP1 SWAP2 SUB SWAP1 LOG2 DUP3 PUSH1 0x1 ADD PUSH1 0x40 MLOAD PUSH2 0xC08 SWAP2 SWAP1 PUSH2 0x1A6F JUMP JUMPDEST PUSH1 0x40 DUP1 MLOAD SWAP2 DUP3 SWAP1 SUB DUP3 KECCAK256 PUSH1 0x5 DUP7 ADD SLOAD PUSH1 0x2 DUP8 ADD SLOAD TIMESTAMP DUP6 MSTORE PUSH1 0xFF AND ISZERO ISZERO PUSH1 0x20 DUP6 ADD MSTORE SWAP1 SWAP3 PUSH1 0x1 PUSH1 0x1 PUSH1 0xA0 SHL SUB SWAP1 SWAP2 AND SWAP2 DUP9 SWAP2 PUSH32 0x258A2E08C90AE0F3B8822777E4A046207BE1FAF120CF603ACD32C2B824277652 SWAP2 ADD JUMPDEST PUSH1 0x40 MLOAD DUP1 SWAP2 SUB SWAP1 LOG4 POP POP POP POP POP JUMP JUMPDEST PUSH1 0x0 DUP1 SLOAD PUSH1 0x1 DUP2 DUP2 ADD DUP4 SSTORE DUP3 DUP1 MSTORE PUSH1 0x3 DUP1 SLOAD PUSH1 0xC SWAP1 SWAP4 MUL PUSH32 0x290DECD9548B62A8D60345A988386FC84BA6BC95484008F6362F93160EF3E563 ADD SWAP4 SWAP2 SWAP3 SWAP1 SWAP2 SWAP1 PUSH2 0xCB6 SWAP1 DUP5 SWAP1 PUSH2 0x1A26 JUMP JUMPDEST SWAP1 SWAP2 SSTORE POP POP PUSH1 0x0 SLOAD PUSH1 0x40 MLOAD PUSH2 0xCD6 SWAP2 CALLER SWAP2 DUP7 SWAP2 TIMESTAMP SWAP2 PREVRANDAO SWAP2 SWAP1 PUSH1 0x20 ADD PUSH2 0x1AE5 JUMP JUMPDEST PUSH1 0x40 DUP1 MLOAD PUSH1 0x1F NOT DUP2 DUP5 SUB ADD DUP2 MSTORE DUP3 DUP3 MSTORE DUP1 MLOAD PUSH1 0x20 SWAP2 DUP3 ADD KECCAK256 DUP5 SSTORE DUP3 DUP3 ADD SWAP1 SWAP2 MSTORE PUSH1 0x3 DUP3 MSTORE PUSH3 0x4E4557 PUSH1 0xE8 SHL SWAP1 DUP3 ADD MSTORE PUSH1 0x1 DUP3 ADD SWAP1 PUSH2 0xD14 SWAP1 DUP3 PUSH2 0x1B88 JUMP JUMPDEST POP PUSH1 0x5 DUP2 ADD DUP1 SLOAD PUSH1 0x1 PUSH1 0x1 PUSH1 0xA0 SHL SUB NOT AND CALLER OR SWAP1 SSTORE PUSH1 0x6 DUP2 ADD PUSH2 0xD37 DUP5 DUP3 PUSH2 0x1B88 JUMP JUMPDEST POP TIMESTAMP PUSH1 0x4 DUP3 ADD SSTORE PUSH1 0x2 PUSH1 0x3 DUP3 ADD DUP2 SWAP1 SSTORE PUSH1 0x0 PUSH1 0x7 DUP4 ADD DUP2 SWAP1 SSTORE PUSH1 0x8 DUP4 ADD DUP2 SWAP1 SSTORE PUSH1 0x9 DUP4 ADD DUP2 SWAP1 SSTORE SWAP1 DUP3 ADD DUP1 SLOAD PUSH1 0xFF NOT AND DUP5 ISZERO ISZERO OR SWAP1 SSTORE DUP1 SLOAD PUSH2 0xD7B SWAP1 PUSH1 0x1 SWAP1 PUSH2 0x1A5C JUMP JUMPDEST DUP3 SLOAD PUSH1 0x0 SWAP1 DUP2 MSTORE PUSH1 0x2 PUSH1 0x20 MSTORE PUSH1 0x40 DUP2 KECCAK256 DUP3 SWAP1 SSTORE DUP4 SLOAD PUSH1 0x1 DUP1 SLOAD DUP1 DUP3 ADD DUP3 SSTORE SWAP1 DUP4 MSTORE PUSH32 0xB10E2D527612073B26EECDFD717E6A320CF44B4AFAC2B0732D9FCBE2B7FA0CF6 ADD SSTORE DUP4 SLOAD SWAP2 SWAP3 POP PUSH2 0xDD2 SWAP2 SWAP1 CALLER SWAP1 DUP8 SWAP1 PUSH2 0x13E1 JUMP JUMPDEST DUP2 PUSH1 0x1 ADD PUSH1 0x40 MLOAD PUSH2 0xDE3 SWAP2 SWAP1 PUSH2 0x1A6F JUMP JUMPDEST PUSH1 0x40 DUP1 MLOAD SWAP2 DUP3 SWAP1 SUB DUP3 KECCAK256 PUSH1 0x5 DUP6 ADD SLOAD DUP6 SLOAD PUSH1 0x4 DUP8 ADD SLOAD PUSH1 0x2 DUP9 ADD SLOAD SWAP1 DUP7 MSTORE PUSH1 0xFF AND ISZERO ISZERO PUSH1 0x20 DUP7 ADD MSTORE SWAP2 SWAP4 PUSH1 0x1 PUSH1 0x1 PUSH1 0xA0 SHL SUB SWAP1 SWAP2 AND SWAP3 PUSH32 0x349B4D94306C01936126A1BDE7B3C123A28136A2C761880AD044F5CADE7A5A4D SWAP2 ADD PUSH2 0xC5D JUMP JUMPDEST PUSH32 0xF0C57E16840DF040F15088DC2F81FE391C3923BEC73E23A9662EFC9C229C6A00 DUP1 SLOAD PUSH1 0x1 PUSH1 0x40 SHL DUP2 DIV PUSH1 0xFF AND ISZERO SWAP1 PUSH8 0xFFFFFFFFFFFFFFFF AND PUSH1 0x0 DUP2 ISZERO DUP1 ISZERO PUSH2 0xE87 JUMPI POP DUP3 JUMPDEST SWAP1 POP PUSH1 0x0 DUP3 PUSH8 0xFFFFFFFFFFFFFFFF AND PUSH1 0x1 EQ DUP1 ISZERO PUSH2 0xEA4 JUMPI POP ADDRESS EXTCODESIZE ISZERO JUMPDEST SWAP1 POP DUP2 ISZERO DUP1 ISZERO PUSH2 0xEB2 JUMPI POP DUP1 ISZERO JUMPDEST ISZERO PUSH2 0xED0 JUMPI PUSH1 0x40 MLOAD PUSH4 0xF92EE8A9 PUSH1 0xE0 SHL DUP2 MSTORE PUSH1 0x4 ADD PUSH1 0x40 MLOAD DUP1 SWAP2 SUB SWAP1 REVERT JUMPDEST DUP5 SLOAD PUSH8 0xFFFFFFFFFFFFFFFF NOT AND PUSH1 0x1 OR DUP6 SSTORE DUP4 ISZERO PUSH2 0xEFA JUMPI DUP5 SLOAD PUSH1 0xFF PUSH1 0x40 SHL NOT AND PUSH1 0x1 PUSH1 0x40 SHL OR DUP6 SSTORE JUMPDEST PUSH1 0x0 PUSH1 0x3 DUP2 SWAP1 SSTORE PUSH1 0x4 DUP2 SWAP1 SSTORE PUSH1 0x5 DUP2 SWAP1 SSTORE DUP1 SLOAD PUSH1 0x1 ADD DUP2 SSTORE DUP1 MSTORE PUSH1 0x6 DUP1 SLOAD PUSH1 0x1 PUSH1 0x1 PUSH1 0xA0 SHL SUB NOT AND PUSH1 0x1 PUSH1 0x1 PUSH1 0xA0 SHL SUB DUP9 AND OR SWAP1 SSTORE DUP4 ISZERO PUSH2 0xF75 JUMPI DUP5 SLOAD PUSH1 0xFF PUSH1 0x40 SHL NOT AND DUP6 SSTORE PUSH1 0x40 MLOAD PUSH1 0x1 DUP2 MSTORE PUSH32 0xC7F505B2F371AE2175EE4913F4499E1F2633A7B5936321EED1CDAEB6115181D2 SWAP1 PUSH1 0x20 ADD PUSH1 0x40 MLOAD DUP1 SWAP2 SUB SWAP1 LOG1 JUMPDEST POP POP POP POP POP POP JUMP JUMPDEST DUP4 PUSH1 0x0 PUSH2 0xF89 DUP3 PUSH2 0x137A JUMP JUMPDEST SWAP1 POP PUSH1 0x2 PUSH1 0x0 DUP3 DUP2 SLOAD DUP2 LT PUSH2 0xFA0 JUMPI PUSH2 0xFA0 PUSH2 0x19C0 JUMP JUMPDEST SWAP1 PUSH1 0x0 MSTORE PUSH1 0x20 PUSH1 0x0 KECCAK256 SWAP1 PUSH1 0xC MUL ADD PUSH1 0x3 ADD SLOAD EQ PUSH2 0xFF1 JUMPI PUSH1 0x40 MLOAD PUSH3 0x461BCD PUSH1 0xE5 SHL DUP2 MSTORE PUSH1 0x20 PUSH1 0x4 DUP3 ADD MSTORE PUSH1 0xF PUSH1 0x24 DUP3 ADD MSTORE PUSH15 0x11DC9BDD5C081A5CC818DB1BDCD959 PUSH1 0x8A SHL PUSH1 0x44 DUP3 ADD MSTORE PUSH1 0x64 ADD PUSH2 0x6BC JUMP JUMPDEST PUSH1 0x0 PUSH2 0xFFC DUP8 PUSH2 0x137A JUMP JUMPDEST SWAP1 POP PUSH1 0x0 DUP1 DUP3 DUP2 SLOAD DUP2 LT PUSH2 0x1012 JUMPI PUSH2 0x1012 PUSH2 0x19C0 JUMP JUMPDEST PUSH1 0x0 SWAP2 DUP3 MSTORE PUSH1 0x20 SWAP1 SWAP2 KECCAK256 PUSH1 0x2 PUSH1 0xC SWAP1 SWAP3 MUL ADD SWAP1 DUP2 ADD SLOAD SWAP1 SWAP2 POP PUSH1 0xFF AND ISZERO ISZERO DUP7 ISZERO ISZERO EQ PUSH2 0x108C JUMPI PUSH1 0x40 MLOAD PUSH3 0x461BCD PUSH1 0xE5 SHL DUP2 MSTORE PUSH1 0x20 PUSH1 0x4 DUP3 ADD MSTORE PUSH1 0x23 PUSH1 0x24 DUP3 ADD MSTORE PUSH32 0x496E76616C6964206465706F736974207479706520666F722074686973206772 PUSH1 0x44 DUP3 ADD MSTORE PUSH3 0x6F757 PUSH1 0xEC SHL PUSH1 0x64 DUP3 ADD MSTORE PUSH1 0x84 ADD PUSH2 0x6BC JUMP JUMPDEST PUSH1 0x0 DUP7 ISZERO PUSH2 0x1288 JUMPI PUSH1 0x0 DUP7 GT PUSH2 0x10B4 JUMPI PUSH1 0x40 MLOAD PUSH3 0x461BCD PUSH1 0xE5 SHL DUP2 MSTORE PUSH1 0x4 ADD PUSH2 0x6BC SWAP1 PUSH2 0x1C48 JUMP JUMPDEST CALLVALUE ISZERO PUSH2 0x1102 JUMPI PUSH1 0x40 MLOAD PUSH3 0x461BCD PUSH1 0xE5 SHL DUP2 MSTORE PUSH1 0x20 PUSH1 0x4 DUP3 ADD MSTORE PUSH1 0x17 PUSH1 0x24 DUP3 ADD MSTORE PUSH32 0x4E6F2065746865722073686F756C642062652073656E74000000000000000000 PUSH1 0x44 DUP3 ADD MSTORE PUSH1 0x64 ADD PUSH2 0x6BC JUMP JUMPDEST PUSH1 0x6 SLOAD PUSH1 0x40 MLOAD PUSH4 0x70A08231 PUSH1 0xE0 SHL DUP2 MSTORE CALLER PUSH1 0x4 DUP3 ADD MSTORE PUSH1 0x0 SWAP2 PUSH1 0x1 PUSH1 0x1 PUSH1 0xA0 SHL SUB AND SWAP1 PUSH4 0x70A08231 SWAP1 PUSH1 0x24 ADD PUSH1 0x20 PUSH1 0x40 MLOAD DUP1 DUP4 SUB DUP2 DUP7 GAS STATICCALL ISZERO DUP1 ISZERO PUSH2 0x114B JUMPI RETURNDATASIZE PUSH1 0x0 DUP1 RETURNDATACOPY RETURNDATASIZE PUSH1 0x0 REVERT JUMPDEST POP POP POP POP PUSH1 0x40 MLOAD RETURNDATASIZE PUSH1 0x1F NOT PUSH1 0x1F DUP3 ADD AND DUP3 ADD DUP1 PUSH1 0x40 MSTORE POP DUP2 ADD SWAP1 PUSH2 0x116F SWAP2 SWAP1 PUSH2 0x1C90 JUMP JUMPDEST SWAP1 POP DUP7 DUP2 LT ISZERO PUSH2 0x11C1 JUMPI PUSH1 0x40 MLOAD PUSH3 0x461BCD PUSH1 0xE5 SHL DUP2 MSTORE PUSH1 0x20 PUSH1 0x4 DUP3 ADD MSTORE PUSH1 0x19 PUSH1 0x24 DUP3 ADD MSTORE PUSH32 0x496E73756666696369656E7420555344432062616C616E636500000000000000 PUSH1 0x44 DUP3 ADD MSTORE PUSH1 0x64 ADD PUSH2 0x6BC JUMP JUMPDEST PUSH1 0x6 SLOAD PUSH1 0x40 MLOAD PUSH4 0x23B872DD PUSH1 0xE0 SHL DUP2 MSTORE CALLER PUSH1 0x4 DUP3 ADD MSTORE ADDRESS PUSH1 0x24 DUP3 ADD MSTORE PUSH1 0x44 DUP2 ADD DUP10 SWAP1 MSTORE PUSH1 0x1 PUSH1 0x1 PUSH1 0xA0 SHL SUB SWAP1 SWAP2 AND SWAP1 PUSH4 0x23B872DD SWAP1 PUSH1 0x64 ADD PUSH1 0x20 PUSH1 0x40 MLOAD DUP1 DUP4 SUB DUP2 PUSH1 0x0 DUP8 GAS CALL ISZERO DUP1 ISZERO PUSH2 0x1218 JUMPI RETURNDATASIZE PUSH1 0x0 DUP1 RETURNDATACOPY RETURNDATASIZE PUSH1 0x0 REVERT JUMPDEST POP POP POP POP PUSH1 0x40 MLOAD RETURNDATASIZE PUSH1 0x1F NOT PUSH1 0x1F DUP3 ADD AND DUP3 ADD DUP1 PUSH1 0x40 MSTORE POP DUP2 ADD SWAP1 PUSH2 0x123C SWAP2 SWAP1 PUSH2 0x1A3F JUMP JUMPDEST PUSH2 0x127F JUMPI PUSH1 0x40 MLOAD PUSH3 0x461BCD PUSH1 0xE5 SHL DUP2 MSTORE PUSH1 0x20 PUSH1 0x4 DUP3 ADD MSTORE PUSH1 0x14 PUSH1 0x24 DUP3 ADD MSTORE PUSH20 0x1554D110C8151C985B9CD9995C8819985A5B1959 PUSH1 0x62 SHL PUSH1 0x44 DUP3 ADD MSTORE PUSH1 0x64 ADD PUSH2 0x6BC JUMP JUMPDEST DUP7 SWAP2 POP POP PUSH2 0x12AB JUMP JUMPDEST PUSH1 0x0 CALLVALUE GT PUSH2 0x12A8 JUMPI PUSH1 0x40 MLOAD PUSH3 0x461BCD PUSH1 0xE5 SHL DUP2 MSTORE PUSH1 0x4 ADD PUSH2 0x6BC SWAP1 PUSH2 0x1C48 JUMP JUMPDEST POP CALLVALUE JUMPDEST PUSH2 0x12B7 DUP10 CALLER DUP11 DUP5 PUSH2 0x13E1 JUMP JUMPDEST DUP1 DUP3 PUSH1 0x7 ADD PUSH1 0x0 DUP3 DUP3 SLOAD PUSH2 0x12CB SWAP2 SWAP1 PUSH2 0x1A26 JUMP JUMPDEST SWAP3 POP POP DUP2 SWAP1 SSTORE POP DUP1 DUP3 PUSH1 0x8 ADD PUSH1 0x0 DUP3 DUP3 SLOAD PUSH2 0x12E6 SWAP2 SWAP1 PUSH2 0x1A26 JUMP JUMPDEST SWAP1 SWAP2 SSTORE POP POP DUP7 ISZERO PUSH2 0x130E JUMPI DUP1 PUSH1 0x5 PUSH1 0x0 DUP3 DUP3 SLOAD PUSH2 0x1303 SWAP2 SWAP1 PUSH2 0x1A26 JUMP JUMPDEST SWAP1 SWAP2 SSTORE POP PUSH2 0x1326 SWAP1 POP JUMP JUMPDEST DUP1 PUSH1 0x4 PUSH1 0x0 DUP3 DUP3 SLOAD PUSH2 0x1320 SWAP2 SWAP1 PUSH2 0x1A26 JUMP JUMPDEST SWAP1 SWAP2 SSTORE POP POP JUMPDEST PUSH1 0x2 DUP3 ADD SLOAD PUSH1 0x40 MLOAD CALLER SWAP2 DUP12 SWAP2 PUSH32 0xB5493B1023D3022B165A5630E4E5D5368E76ADB463E90C2020A7A3D3B31606B8 SWAP2 PUSH2 0x1367 SWAP2 DUP14 SWAP2 DUP8 SWAP2 PUSH1 0xFF SWAP1 SWAP2 AND SWAP1 PUSH2 0x1CA9 JUMP JUMPDEST PUSH1 0x40 MLOAD DUP1 SWAP2 SUB SWAP1 LOG3 POP POP POP POP POP POP POP POP POP JUMP JUMPDEST PUSH1 0x0 DUP2 DUP2 MSTORE PUSH1 0x2 PUSH1 0x20 MSTORE PUSH1 0x40 DUP2 KECCAK256 SLOAD DUP2 SUB PUSH2 0x13CE JUMPI PUSH1 0x40 MLOAD PUSH3 0x461BCD PUSH1 0xE5 SHL DUP2 MSTORE PUSH1 0x20 PUSH1 0x4 DUP3 ADD MSTORE PUSH1 0x14 PUSH1 0x24 DUP3 ADD MSTORE PUSH20 0x11DC9BDD5C08191BD95CC81B9BDD08195E1A5CDD PUSH1 0x62 SHL PUSH1 0x44 DUP3 ADD MSTORE PUSH1 0x64 ADD PUSH2 0x6BC JUMP JUMPDEST POP PUSH1 0x0 SWAP1 DUP2 MSTORE PUSH1 0x2 PUSH1 0x20 MSTORE PUSH1 0x40 SWAP1 KECCAK256 SLOAD SWAP1 JUMP JUMPDEST PUSH1 0x0 PUSH2 0x13EC DUP6 PUSH2 0x137A JUMP JUMPDEST SWAP1 POP DUP5 PUSH1 0x0 DUP3 DUP2 SLOAD DUP2 LT PUSH2 0x1402 JUMPI PUSH2 0x1402 PUSH2 0x19C0 JUMP JUMPDEST SWAP1 PUSH1 0x0 MSTORE PUSH1 0x20 PUSH1 0x0 KECCAK256 SWAP1 PUSH1 0xC MUL ADD PUSH1 0x0 ADD SLOAD EQ PUSH2 0x1458 JUMPI PUSH1 0x40 MLOAD PUSH3 0x461BCD PUSH1 0xE5 SHL DUP2 MSTORE PUSH1 0x20 PUSH1 0x4 DUP3 ADD MSTORE PUSH1 0x14 PUSH1 0x24 DUP3 ADD MSTORE PUSH20 0x11DC9BDD5C08191BD95CC81B9BDD08195E1A5CDD PUSH1 0x62 SHL PUSH1 0x44 DUP3 ADD MSTORE PUSH1 0x64 ADD PUSH2 0x6BC JUMP JUMPDEST PUSH1 0x0 DUP1 DUP3 DUP2 SLOAD DUP2 LT PUSH2 0x146C JUMPI PUSH2 0x146C PUSH2 0x19C0 JUMP JUMPDEST PUSH1 0x0 SWAP2 DUP3 MSTORE PUSH1 0x20 DUP1 DUP4 KECCAK256 PUSH1 0x1 PUSH1 0x1 PUSH1 0xA0 SHL SUB DUP10 DUP2 AND DUP6 MSTORE PUSH1 0xC SWAP4 SWAP1 SWAP4 MUL ADD PUSH1 0xB DUP2 ADD SWAP1 SWAP2 MSTORE PUSH1 0x40 SWAP1 SWAP3 KECCAK256 SLOAD SWAP2 SWAP3 POP AND ISZERO PUSH2 0x14F8 JUMPI PUSH1 0x1 PUSH1 0x1 PUSH1 0xA0 SHL SUB DUP6 AND PUSH1 0x0 SWAP1 DUP2 MSTORE PUSH1 0xB DUP3 ADD PUSH1 0x20 MSTORE PUSH1 0x40 DUP2 KECCAK256 PUSH1 0x2 ADD DUP1 SLOAD DUP6 SWAP3 SWAP1 PUSH2 0x14CD SWAP1 DUP5 SWAP1 PUSH2 0x1A26 JUMP JUMPDEST SWAP1 SWAP2 SSTORE POP POP PUSH1 0x1 PUSH1 0x1 PUSH1 0xA0 SHL SUB DUP6 AND PUSH1 0x0 SWAP1 DUP2 MSTORE PUSH1 0xB DUP3 ADD PUSH1 0x20 MSTORE PUSH1 0x40 SWAP1 KECCAK256 TIMESTAMP PUSH1 0x3 SWAP1 SWAP2 ADD SSTORE PUSH2 0xF75 JUMP JUMPDEST PUSH1 0x40 DUP1 MLOAD PUSH1 0x80 DUP2 ADD DUP3 MSTORE PUSH1 0x1 PUSH1 0x1 PUSH1 0xA0 SHL SUB DUP8 DUP2 AND DUP1 DUP4 MSTORE PUSH1 0x20 DUP1 DUP5 ADD DUP10 DUP2 MSTORE DUP5 DUP7 ADD DUP10 SWAP1 MSTORE TIMESTAMP PUSH1 0x60 DUP7 ADD MSTORE PUSH1 0x0 SWAP3 DUP4 MSTORE PUSH1 0xB DUP8 ADD SWAP1 SWAP2 MSTORE SWAP4 SWAP1 KECCAK256 DUP3 MLOAD DUP2 SLOAD PUSH1 0x1 PUSH1 0x1 PUSH1 0xA0 SHL SUB NOT AND SWAP3 AND SWAP2 SWAP1 SWAP2 OR DUP2 SSTORE SWAP2 MLOAD SWAP1 SWAP2 DUP3 SWAP2 PUSH1 0x1 DUP3 ADD SWAP1 PUSH2 0x155E SWAP1 DUP3 PUSH2 0x1B88 JUMP JUMPDEST POP PUSH1 0x40 DUP3 ADD MLOAD PUSH1 0x2 DUP3 ADD SSTORE PUSH1 0x60 SWAP1 SWAP2 ADD MLOAD PUSH1 0x3 SWAP1 SWAP2 ADD SSTORE POP PUSH1 0xA DUP2 ADD DUP1 SLOAD PUSH1 0x1 DUP2 ADD DUP3 SSTORE PUSH1 0x0 SWAP2 DUP3 MSTORE PUSH1 0x20 SWAP1 SWAP2 KECCAK256 ADD DUP1 SLOAD PUSH1 0x1 PUSH1 0x1 PUSH1 0xA0 SHL SUB DUP8 AND PUSH1 0x1 PUSH1 0x1 PUSH1 0xA0 SHL SUB NOT SWAP1 SWAP2 AND OR SWAP1 SSTORE POP POP POP POP POP POP JUMP JUMPDEST PUSH1 0x20 DUP1 DUP3 MSTORE DUP3 MLOAD DUP3 DUP3 ADD DUP2 SWAP1 MSTORE PUSH1 0x0 SWAP2 SWAP1 DUP5 DUP3 ADD SWAP1 PUSH1 0x40 DUP6 ADD SWAP1 DUP5 JUMPDEST DUP2 DUP2 LT ISZERO PUSH2 0x15E8 JUMPI DUP4 MLOAD DUP4 MSTORE SWAP3 DUP5 ADD SWAP3 SWAP2 DUP5 ADD SWAP2 PUSH1 0x1 ADD PUSH2 0x15CC JUMP JUMPDEST POP SWAP1 SWAP7 SWAP6 POP POP POP POP POP POP JUMP JUMPDEST PUSH1 0x0 PUSH1 0x20 DUP3 DUP5 SUB SLT ISZERO PUSH2 0x1606 JUMPI PUSH1 0x0 DUP1 REVERT JUMPDEST POP CALLDATALOAD SWAP2 SWAP1 POP JUMP JUMPDEST PUSH1 0x0 JUMPDEST DUP4 DUP2 LT ISZERO PUSH2 0x1628 JUMPI DUP2 DUP2 ADD MLOAD DUP4 DUP3 ADD MSTORE PUSH1 0x20 ADD PUSH2 0x1610 JUMP JUMPDEST POP POP PUSH1 0x0 SWAP2 ADD MSTORE JUMP JUMPDEST PUSH1 0x0 DUP2 MLOAD DUP1 DUP5 MSTORE PUSH2 0x1649 DUP2 PUSH1 0x20 DUP7 ADD PUSH1 0x20 DUP7 ADD PUSH2 0x160D JUMP JUMPDEST PUSH1 0x1F ADD PUSH1 0x1F NOT AND SWAP3 SWAP1 SWAP3 ADD PUSH1 0x20 ADD SWAP3 SWAP2 POP POP JUMP JUMPDEST PUSH1 0x0 PUSH2 0x160 DUP14 DUP4 MSTORE PUSH1 0x20 DUP2 DUP2 DUP6 ADD MSTORE PUSH2 0x1678 DUP3 DUP6 ADD DUP16 PUSH2 0x1631 JUMP JUMPDEST DUP14 ISZERO ISZERO PUSH1 0x40 DUP7 ADD MSTORE PUSH1 0x1 PUSH1 0x1 PUSH1 0xA0 SHL SUB DUP14 DUP2 AND PUSH1 0x60 DUP8 ADD MSTORE DUP6 DUP3 SUB PUSH1 0x80 DUP8 ADD MSTORE SWAP1 SWAP3 POP PUSH2 0x16A5 DUP4 DUP14 PUSH2 0x1631 JUMP JUMPDEST SWAP3 POP DUP11 PUSH1 0xA0 DUP7 ADD MSTORE DUP10 PUSH1 0xC0 DUP7 ADD MSTORE DUP9 PUSH1 0xE0 DUP7 ADD MSTORE DUP8 PUSH2 0x100 DUP7 ADD MSTORE DUP7 PUSH2 0x120 DUP7 ADD MSTORE DUP5 DUP4 SUB PUSH2 0x140 DUP7 ADD MSTORE DUP3 DUP7 MLOAD DUP1 DUP6 MSTORE DUP4 DUP6 ADD SWAP2 POP DUP4 DUP9 ADD SWAP5 POP PUSH1 0x0 JUMPDEST DUP2 DUP2 LT ISZERO PUSH2 0x1701 JUMPI DUP6 MLOAD DUP5 AND DUP4 MSTORE SWAP5 DUP5 ADD SWAP5 SWAP2 DUP5 ADD SWAP2 PUSH1 0x1 ADD PUSH2 0x16E3 JUMP JUMPDEST POP POP DUP1 SWAP5 POP POP POP POP POP SWAP13 SWAP12 POP POP POP POP POP POP POP POP POP POP POP POP JUMP JUMPDEST DUP1 CALLDATALOAD PUSH1 0x1 PUSH1 0x1 PUSH1 0xA0 SHL SUB DUP2 AND DUP2 EQ PUSH2 0x1731 JUMPI PUSH1 0x0 DUP1 REVERT JUMPDEST SWAP2 SWAP1 POP JUMP JUMPDEST PUSH1 0x0 DUP1 PUSH1 0x40 DUP4 DUP6 SUB SLT ISZERO PUSH2 0x1749 JUMPI PUSH1 0x0 DUP1 REVERT JUMPDEST DUP3 CALLDATALOAD SWAP2 POP PUSH2 0x1759 PUSH1 0x20 DUP5 ADD PUSH2 0x171A JUMP JUMPDEST SWAP1 POP SWAP3 POP SWAP3 SWAP1 POP JUMP JUMPDEST PUSH1 0x1 PUSH1 0x1 PUSH1 0xA0 SHL SUB DUP6 AND DUP2 MSTORE PUSH1 0x80 PUSH1 0x20 DUP3 ADD DUP2 SWAP1 MSTORE PUSH1 0x0 SWAP1 PUSH2 0x1786 SWAP1 DUP4 ADD DUP7 PUSH2 0x1631 JUMP JUMPDEST PUSH1 0x40 DUP4 ADD SWAP5 SWAP1 SWAP5 MSTORE POP PUSH1 0x60 ADD MSTORE SWAP3 SWAP2 POP POP JUMP JUMPDEST PUSH1 0x0 PUSH2 0x140 DUP13 DUP4 MSTORE DUP1 PUSH1 0x20 DUP5 ADD MSTORE PUSH2 0x17B3 DUP2 DUP5 ADD DUP14 PUSH2 0x1631 JUMP JUMPDEST DUP12 ISZERO ISZERO PUSH1 0x40 DUP6 ADD MSTORE PUSH1 0x60 DUP5 ADD DUP12 SWAP1 MSTORE PUSH1 0x80 DUP5 ADD DUP11 SWAP1 MSTORE PUSH1 0x1 PUSH1 0x1 PUSH1 0xA0 SHL SUB DUP10 AND PUSH1 0xA0 DUP6 ADD MSTORE DUP4 DUP2 SUB PUSH1 0xC0 DUP6 ADD MSTORE SWAP1 POP PUSH2 0x17EC DUP2 DUP9 PUSH2 0x1631 JUMP JUMPDEST PUSH1 0xE0 DUP5 ADD SWAP7 SWAP1 SWAP7 MSTORE POP POP PUSH2 0x100 DUP2 ADD SWAP3 SWAP1 SWAP3 MSTORE PUSH2 0x120 SWAP1 SWAP2 ADD MSTORE SWAP8 SWAP7 POP POP POP POP POP POP POP JUMP JUMPDEST PUSH4 0x4E487B71 PUSH1 0xE0 SHL PUSH1 0x0 MSTORE PUSH1 0x41 PUSH1 0x4 MSTORE PUSH1 0x24 PUSH1 0x0 REVERT JUMPDEST PUSH1 0x0 DUP3 PUSH1 0x1F DUP4 ADD SLT PUSH2 0x1838 JUMPI PUSH1 0x0 DUP1 REVERT JUMPDEST DUP2 CALLDATALOAD PUSH8 0xFFFFFFFFFFFFFFFF DUP1 DUP3 GT ISZERO PUSH2 0x1853 JUMPI PUSH2 0x1853 PUSH2 0x1811 JUMP JUMPDEST PUSH1 0x40 MLOAD PUSH1 0x1F DUP4 ADD PUSH1 0x1F NOT SWAP1 DUP2 AND PUSH1 0x3F ADD AND DUP2 ADD SWAP1 DUP3 DUP3 GT DUP2 DUP4 LT OR ISZERO PUSH2 0x187B JUMPI PUSH2 0x187B PUSH2 0x1811 JUMP JUMPDEST DUP2 PUSH1 0x40 MSTORE DUP4 DUP2 MSTORE DUP7 PUSH1 0x20 DUP6 DUP9 ADD ADD GT ISZERO PUSH2 0x1894 JUMPI PUSH1 0x0 DUP1 REVERT JUMPDEST DUP4 PUSH1 0x20 DUP8 ADD PUSH1 0x20 DUP4 ADD CALLDATACOPY PUSH1 0x0 PUSH1 0x20 DUP6 DUP4 ADD ADD MSTORE DUP1 SWAP5 POP POP POP POP POP SWAP3 SWAP2 POP POP JUMP JUMPDEST DUP1 ISZERO ISZERO DUP2 EQ PUSH2 0x18C2 JUMPI PUSH1 0x0 DUP1 REVERT JUMPDEST POP JUMP JUMPDEST PUSH1 0x0 DUP1 PUSH1 0x0 PUSH1 0x60 DUP5 DUP7 SUB SLT ISZERO PUSH2 0x18DA JUMPI PUSH1 0x0 DUP1 REVERT JUMPDEST DUP4 CALLDATALOAD PUSH8 0xFFFFFFFFFFFFFFFF DUP1 DUP3 GT ISZERO PUSH2 0x18F2 JUMPI PUSH1 0x0 DUP1 REVERT JUMPDEST PUSH2 0x18FE DUP8 DUP4 DUP9 ADD PUSH2 0x1827 JUMP JUMPDEST SWAP5 POP PUSH1 0x20 DUP7 ADD CALLDATALOAD SWAP2 POP DUP1 DUP3 GT ISZERO PUSH2 0x1914 JUMPI PUSH1 0x0 DUP1 REVERT JUMPDEST POP PUSH2 0x1921 DUP7 DUP3 DUP8 ADD PUSH2 0x1827 JUMP JUMPDEST SWAP3 POP POP PUSH1 0x40 DUP5 ADD CALLDATALOAD PUSH2 0x1932 DUP2 PUSH2 0x18B4 JUMP JUMPDEST DUP1 SWAP2 POP POP SWAP3 POP SWAP3 POP SWAP3 JUMP JUMPDEST PUSH1 0x0 PUSH1 0x20 DUP3 DUP5 SUB SLT ISZERO PUSH2 0x194F JUMPI PUSH1 0x0 DUP1 REVERT JUMPDEST PUSH2 0x1958 DUP3 PUSH2 0x171A JUMP JUMPDEST SWAP4 SWAP3 POP POP POP JUMP JUMPDEST PUSH1 0x0 DUP1 PUSH1 0x0 DUP1 PUSH1 0x80 DUP6 DUP8 SUB SLT ISZERO PUSH2 0x1975 JUMPI PUSH1 0x0 DUP1 REVERT JUMPDEST DUP5 CALLDATALOAD SWAP4 POP PUSH1 0x20 DUP6 ADD CALLDATALOAD PUSH8 0xFFFFFFFFFFFFFFFF DUP2 GT ISZERO PUSH2 0x1993 JUMPI PUSH1 0x0 DUP1 REVERT JUMPDEST PUSH2 0x199F DUP8 DUP3 DUP9 ADD PUSH2 0x1827 JUMP JUMPDEST SWAP4 POP POP PUSH1 0x40 DUP6 ADD CALLDATALOAD PUSH2 0x19B0 DUP2 PUSH2 0x18B4 JUMP JUMPDEST SWAP4 SWAP7 SWAP3 SWAP6 POP SWAP3 SWAP4 PUSH1 0x60 ADD CALLDATALOAD SWAP3 POP POP JUMP JUMPDEST PUSH4 0x4E487B71 PUSH1 0xE0 SHL PUSH1 0x0 MSTORE PUSH1 0x32 PUSH1 0x4 MSTORE PUSH1 0x24 PUSH1 0x0 REVERT JUMPDEST PUSH1 0x1 DUP2 DUP2 SHR SWAP1 DUP3 AND DUP1 PUSH2 0x19EA JUMPI PUSH1 0x7F DUP3 AND SWAP2 POP JUMPDEST PUSH1 0x20 DUP3 LT DUP2 SUB PUSH2 0x1A0A JUMPI PUSH4 0x4E487B71 PUSH1 0xE0 SHL PUSH1 0x0 MSTORE PUSH1 0x22 PUSH1 0x4 MSTORE PUSH1 0x24 PUSH1 0x0 REVERT JUMPDEST POP SWAP2 SWAP1 POP JUMP JUMPDEST PUSH4 0x4E487B71 PUSH1 0xE0 SHL PUSH1 0x0 MSTORE PUSH1 0x11 PUSH1 0x4 MSTORE PUSH1 0x24 PUSH1 0x0 REVERT JUMPDEST DUP1 DUP3 ADD DUP1 DUP3 GT ISZERO PUSH2 0x1A39 JUMPI PUSH2 0x1A39 PUSH2 0x1A10 JUMP JUMPDEST SWAP3 SWAP2 POP POP JUMP JUMPDEST PUSH1 0x0 PUSH1 0x20 DUP3 DUP5 SUB SLT ISZERO PUSH2 0x1A51 JUMPI PUSH1 0x0 DUP1 REVERT JUMPDEST DUP2 MLOAD PUSH2 0x1958 DUP2 PUSH2 0x18B4 JUMP JUMPDEST DUP2 DUP2 SUB DUP2 DUP2 GT ISZERO PUSH2 0x1A39 JUMPI PUSH2 0x1A39 PUSH2 0x1A10 JUMP JUMPDEST PUSH1 0x0 DUP1 DUP4 SLOAD PUSH2 0x1A7D DUP2 PUSH2 0x19D6 JUMP JUMPDEST PUSH1 0x1 DUP3 DUP2 AND DUP1 ISZERO PUSH2 0x1A95 JUMPI PUSH1 0x1 DUP2 EQ PUSH2 0x1AAA JUMPI PUSH2 0x1AD9 JUMP JUMPDEST PUSH1 0xFF NOT DUP5 AND DUP8 MSTORE DUP3 ISZERO ISZERO DUP4 MUL DUP8 ADD SWAP5 POP PUSH2 0x1AD9 JUMP JUMPDEST DUP8 PUSH1 0x0 MSTORE PUSH1 0x20 DUP1 PUSH1 0x0 KECCAK256 PUSH1 0x0 JUMPDEST DUP6 DUP2 LT ISZERO PUSH2 0x1AD0 JUMPI DUP2 SLOAD DUP11 DUP3 ADD MSTORE SWAP1 DUP5 ADD SWAP1 DUP3 ADD PUSH2 0x1AB7 JUMP JUMPDEST POP POP POP DUP3 DUP8 ADD SWAP5 POP JUMPDEST POP SWAP3 SWAP7 SWAP6 POP POP POP POP POP POP JUMP JUMPDEST PUSH3 0x4E4557 PUSH1 0xE8 SHL DUP2 MSTORE PUSH12 0xFFFFFFFFFFFFFFFFFFFFFFFF NOT DUP7 PUSH1 0x60 SHL AND PUSH1 0x3 DUP3 ADD MSTORE PUSH1 0x0 DUP6 MLOAD PUSH2 0x1B1B DUP2 PUSH1 0x17 DUP6 ADD PUSH1 0x20 DUP11 ADD PUSH2 0x160D JUMP JUMPDEST PUSH1 0x17 SWAP3 ADD SWAP2 DUP3 ADD SWAP5 SWAP1 SWAP5 MSTORE PUSH1 0x37 DUP2 ADD SWAP3 SWAP1 SWAP3 MSTORE PUSH1 0x57 DUP3 ADD MSTORE PUSH1 0x77 ADD SWAP4 SWAP3 POP POP POP JUMP JUMPDEST PUSH1 0x1F DUP3 GT ISZERO PUSH2 0x1B83 JUMPI PUSH1 0x0 DUP2 DUP2 MSTORE PUSH1 0x20 DUP2 KECCAK256 PUSH1 0x1F DUP6 ADD PUSH1 0x5 SHR DUP2 ADD PUSH1 0x20 DUP7 LT ISZERO PUSH2 0x1B64 JUMPI POP DUP1 JUMPDEST PUSH1 0x1F DUP6 ADD PUSH1 0x5 SHR DUP3 ADD SWAP2 POP JUMPDEST DUP2 DUP2 LT ISZERO PUSH2 0xF75 JUMPI DUP3 DUP2 SSTORE PUSH1 0x1 ADD PUSH2 0x1B70 JUMP JUMPDEST POP POP POP JUMP JUMPDEST DUP2 MLOAD PUSH8 0xFFFFFFFFFFFFFFFF DUP2 GT ISZERO PUSH2 0x1BA2 JUMPI PUSH2 0x1BA2 PUSH2 0x1811 JUMP JUMPDEST PUSH2 0x1BB6 DUP2 PUSH2 0x1BB0 DUP5 SLOAD PUSH2 0x19D6 JUMP JUMPDEST DUP5 PUSH2 0x1B3D JUMP JUMPDEST PUSH1 0x20 DUP1 PUSH1 0x1F DUP4 GT PUSH1 0x1 DUP2 EQ PUSH2 0x1BEB JUMPI PUSH1 0x0 DUP5 ISZERO PUSH2 0x1BD3 JUMPI POP DUP6 DUP4 ADD MLOAD JUMPDEST PUSH1 0x0 NOT PUSH1 0x3 DUP7 SWAP1 SHL SHR NOT AND PUSH1 0x1 DUP6 SWAP1 SHL OR DUP6 SSTORE PUSH2 0xF75 JUMP JUMPDEST PUSH1 0x0 DUP6 DUP2 MSTORE PUSH1 0x20 DUP2 KECCAK256 PUSH1 0x1F NOT DUP7 AND SWAP2 JUMPDEST DUP3 DUP2 LT ISZERO PUSH2 0x1C1A JUMPI DUP9 DUP7 ADD MLOAD DUP3 SSTORE SWAP5 DUP5 ADD SWAP5 PUSH1 0x1 SWAP1 SWAP2 ADD SWAP1 DUP5 ADD PUSH2 0x1BFB JUMP JUMPDEST POP DUP6 DUP3 LT ISZERO PUSH2 0x1C38 JUMPI DUP8 DUP6 ADD MLOAD PUSH1 0x0 NOT PUSH1 0x3 DUP9 SWAP1 SHL PUSH1 0xF8 AND SHR NOT AND DUP2 SSTORE JUMPDEST POP POP POP POP POP PUSH1 0x1 SWAP1 DUP2 SHL ADD SWAP1 SSTORE POP JUMP JUMPDEST PUSH1 0x20 DUP1 DUP3 MSTORE PUSH1 0x28 SWAP1 DUP3 ADD MSTORE PUSH32 0x4465706F73697420616D6F756E74206D75737420626520677265617465722074 PUSH1 0x40 DUP3 ADD MSTORE PUSH8 0x68616E207A65726F PUSH1 0xC0 SHL PUSH1 0x60 DUP3 ADD MSTORE PUSH1 0x80 ADD SWAP1 JUMP JUMPDEST PUSH1 0x0 PUSH1 0x20 DUP3 DUP5 SUB SLT ISZERO PUSH2 0x1CA2 JUMPI PUSH1 0x0 DUP1 REVERT JUMPDEST POP MLOAD SWAP2 SWAP1 POP JUMP JUMPDEST PUSH1 0x60 DUP2 MSTORE PUSH1 0x0 PUSH2 0x1CBC PUSH1 0x60 DUP4 ADD DUP7 PUSH2 0x1631 JUMP JUMPDEST PUSH1 0x20 DUP4 ADD SWAP5 SWAP1 SWAP5 MSTORE POP SWAP1 ISZERO ISZERO PUSH1 0x40 SWAP1 SWAP2 ADD MSTORE SWAP2 SWAP1 POP JUMP INVALID LOG2 PUSH5 0x6970667358 0x22 SLT KECCAK256 PUSH5 0x9918755C49 0xCF 0xA5 0xBF CREATE2 DUP7 PUSH2 0xA040 SLOAD 0x49 GASPRICE 0x2C ISZERO SLOAD SHR LT ORIGIN 0xB3 DUP12 SWAP9 0xD5 0xBB EXTCODECOPY GT 0xAF NOT PUSH5 0x736F6C6343 STOP ADDMOD EQ STOP CALLER "},"methodIdentifiers":{"USDC()":"89a30271","contractOpenedGroupsStat()":"7ceee340","contractTotalCollectedEthStat()":"06e0b1cc","contractTotalCollectedUSDCStat()":"3756eeb8","createGroup(string,string,bool)":"a30013e1","depositToGroup(uint256,string,bool,uint256)":"f35ea5d0","getAllGroupIds()":"2e3dcc06","getGroupInfoById(uint256)":"2f14f6c9","getGroupsNum()":"5d39c56b","getParticipantDetails(uint256,address)":"32bee467","groupIds(uint256)":"4093d7a1","groups(uint256)":"96324bd4","initialize(address)":"c4d66de8","withdrawFromGroup(uint256)":"a2a4498b"}},"storageLayout":{"storage":[{"astId":385,"contract":"contracts/GroupSplitV2.sol:GroupSplitV2","label":"groups","offset":0,"slot":"0","type":"t_array(t_struct(Group)381_storage)dyn_storage"},{"astId":388,"contract":"contracts/GroupSplitV2.sol:GroupSplitV2","label":"groupIds","offset":0,"slot":"1","type":"t_array(t_uint256)dyn_storage"},{"astId":392,"contract":"contracts/GroupSplitV2.sol:GroupSplitV2","label":"groupIndexById","offset":0,"slot":"2","type":"t_mapping(t_uint256,t_uint256)"},{"astId":394,"contract":"contracts/GroupSplitV2.sol:GroupSplitV2","label":"contractOpenedGroupsStat","offset":0,"slot":"3","type":"t_uint256"},{"astId":396,"contract":"contracts/GroupSplitV2.sol:GroupSplitV2","label":"contractTotalCollectedEthStat","offset":0,"slot":"4","type":"t_uint256"},{"astId":398,"contract":"contracts/GroupSplitV2.sol:GroupSplitV2","label":"contractTotalCollectedUSDCStat","offset":0,"slot":"5","type":"t_uint256"},{"astId":401,"contract":"contracts/GroupSplitV2.sol:GroupSplitV2","label":"USDC","offset":0,"slot":"6","type":"t_contract(IERC20)331"}],"types":{"t_address":{"encoding":"inplace","label":"address","numberOfBytes":"20"},"t_array(t_address)dyn_storage":{"base":"t_address","encoding":"dynamic_array","label":"address[]","numberOfBytes":"32"},"t_array(t_struct(Group)381_storage)dyn_storage":{"base":"t_struct(Group)381_storage","encoding":"dynamic_array","label":"struct GroupSplit.Group[]","numberOfBytes":"32"},"t_array(t_uint256)dyn_storage":{"base":"t_uint256","encoding":"dynamic_array","label":"uint256[]","numberOfBytes":"32"},"t_bool":{"encoding":"inplace","label":"bool","numberOfBytes":"1"},"t_contract(IERC20)331":{"encoding":"inplace","label":"contract IERC20","numberOfBytes":"20"},"t_mapping(t_address,t_struct(Participant)352_storage)":{"encoding":"mapping","key":"t_address","label":"mapping(address => struct GroupSplit.Participant)","numberOfBytes":"32","value":"t_struct(Participant)352_storage"},"t_mapping(t_uint256,t_uint256)":{"encoding":"mapping","key":"t_uint256","label":"mapping(uint256 => uint256)","numberOfBytes":"32","value":"t_uint256"},"t_string_storage":{"encoding":"bytes","label":"string","numberOfBytes":"32"},"t_struct(Group)381_storage":{"encoding":"inplace","label":"struct GroupSplit.Group","members":[{"astId":354,"contract":"contracts/GroupSplitV2.sol:GroupSplitV2","label":"groupId","offset":0,"slot":"0","type":"t_uint256"},{"astId":356,"contract":"contracts/GroupSplitV2.sol:GroupSplitV2","label":"groupName","offset":0,"slot":"1","type":"t_string_storage"},{"astId":358,"contract":"contracts/GroupSplitV2.sol:GroupSplitV2","label":"isUSDC","offset":0,"slot":"2","type":"t_bool"},{"astId":360,"contract":"contracts/GroupSplitV2.sol:GroupSplitV2","label":"status","offset":0,"slot":"3","type":"t_uint256"},{"astId":362,"contract":"contracts/GroupSplitV2.sol:GroupSplitV2","label":"creationTime","offset":0,"slot":"4","type":"t_uint256"},{"astId":364,"contract":"contracts/GroupSplitV2.sol:GroupSplitV2","label":"owner","offset":0,"slot":"5","type":"t_address"},{"astId":366,"contract":"contracts/GroupSplitV2.sol:GroupSplitV2","label":"ownerNickname","offset":0,"slot":"6","type":"t_string_storage"},{"astId":368,"contract":"contracts/GroupSplitV2.sol:GroupSplitV2","label":"balance","offset":0,"slot":"7","type":"t_uint256"},{"astId":370,"contract":"contracts/GroupSplitV2.sol:GroupSplitV2","label":"totalCollected","offset":0,"slot":"8","type":"t_uint256"},{"astId":372,"contract":"contracts/GroupSplitV2.sol:GroupSplitV2","label":"totalWithdrawn","offset":0,"slot":"9","type":"t_uint256"},{"astId":375,"contract":"contracts/GroupSplitV2.sol:GroupSplitV2","label":"participantsAddresses","offset":0,"slot":"10","type":"t_array(t_address)dyn_storage"},{"astId":380,"contract":"contracts/GroupSplitV2.sol:GroupSplitV2","label":"participantDetails","offset":0,"slot":"11","type":"t_mapping(t_address,t_struct(Participant)352_storage)"}],"numberOfBytes":"384"},"t_struct(Participant)352_storage":{"encoding":"inplace","label":"struct GroupSplit.Participant","members":[{"astId":345,"contract":"contracts/GroupSplitV2.sol:GroupSplitV2","label":"participantAddress","offset":0,"slot":"0","type":"t_address"},{"astId":347,"contract":"contracts/GroupSplitV2.sol:GroupSplitV2","label":"nickname","offset":0,"slot":"1","type":"t_string_storage"},{"astId":349,"contract":"contracts/GroupSplitV2.sol:GroupSplitV2","label":"totalDeposits","offset":0,"slot":"2","type":"t_uint256"},{"astId":351,"contract":"contracts/GroupSplitV2.sol:GroupSplitV2","label":"lastDeposited","offset":0,"slot":"3","type":"t_uint256"}],"numberOfBytes":"128"},"t_uint256":{"encoding":"inplace","label":"uint256","numberOfBytes":"32"}}}}}}