{
  "_format": "hh-sol-artifact-1",
  "contractName": "GroupSplit",
  "sourceName": "contracts/GroupSplit.sol",
  "abi": [
    {
      "inputs": [
        {
          "internalType": "address",
          "name": "_usdcTokenAddress",
          "type": "address"
        }
      ],
      "stateMutability": "nonpayable",
      "type": "constructor"
    },
    {
      "anonymous": false,
      "inputs": [
        {
          "indexed": true,
          "internalType": "uint256",
          "name": "groupId",
          "type": "uint256"
        },
        {
          "indexed": true,
          "internalType": "address",
          "name": "owner",
          "type": "address"
        },
        {
          "indexed": true,
          "internalType": "string",
          "name": "groupName",
          "type": "string"
        },
        {
          "indexed": false,
          "internalType": "uint256",
          "name": "closingTime",
          "type": "uint256"
        },
        {
          "indexed": false,
          "internalType": "bool",
          "name": "isUSDC",
          "type": "bool"
        }
      ],
      "name": "logGroupClosed",
      "type": "event"
    },
    {
      "anonymous": false,
      "inputs": [
        {
          "indexed": true,
          "internalType": "uint256",
          "name": "groupId",
          "type": "uint256"
        },
        {
          "indexed": true,
          "internalType": "address",
          "name": "owner",
          "type": "address"
        },
        {
          "indexed": true,
          "internalType": "string",
          "name": "groupName",
          "type": "string"
        },
        {
          "indexed": false,
          "internalType": "uint256",
          "name": "creationTime",
          "type": "uint256"
        },
        {
          "indexed": false,
          "internalType": "bool",
          "name": "isUSDC",
          "type": "bool"
        }
      ],
      "name": "logGroupCreated",
      "type": "event"
    },
    {
      "anonymous": false,
      "inputs": [
        {
          "indexed": true,
          "internalType": "uint256",
          "name": "groupId",
          "type": "uint256"
        },
        {
          "indexed": true,
          "internalType": "address",
          "name": "participant",
          "type": "address"
        },
        {
          "indexed": false,
          "internalType": "string",
          "name": "nickname",
          "type": "string"
        },
        {
          "indexed": false,
          "internalType": "uint256",
          "name": "deposit",
          "type": "uint256"
        },
        {
          "indexed": false,
          "internalType": "bool",
          "name": "isUSDC",
          "type": "bool"
        }
      ],
      "name": "logGroupDepositReceived",
      "type": "event"
    },
    {
      "anonymous": false,
      "inputs": [
        {
          "indexed": true,
          "internalType": "uint256",
          "name": "groupId",
          "type": "uint256"
        },
        {
          "indexed": true,
          "internalType": "address",
          "name": "owner",
          "type": "address"
        },
        {
          "indexed": true,
          "internalType": "string",
          "name": "groupName",
          "type": "string"
        },
        {
          "indexed": false,
          "internalType": "uint256",
          "name": "openingTime",
          "type": "uint256"
        },
        {
          "indexed": false,
          "internalType": "bool",
          "name": "isUSDC",
          "type": "bool"
        }
      ],
      "name": "logGroupOpened",
      "type": "event"
    },
    {
      "anonymous": false,
      "inputs": [
        {
          "indexed": true,
          "internalType": "uint256",
          "name": "groupId",
          "type": "uint256"
        },
        {
          "indexed": false,
          "internalType": "uint256",
          "name": "amountWithdrawn",
          "type": "uint256"
        },
        {
          "indexed": false,
          "internalType": "uint256",
          "name": "time",
          "type": "uint256"
        },
        {
          "indexed": false,
          "internalType": "uint256",
          "name": "totalCollected",
          "type": "uint256"
        },
        {
          "indexed": false,
          "internalType": "uint256",
          "name": "totalWithdrawn",
          "type": "uint256"
        },
        {
          "indexed": false,
          "internalType": "bool",
          "name": "isUSDC",
          "type": "bool"
        }
      ],
      "name": "logGroupWithdrawal",
      "type": "event"
    },
    {
      "anonymous": false,
      "inputs": [
        {
          "indexed": true,
          "internalType": "uint256",
          "name": "groupId",
          "type": "uint256"
        },
        {
          "indexed": true,
          "internalType": "address",
          "name": "owner",
          "type": "address"
        },
        {
          "indexed": false,
          "internalType": "uint256",
          "name": "amount",
          "type": "uint256"
        },
        {
          "indexed": false,
          "internalType": "bool",
          "name": "isUSDC",
          "type": "bool"
        }
      ],
      "name": "logWithdrawalFailed",
      "type": "event"
    },
    {
      "inputs": [],
      "name": "USDC",
      "outputs": [
        {
          "internalType": "contract IERC20",
          "name": "",
          "type": "address"
        }
      ],
      "stateMutability": "view",
      "type": "function"
    },
    {
      "inputs": [],
      "name": "activeGroups",
      "outputs": [
        {
          "internalType": "uint256",
          "name": "",
          "type": "uint256"
        }
      ],
      "stateMutability": "view",
      "type": "function"
    },
    {
      "inputs": [
        {
          "internalType": "string",
          "name": "_groupName",
          "type": "string"
        },
        {
          "internalType": "string",
          "name": "_ownerNickname",
          "type": "string"
        },
        {
          "internalType": "bool",
          "name": "isUSDC",
          "type": "bool"
        }
      ],
      "name": "createGroup",
      "outputs": [],
      "stateMutability": "nonpayable",
      "type": "function"
    },
    {
      "inputs": [
        {
          "internalType": "uint256",
          "name": "_groupId",
          "type": "uint256"
        },
        {
          "internalType": "string",
          "name": "_nickname",
          "type": "string"
        },
        {
          "internalType": "bool",
          "name": "isUSDCDeposit",
          "type": "bool"
        },
        {
          "internalType": "uint256",
          "name": "usdcAmount",
          "type": "uint256"
        }
      ],
      "name": "depositToGroup",
      "outputs": [],
      "stateMutability": "payable",
      "type": "function"
    },
    {
      "inputs": [],
      "name": "getActivegroups",
      "outputs": [
        {
          "internalType": "uint256",
          "name": "",
          "type": "uint256"
        }
      ],
      "stateMutability": "view",
      "type": "function"
    },
    {
      "inputs": [],
      "name": "getAllGroupIds",
      "outputs": [
        {
          "internalType": "uint256[]",
          "name": "",
          "type": "uint256[]"
        }
      ],
      "stateMutability": "view",
      "type": "function"
    },
    {
      "inputs": [
        {
          "internalType": "uint256",
          "name": "_groupId",
          "type": "uint256"
        }
      ],
      "name": "getGroupInfoById",
      "outputs": [
        {
          "internalType": "uint256",
          "name": "",
          "type": "uint256"
        },
        {
          "internalType": "string",
          "name": "",
          "type": "string"
        },
        {
          "internalType": "bool",
          "name": "",
          "type": "bool"
        },
        {
          "internalType": "address",
          "name": "",
          "type": "address"
        },
        {
          "internalType": "string",
          "name": "",
          "type": "string"
        },
        {
          "internalType": "uint256",
          "name": "",
          "type": "uint256"
        },
        {
          "internalType": "uint256",
          "name": "",
          "type": "uint256"
        },
        {
          "internalType": "uint256",
          "name": "",
          "type": "uint256"
        },
        {
          "internalType": "uint256",
          "name": "",
          "type": "uint256"
        },
        {
          "internalType": "uint256",
          "name": "",
          "type": "uint256"
        },
        {
          "internalType": "address[]",
          "name": "",
          "type": "address[]"
        }
      ],
      "stateMutability": "view",
      "type": "function"
    },
    {
      "inputs": [],
      "name": "getGroupsNum",
      "outputs": [
        {
          "internalType": "uint256",
          "name": "",
          "type": "uint256"
        }
      ],
      "stateMutability": "view",
      "type": "function"
    },
    {
      "inputs": [
        {
          "internalType": "uint256",
          "name": "_groupId",
          "type": "uint256"
        },
        {
          "internalType": "address",
          "name": "_participantAddress",
          "type": "address"
        }
      ],
      "name": "getParticipantDetails",
      "outputs": [
        {
          "internalType": "address",
          "name": "participantAddress",
          "type": "address"
        },
        {
          "internalType": "string",
          "name": "nickname",
          "type": "string"
        },
        {
          "internalType": "uint256",
          "name": "totalDeposits",
          "type": "uint256"
        }
      ],
      "stateMutability": "view",
      "type": "function"
    },
    {
      "inputs": [
        {
          "internalType": "uint256",
          "name": "",
          "type": "uint256"
        }
      ],
      "name": "groupIds",
      "outputs": [
        {
          "internalType": "uint256",
          "name": "",
          "type": "uint256"
        }
      ],
      "stateMutability": "view",
      "type": "function"
    },
    {
      "inputs": [
        {
          "internalType": "uint256",
          "name": "",
          "type": "uint256"
        }
      ],
      "name": "groups",
      "outputs": [
        {
          "internalType": "uint256",
          "name": "groupId",
          "type": "uint256"
        },
        {
          "internalType": "string",
          "name": "groupName",
          "type": "string"
        },
        {
          "internalType": "bool",
          "name": "isUSDC",
          "type": "bool"
        },
        {
          "internalType": "uint256",
          "name": "status",
          "type": "uint256"
        },
        {
          "internalType": "uint256",
          "name": "creationTime",
          "type": "uint256"
        },
        {
          "internalType": "address",
          "name": "owner",
          "type": "address"
        },
        {
          "internalType": "string",
          "name": "ownerNickname",
          "type": "string"
        },
        {
          "internalType": "uint256",
          "name": "balance",
          "type": "uint256"
        },
        {
          "internalType": "uint256",
          "name": "totalCollected",
          "type": "uint256"
        },
        {
          "internalType": "uint256",
          "name": "totalWithdrawn",
          "type": "uint256"
        }
      ],
      "stateMutability": "view",
      "type": "function"
    },
    {
      "inputs": [
        {
          "internalType": "uint256",
          "name": "_groupId",
          "type": "uint256"
        }
      ],
      "name": "withdrawFromGroup",
      "outputs": [],
      "stateMutability": "payable",
      "type": "function"
    }
  ],
  "bytecode": "0x6080604052600060035534801561001557600080fd5b50604051611a73380380611a7383398101604081905261003491610064565b6000805460010181558052600480546001600160a01b0319166001600160a01b0392909216919091179055610094565b60006020828403121561007657600080fd5b81516001600160a01b038116811461008d57600080fd5b9392505050565b6119d0806100a36000396000f3fe6080604052600436106100a75760003560e01c806389a302711161006457806389a302711461018d57806396324bd4146101c5578063a2a4498b146101fb578063a30013e114610210578063d0e4567e14610230578063f35ea5d01461024657600080fd5b80630636f5d4146100ac5780632e3dcc06146100d05780632f14f6c9146100f257806332bee467146101295780634093d7a1146101585780635d39c56b14610178575b600080fd5b3480156100b857600080fd5b506003545b6040519081526020015b60405180910390f35b3480156100dc57600080fd5b506100e5610259565b6040516100c791906112b1565b3480156100fe57600080fd5b5061011261010d3660046112f5565b6102b1565b6040516100c79b9a9998979695949392919061135e565b34801561013557600080fd5b5061014961014436600461141b565b6104e4565b6040516100c793929190611457565b34801561016457600080fd5b506100bd6101733660046112f5565b610664565b34801561018457600080fd5b506000546100bd565b34801561019957600080fd5b506004546101ad906001600160a01b031681565b6040516001600160a01b0390911681526020016100c7565b3480156101d157600080fd5b506101e56101e03660046112f5565b610685565b6040516100c79a9998979695949392919061148b565b61020e6102093660046112f5565b610807565b005b34801561021c57600080fd5b5061020e61022b3660046115b7565b610be9565b34801561023c57600080fd5b506100bd60035481565b61020e61025436600461162f565b610da9565b606060018054806020026020016040519081016040528092919081815260200182805480156102a757602002820191906000526020600020905b815481526020019060010190808311610293575b5050505050905090565b6000606060008060606000806000806000606060006102cf8d6110ab565b905060008082815481106102e5576102e5611690565b90600052602060002090600c020190508060000154816001018260020160009054906101000a900460ff168360050160009054906101000a90046001600160a01b031684600601856004015486600301548760070154886008015489600901548a600a01898054610355906116a6565b80601f0160208091040260200160405190810160405280929190818152602001828054610381906116a6565b80156103ce5780601f106103a3576101008083540402835291602001916103ce565b820191906000526020600020905b8154815290600101906020018083116103b157829003601f168201915b505050505099508680546103e1906116a6565b80601f016020809104026020016040519081016040528092919081815260200182805461040d906116a6565b801561045a5780601f1061042f5761010080835404028352916020019161045a565b820191906000526020600020905b81548152906001019060200180831161043d57829003601f168201915b50505050509650808054806020026020016040519081016040528092919081815260200182805480156104b657602002820191906000526020600020905b81546001600160a01b03168152600190910190602001808311610498575b505050505090509c509c509c509c509c509c509c509c509c509c509c50505091939597999b90929496989a50565b600060606000806104f4866110ab565b9050600080828154811061050a5761050a611690565b600091825260208083206001600160a01b038a81168552600c9390930201600b8101825260408085208151606081019092528054909416815260018401805492965090939284019161055b906116a6565b80601f0160208091040260200160405190810160405280929190818152602001828054610587906116a6565b80156105d45780601f106105a9576101008083540402835291602001916105d4565b820191906000526020600020905b8154815290600101906020018083116105b757829003601f168201915b50505091835250506002919091015460209091015280519091506001600160a01b03166106485760405162461bcd60e51b815260206004820152601a60248201527f5061727469636970616e7420646f6573206e6f7420657869737400000000000060448201526064015b60405180910390fd5b8051602082015160409092015190999198509650945050505050565b6001818154811061067457600080fd5b600091825260209091200154905081565b6000818154811061069557600080fd5b60009182526020909120600c909102018054600182018054919350906106ba906116a6565b80601f01602080910402602001604051908101604052809291908181526020018280546106e6906116a6565b80156107335780601f1061070857610100808354040283529160200191610733565b820191906000526020600020905b81548152906001019060200180831161071657829003601f168201915b5050506002840154600385015460048601546005870154600688018054979860ff909516979396509194506001600160a01b03169291610772906116a6565b80601f016020809104026020016040519081016040528092919081815260200182805461079e906116a6565b80156107eb5780601f106107c0576101008083540402835291602001916107eb565b820191906000526020600020905b8154815290600101906020018083116107ce57829003601f168201915b505050505090806007015490806008015490806009015490508a565b6000610812826110ab565b9050600080828154811061082857610828611690565b60009182526020909120600c9091020160058101549091506001600160a01b031633146108975760405162461bcd60e51b815260206004820152601d60248201527f4f6e6c792067726f7570206f776e65722063616e207769746864726177000000604482015260640161063f565b60008160070154116108e45760405162461bcd60e51b81526020600482015260166024820152754e6f2062616c616e636520746f20776974686472617760501b604482015260640161063f565b600080826007015490508083600901600082825461090291906116f6565b909155505060006007840155600283015460ff16156109e35760048054600585015460405163a9059cbb60e01b81526001600160a01b039182169381019390935260248301849052169063a9059cbb906044016020604051808303816000875af1158015610974573d6000803e3d6000fd5b505050506040513d601f19601f82011682018060405250810190610998919061170f565b9150816109de5760405162461bcd60e51b81526020600482015260146024820152731554d110c8151c985b9cd9995c8819985a5b195960621b604482015260640161063f565b610a80565b60058301546040516001600160a01b03909116908290600081818185875af1925050503d8060008114610a32576040519150601f19603f3d011682016040523d82523d6000602084013e610a37565b606091505b50508092505081610a805760405162461bcd60e51b815260206004820152601360248201527211551208151c985b9cd9995c8819985a5b1959606a1b604482015260640161063f565b81610b095780836007018190555080836009016000828254610aa29190611733565b90915550506005830154600784015460028501546040805192835260ff909116151560208301526001600160a01b039092169187917f2f78437c72aa947f251fe01f835b4450a48d4b480aed48c6ec52096b66bcf995910160405180910390a35050505050565b600160038401556008830154600984015460028501546040805185815242602082015290810193909352606083019190915260ff161515608082015285907f4737f4b5f110339198b10ac9c9ecc84dda24e5e07af201b6228e352bf22b80789060a00160405180910390a282600101604051610b859190611746565b604080519182900382206005860154600287015442855260ff161515602085015290926001600160a01b039091169188917f258a2e08c90ae0f3b8822777e4a046207be1faf120cf603acd32c2b82427765291015b60405180910390a45050505050565b600080546001818101835582805260038054600c9093027f290decd9548b62a8d60345a988386fc84ba6bc95484008f6362f93160ef3e56301939192909190610c339084906116f6565b9091555050600054604051610c5491869133918791429144916020016117bc565b60408051601f198184030181529190528051602090910120815560018101610c7c8582611868565b506005810180546001600160a01b0319163317905560068101610c9f8482611868565b504260048201556002600382018190556000600783018190556008830181905560098301819055908201805460ff19168415151790558054610ce390600190611733565b8254600090815260026020526040812082905583546001805480820182559083527fb10e2d527612073b26eecdfd717e6a320cf44b4afac2b0732d9fcbe2b7fa0cf601558354919250610d3a919033908790611112565b81600101604051610d4b9190611746565b60408051918290038220600585015485546004870154600288015490865260ff161515602086015291936001600160a01b03909116927f349b4d94306c01936126a1bde7b3c123a28136a2c761880ad044f5cade7a5a4d9101610bda565b836000610db5826110ab565b9050600260008281548110610dcc57610dcc611690565b90600052602060002090600c02016003015414610e1d5760405162461bcd60e51b815260206004820152600f60248201526e11dc9bdd5c081a5cc818db1bdcd959608a1b604482015260640161063f565b6000610e28876110ab565b90506000808281548110610e3e57610e3e611690565b600091825260209091206002600c909202019081015490915060ff16151586151514610eb85760405162461bcd60e51b815260206004820152602360248201527f496e76616c6964206465706f736974207479706520666f72207468697320677260448201526206f75760ec1b606482015260840161063f565b60008615610ff45760008611610ee05760405162461bcd60e51b815260040161063f90611928565b3415610f2e5760405162461bcd60e51b815260206004820152601760248201527f4e6f2065746865722073686f756c642062652073656e74000000000000000000604482015260640161063f565b600480546040516323b872dd60e01b81523392810192909252306024830152604482018890526001600160a01b0316906323b872dd906064016020604051808303816000875af1158015610f86573d6000803e3d6000fd5b505050506040513d601f19601f82011682018060405250810190610faa919061170f565b610fed5760405162461bcd60e51b81526020600482015260146024820152731554d110c8151c985b9cd9995c8819985a5b195960621b604482015260640161063f565b5084611017565b600034116110145760405162461bcd60e51b815260040161063f90611928565b50345b61102389338a84611112565b8082600701600082825461103791906116f6565b925050819055508082600801600082825461105291906116f6565b9091555050600282015460405133918b917fb5493b1023d3022b165a5630e4e5d5368e76adb463e90c2020a7a3d3b31606b891611098918d91879160ff90911690611970565b60405180910390a3505050505050505050565b60008181526002602052604081205481036110ff5760405162461bcd60e51b815260206004820152601460248201527311dc9bdd5c08191bd95cc81b9bdd08195e1a5cdd60621b604482015260640161063f565b5060009081526002602052604090205490565b600061111d856110ab565b9050846000828154811061113357611133611690565b90600052602060002090600c020160000154146111895760405162461bcd60e51b815260206004820152601460248201527311dc9bdd5c08191bd95cc81b9bdd08195e1a5cdd60621b604482015260640161063f565b600080828154811061119d5761119d611690565b600091825260208083206001600160a01b038981168552600c9390930201600b81019091526040909220549192501615611209576001600160a01b0385166000908152600b82016020526040812060020180548592906111fe9084906116f6565b909155506112a99050565b604080516060810182526001600160a01b0387811680835260208084018981528486018990526000928352600b8701909152939020825181546001600160a01b031916921691909117815591519091829160018201906112699082611868565b506040919091015160029091015550600a81018054600181018255600091825260209091200180546001600160a01b0319166001600160a01b0387161790555b505050505050565b6020808252825182820181905260009190848201906040850190845b818110156112e9578351835292840192918401916001016112cd565b50909695505050505050565b60006020828403121561130757600080fd5b5035919050565b60005b83811015611329578181015183820152602001611311565b50506000910152565b6000815180845261134a81602086016020860161130e565b601f01601f19169290920160200192915050565b60006101608d8352602081818501526113798285018f611332565b8d151560408601526001600160a01b038d8116606087015285820360808701529092506113a6838d611332565b92508a60a08601528960c08601528860e086015287610100860152866101208601528483036101408601528286518085528385019150838801945060005b818110156114025785518416835294840194918401916001016113e4565b5050809450505050509c9b505050505050505050505050565b6000806040838503121561142e57600080fd5b8235915060208301356001600160a01b038116811461144c57600080fd5b809150509250929050565b6001600160a01b038416815260606020820181905260009061147b90830185611332565b9050826040830152949350505050565b60006101408c83528060208401526114a58184018d611332565b8b15156040850152606084018b9052608084018a90526001600160a01b03891660a085015283810360c085015290506114de8188611332565b60e0840196909652505061010081019290925261012090910152979650505050505050565b634e487b7160e01b600052604160045260246000fd5b600082601f83011261152a57600080fd5b813567ffffffffffffffff8082111561154557611545611503565b604051601f8301601f19908116603f0116810190828211818310171561156d5761156d611503565b8160405283815286602085880101111561158657600080fd5b836020870160208301376000602085830101528094505050505092915050565b80151581146115b457600080fd5b50565b6000806000606084860312156115cc57600080fd5b833567ffffffffffffffff808211156115e457600080fd5b6115f087838801611519565b9450602086013591508082111561160657600080fd5b5061161386828701611519565b9250506040840135611624816115a6565b809150509250925092565b6000806000806080858703121561164557600080fd5b84359350602085013567ffffffffffffffff81111561166357600080fd5b61166f87828801611519565b9350506040850135611680816115a6565b9396929550929360600135925050565b634e487b7160e01b600052603260045260246000fd5b600181811c908216806116ba57607f821691505b6020821081036116da57634e487b7160e01b600052602260045260246000fd5b50919050565b634e487b7160e01b600052601160045260246000fd5b80820180821115611709576117096116e0565b92915050565b60006020828403121561172157600080fd5b815161172c816115a6565b9392505050565b81810381811115611709576117096116e0565b6000808354611754816116a6565b6001828116801561176c5760018114611781576117b0565b60ff19841687528215158302870194506117b0565b8760005260208060002060005b858110156117a75781548a82015290840190820161178e565b50505082870194505b50929695505050505050565b600087516117ce818460208c0161130e565b606088901b6bffffffffffffffffffffffff191690830190815286516117fb816014840160208b0161130e565b0160148101959095525050603483019190915260548201526074019392505050565b601f82111561186357600081815260208120601f850160051c810160208610156118445750805b601f850160051c820191505b818110156112a957828155600101611850565b505050565b815167ffffffffffffffff81111561188257611882611503565b6118968161189084546116a6565b8461181d565b602080601f8311600181146118cb57600084156118b35750858301515b600019600386901b1c1916600185901b1785556112a9565b600085815260208120601f198616915b828110156118fa578886015182559484019460019091019084016118db565b50858210156119185787850151600019600388901b60f8161c191681555b5050505050600190811b01905550565b60208082526028908201527f4465706f73697420616d6f756e74206d7573742062652067726561746572207460408201526768616e207a65726f60c01b606082015260800190565b6060815260006119836060830186611332565b60208301949094525090151560409091015291905056fea2646970667358221220a3f7174b66bb71a456babdc0d9e4b68c5587337f390db8583393738fd9e4322a64736f6c63430008140033",
  "linkReferences": {},
  "deployedLinkReferences": {}
}