{
  "_format": "hh-sol-artifact-1",
  "contractName": "GroupSplit",
  "sourceName": "contracts/GroupSplit.sol",
  "abi": [
    {
      "inputs": [],
      "stateMutability": "nonpayable",
      "type": "constructor"
    },
    {
      "anonymous": false,
      "inputs": [
        {
          "indexed": true,
          "internalType": "uint256",
          "name": "groupId",
          "type": "uint256"
        },
        {
          "indexed": true,
          "internalType": "address",
          "name": "owner",
          "type": "address"
        },
        {
          "indexed": true,
          "internalType": "string",
          "name": "groupName",
          "type": "string"
        },
        {
          "indexed": false,
          "internalType": "uint256",
          "name": "closingTime",
          "type": "uint256"
        }
      ],
      "name": "logGroupClosed",
      "type": "event"
    },
    {
      "anonymous": false,
      "inputs": [
        {
          "indexed": true,
          "internalType": "uint256",
          "name": "groupId",
          "type": "uint256"
        },
        {
          "indexed": true,
          "internalType": "address",
          "name": "owner",
          "type": "address"
        },
        {
          "indexed": true,
          "internalType": "string",
          "name": "groupName",
          "type": "string"
        },
        {
          "indexed": false,
          "internalType": "uint256",
          "name": "creationTime",
          "type": "uint256"
        }
      ],
      "name": "logGroupCreated",
      "type": "event"
    },
    {
      "anonymous": false,
      "inputs": [
        {
          "indexed": true,
          "internalType": "uint256",
          "name": "groupId",
          "type": "uint256"
        },
        {
          "indexed": true,
          "internalType": "address",
          "name": "participant",
          "type": "address"
        },
        {
          "indexed": false,
          "internalType": "string",
          "name": "nickname",
          "type": "string"
        },
        {
          "indexed": false,
          "internalType": "uint256",
          "name": "deposit",
          "type": "uint256"
        }
      ],
      "name": "logGroupDepositReceived",
      "type": "event"
    },
    {
      "anonymous": false,
      "inputs": [
        {
          "indexed": true,
          "internalType": "uint256",
          "name": "groupId",
          "type": "uint256"
        },
        {
          "indexed": true,
          "internalType": "address",
          "name": "owner",
          "type": "address"
        },
        {
          "indexed": true,
          "internalType": "string",
          "name": "groupName",
          "type": "string"
        },
        {
          "indexed": false,
          "internalType": "uint256",
          "name": "openingTime",
          "type": "uint256"
        }
      ],
      "name": "logGroupOpened",
      "type": "event"
    },
    {
      "anonymous": false,
      "inputs": [
        {
          "indexed": true,
          "internalType": "uint256",
          "name": "groupId",
          "type": "uint256"
        },
        {
          "indexed": false,
          "internalType": "uint256",
          "name": "amountWithdrawn",
          "type": "uint256"
        },
        {
          "indexed": false,
          "internalType": "uint256",
          "name": "time",
          "type": "uint256"
        },
        {
          "indexed": false,
          "internalType": "uint256",
          "name": "totalCollected",
          "type": "uint256"
        },
        {
          "indexed": false,
          "internalType": "uint256",
          "name": "totalWithdrawn",
          "type": "uint256"
        }
      ],
      "name": "logGroupWithdrawal",
      "type": "event"
    },
    {
      "anonymous": false,
      "inputs": [
        {
          "indexed": true,
          "internalType": "uint256",
          "name": "groupId",
          "type": "uint256"
        },
        {
          "indexed": true,
          "internalType": "address",
          "name": "owner",
          "type": "address"
        },
        {
          "indexed": false,
          "internalType": "uint256",
          "name": "amount",
          "type": "uint256"
        }
      ],
      "name": "logWithdrawalFailed",
      "type": "event"
    },
    {
      "inputs": [],
      "name": "activeGroups",
      "outputs": [
        {
          "internalType": "uint256",
          "name": "",
          "type": "uint256"
        }
      ],
      "stateMutability": "view",
      "type": "function"
    },
    {
      "inputs": [
        {
          "internalType": "uint256",
          "name": "_groupId",
          "type": "uint256"
        },
        {
          "internalType": "address",
          "name": "_participantAddress",
          "type": "address"
        },
        {
          "internalType": "string",
          "name": "_nickname",
          "type": "string"
        },
        {
          "internalType": "uint256",
          "name": "_deposit",
          "type": "uint256"
        }
      ],
      "name": "addParticipantToGroup",
      "outputs": [],
      "stateMutability": "nonpayable",
      "type": "function"
    },
    {
      "inputs": [
        {
          "internalType": "uint256",
          "name": "_groupId",
          "type": "uint256"
        }
      ],
      "name": "closeGroup",
      "outputs": [],
      "stateMutability": "nonpayable",
      "type": "function"
    },
    {
      "inputs": [
        {
          "internalType": "string",
          "name": "_groupName",
          "type": "string"
        },
        {
          "internalType": "string",
          "name": "_ownerNickname",
          "type": "string"
        }
      ],
      "name": "createGroup",
      "outputs": [],
      "stateMutability": "nonpayable",
      "type": "function"
    },
    {
      "inputs": [
        {
          "internalType": "uint256",
          "name": "_groupId",
          "type": "uint256"
        },
        {
          "internalType": "string",
          "name": "_nickname",
          "type": "string"
        }
      ],
      "name": "depositToGroup",
      "outputs": [],
      "stateMutability": "payable",
      "type": "function"
    },
    {
      "inputs": [],
      "name": "getActivegroups",
      "outputs": [
        {
          "internalType": "uint256",
          "name": "",
          "type": "uint256"
        }
      ],
      "stateMutability": "view",
      "type": "function"
    },
    {
      "inputs": [],
      "name": "getAllGroupIds",
      "outputs": [
        {
          "internalType": "uint256[]",
          "name": "",
          "type": "uint256[]"
        }
      ],
      "stateMutability": "view",
      "type": "function"
    },
    {
      "inputs": [
        {
          "internalType": "uint256",
          "name": "_groupId",
          "type": "uint256"
        }
      ],
      "name": "getGroupIndexById",
      "outputs": [
        {
          "internalType": "uint256",
          "name": "",
          "type": "uint256"
        }
      ],
      "stateMutability": "view",
      "type": "function"
    },
    {
      "inputs": [
        {
          "internalType": "uint256",
          "name": "_groupId",
          "type": "uint256"
        }
      ],
      "name": "getGroupInfoById",
      "outputs": [
        {
          "internalType": "uint256",
          "name": "",
          "type": "uint256"
        },
        {
          "internalType": "string",
          "name": "",
          "type": "string"
        },
        {
          "internalType": "address",
          "name": "",
          "type": "address"
        },
        {
          "internalType": "string",
          "name": "",
          "type": "string"
        },
        {
          "internalType": "uint256",
          "name": "",
          "type": "uint256"
        },
        {
          "internalType": "uint256",
          "name": "",
          "type": "uint256"
        },
        {
          "internalType": "uint256",
          "name": "",
          "type": "uint256"
        },
        {
          "internalType": "uint256",
          "name": "",
          "type": "uint256"
        },
        {
          "internalType": "uint256",
          "name": "",
          "type": "uint256"
        },
        {
          "internalType": "address[]",
          "name": "",
          "type": "address[]"
        }
      ],
      "stateMutability": "view",
      "type": "function"
    },
    {
      "inputs": [],
      "name": "getGroupsNum",
      "outputs": [
        {
          "internalType": "uint256",
          "name": "",
          "type": "uint256"
        }
      ],
      "stateMutability": "view",
      "type": "function"
    },
    {
      "inputs": [
        {
          "internalType": "uint256",
          "name": "_groupId",
          "type": "uint256"
        },
        {
          "internalType": "address",
          "name": "_participantAddress",
          "type": "address"
        }
      ],
      "name": "getParticipantDetails",
      "outputs": [
        {
          "internalType": "address",
          "name": "participantAddress",
          "type": "address"
        },
        {
          "internalType": "string",
          "name": "nickname",
          "type": "string"
        },
        {
          "internalType": "uint256",
          "name": "totalDeposits",
          "type": "uint256"
        }
      ],
      "stateMutability": "view",
      "type": "function"
    },
    {
      "inputs": [
        {
          "internalType": "uint256",
          "name": "",
          "type": "uint256"
        }
      ],
      "name": "groupIds",
      "outputs": [
        {
          "internalType": "uint256",
          "name": "",
          "type": "uint256"
        }
      ],
      "stateMutability": "view",
      "type": "function"
    },
    {
      "inputs": [
        {
          "internalType": "uint256",
          "name": "",
          "type": "uint256"
        }
      ],
      "name": "groups",
      "outputs": [
        {
          "internalType": "uint256",
          "name": "groupId",
          "type": "uint256"
        },
        {
          "internalType": "string",
          "name": "groupName",
          "type": "string"
        },
        {
          "internalType": "uint256",
          "name": "status",
          "type": "uint256"
        },
        {
          "internalType": "uint256",
          "name": "creationTime",
          "type": "uint256"
        },
        {
          "internalType": "address",
          "name": "owner",
          "type": "address"
        },
        {
          "internalType": "string",
          "name": "ownerNickname",
          "type": "string"
        },
        {
          "internalType": "uint256",
          "name": "balance",
          "type": "uint256"
        },
        {
          "internalType": "uint256",
          "name": "totalCollected",
          "type": "uint256"
        },
        {
          "internalType": "uint256",
          "name": "totalWithdrawn",
          "type": "uint256"
        }
      ],
      "stateMutability": "view",
      "type": "function"
    },
    {
      "inputs": [
        {
          "internalType": "uint256",
          "name": "_groupId",
          "type": "uint256"
        }
      ],
      "name": "withdrawFromGroup",
      "outputs": [],
      "stateMutability": "payable",
      "type": "function"
    }
  ],
  "bytecode": "0x6080604052600060035534801561001557600080fd5b50600080546001018155805261174e806100306000396000f3fe6080604052600436106100dd5760003560e01c80636d1457301161007f578063c974495011610059578063c97449501461024c578063d0e4567e1461026c578063f6d87c0514610282578063fe73cf0b1461029557600080fd5b80636d145730146101e457806396324bd414610204578063a2a4498b1461023957600080fd5b80632f14f6c9116100bb5780632f14f6c91461014a57806332bee467146101805780634093d7a1146101af5780635d39c56b146101cf57600080fd5b80630636f5d4146100e25780631e4a97dd146101065780632e3dcc0614610128575b600080fd5b3480156100ee57600080fd5b506003545b6040519081526020015b60405180910390f35b34801561011257600080fd5b5061012661012136600461120d565b6102b5565b005b34801561013457600080fd5b5061013d61046b565b6040516100fd9190611271565b34801561015657600080fd5b5061016a6101653660046112b5565b6104c3565b6040516100fd9a9998979695949392919061132a565b34801561018c57600080fd5b506101a061019b3660046113f9565b6106df565b6040516100fd93929190611425565b3480156101bb57600080fd5b506100f36101ca3660046112b5565b61085f565b3480156101db57600080fd5b506000546100f3565b3480156101f057600080fd5b506100f36101ff3660046112b5565b610880565b34801561021057600080fd5b5061022461021f3660046112b5565b6108e5565b6040516100fd99989796959493929190611459565b6101266102473660046112b5565b610a5e565b34801561025857600080fd5b506101266102673660046114c7565b610c90565b34801561027857600080fd5b506100f360035481565b610126610290366004611526565b610e66565b3480156102a157600080fd5b506101266102b03660046112b5565b610f84565b600080546001818101835582805260038054600b9093027f290decd9548b62a8d60345a988386fc84ba6bc95484008f6362f93160ef3e563019391929091906102ff908490611579565b90915550506000546040516103209185913391869142914491602001611591565b60408051601f1981840301815291905280516020918201208255835161034e916001840191908601906110d1565b506004810180546001600160a01b03191633179055815161037890600583019060208501906110d1565b50426003820155600280820155600060068201819055600782018190556008820181905580546103aa906001906115f2565b8254600090815260026020526040812082905583546001805480820182559083527fb10e2d527612073b26eecdfd717e6a320cf44b4afac2b0732d9fcbe2b7fa0cf601558354919250610401919033908690610c90565b816001016040516104129190611644565b604051908190038120600484015484546003860154845291926001600160a01b0390911691907f8946c268c4725059354ef9b4c2a0ae1a4510e2e45354cb61f70f6ecf7132230f9060200160405180910390a450505050565b606060018054806020026020016040519081016040528092919081815260200182805480156104b957602002820191906000526020600020905b8154815260200190600101908083116104a5575b5050505050905090565b60006060600060606000806000806000606060006104e08c610880565b905060008082815481106104f6576104f66116e0565b90600052602060002090600b020190508060000154816001018260040160009054906101000a90046001600160a01b031683600501846003015485600201548660060154876007015488600801548960090188805461055490611609565b80601f016020809104026020016040519081016040528092919081815260200182805461058090611609565b80156105cd5780601f106105a2576101008083540402835291602001916105cd565b820191906000526020600020905b8154815290600101906020018083116105b057829003601f168201915b505050505098508680546105e090611609565b80601f016020809104026020016040519081016040528092919081815260200182805461060c90611609565b80156106595780601f1061062e57610100808354040283529160200191610659565b820191906000526020600020905b81548152906001019060200180831161063c57829003601f168201915b50505050509650808054806020026020016040519081016040528092919081815260200182805480156106b557602002820191906000526020600020905b81546001600160a01b03168152600190910190602001808311610697575b505050505090509b509b509b509b509b509b509b509b509b509b5050509193959799509193959799565b600060606000806106ef86610880565b90506000808281548110610705576107056116e0565b600091825260208083206001600160a01b038a81168552600b9390930201600a8101825260408085208151606081019092528054909416815260018401805492965090939284019161075690611609565b80601f016020809104026020016040519081016040528092919081815260200182805461078290611609565b80156107cf5780601f106107a4576101008083540402835291602001916107cf565b820191906000526020600020905b8154815290600101906020018083116107b257829003601f168201915b50505091835250506002919091015460209091015280519091506001600160a01b03166108435760405162461bcd60e51b815260206004820152601a60248201527f5061727469636970616e7420646f6573206e6f7420657869737400000000000060448201526064015b60405180910390fd5b8051602082015160409092015190999198509650945050505050565b6001818154811061086f57600080fd5b600091825260209091200154905081565b6000818152600260205260408120546108d25760405162461bcd60e51b815260206004820152601460248201527311dc9bdd5c08191bd95cc81b9bdd08195e1a5cdd60621b604482015260640161083a565b5060009081526002602052604090205490565b600081815481106108f557600080fd5b60009182526020909120600b9091020180546001820180549193509061091a90611609565b80601f016020809104026020016040519081016040528092919081815260200182805461094690611609565b80156109935780601f1061096857610100808354040283529160200191610993565b820191906000526020600020905b81548152906001019060200180831161097657829003601f168201915b505050600284015460038501546004860154600587018054969793969295506001600160a01b039091169350906109c990611609565b80601f01602080910402602001604051908101604052809291908181526020018280546109f590611609565b8015610a425780601f10610a1757610100808354040283529160200191610a42565b820191906000526020600020905b815481529060010190602001808311610a2557829003601f168201915b5050505050908060060154908060070154908060080154905089565b6000610a6982610880565b90506000808281548110610a7f57610a7f6116e0565b60009182526020909120600b9091020160048101549091506001600160a01b03163314610aee5760405162461bcd60e51b815260206004820152601d60248201527f4f6e6c792067726f7570206f776e65722063616e207769746864726177000000604482015260640161083a565b6000816006015411610b3b5760405162461bcd60e51b81526020600482015260166024820152754e6f2062616c616e636520746f20776974686472617760501b604482015260640161083a565b60008160060154905080826008016000828254610b589190611579565b909155505060006006830181905560048301546040516001600160a01b039091169083908381818185875af1925050503d8060008114610bb4576040519150601f19603f3d011682016040523d82523d6000602084013e610bb9565b606091505b5050905080610c375781836006018190555081836008016000828254610bdf91906115f2565b9091555050600483015460068401546040519081526001600160a01b039091169086907fab49030aec719fa86f2138287668534e0d05c4e13cd36669a3f5b8052d327d32906020015b60405180910390a35050505050565b600783015460088401546040805185815242602082015290810192909252606082015285907f58641ce868980aeb6306e3e970c4e4198dcaccaaef04e111d3c34200b747fdbe9060800160405180910390a25050505050565b6000610c9b85610880565b90508460008281548110610cb157610cb16116e0565b90600052602060002090600b02016000015414610d075760405162461bcd60e51b815260206004820152601460248201527311dc9bdd5c08191bd95cc81b9bdd08195e1a5cdd60621b604482015260640161083a565b6000808281548110610d1b57610d1b6116e0565b600091825260208083206001600160a01b038981168552600b9390930201600a81019091526040909220549192501615610d87576001600160a01b0385166000908152600a8201602052604081206002018054859290610d7c908490611579565b90915550610e2a9050565b604080516060810182526001600160a01b0387811680835260208084018981528486018990526000928352600a8701825294909120835181546001600160a01b03191693169290921782559251805192938493610dea92600185019201906110d1565b506040919091015160029091015550600981018054600181018255600091825260209091200180546001600160a01b0319166001600160a01b0387161790555b82816006016000828254610e3e9190611579565b9250508190555082816007016000828254610e599190611579565b9091555050505050505050565b816000610e7282610880565b9050600260008281548110610e8957610e896116e0565b90600052602060002090600b02016002015414610eda5760405162461bcd60e51b815260206004820152600f60248201526e11dc9bdd5c081a5cc818db1bdcd959608a1b604482015260640161083a565b60003411610f3b5760405162461bcd60e51b815260206004820152602860248201527f4465706f73697420616d6f756e74206d7573742062652067726561746572207460448201526768616e207a65726f60c01b606482015260840161083a565b34610f4885338684610c90565b336001600160a01b0316857f061a3a1f9f4c2bac8da4625370b6afa9f9b2f7b7a03b54591754873cc308126c8684604051610c289291906116f6565b6000610f8f82610880565b90506000808281548110610fa557610fa56116e0565b60009182526020909120600b9091020160048101549091506001600160a01b031633146110145760405162461bcd60e51b815260206004820181905260248201527f4f6e6c792067726f7570206f776e65722063616e20636c6f73652067726f7570604482015260640161083a565b6006810154156110665760405162461bcd60e51b815260206004820152601e60248201527f43616e277420636c6f73652067726f757020776974682062616c616e63650000604482015260640161083a565b60016002820181905560405161107e91830190611644565b604051908190038120600483015442835290916001600160a01b039091169085907fef7f39a361482e67067b06732d892d1f1b46010bc24b371bf059d7c0e6d4e82d9060200160405180910390a4505050565b8280546110dd90611609565b90600052602060002090601f0160209004810192826110ff5760008555611145565b82601f1061111857805160ff1916838001178555611145565b82800160010185558215611145579182015b8281111561114557825182559160200191906001019061112a565b50611151929150611155565b5090565b5b808211156111515760008155600101611156565b634e487b7160e01b600052604160045260246000fd5b600082601f83011261119157600080fd5b813567ffffffffffffffff808211156111ac576111ac61116a565b604051601f8301601f19908116603f011681019082821181831017156111d4576111d461116a565b816040528381528660208588010111156111ed57600080fd5b836020870160208301376000602085830101528094505050505092915050565b6000806040838503121561122057600080fd5b823567ffffffffffffffff8082111561123857600080fd5b61124486838701611180565b9350602085013591508082111561125a57600080fd5b5061126785828601611180565b9150509250929050565b6020808252825182820181905260009190848201906040850190845b818110156112a95783518352928401929184019160010161128d565b50909695505050505050565b6000602082840312156112c757600080fd5b5035919050565b60005b838110156112e95781810151838201526020016112d1565b838111156112f8576000848401525b50505050565b600081518084526113168160208601602086016112ce565b601f01601f19169290920160200192915050565b60006101408c8352602081818501526113458285018e6112fe565b6001600160a01b038d81166040870152858203606087015290925061136a838d6112fe565b92508a60808601528960a08601528860c08601528760e0860152866101008601528483036101208601528286518085528385019150838801945060005b818110156113c55785518416835294840194918401916001016113a7565b5050809450505050509b9a5050505050505050505050565b80356001600160a01b03811681146113f457600080fd5b919050565b6000806040838503121561140c57600080fd5b8235915061141c602084016113dd565b90509250929050565b6001600160a01b0384168152606060208201819052600090611449908301856112fe565b9050826040830152949350505050565b60006101208b83528060208401526114738184018c6112fe565b604084018b9052606084018a90526001600160a01b038916608085015283810360a085015290506114a481886112fe565b60c0840196909652505060e0810192909252610100909101529695505050505050565b600080600080608085870312156114dd57600080fd5b843593506114ed602086016113dd565b9250604085013567ffffffffffffffff81111561150957600080fd5b61151587828801611180565b949793965093946060013593505050565b6000806040838503121561153957600080fd5b82359150602083013567ffffffffffffffff81111561155757600080fd5b61126785828601611180565b634e487b7160e01b600052601160045260246000fd5b6000821982111561158c5761158c611563565b500190565b600087516115a3818460208c016112ce565b606088901b6bffffffffffffffffffffffff191690830190815286516115d0816014840160208b016112ce565b0160148101959095525050603483019190915260548201526074019392505050565b60008282101561160457611604611563565b500390565b600181811c9082168061161d57607f821691505b6020821081141561163e57634e487b7160e01b600052602260045260246000fd5b50919050565b600080835481600182811c91508083168061166057607f831692505b602080841082141561168057634e487b7160e01b86526022600452602486fd5b81801561169457600181146116a5576116d2565b60ff198616895284890196506116d2565b60008a81526020902060005b868110156116ca5781548b8201529085019083016116b1565b505084890196505b509498975050505050505050565b634e487b7160e01b600052603260045260246000fd5b60408152600061170960408301856112fe565b9050826020830152939250505056fea264697066735822122086659908b0394c4bec66f94c28ee645c6d8ece394ec81a898700f827d47b1b7e64736f6c63430008090033",
  "linkReferences": {},
  "deployedLinkReferences": {}
}