{
  "_format": "hh-sol-artifact-1",
  "contractName": "GroupSplit",
  "sourceName": "contracts/GroupSplit.sol",
  "abi": [
    {
      "inputs": [
        {
          "internalType": "address",
          "name": "_usdcTokenAddress",
          "type": "address"
        }
      ],
      "stateMutability": "nonpayable",
      "type": "constructor"
    },
    {
      "anonymous": false,
      "inputs": [
        {
          "indexed": true,
          "internalType": "uint256",
          "name": "groupId",
          "type": "uint256"
        },
        {
          "indexed": true,
          "internalType": "address",
          "name": "owner",
          "type": "address"
        },
        {
          "indexed": true,
          "internalType": "string",
          "name": "groupName",
          "type": "string"
        },
        {
          "indexed": false,
          "internalType": "uint256",
          "name": "closingTime",
          "type": "uint256"
        },
        {
          "indexed": false,
          "internalType": "bool",
          "name": "isUSDC",
          "type": "bool"
        }
      ],
      "name": "logGroupClosed",
      "type": "event"
    },
    {
      "anonymous": false,
      "inputs": [
        {
          "indexed": true,
          "internalType": "uint256",
          "name": "groupId",
          "type": "uint256"
        },
        {
          "indexed": true,
          "internalType": "address",
          "name": "owner",
          "type": "address"
        },
        {
          "indexed": true,
          "internalType": "string",
          "name": "groupName",
          "type": "string"
        },
        {
          "indexed": false,
          "internalType": "uint256",
          "name": "creationTime",
          "type": "uint256"
        },
        {
          "indexed": false,
          "internalType": "bool",
          "name": "isUSDC",
          "type": "bool"
        }
      ],
      "name": "logGroupCreated",
      "type": "event"
    },
    {
      "anonymous": false,
      "inputs": [
        {
          "indexed": true,
          "internalType": "uint256",
          "name": "groupId",
          "type": "uint256"
        },
        {
          "indexed": true,
          "internalType": "address",
          "name": "participant",
          "type": "address"
        },
        {
          "indexed": false,
          "internalType": "string",
          "name": "nickname",
          "type": "string"
        },
        {
          "indexed": false,
          "internalType": "uint256",
          "name": "deposit",
          "type": "uint256"
        },
        {
          "indexed": false,
          "internalType": "bool",
          "name": "isUSDC",
          "type": "bool"
        }
      ],
      "name": "logGroupDepositReceived",
      "type": "event"
    },
    {
      "anonymous": false,
      "inputs": [
        {
          "indexed": true,
          "internalType": "uint256",
          "name": "groupId",
          "type": "uint256"
        },
        {
          "indexed": true,
          "internalType": "address",
          "name": "owner",
          "type": "address"
        },
        {
          "indexed": true,
          "internalType": "string",
          "name": "groupName",
          "type": "string"
        },
        {
          "indexed": false,
          "internalType": "uint256",
          "name": "openingTime",
          "type": "uint256"
        },
        {
          "indexed": false,
          "internalType": "bool",
          "name": "isUSDC",
          "type": "bool"
        }
      ],
      "name": "logGroupOpened",
      "type": "event"
    },
    {
      "anonymous": false,
      "inputs": [
        {
          "indexed": true,
          "internalType": "uint256",
          "name": "groupId",
          "type": "uint256"
        },
        {
          "indexed": false,
          "internalType": "uint256",
          "name": "amountWithdrawn",
          "type": "uint256"
        },
        {
          "indexed": false,
          "internalType": "uint256",
          "name": "time",
          "type": "uint256"
        },
        {
          "indexed": false,
          "internalType": "uint256",
          "name": "totalCollected",
          "type": "uint256"
        },
        {
          "indexed": false,
          "internalType": "uint256",
          "name": "totalWithdrawn",
          "type": "uint256"
        },
        {
          "indexed": false,
          "internalType": "bool",
          "name": "isUSDC",
          "type": "bool"
        }
      ],
      "name": "logGroupWithdrawal",
      "type": "event"
    },
    {
      "anonymous": false,
      "inputs": [
        {
          "indexed": true,
          "internalType": "uint256",
          "name": "groupId",
          "type": "uint256"
        },
        {
          "indexed": true,
          "internalType": "address",
          "name": "owner",
          "type": "address"
        },
        {
          "indexed": false,
          "internalType": "uint256",
          "name": "amount",
          "type": "uint256"
        },
        {
          "indexed": false,
          "internalType": "bool",
          "name": "isUSDC",
          "type": "bool"
        }
      ],
      "name": "logWithdrawalFailed",
      "type": "event"
    },
    {
      "inputs": [],
      "name": "USDC",
      "outputs": [
        {
          "internalType": "contract IERC20",
          "name": "",
          "type": "address"
        }
      ],
      "stateMutability": "view",
      "type": "function"
    },
    {
      "inputs": [],
      "name": "activeGroups",
      "outputs": [
        {
          "internalType": "uint256",
          "name": "",
          "type": "uint256"
        }
      ],
      "stateMutability": "view",
      "type": "function"
    },
    {
      "inputs": [
        {
          "internalType": "string",
          "name": "_groupName",
          "type": "string"
        },
        {
          "internalType": "string",
          "name": "_ownerNickname",
          "type": "string"
        },
        {
          "internalType": "bool",
          "name": "isUSDC",
          "type": "bool"
        }
      ],
      "name": "createGroup",
      "outputs": [],
      "stateMutability": "nonpayable",
      "type": "function"
    },
    {
      "inputs": [
        {
          "internalType": "uint256",
          "name": "_groupId",
          "type": "uint256"
        },
        {
          "internalType": "string",
          "name": "_nickname",
          "type": "string"
        },
        {
          "internalType": "bool",
          "name": "isUSDCDeposit",
          "type": "bool"
        },
        {
          "internalType": "uint256",
          "name": "usdcAmount",
          "type": "uint256"
        }
      ],
      "name": "depositToGroup",
      "outputs": [],
      "stateMutability": "payable",
      "type": "function"
    },
    {
      "inputs": [],
      "name": "getActivegroups",
      "outputs": [
        {
          "internalType": "uint256",
          "name": "",
          "type": "uint256"
        }
      ],
      "stateMutability": "view",
      "type": "function"
    },
    {
      "inputs": [],
      "name": "getAllGroupIds",
      "outputs": [
        {
          "internalType": "uint256[]",
          "name": "",
          "type": "uint256[]"
        }
      ],
      "stateMutability": "view",
      "type": "function"
    },
    {
      "inputs": [
        {
          "internalType": "uint256",
          "name": "_groupId",
          "type": "uint256"
        }
      ],
      "name": "getGroupIndexById",
      "outputs": [
        {
          "internalType": "uint256",
          "name": "",
          "type": "uint256"
        }
      ],
      "stateMutability": "view",
      "type": "function"
    },
    {
      "inputs": [
        {
          "internalType": "uint256",
          "name": "_groupId",
          "type": "uint256"
        }
      ],
      "name": "getGroupInfoById",
      "outputs": [
        {
          "internalType": "uint256",
          "name": "",
          "type": "uint256"
        },
        {
          "internalType": "string",
          "name": "",
          "type": "string"
        },
        {
          "internalType": "bool",
          "name": "",
          "type": "bool"
        },
        {
          "internalType": "address",
          "name": "",
          "type": "address"
        },
        {
          "internalType": "string",
          "name": "",
          "type": "string"
        },
        {
          "internalType": "uint256",
          "name": "",
          "type": "uint256"
        },
        {
          "internalType": "uint256",
          "name": "",
          "type": "uint256"
        },
        {
          "internalType": "uint256",
          "name": "",
          "type": "uint256"
        },
        {
          "internalType": "uint256",
          "name": "",
          "type": "uint256"
        },
        {
          "internalType": "uint256",
          "name": "",
          "type": "uint256"
        },
        {
          "internalType": "address[]",
          "name": "",
          "type": "address[]"
        }
      ],
      "stateMutability": "view",
      "type": "function"
    },
    {
      "inputs": [],
      "name": "getGroupsNum",
      "outputs": [
        {
          "internalType": "uint256",
          "name": "",
          "type": "uint256"
        }
      ],
      "stateMutability": "view",
      "type": "function"
    },
    {
      "inputs": [
        {
          "internalType": "uint256",
          "name": "_groupId",
          "type": "uint256"
        },
        {
          "internalType": "address",
          "name": "_participantAddress",
          "type": "address"
        }
      ],
      "name": "getParticipantDetails",
      "outputs": [
        {
          "internalType": "address",
          "name": "participantAddress",
          "type": "address"
        },
        {
          "internalType": "string",
          "name": "nickname",
          "type": "string"
        },
        {
          "internalType": "uint256",
          "name": "totalDeposits",
          "type": "uint256"
        }
      ],
      "stateMutability": "view",
      "type": "function"
    },
    {
      "inputs": [
        {
          "internalType": "uint256",
          "name": "",
          "type": "uint256"
        }
      ],
      "name": "groupIds",
      "outputs": [
        {
          "internalType": "uint256",
          "name": "",
          "type": "uint256"
        }
      ],
      "stateMutability": "view",
      "type": "function"
    },
    {
      "inputs": [
        {
          "internalType": "uint256",
          "name": "",
          "type": "uint256"
        }
      ],
      "name": "groups",
      "outputs": [
        {
          "internalType": "uint256",
          "name": "groupId",
          "type": "uint256"
        },
        {
          "internalType": "string",
          "name": "groupName",
          "type": "string"
        },
        {
          "internalType": "bool",
          "name": "isUSDC",
          "type": "bool"
        },
        {
          "internalType": "uint256",
          "name": "status",
          "type": "uint256"
        },
        {
          "internalType": "uint256",
          "name": "creationTime",
          "type": "uint256"
        },
        {
          "internalType": "address",
          "name": "owner",
          "type": "address"
        },
        {
          "internalType": "string",
          "name": "ownerNickname",
          "type": "string"
        },
        {
          "internalType": "uint256",
          "name": "balance",
          "type": "uint256"
        },
        {
          "internalType": "uint256",
          "name": "totalCollected",
          "type": "uint256"
        },
        {
          "internalType": "uint256",
          "name": "totalWithdrawn",
          "type": "uint256"
        }
      ],
      "stateMutability": "view",
      "type": "function"
    },
    {
      "inputs": [
        {
          "internalType": "uint256",
          "name": "_groupId",
          "type": "uint256"
        }
      ],
      "name": "withdrawFromGroup",
      "outputs": [],
      "stateMutability": "payable",
      "type": "function"
    }
  ],
  "bytecode": "0x6080604052600060035534801561001557600080fd5b50604051611aae380380611aae83398101604081905261003491610064565b6000805460010181558052600480546001600160a01b0319166001600160a01b0392909216919091179055610094565b60006020828403121561007657600080fd5b81516001600160a01b038116811461008d57600080fd5b9392505050565b611a0b806100a36000396000f3fe6080604052600436106100c25760003560e01c80636d1457301161007f578063a2a4498b11610059578063a2a4498b14610236578063a30013e11461024b578063d0e4567e1461026b578063f35ea5d01461028157600080fd5b80636d145730146101a857806389a30271146101c857806396324bd41461020057600080fd5b80630636f5d4146100c75780632e3dcc06146100eb5780632f14f6c91461010d57806332bee467146101445780634093d7a1146101735780635d39c56b14610193575b600080fd5b3480156100d357600080fd5b506003545b6040519081526020015b60405180910390f35b3480156100f757600080fd5b50610100610294565b6040516100e291906112ec565b34801561011957600080fd5b5061012d610128366004611330565b6102ec565b6040516100e29b9a99989796959493929190611399565b34801561015057600080fd5b5061016461015f366004611456565b61051f565b6040516100e293929190611492565b34801561017f57600080fd5b506100d861018e366004611330565b61069f565b34801561019f57600080fd5b506000546100d8565b3480156101b457600080fd5b506100d86101c3366004611330565b6106c0565b3480156101d457600080fd5b506004546101e8906001600160a01b031681565b6040516001600160a01b0390911681526020016100e2565b34801561020c57600080fd5b5061022061021b366004611330565b610727565b6040516100e29a999897969594939291906114c6565b610249610244366004611330565b6108a9565b005b34801561025757600080fd5b506102496102663660046115f2565b610c8b565b34801561027757600080fd5b506100d860035481565b61024961028f36600461166a565b610e4b565b606060018054806020026020016040519081016040528092919081815260200182805480156102e257602002820191906000526020600020905b8154815260200190600101908083116102ce575b5050505050905090565b60006060600080606060008060008060006060600061030a8d6106c0565b90506000808281548110610320576103206116cb565b90600052602060002090600c020190508060000154816001018260020160009054906101000a900460ff168360050160009054906101000a90046001600160a01b031684600601856004015486600301548760070154886008015489600901548a600a01898054610390906116e1565b80601f01602080910402602001604051908101604052809291908181526020018280546103bc906116e1565b80156104095780601f106103de57610100808354040283529160200191610409565b820191906000526020600020905b8154815290600101906020018083116103ec57829003601f168201915b5050505050995086805461041c906116e1565b80601f0160208091040260200160405190810160405280929190818152602001828054610448906116e1565b80156104955780601f1061046a57610100808354040283529160200191610495565b820191906000526020600020905b81548152906001019060200180831161047857829003601f168201915b50505050509650808054806020026020016040519081016040528092919081815260200182805480156104f157602002820191906000526020600020905b81546001600160a01b031681526001909101906020018083116104d3575b505050505090509c509c509c509c509c509c509c509c509c509c509c50505091939597999b90929496989a50565b6000606060008061052f866106c0565b90506000808281548110610545576105456116cb565b600091825260208083206001600160a01b038a81168552600c9390930201600b81018252604080852081516060810190925280549094168152600184018054929650909392840191610596906116e1565b80601f01602080910402602001604051908101604052809291908181526020018280546105c2906116e1565b801561060f5780601f106105e45761010080835404028352916020019161060f565b820191906000526020600020905b8154815290600101906020018083116105f257829003601f168201915b50505091835250506002919091015460209091015280519091506001600160a01b03166106835760405162461bcd60e51b815260206004820152601a60248201527f5061727469636970616e7420646f6573206e6f7420657869737400000000000060448201526064015b60405180910390fd5b8051602082015160409092015190999198509650945050505050565b600181815481106106af57600080fd5b600091825260209091200154905081565b60008181526002602052604081205481036107145760405162461bcd60e51b815260206004820152601460248201527311dc9bdd5c08191bd95cc81b9bdd08195e1a5cdd60621b604482015260640161067a565b5060009081526002602052604090205490565b6000818154811061073757600080fd5b60009182526020909120600c9091020180546001820180549193509061075c906116e1565b80601f0160208091040260200160405190810160405280929190818152602001828054610788906116e1565b80156107d55780601f106107aa576101008083540402835291602001916107d5565b820191906000526020600020905b8154815290600101906020018083116107b857829003601f168201915b5050506002840154600385015460048601546005870154600688018054979860ff909516979396509194506001600160a01b03169291610814906116e1565b80601f0160208091040260200160405190810160405280929190818152602001828054610840906116e1565b801561088d5780601f106108625761010080835404028352916020019161088d565b820191906000526020600020905b81548152906001019060200180831161087057829003601f168201915b505050505090806007015490806008015490806009015490508a565b60006108b4826106c0565b905060008082815481106108ca576108ca6116cb565b60009182526020909120600c9091020160058101549091506001600160a01b031633146109395760405162461bcd60e51b815260206004820152601d60248201527f4f6e6c792067726f7570206f776e65722063616e207769746864726177000000604482015260640161067a565b60008160070154116109865760405162461bcd60e51b81526020600482015260166024820152754e6f2062616c616e636520746f20776974686472617760501b604482015260640161067a565b60008082600701549050808360090160008282546109a49190611731565b909155505060006007840155600283015460ff1615610a855760048054600585015460405163a9059cbb60e01b81526001600160a01b039182169381019390935260248301849052169063a9059cbb906044016020604051808303816000875af1158015610a16573d6000803e3d6000fd5b505050506040513d601f19601f82011682018060405250810190610a3a919061174a565b915081610a805760405162461bcd60e51b81526020600482015260146024820152731554d110c8151c985b9cd9995c8819985a5b195960621b604482015260640161067a565b610b22565b60058301546040516001600160a01b03909116908290600081818185875af1925050503d8060008114610ad4576040519150601f19603f3d011682016040523d82523d6000602084013e610ad9565b606091505b50508092505081610b225760405162461bcd60e51b815260206004820152601360248201527211551208151c985b9cd9995c8819985a5b1959606a1b604482015260640161067a565b81610bab5780836007018190555080836009016000828254610b44919061176e565b90915550506005830154600784015460028501546040805192835260ff909116151560208301526001600160a01b039092169187917f2f78437c72aa947f251fe01f835b4450a48d4b480aed48c6ec52096b66bcf995910160405180910390a35050505050565b600160038401556008830154600984015460028501546040805185815242602082015290810193909352606083019190915260ff161515608082015285907f4737f4b5f110339198b10ac9c9ecc84dda24e5e07af201b6228e352bf22b80789060a00160405180910390a282600101604051610c279190611781565b604080519182900382206005860154600287015442855260ff161515602085015290926001600160a01b039091169188917f258a2e08c90ae0f3b8822777e4a046207be1faf120cf603acd32c2b82427765291015b60405180910390a45050505050565b600080546001818101835582805260038054600c9093027f290decd9548b62a8d60345a988386fc84ba6bc95484008f6362f93160ef3e56301939192909190610cd5908490611731565b9091555050600054604051610cf691869133918791429144916020016117f7565b60408051601f198184030181529190528051602090910120815560018101610d1e85826118a3565b506005810180546001600160a01b0319163317905560068101610d4184826118a3565b504260048201556002600382018190556000600783018190556008830181905560098301819055908201805460ff19168415151790558054610d859060019061176e565b8254600090815260026020526040812082905583546001805480820182559083527fb10e2d527612073b26eecdfd717e6a320cf44b4afac2b0732d9fcbe2b7fa0cf601558354919250610ddc91903390879061114d565b81600101604051610ded9190611781565b60408051918290038220600585015485546004870154600288015490865260ff161515602086015291936001600160a01b03909116927f349b4d94306c01936126a1bde7b3c123a28136a2c761880ad044f5cade7a5a4d9101610c7c565b836000610e57826106c0565b9050600260008281548110610e6e57610e6e6116cb565b90600052602060002090600c02016003015414610ebf5760405162461bcd60e51b815260206004820152600f60248201526e11dc9bdd5c081a5cc818db1bdcd959608a1b604482015260640161067a565b6000610eca876106c0565b90506000808281548110610ee057610ee06116cb565b600091825260209091206002600c909202019081015490915060ff16151586151514610f5a5760405162461bcd60e51b815260206004820152602360248201527f496e76616c6964206465706f736974207479706520666f72207468697320677260448201526206f75760ec1b606482015260840161067a565b600086156110965760008611610f825760405162461bcd60e51b815260040161067a90611963565b3415610fd05760405162461bcd60e51b815260206004820152601760248201527f4e6f2065746865722073686f756c642062652073656e74000000000000000000604482015260640161067a565b600480546040516323b872dd60e01b81523392810192909252306024830152604482018890526001600160a01b0316906323b872dd906064016020604051808303816000875af1158015611028573d6000803e3d6000fd5b505050506040513d601f19601f8201168201806040525081019061104c919061174a565b61108f5760405162461bcd60e51b81526020600482015260146024820152731554d110c8151c985b9cd9995c8819985a5b195960621b604482015260640161067a565b50846110b9565b600034116110b65760405162461bcd60e51b815260040161067a90611963565b50345b6110c589338a8461114d565b808260070160008282546110d99190611731565b92505081905550808260080160008282546110f49190611731565b9091555050600282015460405133918b917fb5493b1023d3022b165a5630e4e5d5368e76adb463e90c2020a7a3d3b31606b89161113a918d91879160ff909116906119ab565b60405180910390a3505050505050505050565b6000611158856106c0565b9050846000828154811061116e5761116e6116cb565b90600052602060002090600c020160000154146111c45760405162461bcd60e51b815260206004820152601460248201527311dc9bdd5c08191bd95cc81b9bdd08195e1a5cdd60621b604482015260640161067a565b60008082815481106111d8576111d86116cb565b600091825260208083206001600160a01b038981168552600c9390930201600b81019091526040909220549192501615611244576001600160a01b0385166000908152600b8201602052604081206002018054859290611239908490611731565b909155506112e49050565b604080516060810182526001600160a01b0387811680835260208084018981528486018990526000928352600b8701909152939020825181546001600160a01b031916921691909117815591519091829160018201906112a490826118a3565b506040919091015160029091015550600a81018054600181018255600091825260209091200180546001600160a01b0319166001600160a01b0387161790555b505050505050565b6020808252825182820181905260009190848201906040850190845b8181101561132457835183529284019291840191600101611308565b50909695505050505050565b60006020828403121561134257600080fd5b5035919050565b60005b8381101561136457818101518382015260200161134c565b50506000910152565b60008151808452611385816020860160208601611349565b601f01601f19169290920160200192915050565b60006101608d8352602081818501526113b48285018f61136d565b8d151560408601526001600160a01b038d8116606087015285820360808701529092506113e1838d61136d565b92508a60a08601528960c08601528860e086015287610100860152866101208601528483036101408601528286518085528385019150838801945060005b8181101561143d57855184168352948401949184019160010161141f565b5050809450505050509c9b505050505050505050505050565b6000806040838503121561146957600080fd5b8235915060208301356001600160a01b038116811461148757600080fd5b809150509250929050565b6001600160a01b03841681526060602082018190526000906114b69083018561136d565b9050826040830152949350505050565b60006101408c83528060208401526114e08184018d61136d565b8b15156040850152606084018b9052608084018a90526001600160a01b03891660a085015283810360c08501529050611519818861136d565b60e0840196909652505061010081019290925261012090910152979650505050505050565b634e487b7160e01b600052604160045260246000fd5b600082601f83011261156557600080fd5b813567ffffffffffffffff808211156115805761158061153e565b604051601f8301601f19908116603f011681019082821181831017156115a8576115a861153e565b816040528381528660208588010111156115c157600080fd5b836020870160208301376000602085830101528094505050505092915050565b80151581146115ef57600080fd5b50565b60008060006060848603121561160757600080fd5b833567ffffffffffffffff8082111561161f57600080fd5b61162b87838801611554565b9450602086013591508082111561164157600080fd5b5061164e86828701611554565b925050604084013561165f816115e1565b809150509250925092565b6000806000806080858703121561168057600080fd5b84359350602085013567ffffffffffffffff81111561169e57600080fd5b6116aa87828801611554565b93505060408501356116bb816115e1565b9396929550929360600135925050565b634e487b7160e01b600052603260045260246000fd5b600181811c908216806116f557607f821691505b60208210810361171557634e487b7160e01b600052602260045260246000fd5b50919050565b634e487b7160e01b600052601160045260246000fd5b808201808211156117445761174461171b565b92915050565b60006020828403121561175c57600080fd5b8151611767816115e1565b9392505050565b818103818111156117445761174461171b565b600080835461178f816116e1565b600182811680156117a757600181146117bc576117eb565b60ff19841687528215158302870194506117eb565b8760005260208060002060005b858110156117e25781548a8201529084019082016117c9565b50505082870194505b50929695505050505050565b60008751611809818460208c01611349565b606088901b6bffffffffffffffffffffffff19169083019081528651611836816014840160208b01611349565b0160148101959095525050603483019190915260548201526074019392505050565b601f82111561189e57600081815260208120601f850160051c8101602086101561187f5750805b601f850160051c820191505b818110156112e45782815560010161188b565b505050565b815167ffffffffffffffff8111156118bd576118bd61153e565b6118d1816118cb84546116e1565b84611858565b602080601f83116001811461190657600084156118ee5750858301515b600019600386901b1c1916600185901b1785556112e4565b600085815260208120601f198616915b8281101561193557888601518255948401946001909101908401611916565b50858210156119535787850151600019600388901b60f8161c191681555b5050505050600190811b01905550565b60208082526028908201527f4465706f73697420616d6f756e74206d7573742062652067726561746572207460408201526768616e207a65726f60c01b606082015260800190565b6060815260006119be606083018661136d565b60208301949094525090151560409091015291905056fea26469706673582212200dfa924f721a5b0c18ea366c370c239c570c6a2b42514748e61bb271d07a566064736f6c63430008140033",
  "linkReferences": {},
  "deployedLinkReferences": {}
}