{
  "_format": "hh-sol-artifact-1",
  "contractName": "GroupSplit",
  "sourceName": "contracts/GroupSplit.sol",
  "abi": [
    {
      "inputs": [],
      "stateMutability": "nonpayable",
      "type": "constructor"
    },
    {
      "anonymous": false,
      "inputs": [
        {
          "indexed": true,
          "internalType": "uint256",
          "name": "groupId",
          "type": "uint256"
        },
        {
          "indexed": true,
          "internalType": "address",
          "name": "owner",
          "type": "address"
        },
        {
          "indexed": true,
          "internalType": "string",
          "name": "groupName",
          "type": "string"
        },
        {
          "indexed": false,
          "internalType": "uint256",
          "name": "closingTime",
          "type": "uint256"
        }
      ],
      "name": "logGroupClosed",
      "type": "event"
    },
    {
      "anonymous": false,
      "inputs": [
        {
          "indexed": true,
          "internalType": "uint256",
          "name": "groupId",
          "type": "uint256"
        },
        {
          "indexed": true,
          "internalType": "address",
          "name": "owner",
          "type": "address"
        },
        {
          "indexed": true,
          "internalType": "string",
          "name": "groupName",
          "type": "string"
        },
        {
          "indexed": false,
          "internalType": "uint256",
          "name": "creationTime",
          "type": "uint256"
        }
      ],
      "name": "logGroupCreated",
      "type": "event"
    },
    {
      "anonymous": false,
      "inputs": [
        {
          "indexed": true,
          "internalType": "uint256",
          "name": "groupId",
          "type": "uint256"
        },
        {
          "indexed": true,
          "internalType": "address",
          "name": "participant",
          "type": "address"
        },
        {
          "indexed": false,
          "internalType": "string",
          "name": "nickname",
          "type": "string"
        },
        {
          "indexed": false,
          "internalType": "uint256",
          "name": "deposit",
          "type": "uint256"
        }
      ],
      "name": "logGroupDepositReceived",
      "type": "event"
    },
    {
      "anonymous": false,
      "inputs": [
        {
          "indexed": true,
          "internalType": "uint256",
          "name": "groupId",
          "type": "uint256"
        },
        {
          "indexed": true,
          "internalType": "address",
          "name": "owner",
          "type": "address"
        },
        {
          "indexed": true,
          "internalType": "string",
          "name": "groupName",
          "type": "string"
        },
        {
          "indexed": false,
          "internalType": "uint256",
          "name": "openingTime",
          "type": "uint256"
        }
      ],
      "name": "logGroupOpened",
      "type": "event"
    },
    {
      "anonymous": false,
      "inputs": [
        {
          "indexed": true,
          "internalType": "uint256",
          "name": "groupId",
          "type": "uint256"
        },
        {
          "indexed": false,
          "internalType": "uint256",
          "name": "amountWithdrawn",
          "type": "uint256"
        },
        {
          "indexed": false,
          "internalType": "uint256",
          "name": "time",
          "type": "uint256"
        },
        {
          "indexed": false,
          "internalType": "uint256",
          "name": "totalCollected",
          "type": "uint256"
        },
        {
          "indexed": false,
          "internalType": "uint256",
          "name": "totalWithdrawn",
          "type": "uint256"
        }
      ],
      "name": "logGroupWithdrawal",
      "type": "event"
    },
    {
      "anonymous": false,
      "inputs": [
        {
          "indexed": true,
          "internalType": "uint256",
          "name": "groupId",
          "type": "uint256"
        },
        {
          "indexed": true,
          "internalType": "address",
          "name": "owner",
          "type": "address"
        },
        {
          "indexed": false,
          "internalType": "uint256",
          "name": "amount",
          "type": "uint256"
        }
      ],
      "name": "logWithdrawalFailed",
      "type": "event"
    },
    {
      "inputs": [],
      "name": "activeGroups",
      "outputs": [
        {
          "internalType": "uint256",
          "name": "",
          "type": "uint256"
        }
      ],
      "stateMutability": "view",
      "type": "function"
    },
    {
      "inputs": [
        {
          "internalType": "uint256",
          "name": "_groupId",
          "type": "uint256"
        },
        {
          "internalType": "address",
          "name": "_participantAddress",
          "type": "address"
        },
        {
          "internalType": "string",
          "name": "_nickname",
          "type": "string"
        },
        {
          "internalType": "uint256",
          "name": "_deposit",
          "type": "uint256"
        }
      ],
      "name": "addParticipantToGroup",
      "outputs": [],
      "stateMutability": "nonpayable",
      "type": "function"
    },
    {
      "inputs": [
        {
          "internalType": "string",
          "name": "_groupName",
          "type": "string"
        },
        {
          "internalType": "string",
          "name": "_ownerNickname",
          "type": "string"
        }
      ],
      "name": "createGroup",
      "outputs": [],
      "stateMutability": "nonpayable",
      "type": "function"
    },
    {
      "inputs": [
        {
          "internalType": "uint256",
          "name": "_groupId",
          "type": "uint256"
        },
        {
          "internalType": "string",
          "name": "_nickname",
          "type": "string"
        }
      ],
      "name": "depositToGroup",
      "outputs": [],
      "stateMutability": "payable",
      "type": "function"
    },
    {
      "inputs": [],
      "name": "getActivegroups",
      "outputs": [
        {
          "internalType": "uint256",
          "name": "",
          "type": "uint256"
        }
      ],
      "stateMutability": "view",
      "type": "function"
    },
    {
      "inputs": [],
      "name": "getAllGroupIds",
      "outputs": [
        {
          "internalType": "uint256[]",
          "name": "",
          "type": "uint256[]"
        }
      ],
      "stateMutability": "view",
      "type": "function"
    },
    {
      "inputs": [
        {
          "internalType": "uint256",
          "name": "_groupId",
          "type": "uint256"
        }
      ],
      "name": "getGroupIndexById",
      "outputs": [
        {
          "internalType": "uint256",
          "name": "",
          "type": "uint256"
        }
      ],
      "stateMutability": "view",
      "type": "function"
    },
    {
      "inputs": [
        {
          "internalType": "uint256",
          "name": "_groupId",
          "type": "uint256"
        }
      ],
      "name": "getGroupInfoById",
      "outputs": [
        {
          "internalType": "uint256",
          "name": "",
          "type": "uint256"
        },
        {
          "internalType": "string",
          "name": "",
          "type": "string"
        },
        {
          "internalType": "address",
          "name": "",
          "type": "address"
        },
        {
          "internalType": "string",
          "name": "",
          "type": "string"
        },
        {
          "internalType": "uint256",
          "name": "",
          "type": "uint256"
        },
        {
          "internalType": "uint256",
          "name": "",
          "type": "uint256"
        },
        {
          "internalType": "uint256",
          "name": "",
          "type": "uint256"
        },
        {
          "internalType": "uint256",
          "name": "",
          "type": "uint256"
        },
        {
          "internalType": "uint256",
          "name": "",
          "type": "uint256"
        },
        {
          "internalType": "address[]",
          "name": "",
          "type": "address[]"
        }
      ],
      "stateMutability": "view",
      "type": "function"
    },
    {
      "inputs": [],
      "name": "getGroupsNum",
      "outputs": [
        {
          "internalType": "uint256",
          "name": "",
          "type": "uint256"
        }
      ],
      "stateMutability": "view",
      "type": "function"
    },
    {
      "inputs": [
        {
          "internalType": "uint256",
          "name": "_groupId",
          "type": "uint256"
        },
        {
          "internalType": "address",
          "name": "_participantAddress",
          "type": "address"
        }
      ],
      "name": "getParticipantDetails",
      "outputs": [
        {
          "internalType": "address",
          "name": "participantAddress",
          "type": "address"
        },
        {
          "internalType": "string",
          "name": "nickname",
          "type": "string"
        },
        {
          "internalType": "uint256",
          "name": "totalDeposits",
          "type": "uint256"
        }
      ],
      "stateMutability": "view",
      "type": "function"
    },
    {
      "inputs": [
        {
          "internalType": "uint256",
          "name": "",
          "type": "uint256"
        }
      ],
      "name": "groupIds",
      "outputs": [
        {
          "internalType": "uint256",
          "name": "",
          "type": "uint256"
        }
      ],
      "stateMutability": "view",
      "type": "function"
    },
    {
      "inputs": [
        {
          "internalType": "uint256",
          "name": "",
          "type": "uint256"
        }
      ],
      "name": "groups",
      "outputs": [
        {
          "internalType": "uint256",
          "name": "groupId",
          "type": "uint256"
        },
        {
          "internalType": "string",
          "name": "groupName",
          "type": "string"
        },
        {
          "internalType": "uint256",
          "name": "status",
          "type": "uint256"
        },
        {
          "internalType": "uint256",
          "name": "creationTime",
          "type": "uint256"
        },
        {
          "internalType": "address",
          "name": "owner",
          "type": "address"
        },
        {
          "internalType": "string",
          "name": "ownerNickname",
          "type": "string"
        },
        {
          "internalType": "uint256",
          "name": "balance",
          "type": "uint256"
        },
        {
          "internalType": "uint256",
          "name": "totalCollected",
          "type": "uint256"
        },
        {
          "internalType": "uint256",
          "name": "totalWithdrawn",
          "type": "uint256"
        }
      ],
      "stateMutability": "view",
      "type": "function"
    },
    {
      "inputs": [
        {
          "internalType": "uint256",
          "name": "_groupId",
          "type": "uint256"
        }
      ],
      "name": "withdrawFromGroup",
      "outputs": [],
      "stateMutability": "payable",
      "type": "function"
    }
  ],
  "bytecode": "0x6080604052600060035534801561001557600080fd5b5060008054600101815580526115c6806100306000396000f3fe6080604052600436106100c25760003560e01c80635d39c56b1161007f578063a2a4498b11610059578063a2a4498b1461021e578063c974495014610231578063d0e4567e14610251578063f6d87c051461026757600080fd5b80635d39c56b146101b45780636d145730146101c957806396324bd4146101e957600080fd5b80630636f5d4146100c75780631e4a97dd146100eb5780632e3dcc061461010d5780632f14f6c91461012f57806332bee467146101655780634093d7a114610194575b600080fd5b3480156100d357600080fd5b506003545b6040519081526020015b60405180910390f35b3480156100f757600080fd5b5061010b610106366004611085565b61027a565b005b34801561011957600080fd5b50610122610430565b6040516100e291906110e9565b34801561013b57600080fd5b5061014f61014a36600461112d565b610488565b6040516100e29a999897969594939291906111a2565b34801561017157600080fd5b50610185610180366004611271565b6106a4565b6040516100e29392919061129d565b3480156101a057600080fd5b506100d86101af36600461112d565b610824565b3480156101c057600080fd5b506000546100d8565b3480156101d557600080fd5b506100d86101e436600461112d565b610845565b3480156101f557600080fd5b5061020961020436600461112d565b6108aa565b6040516100e2999897969594939291906112d1565b61010b61022c36600461112d565b610a23565b34801561023d57600080fd5b5061010b61024c36600461133f565b610c55565b34801561025d57600080fd5b506100d860035481565b61010b61027536600461139e565b610e2b565b600080546001818101835582805260038054600b9093027f290decd9548b62a8d60345a988386fc84ba6bc95484008f6362f93160ef3e563019391929091906102c49084906113f1565b90915550506000546040516102e59185913391869142914491602001611409565b60408051601f1981840301815291905280516020918201208255835161031391600184019190860190610f49565b506004810180546001600160a01b03191633179055815161033d9060058301906020850190610f49565b504260038201556002808201556000600682018190556007820181905560088201819055805461036f9060019061146a565b8254600090815260026020526040812082905583546001805480820182559083527fb10e2d527612073b26eecdfd717e6a320cf44b4afac2b0732d9fcbe2b7fa0cf6015583549192506103c6919033908690610c55565b816001016040516103d791906114bc565b604051908190038120600484015484546003860154845291926001600160a01b0390911691907f8946c268c4725059354ef9b4c2a0ae1a4510e2e45354cb61f70f6ecf7132230f9060200160405180910390a450505050565b6060600180548060200260200160405190810160405280929190818152602001828054801561047e57602002820191906000526020600020905b81548152602001906001019080831161046a575b5050505050905090565b60006060600060606000806000806000606060006104a58c610845565b905060008082815481106104bb576104bb611558565b90600052602060002090600b020190508060000154816001018260040160009054906101000a90046001600160a01b031683600501846003015485600201548660060154876007015488600801548960090188805461051990611481565b80601f016020809104026020016040519081016040528092919081815260200182805461054590611481565b80156105925780601f1061056757610100808354040283529160200191610592565b820191906000526020600020905b81548152906001019060200180831161057557829003601f168201915b505050505098508680546105a590611481565b80601f01602080910402602001604051908101604052809291908181526020018280546105d190611481565b801561061e5780601f106105f35761010080835404028352916020019161061e565b820191906000526020600020905b81548152906001019060200180831161060157829003601f168201915b505050505096508080548060200260200160405190810160405280929190818152602001828054801561067a57602002820191906000526020600020905b81546001600160a01b0316815260019091019060200180831161065c575b505050505090509b509b509b509b509b509b509b509b509b509b5050509193959799509193959799565b600060606000806106b486610845565b905060008082815481106106ca576106ca611558565b600091825260208083206001600160a01b038a81168552600b9390930201600a8101825260408085208151606081019092528054909416815260018401805492965090939284019161071b90611481565b80601f016020809104026020016040519081016040528092919081815260200182805461074790611481565b80156107945780601f1061076957610100808354040283529160200191610794565b820191906000526020600020905b81548152906001019060200180831161077757829003601f168201915b50505091835250506002919091015460209091015280519091506001600160a01b03166108085760405162461bcd60e51b815260206004820152601a60248201527f5061727469636970616e7420646f6573206e6f7420657869737400000000000060448201526064015b60405180910390fd5b8051602082015160409092015190999198509650945050505050565b6001818154811061083457600080fd5b600091825260209091200154905081565b6000818152600260205260408120546108975760405162461bcd60e51b815260206004820152601460248201527311dc9bdd5c08191bd95cc81b9bdd08195e1a5cdd60621b60448201526064016107ff565b5060009081526002602052604090205490565b600081815481106108ba57600080fd5b60009182526020909120600b909102018054600182018054919350906108df90611481565b80601f016020809104026020016040519081016040528092919081815260200182805461090b90611481565b80156109585780601f1061092d57610100808354040283529160200191610958565b820191906000526020600020905b81548152906001019060200180831161093b57829003601f168201915b505050600284015460038501546004860154600587018054969793969295506001600160a01b0390911693509061098e90611481565b80601f01602080910402602001604051908101604052809291908181526020018280546109ba90611481565b8015610a075780601f106109dc57610100808354040283529160200191610a07565b820191906000526020600020905b8154815290600101906020018083116109ea57829003601f168201915b5050505050908060060154908060070154908060080154905089565b6000610a2e82610845565b90506000808281548110610a4457610a44611558565b60009182526020909120600b9091020160048101549091506001600160a01b03163314610ab35760405162461bcd60e51b815260206004820152601d60248201527f4f6e6c792067726f7570206f776e65722063616e20776974686472617700000060448201526064016107ff565b6000816006015411610b005760405162461bcd60e51b81526020600482015260166024820152754e6f2062616c616e636520746f20776974686472617760501b60448201526064016107ff565b60008160060154905080826008016000828254610b1d91906113f1565b909155505060006006830181905560048301546040516001600160a01b039091169083908381818185875af1925050503d8060008114610b79576040519150601f19603f3d011682016040523d82523d6000602084013e610b7e565b606091505b5050905080610bfc5781836006018190555081836008016000828254610ba4919061146a565b9091555050600483015460068401546040519081526001600160a01b039091169086907fab49030aec719fa86f2138287668534e0d05c4e13cd36669a3f5b8052d327d32906020015b60405180910390a35050505050565b600783015460088401546040805185815242602082015290810192909252606082015285907f58641ce868980aeb6306e3e970c4e4198dcaccaaef04e111d3c34200b747fdbe9060800160405180910390a25050505050565b6000610c6085610845565b90508460008281548110610c7657610c76611558565b90600052602060002090600b02016000015414610ccc5760405162461bcd60e51b815260206004820152601460248201527311dc9bdd5c08191bd95cc81b9bdd08195e1a5cdd60621b60448201526064016107ff565b6000808281548110610ce057610ce0611558565b600091825260208083206001600160a01b038981168552600b9390930201600a81019091526040909220549192501615610d4c576001600160a01b0385166000908152600a8201602052604081206002018054859290610d419084906113f1565b90915550610def9050565b604080516060810182526001600160a01b0387811680835260208084018981528486018990526000928352600a8701825294909120835181546001600160a01b03191693169290921782559251805192938493610daf9260018501920190610f49565b506040919091015160029091015550600981018054600181018255600091825260209091200180546001600160a01b0319166001600160a01b0387161790555b82816006016000828254610e0391906113f1565b9250508190555082816007016000828254610e1e91906113f1565b9091555050505050505050565b816000610e3782610845565b9050600260008281548110610e4e57610e4e611558565b90600052602060002090600b02016002015414610e9f5760405162461bcd60e51b815260206004820152600f60248201526e11dc9bdd5c081a5cc818db1bdcd959608a1b60448201526064016107ff565b60003411610f005760405162461bcd60e51b815260206004820152602860248201527f4465706f73697420616d6f756e74206d7573742062652067726561746572207460448201526768616e207a65726f60c01b60648201526084016107ff565b34610f0d85338684610c55565b336001600160a01b0316857f061a3a1f9f4c2bac8da4625370b6afa9f9b2f7b7a03b54591754873cc308126c8684604051610bed92919061156e565b828054610f5590611481565b90600052602060002090601f016020900481019282610f775760008555610fbd565b82601f10610f9057805160ff1916838001178555610fbd565b82800160010185558215610fbd579182015b82811115610fbd578251825591602001919060010190610fa2565b50610fc9929150610fcd565b5090565b5b80821115610fc95760008155600101610fce565b634e487b7160e01b600052604160045260246000fd5b600082601f83011261100957600080fd5b813567ffffffffffffffff8082111561102457611024610fe2565b604051601f8301601f19908116603f0116810190828211818310171561104c5761104c610fe2565b8160405283815286602085880101111561106557600080fd5b836020870160208301376000602085830101528094505050505092915050565b6000806040838503121561109857600080fd5b823567ffffffffffffffff808211156110b057600080fd5b6110bc86838701610ff8565b935060208501359150808211156110d257600080fd5b506110df85828601610ff8565b9150509250929050565b6020808252825182820181905260009190848201906040850190845b8181101561112157835183529284019291840191600101611105565b50909695505050505050565b60006020828403121561113f57600080fd5b5035919050565b60005b83811015611161578181015183820152602001611149565b83811115611170576000848401525b50505050565b6000815180845261118e816020860160208601611146565b601f01601f19169290920160200192915050565b60006101408c8352602081818501526111bd8285018e611176565b6001600160a01b038d8116604087015285820360608701529092506111e2838d611176565b92508a60808601528960a08601528860c08601528760e0860152866101008601528483036101208601528286518085528385019150838801945060005b8181101561123d57855184168352948401949184019160010161121f565b5050809450505050509b9a5050505050505050505050565b80356001600160a01b038116811461126c57600080fd5b919050565b6000806040838503121561128457600080fd5b8235915061129460208401611255565b90509250929050565b6001600160a01b03841681526060602082018190526000906112c190830185611176565b9050826040830152949350505050565b60006101208b83528060208401526112eb8184018c611176565b604084018b9052606084018a90526001600160a01b038916608085015283810360a0850152905061131c8188611176565b60c0840196909652505060e0810192909252610100909101529695505050505050565b6000806000806080858703121561135557600080fd5b8435935061136560208601611255565b9250604085013567ffffffffffffffff81111561138157600080fd5b61138d87828801610ff8565b949793965093946060013593505050565b600080604083850312156113b157600080fd5b82359150602083013567ffffffffffffffff8111156113cf57600080fd5b6110df85828601610ff8565b634e487b7160e01b600052601160045260246000fd5b60008219821115611404576114046113db565b500190565b6000875161141b818460208c01611146565b606088901b6bffffffffffffffffffffffff19169083019081528651611448816014840160208b01611146565b0160148101959095525050603483019190915260548201526074019392505050565b60008282101561147c5761147c6113db565b500390565b600181811c9082168061149557607f821691505b602082108114156114b657634e487b7160e01b600052602260045260246000fd5b50919050565b600080835481600182811c9150808316806114d857607f831692505b60208084108214156114f857634e487b7160e01b86526022600452602486fd5b81801561150c576001811461151d5761154a565b60ff1986168952848901965061154a565b60008a81526020902060005b868110156115425781548b820152908501908301611529565b505084890196505b509498975050505050505050565b634e487b7160e01b600052603260045260246000fd5b6040815260006115816040830185611176565b9050826020830152939250505056fea26469706673582212206bc4f18b41fd8e33c8397b88e3aa1f36af2527a9f3b084844e2872c5add33d0a64736f6c63430008090033",
  "linkReferences": {},
  "deployedLinkReferences": {}
}