{
  "_format": "hh-sol-artifact-1",
  "contractName": "GroupSplit",
  "sourceName": "contracts/GroupSplit.sol",
  "abi": [
    {
      "inputs": [
        {
          "internalType": "address",
          "name": "_usdcTokenAddress",
          "type": "address"
        }
      ],
      "stateMutability": "nonpayable",
      "type": "constructor"
    },
    {
      "anonymous": false,
      "inputs": [
        {
          "indexed": true,
          "internalType": "uint256",
          "name": "groupId",
          "type": "uint256"
        },
        {
          "indexed": true,
          "internalType": "address",
          "name": "owner",
          "type": "address"
        },
        {
          "indexed": true,
          "internalType": "string",
          "name": "groupName",
          "type": "string"
        },
        {
          "indexed": false,
          "internalType": "uint256",
          "name": "closingTime",
          "type": "uint256"
        },
        {
          "indexed": false,
          "internalType": "bool",
          "name": "isUSDC",
          "type": "bool"
        }
      ],
      "name": "logGroupClosed",
      "type": "event"
    },
    {
      "anonymous": false,
      "inputs": [
        {
          "indexed": true,
          "internalType": "uint256",
          "name": "groupId",
          "type": "uint256"
        },
        {
          "indexed": true,
          "internalType": "address",
          "name": "owner",
          "type": "address"
        },
        {
          "indexed": true,
          "internalType": "string",
          "name": "groupName",
          "type": "string"
        },
        {
          "indexed": false,
          "internalType": "uint256",
          "name": "creationTime",
          "type": "uint256"
        },
        {
          "indexed": false,
          "internalType": "bool",
          "name": "isUSDC",
          "type": "bool"
        }
      ],
      "name": "logGroupCreated",
      "type": "event"
    },
    {
      "anonymous": false,
      "inputs": [
        {
          "indexed": true,
          "internalType": "uint256",
          "name": "groupId",
          "type": "uint256"
        },
        {
          "indexed": true,
          "internalType": "address",
          "name": "participant",
          "type": "address"
        },
        {
          "indexed": false,
          "internalType": "string",
          "name": "nickname",
          "type": "string"
        },
        {
          "indexed": false,
          "internalType": "uint256",
          "name": "deposit",
          "type": "uint256"
        },
        {
          "indexed": false,
          "internalType": "bool",
          "name": "isUSDC",
          "type": "bool"
        }
      ],
      "name": "logGroupDepositReceived",
      "type": "event"
    },
    {
      "anonymous": false,
      "inputs": [
        {
          "indexed": true,
          "internalType": "uint256",
          "name": "groupId",
          "type": "uint256"
        },
        {
          "indexed": true,
          "internalType": "address",
          "name": "owner",
          "type": "address"
        },
        {
          "indexed": true,
          "internalType": "string",
          "name": "groupName",
          "type": "string"
        },
        {
          "indexed": false,
          "internalType": "uint256",
          "name": "openingTime",
          "type": "uint256"
        },
        {
          "indexed": false,
          "internalType": "bool",
          "name": "isUSDC",
          "type": "bool"
        }
      ],
      "name": "logGroupOpened",
      "type": "event"
    },
    {
      "anonymous": false,
      "inputs": [
        {
          "indexed": true,
          "internalType": "uint256",
          "name": "groupId",
          "type": "uint256"
        },
        {
          "indexed": false,
          "internalType": "uint256",
          "name": "amountWithdrawn",
          "type": "uint256"
        },
        {
          "indexed": false,
          "internalType": "uint256",
          "name": "time",
          "type": "uint256"
        },
        {
          "indexed": false,
          "internalType": "uint256",
          "name": "totalCollected",
          "type": "uint256"
        },
        {
          "indexed": false,
          "internalType": "uint256",
          "name": "totalWithdrawn",
          "type": "uint256"
        },
        {
          "indexed": false,
          "internalType": "bool",
          "name": "isUSDC",
          "type": "bool"
        }
      ],
      "name": "logGroupWithdrawal",
      "type": "event"
    },
    {
      "anonymous": false,
      "inputs": [
        {
          "indexed": true,
          "internalType": "uint256",
          "name": "groupId",
          "type": "uint256"
        },
        {
          "indexed": true,
          "internalType": "address",
          "name": "owner",
          "type": "address"
        },
        {
          "indexed": false,
          "internalType": "uint256",
          "name": "amount",
          "type": "uint256"
        },
        {
          "indexed": false,
          "internalType": "bool",
          "name": "isUSDC",
          "type": "bool"
        }
      ],
      "name": "logWithdrawalFailed",
      "type": "event"
    },
    {
      "inputs": [],
      "name": "USDC",
      "outputs": [
        {
          "internalType": "contract IERC20",
          "name": "",
          "type": "address"
        }
      ],
      "stateMutability": "view",
      "type": "function"
    },
    {
      "inputs": [],
      "name": "contractOpenedGroupsStat",
      "outputs": [
        {
          "internalType": "uint256",
          "name": "",
          "type": "uint256"
        }
      ],
      "stateMutability": "view",
      "type": "function"
    },
    {
      "inputs": [],
      "name": "contractTotalCollectedEthStat",
      "outputs": [
        {
          "internalType": "uint256",
          "name": "",
          "type": "uint256"
        }
      ],
      "stateMutability": "view",
      "type": "function"
    },
    {
      "inputs": [],
      "name": "contractTotalCollectedUSDCStat",
      "outputs": [
        {
          "internalType": "uint256",
          "name": "",
          "type": "uint256"
        }
      ],
      "stateMutability": "view",
      "type": "function"
    },
    {
      "inputs": [
        {
          "internalType": "string",
          "name": "_groupName",
          "type": "string"
        },
        {
          "internalType": "string",
          "name": "_ownerNickname",
          "type": "string"
        },
        {
          "internalType": "bool",
          "name": "isUSDC",
          "type": "bool"
        }
      ],
      "name": "createGroup",
      "outputs": [],
      "stateMutability": "nonpayable",
      "type": "function"
    },
    {
      "inputs": [
        {
          "internalType": "uint256",
          "name": "_groupId",
          "type": "uint256"
        },
        {
          "internalType": "string",
          "name": "_nickname",
          "type": "string"
        },
        {
          "internalType": "bool",
          "name": "isUSDCDeposit",
          "type": "bool"
        },
        {
          "internalType": "uint256",
          "name": "usdcAmount",
          "type": "uint256"
        }
      ],
      "name": "depositToGroup",
      "outputs": [],
      "stateMutability": "payable",
      "type": "function"
    },
    {
      "inputs": [],
      "name": "getAllGroupIds",
      "outputs": [
        {
          "internalType": "uint256[]",
          "name": "",
          "type": "uint256[]"
        }
      ],
      "stateMutability": "view",
      "type": "function"
    },
    {
      "inputs": [
        {
          "internalType": "uint256",
          "name": "_groupId",
          "type": "uint256"
        }
      ],
      "name": "getGroupInfoById",
      "outputs": [
        {
          "internalType": "uint256",
          "name": "",
          "type": "uint256"
        },
        {
          "internalType": "string",
          "name": "",
          "type": "string"
        },
        {
          "internalType": "bool",
          "name": "",
          "type": "bool"
        },
        {
          "internalType": "address",
          "name": "",
          "type": "address"
        },
        {
          "internalType": "string",
          "name": "",
          "type": "string"
        },
        {
          "internalType": "uint256",
          "name": "",
          "type": "uint256"
        },
        {
          "internalType": "uint256",
          "name": "",
          "type": "uint256"
        },
        {
          "internalType": "uint256",
          "name": "",
          "type": "uint256"
        },
        {
          "internalType": "uint256",
          "name": "",
          "type": "uint256"
        },
        {
          "internalType": "uint256",
          "name": "",
          "type": "uint256"
        },
        {
          "internalType": "address[]",
          "name": "",
          "type": "address[]"
        }
      ],
      "stateMutability": "view",
      "type": "function"
    },
    {
      "inputs": [],
      "name": "getGroupsNum",
      "outputs": [
        {
          "internalType": "uint256",
          "name": "",
          "type": "uint256"
        }
      ],
      "stateMutability": "view",
      "type": "function"
    },
    {
      "inputs": [
        {
          "internalType": "uint256",
          "name": "_groupId",
          "type": "uint256"
        },
        {
          "internalType": "address",
          "name": "_participantAddress",
          "type": "address"
        }
      ],
      "name": "getParticipantDetails",
      "outputs": [
        {
          "internalType": "address",
          "name": "participantAddress",
          "type": "address"
        },
        {
          "internalType": "string",
          "name": "nickname",
          "type": "string"
        },
        {
          "internalType": "uint256",
          "name": "totalDeposits",
          "type": "uint256"
        },
        {
          "internalType": "uint256",
          "name": "lastDeposited",
          "type": "uint256"
        }
      ],
      "stateMutability": "view",
      "type": "function"
    },
    {
      "inputs": [
        {
          "internalType": "uint256",
          "name": "",
          "type": "uint256"
        }
      ],
      "name": "groupIds",
      "outputs": [
        {
          "internalType": "uint256",
          "name": "",
          "type": "uint256"
        }
      ],
      "stateMutability": "view",
      "type": "function"
    },
    {
      "inputs": [
        {
          "internalType": "uint256",
          "name": "",
          "type": "uint256"
        }
      ],
      "name": "groups",
      "outputs": [
        {
          "internalType": "uint256",
          "name": "groupId",
          "type": "uint256"
        },
        {
          "internalType": "string",
          "name": "groupName",
          "type": "string"
        },
        {
          "internalType": "bool",
          "name": "isUSDC",
          "type": "bool"
        },
        {
          "internalType": "uint256",
          "name": "status",
          "type": "uint256"
        },
        {
          "internalType": "uint256",
          "name": "creationTime",
          "type": "uint256"
        },
        {
          "internalType": "address",
          "name": "owner",
          "type": "address"
        },
        {
          "internalType": "string",
          "name": "ownerNickname",
          "type": "string"
        },
        {
          "internalType": "uint256",
          "name": "balance",
          "type": "uint256"
        },
        {
          "internalType": "uint256",
          "name": "totalCollected",
          "type": "uint256"
        },
        {
          "internalType": "uint256",
          "name": "totalWithdrawn",
          "type": "uint256"
        }
      ],
      "stateMutability": "view",
      "type": "function"
    },
    {
      "inputs": [
        {
          "internalType": "uint256",
          "name": "_groupId",
          "type": "uint256"
        }
      ],
      "name": "withdrawFromGroup",
      "outputs": [],
      "stateMutability": "payable",
      "type": "function"
    }
  ],
  "bytecode": "0x608060405260006003556000600455600060055534801561001f57600080fd5b50604051611c0b380380611c0b83398101604081905261003e9161006e565b6000805460010181558052600680546001600160a01b0319166001600160a01b039290921691909117905561009e565b60006020828403121561008057600080fd5b81516001600160a01b038116811461009757600080fd5b9392505050565b611b5e806100ad6000396000f3fe6080604052600436106100c25760003560e01c80635d39c56b1161007f57806396324bd41161005957806396324bd414610212578063a2a4498b14610248578063a30013e11461025d578063f35ea5d01461027d57600080fd5b80635d39c56b146101af5780637ceee340146101c457806389a30271146101da57600080fd5b806306e0b1cc146100c75780632e3dcc06146100f05780632f14f6c91461011257806332bee467146101495780633756eeb8146101795780634093d7a11461018f575b600080fd5b3480156100d357600080fd5b506100dd60045481565b6040519081526020015b60405180910390f35b3480156100fc57600080fd5b50610105610290565b6040516100e79190611423565b34801561011e57600080fd5b5061013261012d366004611467565b6102e8565b6040516100e79b9a999897969594939291906114d0565b34801561015557600080fd5b5061016961016436600461158d565b61051b565b6040516100e794939291906115c9565b34801561018557600080fd5b506100dd60055481565b34801561019b57600080fd5b506100dd6101aa366004611467565b6106ae565b3480156101bb57600080fd5b506000546100dd565b3480156101d057600080fd5b506100dd60035481565b3480156101e657600080fd5b506006546101fa906001600160a01b031681565b6040516001600160a01b0390911681526020016100e7565b34801561021e57600080fd5b5061023261022d366004611467565b6106cf565b6040516100e79a99989796959493929190611600565b61025b610256366004611467565b610851565b005b34801561026957600080fd5b5061025b61027836600461172c565b610c31565b61025b61028b3660046117a4565b610df1565b606060018054806020026020016040519081016040528092919081815260200182805480156102de57602002820191906000526020600020905b8154815260200190600101908083116102ca575b5050505050905090565b6000606060008060606000806000806000606060006103068d6111ee565b9050600080828154811061031c5761031c611805565b90600052602060002090600c020190508060000154816001018260020160009054906101000a900460ff168360050160009054906101000a90046001600160a01b031684600601856004015486600301548760070154886008015489600901548a600a0189805461038c9061181b565b80601f01602080910402602001604051908101604052809291908181526020018280546103b89061181b565b80156104055780601f106103da57610100808354040283529160200191610405565b820191906000526020600020905b8154815290600101906020018083116103e857829003601f168201915b505050505099508680546104189061181b565b80601f01602080910402602001604051908101604052809291908181526020018280546104449061181b565b80156104915780601f1061046657610100808354040283529160200191610491565b820191906000526020600020905b81548152906001019060200180831161047457829003601f168201915b50505050509650808054806020026020016040519081016040528092919081815260200182805480156104ed57602002820191906000526020600020905b81546001600160a01b031681526001909101906020018083116104cf575b505050505090509c509c509c509c509c509c509c509c509c509c509c50505091939597999b90929496989a50565b60006060600080600061052d876111ee565b9050600080828154811061054357610543611805565b600091825260208083206001600160a01b038b81168552600c9390930201600b810182526040808520815160808101909252805490941681526001840180549296509093928401916105949061181b565b80601f01602080910402602001604051908101604052809291908181526020018280546105c09061181b565b801561060d5780601f106105e25761010080835404028352916020019161060d565b820191906000526020600020905b8154815290600101906020018083116105f057829003601f168201915b50505091835250506002820154602082015260039091015460409091015280519091506001600160a01b031661068a5760405162461bcd60e51b815260206004820152601a60248201527f5061727469636970616e7420646f6573206e6f7420657869737400000000000060448201526064015b60405180910390fd5b805160208201516040830151606090930151919b909a509198509650945050505050565b600181815481106106be57600080fd5b600091825260209091200154905081565b600081815481106106df57600080fd5b60009182526020909120600c909102018054600182018054919350906107049061181b565b80601f01602080910402602001604051908101604052809291908181526020018280546107309061181b565b801561077d5780601f106107525761010080835404028352916020019161077d565b820191906000526020600020905b81548152906001019060200180831161076057829003601f168201915b5050506002840154600385015460048601546005870154600688018054979860ff909516979396509194506001600160a01b031692916107bc9061181b565b80601f01602080910402602001604051908101604052809291908181526020018280546107e89061181b565b80156108355780601f1061080a57610100808354040283529160200191610835565b820191906000526020600020905b81548152906001019060200180831161081857829003601f168201915b505050505090806007015490806008015490806009015490508a565b600061085c826111ee565b9050600080828154811061087257610872611805565b60009182526020909120600c9091020160058101549091506001600160a01b031633146108e15760405162461bcd60e51b815260206004820152601d60248201527f4f6e6c792067726f7570206f776e65722063616e2077697468647261770000006044820152606401610681565b600081600701541161092e5760405162461bcd60e51b81526020600482015260166024820152754e6f2062616c616e636520746f20776974686472617760501b6044820152606401610681565b600080826007015490508083600901600082825461094c919061186b565b909155505060006007840155600283015460ff1615610a2b57600654600584015460405163a9059cbb60e01b81526001600160a01b0391821660048201526024810184905291169063a9059cbb906044016020604051808303816000875af11580156109bc573d6000803e3d6000fd5b505050506040513d601f19601f820116820180604052508101906109e09190611884565b915081610a265760405162461bcd60e51b81526020600482015260146024820152731554d110c8151c985b9cd9995c8819985a5b195960621b6044820152606401610681565b610ac8565b60058301546040516001600160a01b03909116908290600081818185875af1925050503d8060008114610a7a576040519150601f19603f3d011682016040523d82523d6000602084013e610a7f565b606091505b50508092505081610ac85760405162461bcd60e51b815260206004820152601360248201527211551208151c985b9cd9995c8819985a5b1959606a1b6044820152606401610681565b81610b515780836007018190555080836009016000828254610aea91906118a8565b90915550506005830154600784015460028501546040805192835260ff909116151560208301526001600160a01b039092169187917f2f78437c72aa947f251fe01f835b4450a48d4b480aed48c6ec52096b66bcf995910160405180910390a35050505050565b600160038401556008830154600984015460028501546040805185815242602082015290810193909352606083019190915260ff161515608082015285907f4737f4b5f110339198b10ac9c9ecc84dda24e5e07af201b6228e352bf22b80789060a00160405180910390a282600101604051610bcd91906118bb565b604080519182900382206005860154600287015442855260ff161515602085015290926001600160a01b039091169188917f258a2e08c90ae0f3b8822777e4a046207be1faf120cf603acd32c2b82427765291015b60405180910390a45050505050565b600080546001818101835582805260038054600c9093027f290decd9548b62a8d60345a988386fc84ba6bc95484008f6362f93160ef3e56301939192909190610c7b90849061186b565b9091555050600054604051610c9c9186913391879142914491602001611931565b60408051601f198184030181529190528051602090910120815560018101610cc485826119dd565b506005810180546001600160a01b0319163317905560068101610ce784826119dd565b504260048201556002600382018190556000600783018190556008830181905560098301819055908201805460ff19168415151790558054610d2b906001906118a8565b8254600090815260026020526040812082905583546001805480820182559083527fb10e2d527612073b26eecdfd717e6a320cf44b4afac2b0732d9fcbe2b7fa0cf601558354919250610d82919033908790611255565b81600101604051610d9391906118bb565b60408051918290038220600585015485546004870154600288015490865260ff161515602086015291936001600160a01b03909116927f349b4d94306c01936126a1bde7b3c123a28136a2c761880ad044f5cade7a5a4d9101610c22565b836000610dfd826111ee565b9050600260008281548110610e1457610e14611805565b90600052602060002090600c02016003015414610e655760405162461bcd60e51b815260206004820152600f60248201526e11dc9bdd5c081a5cc818db1bdcd959608a1b6044820152606401610681565b6000610e70876111ee565b90506000808281548110610e8657610e86611805565b600091825260209091206002600c909202019081015490915060ff16151586151514610f005760405162461bcd60e51b815260206004820152602360248201527f496e76616c6964206465706f736974207479706520666f72207468697320677260448201526206f75760ec1b6064820152608401610681565b600086156110fc5760008611610f285760405162461bcd60e51b815260040161068190611a9d565b3415610f765760405162461bcd60e51b815260206004820152601760248201527f4e6f2065746865722073686f756c642062652073656e740000000000000000006044820152606401610681565b6006546040516370a0823160e01b81523360048201526000916001600160a01b0316906370a0823190602401602060405180830381865afa158015610fbf573d6000803e3d6000fd5b505050506040513d601f19601f82011682018060405250810190610fe39190611ae5565b9050868110156110355760405162461bcd60e51b815260206004820152601960248201527f496e73756666696369656e7420555344432062616c616e6365000000000000006044820152606401610681565b6006546040516323b872dd60e01b8152336004820152306024820152604481018990526001600160a01b03909116906323b872dd906064016020604051808303816000875af115801561108c573d6000803e3d6000fd5b505050506040513d601f19601f820116820180604052508101906110b09190611884565b6110f35760405162461bcd60e51b81526020600482015260146024820152731554d110c8151c985b9cd9995c8819985a5b195960621b6044820152606401610681565b8691505061111f565b6000341161111c5760405162461bcd60e51b815260040161068190611a9d565b50345b61112b89338a84611255565b8082600701600082825461113f919061186b565b925050819055508082600801600082825461115a919061186b565b90915550508615611182578060056000828254611177919061186b565b9091555061119a9050565b8060046000828254611194919061186b565b90915550505b600282015460405133918b917fb5493b1023d3022b165a5630e4e5d5368e76adb463e90c2020a7a3d3b31606b8916111db918d91879160ff90911690611afe565b60405180910390a3505050505050505050565b60008181526002602052604081205481036112425760405162461bcd60e51b815260206004820152601460248201527311dc9bdd5c08191bd95cc81b9bdd08195e1a5cdd60621b6044820152606401610681565b5060009081526002602052604090205490565b6000611260856111ee565b9050846000828154811061127657611276611805565b90600052602060002090600c020160000154146112cc5760405162461bcd60e51b815260206004820152601460248201527311dc9bdd5c08191bd95cc81b9bdd08195e1a5cdd60621b6044820152606401610681565b60008082815481106112e0576112e0611805565b600091825260208083206001600160a01b038981168552600c9390930201600b8101909152604090922054919250161561136c576001600160a01b0385166000908152600b820160205260408120600201805485929061134190849061186b565b90915550506001600160a01b0385166000908152600b8201602052604090204260039091015561141b565b604080516080810182526001600160a01b0387811680835260208084018981528486018990524260608601526000928352600b8701909152939020825181546001600160a01b031916921691909117815591519091829160018201906113d290826119dd565b506040820151600282015560609091015160039091015550600a81018054600181018255600091825260209091200180546001600160a01b0319166001600160a01b0387161790555b505050505050565b6020808252825182820181905260009190848201906040850190845b8181101561145b5783518352928401929184019160010161143f565b50909695505050505050565b60006020828403121561147957600080fd5b5035919050565b60005b8381101561149b578181015183820152602001611483565b50506000910152565b600081518084526114bc816020860160208601611480565b601f01601f19169290920160200192915050565b60006101608d8352602081818501526114eb8285018f6114a4565b8d151560408601526001600160a01b038d811660608701528582036080870152909250611518838d6114a4565b92508a60a08601528960c08601528860e086015287610100860152866101208601528483036101408601528286518085528385019150838801945060005b81811015611574578551841683529484019491840191600101611556565b5050809450505050509c9b505050505050505050505050565b600080604083850312156115a057600080fd5b8235915060208301356001600160a01b03811681146115be57600080fd5b809150509250929050565b6001600160a01b03851681526080602082018190526000906115ed908301866114a4565b6040830194909452506060015292915050565b60006101408c835280602084015261161a8184018d6114a4565b8b15156040850152606084018b9052608084018a90526001600160a01b03891660a085015283810360c0850152905061165381886114a4565b60e0840196909652505061010081019290925261012090910152979650505050505050565b634e487b7160e01b600052604160045260246000fd5b600082601f83011261169f57600080fd5b813567ffffffffffffffff808211156116ba576116ba611678565b604051601f8301601f19908116603f011681019082821181831017156116e2576116e2611678565b816040528381528660208588010111156116fb57600080fd5b836020870160208301376000602085830101528094505050505092915050565b801515811461172957600080fd5b50565b60008060006060848603121561174157600080fd5b833567ffffffffffffffff8082111561175957600080fd5b6117658783880161168e565b9450602086013591508082111561177b57600080fd5b506117888682870161168e565b92505060408401356117998161171b565b809150509250925092565b600080600080608085870312156117ba57600080fd5b84359350602085013567ffffffffffffffff8111156117d857600080fd5b6117e48782880161168e565b93505060408501356117f58161171b565b9396929550929360600135925050565b634e487b7160e01b600052603260045260246000fd5b600181811c9082168061182f57607f821691505b60208210810361184f57634e487b7160e01b600052602260045260246000fd5b50919050565b634e487b7160e01b600052601160045260246000fd5b8082018082111561187e5761187e611855565b92915050565b60006020828403121561189657600080fd5b81516118a18161171b565b9392505050565b8181038181111561187e5761187e611855565b60008083546118c98161181b565b600182811680156118e157600181146118f657611925565b60ff1984168752821515830287019450611925565b8760005260208060002060005b8581101561191c5781548a820152908401908201611903565b50505082870194505b50929695505050505050565b60008751611943818460208c01611480565b606088901b6bffffffffffffffffffffffff19169083019081528651611970816014840160208b01611480565b0160148101959095525050603483019190915260548201526074019392505050565b601f8211156119d857600081815260208120601f850160051c810160208610156119b95750805b601f850160051c820191505b8181101561141b578281556001016119c5565b505050565b815167ffffffffffffffff8111156119f7576119f7611678565b611a0b81611a05845461181b565b84611992565b602080601f831160018114611a405760008415611a285750858301515b600019600386901b1c1916600185901b17855561141b565b600085815260208120601f198616915b82811015611a6f57888601518255948401946001909101908401611a50565b5085821015611a8d5787850151600019600388901b60f8161c191681555b5050505050600190811b01905550565b60208082526028908201527f4465706f73697420616d6f756e74206d7573742062652067726561746572207460408201526768616e207a65726f60c01b606082015260800190565b600060208284031215611af757600080fd5b5051919050565b606081526000611b1160608301866114a4565b60208301949094525090151560409091015291905056fea26469706673582212204124fe53b63a8560d219a203a52eac0cf3b9fa67b08a30abd4152642b5bb436a64736f6c63430008140033",
  "linkReferences": {},
  "deployedLinkReferences": {}
}