{
  "_format": "hh-sol-artifact-1",
  "contractName": "GroupSplit",
  "sourceName": "contracts/GroupSplit.sol",
  "abi": [
    {
      "inputs": [],
      "name": "InvalidInitialization",
      "type": "error"
    },
    {
      "inputs": [],
      "name": "NotInitializing",
      "type": "error"
    },
    {
      "anonymous": false,
      "inputs": [
        {
          "indexed": false,
          "internalType": "uint64",
          "name": "version",
          "type": "uint64"
        }
      ],
      "name": "Initialized",
      "type": "event"
    },
    {
      "anonymous": false,
      "inputs": [
        {
          "indexed": true,
          "internalType": "uint256",
          "name": "groupId",
          "type": "uint256"
        },
        {
          "indexed": true,
          "internalType": "address",
          "name": "owner",
          "type": "address"
        },
        {
          "indexed": true,
          "internalType": "string",
          "name": "groupName",
          "type": "string"
        },
        {
          "indexed": false,
          "internalType": "uint256",
          "name": "closingTime",
          "type": "uint256"
        },
        {
          "indexed": false,
          "internalType": "bool",
          "name": "isUSDC",
          "type": "bool"
        }
      ],
      "name": "logGroupClosed",
      "type": "event"
    },
    {
      "anonymous": false,
      "inputs": [
        {
          "indexed": true,
          "internalType": "uint256",
          "name": "groupId",
          "type": "uint256"
        },
        {
          "indexed": true,
          "internalType": "address",
          "name": "owner",
          "type": "address"
        },
        {
          "indexed": true,
          "internalType": "string",
          "name": "groupName",
          "type": "string"
        },
        {
          "indexed": false,
          "internalType": "uint256",
          "name": "creationTime",
          "type": "uint256"
        },
        {
          "indexed": false,
          "internalType": "bool",
          "name": "isUSDC",
          "type": "bool"
        }
      ],
      "name": "logGroupCreated",
      "type": "event"
    },
    {
      "anonymous": false,
      "inputs": [
        {
          "indexed": true,
          "internalType": "uint256",
          "name": "groupId",
          "type": "uint256"
        },
        {
          "indexed": true,
          "internalType": "address",
          "name": "participant",
          "type": "address"
        },
        {
          "indexed": false,
          "internalType": "string",
          "name": "nickname",
          "type": "string"
        },
        {
          "indexed": false,
          "internalType": "uint256",
          "name": "deposit",
          "type": "uint256"
        },
        {
          "indexed": false,
          "internalType": "bool",
          "name": "isUSDC",
          "type": "bool"
        }
      ],
      "name": "logGroupDepositReceived",
      "type": "event"
    },
    {
      "anonymous": false,
      "inputs": [
        {
          "indexed": true,
          "internalType": "uint256",
          "name": "groupId",
          "type": "uint256"
        },
        {
          "indexed": true,
          "internalType": "address",
          "name": "owner",
          "type": "address"
        },
        {
          "indexed": true,
          "internalType": "string",
          "name": "groupName",
          "type": "string"
        },
        {
          "indexed": false,
          "internalType": "uint256",
          "name": "openingTime",
          "type": "uint256"
        },
        {
          "indexed": false,
          "internalType": "bool",
          "name": "isUSDC",
          "type": "bool"
        }
      ],
      "name": "logGroupOpened",
      "type": "event"
    },
    {
      "anonymous": false,
      "inputs": [
        {
          "indexed": true,
          "internalType": "uint256",
          "name": "groupId",
          "type": "uint256"
        },
        {
          "indexed": false,
          "internalType": "uint256",
          "name": "amountWithdrawn",
          "type": "uint256"
        },
        {
          "indexed": false,
          "internalType": "uint256",
          "name": "time",
          "type": "uint256"
        },
        {
          "indexed": false,
          "internalType": "uint256",
          "name": "totalCollected",
          "type": "uint256"
        },
        {
          "indexed": false,
          "internalType": "uint256",
          "name": "totalWithdrawn",
          "type": "uint256"
        },
        {
          "indexed": false,
          "internalType": "bool",
          "name": "isUSDC",
          "type": "bool"
        }
      ],
      "name": "logGroupWithdrawal",
      "type": "event"
    },
    {
      "anonymous": false,
      "inputs": [
        {
          "indexed": true,
          "internalType": "uint256",
          "name": "groupId",
          "type": "uint256"
        },
        {
          "indexed": true,
          "internalType": "address",
          "name": "owner",
          "type": "address"
        },
        {
          "indexed": false,
          "internalType": "uint256",
          "name": "amount",
          "type": "uint256"
        },
        {
          "indexed": false,
          "internalType": "bool",
          "name": "isUSDC",
          "type": "bool"
        }
      ],
      "name": "logWithdrawalFailed",
      "type": "event"
    },
    {
      "inputs": [],
      "name": "USDC",
      "outputs": [
        {
          "internalType": "contract IERC20",
          "name": "",
          "type": "address"
        }
      ],
      "stateMutability": "view",
      "type": "function"
    },
    {
      "inputs": [],
      "name": "contractOpenedGroupsStat",
      "outputs": [
        {
          "internalType": "uint256",
          "name": "",
          "type": "uint256"
        }
      ],
      "stateMutability": "view",
      "type": "function"
    },
    {
      "inputs": [],
      "name": "contractTotalCollectedEthStat",
      "outputs": [
        {
          "internalType": "uint256",
          "name": "",
          "type": "uint256"
        }
      ],
      "stateMutability": "view",
      "type": "function"
    },
    {
      "inputs": [],
      "name": "contractTotalCollectedUSDCStat",
      "outputs": [
        {
          "internalType": "uint256",
          "name": "",
          "type": "uint256"
        }
      ],
      "stateMutability": "view",
      "type": "function"
    },
    {
      "inputs": [
        {
          "internalType": "string",
          "name": "_groupName",
          "type": "string"
        },
        {
          "internalType": "string",
          "name": "_ownerNickname",
          "type": "string"
        },
        {
          "internalType": "bool",
          "name": "isUSDC",
          "type": "bool"
        }
      ],
      "name": "createGroup",
      "outputs": [],
      "stateMutability": "nonpayable",
      "type": "function"
    },
    {
      "inputs": [
        {
          "internalType": "uint256",
          "name": "_groupId",
          "type": "uint256"
        },
        {
          "internalType": "string",
          "name": "_nickname",
          "type": "string"
        },
        {
          "internalType": "bool",
          "name": "isUSDCDeposit",
          "type": "bool"
        },
        {
          "internalType": "uint256",
          "name": "usdcAmount",
          "type": "uint256"
        }
      ],
      "name": "depositToGroup",
      "outputs": [],
      "stateMutability": "payable",
      "type": "function"
    },
    {
      "inputs": [],
      "name": "getAllGroupIds",
      "outputs": [
        {
          "internalType": "uint256[]",
          "name": "",
          "type": "uint256[]"
        }
      ],
      "stateMutability": "view",
      "type": "function"
    },
    {
      "inputs": [
        {
          "internalType": "uint256",
          "name": "_groupId",
          "type": "uint256"
        }
      ],
      "name": "getGroupInfoById",
      "outputs": [
        {
          "internalType": "uint256",
          "name": "",
          "type": "uint256"
        },
        {
          "internalType": "string",
          "name": "",
          "type": "string"
        },
        {
          "internalType": "bool",
          "name": "",
          "type": "bool"
        },
        {
          "internalType": "address",
          "name": "",
          "type": "address"
        },
        {
          "internalType": "string",
          "name": "",
          "type": "string"
        },
        {
          "internalType": "uint256",
          "name": "",
          "type": "uint256"
        },
        {
          "internalType": "uint256",
          "name": "",
          "type": "uint256"
        },
        {
          "internalType": "uint256",
          "name": "",
          "type": "uint256"
        },
        {
          "internalType": "uint256",
          "name": "",
          "type": "uint256"
        },
        {
          "internalType": "uint256",
          "name": "",
          "type": "uint256"
        },
        {
          "internalType": "address[]",
          "name": "",
          "type": "address[]"
        }
      ],
      "stateMutability": "view",
      "type": "function"
    },
    {
      "inputs": [],
      "name": "getGroupsNum",
      "outputs": [
        {
          "internalType": "uint256",
          "name": "",
          "type": "uint256"
        }
      ],
      "stateMutability": "view",
      "type": "function"
    },
    {
      "inputs": [
        {
          "internalType": "uint256",
          "name": "_groupId",
          "type": "uint256"
        },
        {
          "internalType": "address",
          "name": "_participantAddress",
          "type": "address"
        }
      ],
      "name": "getParticipantDetails",
      "outputs": [
        {
          "internalType": "address",
          "name": "participantAddress",
          "type": "address"
        },
        {
          "internalType": "string",
          "name": "nickname",
          "type": "string"
        },
        {
          "internalType": "uint256",
          "name": "totalDeposits",
          "type": "uint256"
        },
        {
          "internalType": "uint256",
          "name": "lastDeposited",
          "type": "uint256"
        }
      ],
      "stateMutability": "view",
      "type": "function"
    },
    {
      "inputs": [
        {
          "internalType": "uint256",
          "name": "",
          "type": "uint256"
        }
      ],
      "name": "groupIds",
      "outputs": [
        {
          "internalType": "uint256",
          "name": "",
          "type": "uint256"
        }
      ],
      "stateMutability": "view",
      "type": "function"
    },
    {
      "inputs": [
        {
          "internalType": "uint256",
          "name": "",
          "type": "uint256"
        }
      ],
      "name": "groups",
      "outputs": [
        {
          "internalType": "uint256",
          "name": "groupId",
          "type": "uint256"
        },
        {
          "internalType": "string",
          "name": "groupName",
          "type": "string"
        },
        {
          "internalType": "bool",
          "name": "isUSDC",
          "type": "bool"
        },
        {
          "internalType": "uint256",
          "name": "status",
          "type": "uint256"
        },
        {
          "internalType": "uint256",
          "name": "creationTime",
          "type": "uint256"
        },
        {
          "internalType": "address",
          "name": "owner",
          "type": "address"
        },
        {
          "internalType": "string",
          "name": "ownerNickname",
          "type": "string"
        },
        {
          "internalType": "uint256",
          "name": "balance",
          "type": "uint256"
        },
        {
          "internalType": "uint256",
          "name": "totalCollected",
          "type": "uint256"
        },
        {
          "internalType": "uint256",
          "name": "totalWithdrawn",
          "type": "uint256"
        }
      ],
      "stateMutability": "view",
      "type": "function"
    },
    {
      "inputs": [
        {
          "internalType": "address",
          "name": "_usdcTokenAddress",
          "type": "address"
        }
      ],
      "name": "initialize",
      "outputs": [],
      "stateMutability": "nonpayable",
      "type": "function"
    },
    {
      "inputs": [
        {
          "internalType": "uint256",
          "name": "_groupId",
          "type": "uint256"
        }
      ],
      "name": "withdrawFromGroup",
      "outputs": [],
      "stateMutability": "payable",
      "type": "function"
    }
  ],
  "bytecode": "0x608060405234801561001057600080fd5b50611cfd806100206000396000f3fe6080604052600436106100dd5760003560e01c80637ceee3401161007f578063a2a4498b11610059578063a2a4498b14610263578063a30013e114610278578063c4d66de814610298578063f35ea5d0146102b857600080fd5b80637ceee340146101df57806389a30271146101f557806396324bd41461022d57600080fd5b806332bee467116100bb57806332bee467146101645780633756eeb8146101945780634093d7a1146101aa5780635d39c56b146101ca57600080fd5b806306e0b1cc146100e25780632e3dcc061461010b5780632f14f6c91461012d575b600080fd5b3480156100ee57600080fd5b506100f860045481565b6040519081526020015b60405180910390f35b34801561011757600080fd5b506101206102cb565b604051610102919061159b565b34801561013957600080fd5b5061014d6101483660046115df565b610323565b6040516101029b9a99989796959493929190611648565b34801561017057600080fd5b5061018461017f366004611721565b610556565b604051610102949392919061174d565b3480156101a057600080fd5b506100f860055481565b3480156101b657600080fd5b506100f86101c53660046115df565b6106e9565b3480156101d657600080fd5b506000546100f8565b3480156101eb57600080fd5b506100f860035481565b34801561020157600080fd5b50600654610215906001600160a01b031681565b6040516001600160a01b039091168152602001610102565b34801561023957600080fd5b5061024d6102483660046115df565b61070a565b6040516101029a99989796959493929190611784565b6102766102713660046115df565b61088c565b005b34801561028457600080fd5b506102766102933660046118b0565b610c6c565b3480156102a457600080fd5b506102766102b3366004611928565b610e2c565b6102766102c636600461194a565b610f68565b6060600180548060200260200160405190810160405280929190818152602001828054801561031957602002820191906000526020600020905b815481526020019060010190808311610305575b5050505050905090565b6000606060008060606000806000806000606060006103418d611365565b90506000808281548110610357576103576119ab565b90600052602060002090600c020190508060000154816001018260020160009054906101000a900460ff168360050160009054906101000a90046001600160a01b031684600601856004015486600301548760070154886008015489600901548a600a018980546103c7906119c1565b80601f01602080910402602001604051908101604052809291908181526020018280546103f3906119c1565b80156104405780601f1061041557610100808354040283529160200191610440565b820191906000526020600020905b81548152906001019060200180831161042357829003601f168201915b50505050509950868054610453906119c1565b80601f016020809104026020016040519081016040528092919081815260200182805461047f906119c1565b80156104cc5780601f106104a1576101008083540402835291602001916104cc565b820191906000526020600020905b8154815290600101906020018083116104af57829003601f168201915b505050505096508080548060200260200160405190810160405280929190818152602001828054801561052857602002820191906000526020600020905b81546001600160a01b0316815260019091019060200180831161050a575b505050505090509c509c509c509c509c509c509c509c509c509c509c50505091939597999b90929496989a50565b60006060600080600061056887611365565b9050600080828154811061057e5761057e6119ab565b600091825260208083206001600160a01b038b81168552600c9390930201600b810182526040808520815160808101909252805490941681526001840180549296509093928401916105cf906119c1565b80601f01602080910402602001604051908101604052809291908181526020018280546105fb906119c1565b80156106485780601f1061061d57610100808354040283529160200191610648565b820191906000526020600020905b81548152906001019060200180831161062b57829003601f168201915b50505091835250506002820154602082015260039091015460409091015280519091506001600160a01b03166106c55760405162461bcd60e51b815260206004820152601a60248201527f5061727469636970616e7420646f6573206e6f7420657869737400000000000060448201526064015b60405180910390fd5b805160208201516040830151606090930151919b909a509198509650945050505050565b600181815481106106f957600080fd5b600091825260209091200154905081565b6000818154811061071a57600080fd5b60009182526020909120600c9091020180546001820180549193509061073f906119c1565b80601f016020809104026020016040519081016040528092919081815260200182805461076b906119c1565b80156107b85780601f1061078d576101008083540402835291602001916107b8565b820191906000526020600020905b81548152906001019060200180831161079b57829003601f168201915b5050506002840154600385015460048601546005870154600688018054979860ff909516979396509194506001600160a01b031692916107f7906119c1565b80601f0160208091040260200160405190810160405280929190818152602001828054610823906119c1565b80156108705780601f1061084557610100808354040283529160200191610870565b820191906000526020600020905b81548152906001019060200180831161085357829003601f168201915b505050505090806007015490806008015490806009015490508a565b600061089782611365565b905060008082815481106108ad576108ad6119ab565b60009182526020909120600c9091020160058101549091506001600160a01b0316331461091c5760405162461bcd60e51b815260206004820152601d60248201527f4f6e6c792067726f7570206f776e65722063616e20776974686472617700000060448201526064016106bc565b60008160070154116109695760405162461bcd60e51b81526020600482015260166024820152754e6f2062616c616e636520746f20776974686472617760501b60448201526064016106bc565b60008082600701549050808360090160008282546109879190611a11565b909155505060006007840155600283015460ff1615610a6657600654600584015460405163a9059cbb60e01b81526001600160a01b0391821660048201526024810184905291169063a9059cbb906044016020604051808303816000875af11580156109f7573d6000803e3d6000fd5b505050506040513d601f19601f82011682018060405250810190610a1b9190611a2a565b915081610a615760405162461bcd60e51b81526020600482015260146024820152731554d110c8151c985b9cd9995c8819985a5b195960621b60448201526064016106bc565b610b03565b60058301546040516001600160a01b03909116908290600081818185875af1925050503d8060008114610ab5576040519150601f19603f3d011682016040523d82523d6000602084013e610aba565b606091505b50508092505081610b035760405162461bcd60e51b815260206004820152601360248201527211551208151c985b9cd9995c8819985a5b1959606a1b60448201526064016106bc565b81610b8c5780836007018190555080836009016000828254610b259190611a47565b90915550506005830154600784015460028501546040805192835260ff909116151560208301526001600160a01b039092169187917f2f78437c72aa947f251fe01f835b4450a48d4b480aed48c6ec52096b66bcf995910160405180910390a35050505050565b600160038401556008830154600984015460028501546040805185815242602082015290810193909352606083019190915260ff161515608082015285907f4737f4b5f110339198b10ac9c9ecc84dda24e5e07af201b6228e352bf22b80789060a00160405180910390a282600101604051610c089190611a5a565b604080519182900382206005860154600287015442855260ff161515602085015290926001600160a01b039091169188917f258a2e08c90ae0f3b8822777e4a046207be1faf120cf603acd32c2b82427765291015b60405180910390a45050505050565b600080546001818101835582805260038054600c9093027f290decd9548b62a8d60345a988386fc84ba6bc95484008f6362f93160ef3e56301939192909190610cb6908490611a11565b9091555050600054604051610cd79186913391879142914491602001611ad0565b60408051601f198184030181529190528051602090910120815560018101610cff8582611b7c565b506005810180546001600160a01b0319163317905560068101610d228482611b7c565b504260048201556002600382018190556000600783018190556008830181905560098301819055908201805460ff19168415151790558054610d6690600190611a47565b8254600090815260026020526040812082905583546001805480820182559083527fb10e2d527612073b26eecdfd717e6a320cf44b4afac2b0732d9fcbe2b7fa0cf601558354919250610dbd9190339087906113cc565b81600101604051610dce9190611a5a565b60408051918290038220600585015485546004870154600288015490865260ff161515602086015291936001600160a01b03909116927f349b4d94306c01936126a1bde7b3c123a28136a2c761880ad044f5cade7a5a4d9101610c5d565b7ff0c57e16840df040f15088dc2f81fe391c3923bec73e23a9662efc9c229c6a008054600160401b810460ff16159067ffffffffffffffff16600081158015610e725750825b905060008267ffffffffffffffff166001148015610e8f5750303b155b905081158015610e9d575080155b15610ebb5760405163f92ee8a960e01b815260040160405180910390fd5b845467ffffffffffffffff191660011785558315610ee557845460ff60401b1916600160401b1785555b6000600381905560048190556005819055805460010181558052600680546001600160a01b0319166001600160a01b0388161790558315610f6057845460ff60401b19168555604051600181527fc7f505b2f371ae2175ee4913f4499e1f2633a7b5936321eed1cdaeb6115181d29060200160405180910390a15b505050505050565b836000610f7482611365565b9050600260008281548110610f8b57610f8b6119ab565b90600052602060002090600c02016003015414610fdc5760405162461bcd60e51b815260206004820152600f60248201526e11dc9bdd5c081a5cc818db1bdcd959608a1b60448201526064016106bc565b6000610fe787611365565b90506000808281548110610ffd57610ffd6119ab565b600091825260209091206002600c909202019081015490915060ff161515861515146110775760405162461bcd60e51b815260206004820152602360248201527f496e76616c6964206465706f736974207479706520666f72207468697320677260448201526206f75760ec1b60648201526084016106bc565b60008615611273576000861161109f5760405162461bcd60e51b81526004016106bc90611c3c565b34156110ed5760405162461bcd60e51b815260206004820152601760248201527f4e6f2065746865722073686f756c642062652073656e7400000000000000000060448201526064016106bc565b6006546040516370a0823160e01b81523360048201526000916001600160a01b0316906370a0823190602401602060405180830381865afa158015611136573d6000803e3d6000fd5b505050506040513d601f19601f8201168201806040525081019061115a9190611c84565b9050868110156111ac5760405162461bcd60e51b815260206004820152601960248201527f496e73756666696369656e7420555344432062616c616e63650000000000000060448201526064016106bc565b6006546040516323b872dd60e01b8152336004820152306024820152604481018990526001600160a01b03909116906323b872dd906064016020604051808303816000875af1158015611203573d6000803e3d6000fd5b505050506040513d601f19601f820116820180604052508101906112279190611a2a565b61126a5760405162461bcd60e51b81526020600482015260146024820152731554d110c8151c985b9cd9995c8819985a5b195960621b60448201526064016106bc565b86915050611296565b600034116112935760405162461bcd60e51b81526004016106bc90611c3c565b50345b6112a289338a846113cc565b808260070160008282546112b69190611a11565b92505081905550808260080160008282546112d19190611a11565b909155505086156112f95780600560008282546112ee9190611a11565b909155506113119050565b806004600082825461130b9190611a11565b90915550505b600282015460405133918b917fb5493b1023d3022b165a5630e4e5d5368e76adb463e90c2020a7a3d3b31606b891611352918d91879160ff90911690611c9d565b60405180910390a3505050505050505050565b60008181526002602052604081205481036113b95760405162461bcd60e51b815260206004820152601460248201527311dc9bdd5c08191bd95cc81b9bdd08195e1a5cdd60621b60448201526064016106bc565b5060009081526002602052604090205490565b60006113d785611365565b905084600082815481106113ed576113ed6119ab565b90600052602060002090600c020160000154146114435760405162461bcd60e51b815260206004820152601460248201527311dc9bdd5c08191bd95cc81b9bdd08195e1a5cdd60621b60448201526064016106bc565b6000808281548110611457576114576119ab565b600091825260208083206001600160a01b038981168552600c9390930201600b810190915260409092205491925016156114e3576001600160a01b0385166000908152600b82016020526040812060020180548592906114b8908490611a11565b90915550506001600160a01b0385166000908152600b82016020526040902042600390910155610f60565b604080516080810182526001600160a01b0387811680835260208084018981528486018990524260608601526000928352600b8701909152939020825181546001600160a01b031916921691909117815591519091829160018201906115499082611b7c565b506040820151600282015560609091015160039091015550600a81018054600181018255600091825260209091200180546001600160a01b0387166001600160a01b0319909116179055505050505050565b6020808252825182820181905260009190848201906040850190845b818110156115d3578351835292840192918401916001016115b7565b50909695505050505050565b6000602082840312156115f157600080fd5b5035919050565b60005b838110156116135781810151838201526020016115fb565b50506000910152565b600081518084526116348160208601602086016115f8565b601f01601f19169290920160200192915050565b60006101608d8352602081818501526116638285018f61161c565b8d151560408601526001600160a01b038d811660608701528582036080870152909250611690838d61161c565b92508a60a08601528960c08601528860e086015287610100860152866101208601528483036101408601528286518085528385019150838801945060005b818110156116ec5785518416835294840194918401916001016116ce565b5050809450505050509c9b505050505050505050505050565b80356001600160a01b038116811461171c57600080fd5b919050565b6000806040838503121561173457600080fd5b8235915061174460208401611705565b90509250929050565b6001600160a01b03851681526080602082018190526000906117719083018661161c565b6040830194909452506060015292915050565b60006101408c835280602084015261179e8184018d61161c565b8b15156040850152606084018b9052608084018a90526001600160a01b03891660a085015283810360c085015290506117d7818861161c565b60e0840196909652505061010081019290925261012090910152979650505050505050565b634e487b7160e01b600052604160045260246000fd5b600082601f83011261182357600080fd5b813567ffffffffffffffff8082111561183e5761183e6117fc565b604051601f8301601f19908116603f01168101908282118183101715611866576118666117fc565b8160405283815286602085880101111561187f57600080fd5b836020870160208301376000602085830101528094505050505092915050565b80151581146118ad57600080fd5b50565b6000806000606084860312156118c557600080fd5b833567ffffffffffffffff808211156118dd57600080fd5b6118e987838801611812565b945060208601359150808211156118ff57600080fd5b5061190c86828701611812565b925050604084013561191d8161189f565b809150509250925092565b60006020828403121561193a57600080fd5b61194382611705565b9392505050565b6000806000806080858703121561196057600080fd5b84359350602085013567ffffffffffffffff81111561197e57600080fd5b61198a87828801611812565b935050604085013561199b8161189f565b9396929550929360600135925050565b634e487b7160e01b600052603260045260246000fd5b600181811c908216806119d557607f821691505b6020821081036119f557634e487b7160e01b600052602260045260246000fd5b50919050565b634e487b7160e01b600052601160045260246000fd5b80820180821115611a2457611a246119fb565b92915050565b600060208284031215611a3c57600080fd5b81516119438161189f565b81810381811115611a2457611a246119fb565b6000808354611a68816119c1565b60018281168015611a805760018114611a9557611ac4565b60ff1984168752821515830287019450611ac4565b8760005260208060002060005b85811015611abb5781548a820152908401908201611aa2565b50505082870194505b50929695505050505050565b60008751611ae2818460208c016115f8565b606088901b6bffffffffffffffffffffffff19169083019081528651611b0f816014840160208b016115f8565b0160148101959095525050603483019190915260548201526074019392505050565b601f821115611b7757600081815260208120601f850160051c81016020861015611b585750805b601f850160051c820191505b81811015610f6057828155600101611b64565b505050565b815167ffffffffffffffff811115611b9657611b966117fc565b611baa81611ba484546119c1565b84611b31565b602080601f831160018114611bdf5760008415611bc75750858301515b600019600386901b1c1916600185901b178555610f60565b600085815260208120601f198616915b82811015611c0e57888601518255948401946001909101908401611bef565b5085821015611c2c5787850151600019600388901b60f8161c191681555b5050505050600190811b01905550565b60208082526028908201527f4465706f73697420616d6f756e74206d7573742062652067726561746572207460408201526768616e207a65726f60c01b606082015260800190565b600060208284031215611c9657600080fd5b5051919050565b606081526000611cb0606083018661161c565b60208301949094525090151560409091015291905056fea2646970667358221220e7f907f29f6a948496d3756882a1442dcaa4d24aeb896aa7db9c0dfc56839baa64736f6c63430008140033",
  "linkReferences": {},
  "deployedLinkReferences": {}
}