{
  "_format": "hh-sol-artifact-1",
  "contractName": "GroupSplit",
  "sourceName": "contracts/GroupSplit.sol",
  "abi": [
    {
      "anonymous": false,
      "inputs": [
        {
          "indexed": true,
          "internalType": "uint256",
          "name": "groupId",
          "type": "uint256"
        },
        {
          "indexed": true,
          "internalType": "address",
          "name": "owner",
          "type": "address"
        },
        {
          "indexed": true,
          "internalType": "string",
          "name": "groupName",
          "type": "string"
        },
        {
          "indexed": false,
          "internalType": "uint256",
          "name": "closingTime",
          "type": "uint256"
        }
      ],
      "name": "logGroupClosed",
      "type": "event"
    },
    {
      "anonymous": false,
      "inputs": [
        {
          "indexed": true,
          "internalType": "uint256",
          "name": "groupId",
          "type": "uint256"
        },
        {
          "indexed": true,
          "internalType": "address",
          "name": "owner",
          "type": "address"
        },
        {
          "indexed": true,
          "internalType": "string",
          "name": "groupName",
          "type": "string"
        },
        {
          "indexed": false,
          "internalType": "uint256",
          "name": "creationTime",
          "type": "uint256"
        }
      ],
      "name": "logGroupCreated",
      "type": "event"
    },
    {
      "anonymous": false,
      "inputs": [
        {
          "indexed": true,
          "internalType": "uint256",
          "name": "groupId",
          "type": "uint256"
        },
        {
          "indexed": true,
          "internalType": "address",
          "name": "participant",
          "type": "address"
        },
        {
          "indexed": false,
          "internalType": "string",
          "name": "nickname",
          "type": "string"
        },
        {
          "indexed": false,
          "internalType": "uint256",
          "name": "deposit",
          "type": "uint256"
        }
      ],
      "name": "logGroupDepositReceived",
      "type": "event"
    },
    {
      "anonymous": false,
      "inputs": [
        {
          "indexed": true,
          "internalType": "uint256",
          "name": "groupId",
          "type": "uint256"
        },
        {
          "indexed": true,
          "internalType": "address",
          "name": "owner",
          "type": "address"
        },
        {
          "indexed": true,
          "internalType": "string",
          "name": "groupName",
          "type": "string"
        },
        {
          "indexed": false,
          "internalType": "uint256",
          "name": "openingTime",
          "type": "uint256"
        }
      ],
      "name": "logGroupOpened",
      "type": "event"
    },
    {
      "anonymous": false,
      "inputs": [
        {
          "indexed": true,
          "internalType": "uint256",
          "name": "groupId",
          "type": "uint256"
        },
        {
          "indexed": false,
          "internalType": "uint256",
          "name": "amountTransferred",
          "type": "uint256"
        },
        {
          "indexed": false,
          "internalType": "string",
          "name": "time",
          "type": "string"
        },
        {
          "indexed": false,
          "internalType": "uint256",
          "name": "balance",
          "type": "uint256"
        },
        {
          "indexed": false,
          "internalType": "uint256",
          "name": "totalCollected",
          "type": "uint256"
        },
        {
          "indexed": false,
          "internalType": "uint256",
          "name": "totalWithdrawn",
          "type": "uint256"
        }
      ],
      "name": "logGroupWithdrawal",
      "type": "event"
    },
    {
      "anonymous": false,
      "inputs": [
        {
          "indexed": true,
          "internalType": "uint256",
          "name": "groupId",
          "type": "uint256"
        },
        {
          "indexed": true,
          "internalType": "address",
          "name": "owner",
          "type": "address"
        },
        {
          "indexed": false,
          "internalType": "uint256",
          "name": "amount",
          "type": "uint256"
        }
      ],
      "name": "logTransferFailed",
      "type": "event"
    },
    {
      "inputs": [],
      "name": "activeGroups",
      "outputs": [
        {
          "internalType": "uint256",
          "name": "",
          "type": "uint256"
        }
      ],
      "stateMutability": "view",
      "type": "function"
    },
    {
      "inputs": [
        {
          "internalType": "uint256",
          "name": "_groupId",
          "type": "uint256"
        },
        {
          "internalType": "address",
          "name": "_participantAddress",
          "type": "address"
        },
        {
          "internalType": "string",
          "name": "_nickname",
          "type": "string"
        },
        {
          "internalType": "uint256",
          "name": "_deposit",
          "type": "uint256"
        }
      ],
      "name": "addParticipantToGroup",
      "outputs": [],
      "stateMutability": "nonpayable",
      "type": "function"
    },
    {
      "inputs": [
        {
          "internalType": "string",
          "name": "_groupName",
          "type": "string"
        },
        {
          "internalType": "string",
          "name": "_ownerNickname",
          "type": "string"
        },
        {
          "internalType": "string",
          "name": "_url",
          "type": "string"
        }
      ],
      "name": "createGroup",
      "outputs": [],
      "stateMutability": "nonpayable",
      "type": "function"
    },
    {
      "inputs": [
        {
          "internalType": "uint256",
          "name": "_groupId",
          "type": "uint256"
        },
        {
          "internalType": "string",
          "name": "_nickname",
          "type": "string"
        }
      ],
      "name": "depositToGroup",
      "outputs": [],
      "stateMutability": "payable",
      "type": "function"
    },
    {
      "inputs": [],
      "name": "getAllGroupIds",
      "outputs": [
        {
          "internalType": "uint256[]",
          "name": "",
          "type": "uint256[]"
        }
      ],
      "stateMutability": "view",
      "type": "function"
    },
    {
      "inputs": [
        {
          "internalType": "uint256",
          "name": "_url",
          "type": "uint256"
        }
      ],
      "name": "getGroupIdByUrl",
      "outputs": [
        {
          "internalType": "uint256",
          "name": "",
          "type": "uint256"
        }
      ],
      "stateMutability": "view",
      "type": "function"
    },
    {
      "inputs": [
        {
          "internalType": "uint256",
          "name": "_groupId",
          "type": "uint256"
        }
      ],
      "name": "getGroupIndexById",
      "outputs": [
        {
          "internalType": "uint256",
          "name": "",
          "type": "uint256"
        }
      ],
      "stateMutability": "view",
      "type": "function"
    },
    {
      "inputs": [
        {
          "internalType": "uint256",
          "name": "_groupId",
          "type": "uint256"
        }
      ],
      "name": "getGroupInfoById",
      "outputs": [
        {
          "internalType": "uint256",
          "name": "",
          "type": "uint256"
        },
        {
          "internalType": "string",
          "name": "",
          "type": "string"
        },
        {
          "internalType": "address",
          "name": "",
          "type": "address"
        },
        {
          "internalType": "string",
          "name": "",
          "type": "string"
        },
        {
          "internalType": "string",
          "name": "",
          "type": "string"
        },
        {
          "internalType": "uint256",
          "name": "",
          "type": "uint256"
        },
        {
          "internalType": "bool",
          "name": "",
          "type": "bool"
        },
        {
          "internalType": "uint256",
          "name": "",
          "type": "uint256"
        },
        {
          "internalType": "uint256",
          "name": "",
          "type": "uint256"
        },
        {
          "internalType": "uint256",
          "name": "",
          "type": "uint256"
        },
        {
          "internalType": "address[]",
          "name": "",
          "type": "address[]"
        }
      ],
      "stateMutability": "view",
      "type": "function"
    },
    {
      "inputs": [],
      "name": "getGroupsNum",
      "outputs": [
        {
          "internalType": "uint256",
          "name": "",
          "type": "uint256"
        }
      ],
      "stateMutability": "view",
      "type": "function"
    },
    {
      "inputs": [
        {
          "internalType": "uint256",
          "name": "",
          "type": "uint256"
        }
      ],
      "name": "groupIds",
      "outputs": [
        {
          "internalType": "uint256",
          "name": "",
          "type": "uint256"
        }
      ],
      "stateMutability": "view",
      "type": "function"
    },
    {
      "inputs": [
        {
          "internalType": "uint256",
          "name": "",
          "type": "uint256"
        }
      ],
      "name": "groups",
      "outputs": [
        {
          "internalType": "uint256",
          "name": "groupId",
          "type": "uint256"
        },
        {
          "internalType": "string",
          "name": "groupName",
          "type": "string"
        },
        {
          "internalType": "bool",
          "name": "status",
          "type": "bool"
        },
        {
          "internalType": "string",
          "name": "url",
          "type": "string"
        },
        {
          "internalType": "uint256",
          "name": "creationTime",
          "type": "uint256"
        },
        {
          "internalType": "address",
          "name": "owner",
          "type": "address"
        },
        {
          "internalType": "string",
          "name": "ownerNickname",
          "type": "string"
        },
        {
          "internalType": "uint256",
          "name": "balance",
          "type": "uint256"
        },
        {
          "internalType": "uint256",
          "name": "totalCollected",
          "type": "uint256"
        },
        {
          "internalType": "uint256",
          "name": "totalWithdrawn",
          "type": "uint256"
        }
      ],
      "stateMutability": "view",
      "type": "function"
    },
    {
      "inputs": [
        {
          "internalType": "uint256",
          "name": "_groupId",
          "type": "uint256"
        }
      ],
      "name": "withdrawFunds",
      "outputs": [],
      "stateMutability": "payable",
      "type": "function"
    }
  ],
  "bytecode": "0x6080604052600060045534801561001557600080fd5b50611341806100256000396000f3fe6080604052600436106100a75760003560e01c80636d145730116100645780636d1457301461018457806396324bd4146101a4578063b1cacc8e146101da578063c9744950146101fa578063d0e4567e1461021a578063f6d87c051461023057600080fd5b8063155dd5ee146100ac5780632e3dcc06146100bf5780632f14f6c9146100ea5780633073efdd146101215780634093d7a1146101415780635d39c56b1461016f575b600080fd5b6100bd6100ba366004610dbc565b50565b005b3480156100cb57600080fd5b506100d4610243565b6040516100e19190610dd5565b60405180910390f35b3480156100f657600080fd5b5061010a610105366004610dbc565b61029b565b6040516100e19b9a99989796959493929190610e66565b34801561012d57600080fd5b506100bd61013c366004610fd4565b610559565b34801561014d57600080fd5b5061016161015c366004610dbc565b61073c565b6040519081526020016100e1565b34801561017b57600080fd5b50600054610161565b34801561019057600080fd5b5061016161019f366004610dbc565b61075d565b3480156101b057600080fd5b506101c46101bf366004610dbc565b6107ca565b6040516100e19a9998979695949392919061105c565b3480156101e657600080fd5b506101616101f5366004610dbc565b6109d9565b34801561020657600080fd5b506100bd6102153660046110e1565b610a1e565b34801561022657600080fd5b5061016160045481565b6100bd61023e36600461114e565b610b89565b6060600180548060200260200160405190810160405280929190818152602001828054801561029157602002820191906000526020600020905b81548152602001906001019080831161027d575b5050505050905090565b6000606060006060806000806000806000606060006102b98d61075d565b905060008082815481106102cf576102cf611195565b90600052602060002090600c020190508060000154816001018260050160009054906101000a90046001600160a01b0316836006018460030185600401548660020160009054906101000a900460ff168760070154886008015489600901548a600a0189805461033e906111ab565b80601f016020809104026020016040519081016040528092919081815260200182805461036a906111ab565b80156103b75780601f1061038c576101008083540402835291602001916103b7565b820191906000526020600020905b81548152906001019060200180831161039a57829003601f168201915b505050505099508780546103ca906111ab565b80601f01602080910402602001604051908101604052809291908181526020018280546103f6906111ab565b80156104435780601f1061041857610100808354040283529160200191610443565b820191906000526020600020905b81548152906001019060200180831161042657829003601f168201915b50505050509750868054610456906111ab565b80601f0160208091040260200160405190810160405280929190818152602001828054610482906111ab565b80156104cf5780601f106104a4576101008083540402835291602001916104cf565b820191906000526020600020905b8154815290600101906020018083116104b257829003601f168201915b505050505096508080548060200260200160405190810160405280929190818152602001828054801561052b57602002820191906000526020600020905b81546001600160a01b0316815260019091019060200180831161050d575b505050505090509c509c509c509c509c509c509c509c509c509c509c50505091939597999b90929496989a50565b600080546001818101835582805260048054600c9093027f290decd9548b62a8d60345a988386fc84ba6bc95484008f6362f93160ef3e563019391929091906105a39084906111fc565b909155506105b19050610cbd565b815583516105c89060018301906020870190610d23565b506005810180546001600160a01b0319163317905582516105f29060068301906020860190610d23565b5081516106089060038301906020850190610d23565b5042600482015560028101805460ff1916600190811790915560006007830181905560088301819055600983018190558054909161064591611214565b8254600090815260026020908152604080832084905585549051939450926003929161067591848801910161122b565b60408051601f19818403018152918152815160209283012083529082019290925281016000908120929092558354600180548082018255938190527fb10e2d527612073b26eecdfd717e6a320cf44b4afac2b0732d9fcbe2b7fa0cf690930155516106e29184019061122b565b604051908190038120600584015484546004860154845291926001600160a01b0390911691907f8946c268c4725059354ef9b4c2a0ae1a4510e2e45354cb61f70f6ecf7132230f9060200160405180910390a45050505050565b6001818154811061074c57600080fd5b600091825260209091200154905081565b6000805482825260026020526040822054106107b75760405162461bcd60e51b815260206004820152601460248201527311dc9bdd5c08191bd95cc81b9bdd08195e1a5cdd60621b60448201526064015b60405180910390fd5b5060009081526002602052604090205490565b600081815481106107da57600080fd5b60009182526020909120600c909102018054600182018054919350906107ff906111ab565b80601f016020809104026020016040519081016040528092919081815260200182805461082b906111ab565b80156108785780601f1061084d57610100808354040283529160200191610878565b820191906000526020600020905b81548152906001019060200180831161085b57829003601f168201915b5050506002840154600385018054949560ff90921694919350915061089c906111ab565b80601f01602080910402602001604051908101604052809291908181526020018280546108c8906111ab565b80156109155780601f106108ea57610100808354040283529160200191610915565b820191906000526020600020905b8154815290600101906020018083116108f857829003601f168201915b5050505060048301546005840154600685018054949592946001600160a01b03909216935090610944906111ab565b80601f0160208091040260200160405190810160405280929190818152602001828054610970906111ab565b80156109bd5780601f10610992576101008083540402835291602001916109bd565b820191906000526020600020905b8154815290600101906020018083116109a057829003601f168201915b505050505090806007015490806008015490806009015490508a565b600060036000836040516020016109f291815260200190565b604051602081830303815290604052805190602001208152602001908152602001600020549050919050565b6000610a298561075d565b90506000808281548110610a3f57610a3f611195565b600091825260208083206001600160a01b038981168552600c9390930201600b81019091526040909220549192501615610aab576001600160a01b0385166000908152600b8201602052604081206002018054859290610aa09084906111fc565b90915550610b4d9050565b604080516060810182526001600160a01b0387811680835260208084018981528486018990526000928352600b8701825294909120835181546001600160a01b03191693169290921782559251805192939192610b0e9260018501920190610d23565b5060409190910151600290910155600a81018054600181018255600091825260209091200180546001600160a01b0319166001600160a01b0387161790555b82816007016000828254610b6191906111fc565b9250508190555082816008016000828254610b7c91906111fc565b9091555050505050505050565b816000610b958261075d565b905060008181548110610baa57610baa611195565b600091825260209091206002600c90920201015460ff161515600114610c045760405162461bcd60e51b815260206004820152600f60248201526e11dc9bdd5c081a5cc818db1bdcd959608a1b60448201526064016107ae565b60003411610c655760405162461bcd60e51b815260206004820152602860248201527f4465706f73697420616d6f756e74206d7573742062652067726561746572207460448201526768616e207a65726f60c01b60648201526084016107ae565b34610c7285338684610a1e565b336001600160a01b0316857f061a3a1f9f4c2bac8da4625370b6afa9f9b2f7b7a03b54591754873cc308126c8684604051610cae9291906112c7565b60405180910390a35050505050565b6000620f4240424433604051602001610cfb93929190928352602083019190915260601b6bffffffffffffffffffffffff1916604082015260540190565b6040516020818303038152906040528051906020012060001c610d1e91906112e9565b905090565b828054610d2f906111ab565b90600052602060002090601f016020900481019282610d515760008555610d97565b82601f10610d6a57805160ff1916838001178555610d97565b82800160010185558215610d97579182015b82811115610d97578251825591602001919060010190610d7c565b50610da3929150610da7565b5090565b5b80821115610da35760008155600101610da8565b600060208284031215610dce57600080fd5b5035919050565b6020808252825182820181905260009190848201906040850190845b81811015610e0d57835183529284019291840191600101610df1565b50909695505050505050565b6000815180845260005b81811015610e3f57602081850181015186830182015201610e23565b81811115610e51576000602083870101525b50601f01601f19169290920160200192915050565b60006101608d835260208181850152610e818285018f610e19565b6001600160a01b038e811660408701528582036060870152909250610ea6838e610e19565b92508483036080860152610eba838d610e19565b92508a60a086015289151560c08601528860e086015287610100860152866101208601528483036101408601528286518085528385019150838801945060005b81811015610f18578551841683529484019491840191600101610efa565b5050809450505050509c9b505050505050505050505050565b634e487b7160e01b600052604160045260246000fd5b600082601f830112610f5857600080fd5b813567ffffffffffffffff80821115610f7357610f73610f31565b604051601f8301601f19908116603f01168101908282118183101715610f9b57610f9b610f31565b81604052838152866020858801011115610fb457600080fd5b836020870160208301376000602085830101528094505050505092915050565b600080600060608486031215610fe957600080fd5b833567ffffffffffffffff8082111561100157600080fd5b61100d87838801610f47565b9450602086013591508082111561102357600080fd5b61102f87838801610f47565b9350604086013591508082111561104557600080fd5b5061105286828701610f47565b9150509250925092565b60006101408c83528060208401526110768184018d610e19565b90508a151560408401528281036060840152611092818b610e19565b608084018a90526001600160a01b03891660a085015283810360c085015290506110bc8188610e19565b60e0840196909652505061010081019290925261012090910152979650505050505050565b600080600080608085870312156110f757600080fd5b8435935060208501356001600160a01b038116811461111557600080fd5b9250604085013567ffffffffffffffff81111561113157600080fd5b61113d87828801610f47565b949793965093946060013593505050565b6000806040838503121561116157600080fd5b82359150602083013567ffffffffffffffff81111561117f57600080fd5b61118b85828601610f47565b9150509250929050565b634e487b7160e01b600052603260045260246000fd5b600181811c908216806111bf57607f821691505b602082108114156111e057634e487b7160e01b600052602260045260246000fd5b50919050565b634e487b7160e01b600052601160045260246000fd5b6000821982111561120f5761120f6111e6565b500190565b600082821015611226576112266111e6565b500390565b600080835481600182811c91508083168061124757607f831692505b602080841082141561126757634e487b7160e01b86526022600452602486fd5b81801561127b576001811461128c576112b9565b60ff198616895284890196506112b9565b60008a81526020902060005b868110156112b15781548b820152908501908301611298565b505084890196505b509498975050505050505050565b6040815260006112da6040830185610e19565b90508260208301529392505050565b60008261130657634e487b7160e01b600052601260045260246000fd5b50069056fea2646970667358221220614a2fd724aa8ecdcec1162a7fb20ac2f6055c9fe89e4192ac9fa4b24a8d7c2a64736f6c63430008090033",
  "linkReferences": {},
  "deployedLinkReferences": {}
}