{
  "_format": "hh-sol-artifact-1",
  "contractName": "GroupSplit",
  "sourceName": "contracts/GroupSplit.sol",
  "abi": [
    {
      "inputs": [],
      "stateMutability": "nonpayable",
      "type": "constructor"
    },
    {
      "anonymous": false,
      "inputs": [
        {
          "indexed": true,
          "internalType": "uint256",
          "name": "groupId",
          "type": "uint256"
        },
        {
          "indexed": true,
          "internalType": "address",
          "name": "owner",
          "type": "address"
        },
        {
          "indexed": true,
          "internalType": "string",
          "name": "groupName",
          "type": "string"
        },
        {
          "indexed": false,
          "internalType": "uint256",
          "name": "closingTime",
          "type": "uint256"
        }
      ],
      "name": "logGroupClosed",
      "type": "event"
    },
    {
      "anonymous": false,
      "inputs": [
        {
          "indexed": true,
          "internalType": "uint256",
          "name": "groupId",
          "type": "uint256"
        },
        {
          "indexed": true,
          "internalType": "address",
          "name": "owner",
          "type": "address"
        },
        {
          "indexed": true,
          "internalType": "string",
          "name": "groupName",
          "type": "string"
        },
        {
          "indexed": false,
          "internalType": "uint256",
          "name": "creationTime",
          "type": "uint256"
        }
      ],
      "name": "logGroupCreated",
      "type": "event"
    },
    {
      "anonymous": false,
      "inputs": [
        {
          "indexed": true,
          "internalType": "uint256",
          "name": "groupId",
          "type": "uint256"
        },
        {
          "indexed": true,
          "internalType": "address",
          "name": "participant",
          "type": "address"
        },
        {
          "indexed": false,
          "internalType": "string",
          "name": "nickname",
          "type": "string"
        },
        {
          "indexed": false,
          "internalType": "uint256",
          "name": "deposit",
          "type": "uint256"
        }
      ],
      "name": "logGroupDepositReceived",
      "type": "event"
    },
    {
      "anonymous": false,
      "inputs": [
        {
          "indexed": true,
          "internalType": "uint256",
          "name": "groupId",
          "type": "uint256"
        },
        {
          "indexed": true,
          "internalType": "address",
          "name": "owner",
          "type": "address"
        },
        {
          "indexed": true,
          "internalType": "string",
          "name": "groupName",
          "type": "string"
        },
        {
          "indexed": false,
          "internalType": "uint256",
          "name": "openingTime",
          "type": "uint256"
        }
      ],
      "name": "logGroupOpened",
      "type": "event"
    },
    {
      "anonymous": false,
      "inputs": [
        {
          "indexed": true,
          "internalType": "uint256",
          "name": "groupId",
          "type": "uint256"
        },
        {
          "indexed": false,
          "internalType": "uint256",
          "name": "amountWithdrawn",
          "type": "uint256"
        },
        {
          "indexed": false,
          "internalType": "uint256",
          "name": "time",
          "type": "uint256"
        },
        {
          "indexed": false,
          "internalType": "uint256",
          "name": "totalCollected",
          "type": "uint256"
        },
        {
          "indexed": false,
          "internalType": "uint256",
          "name": "totalWithdrawn",
          "type": "uint256"
        }
      ],
      "name": "logGroupWithdrawal",
      "type": "event"
    },
    {
      "anonymous": false,
      "inputs": [
        {
          "indexed": true,
          "internalType": "uint256",
          "name": "groupId",
          "type": "uint256"
        },
        {
          "indexed": true,
          "internalType": "address",
          "name": "owner",
          "type": "address"
        },
        {
          "indexed": false,
          "internalType": "uint256",
          "name": "amount",
          "type": "uint256"
        }
      ],
      "name": "logWithdrawalFailed",
      "type": "event"
    },
    {
      "inputs": [],
      "name": "activeGroups",
      "outputs": [
        {
          "internalType": "uint256",
          "name": "",
          "type": "uint256"
        }
      ],
      "stateMutability": "view",
      "type": "function"
    },
    {
      "inputs": [
        {
          "internalType": "uint256",
          "name": "_groupId",
          "type": "uint256"
        },
        {
          "internalType": "address",
          "name": "_participantAddress",
          "type": "address"
        },
        {
          "internalType": "string",
          "name": "_nickname",
          "type": "string"
        },
        {
          "internalType": "uint256",
          "name": "_deposit",
          "type": "uint256"
        }
      ],
      "name": "addParticipantToGroup",
      "outputs": [],
      "stateMutability": "nonpayable",
      "type": "function"
    },
    {
      "inputs": [
        {
          "internalType": "string",
          "name": "_groupName",
          "type": "string"
        },
        {
          "internalType": "string",
          "name": "_ownerNickname",
          "type": "string"
        }
      ],
      "name": "createGroup",
      "outputs": [],
      "stateMutability": "nonpayable",
      "type": "function"
    },
    {
      "inputs": [
        {
          "internalType": "uint256",
          "name": "_groupId",
          "type": "uint256"
        },
        {
          "internalType": "string",
          "name": "_nickname",
          "type": "string"
        }
      ],
      "name": "depositToGroup",
      "outputs": [],
      "stateMutability": "payable",
      "type": "function"
    },
    {
      "inputs": [],
      "name": "getActivegroups",
      "outputs": [
        {
          "internalType": "uint256",
          "name": "",
          "type": "uint256"
        }
      ],
      "stateMutability": "view",
      "type": "function"
    },
    {
      "inputs": [],
      "name": "getAllGroupIds",
      "outputs": [
        {
          "internalType": "uint256[]",
          "name": "",
          "type": "uint256[]"
        }
      ],
      "stateMutability": "view",
      "type": "function"
    },
    {
      "inputs": [
        {
          "internalType": "uint256",
          "name": "_groupId",
          "type": "uint256"
        }
      ],
      "name": "getGroupIndexById",
      "outputs": [
        {
          "internalType": "uint256",
          "name": "",
          "type": "uint256"
        }
      ],
      "stateMutability": "view",
      "type": "function"
    },
    {
      "inputs": [
        {
          "internalType": "uint256",
          "name": "_groupId",
          "type": "uint256"
        }
      ],
      "name": "getGroupInfoById",
      "outputs": [
        {
          "internalType": "uint256",
          "name": "",
          "type": "uint256"
        },
        {
          "internalType": "string",
          "name": "",
          "type": "string"
        },
        {
          "internalType": "address",
          "name": "",
          "type": "address"
        },
        {
          "internalType": "string",
          "name": "",
          "type": "string"
        },
        {
          "internalType": "uint256",
          "name": "",
          "type": "uint256"
        },
        {
          "internalType": "bool",
          "name": "",
          "type": "bool"
        },
        {
          "internalType": "uint256",
          "name": "",
          "type": "uint256"
        },
        {
          "internalType": "uint256",
          "name": "",
          "type": "uint256"
        },
        {
          "internalType": "uint256",
          "name": "",
          "type": "uint256"
        },
        {
          "internalType": "address[]",
          "name": "",
          "type": "address[]"
        }
      ],
      "stateMutability": "view",
      "type": "function"
    },
    {
      "inputs": [],
      "name": "getGroupsNum",
      "outputs": [
        {
          "internalType": "uint256",
          "name": "",
          "type": "uint256"
        }
      ],
      "stateMutability": "view",
      "type": "function"
    },
    {
      "inputs": [
        {
          "internalType": "uint256",
          "name": "",
          "type": "uint256"
        }
      ],
      "name": "groupIds",
      "outputs": [
        {
          "internalType": "uint256",
          "name": "",
          "type": "uint256"
        }
      ],
      "stateMutability": "view",
      "type": "function"
    },
    {
      "inputs": [
        {
          "internalType": "uint256",
          "name": "",
          "type": "uint256"
        }
      ],
      "name": "groups",
      "outputs": [
        {
          "internalType": "uint256",
          "name": "groupId",
          "type": "uint256"
        },
        {
          "internalType": "string",
          "name": "groupName",
          "type": "string"
        },
        {
          "internalType": "bool",
          "name": "status",
          "type": "bool"
        },
        {
          "internalType": "uint256",
          "name": "creationTime",
          "type": "uint256"
        },
        {
          "internalType": "address",
          "name": "owner",
          "type": "address"
        },
        {
          "internalType": "string",
          "name": "ownerNickname",
          "type": "string"
        },
        {
          "internalType": "uint256",
          "name": "balance",
          "type": "uint256"
        },
        {
          "internalType": "uint256",
          "name": "totalCollected",
          "type": "uint256"
        },
        {
          "internalType": "uint256",
          "name": "totalWithdrawn",
          "type": "uint256"
        }
      ],
      "stateMutability": "view",
      "type": "function"
    },
    {
      "inputs": [
        {
          "internalType": "uint256",
          "name": "_groupId",
          "type": "uint256"
        }
      ],
      "name": "withdrawFromGroup",
      "outputs": [],
      "stateMutability": "payable",
      "type": "function"
    },
    {
      "stateMutability": "payable",
      "type": "receive"
    }
  ],
  "bytecode": "0x608060405260006003553480156200001657600080fd5b50620000706040518060400160405280600c81526020016b067656e6573697367726f75760a41b8152506040518060400160405280600b81526020016a63727970746f736861726560a81b8152506200007b60201b60201c565b600060035562000468565b600080546001818101835582805260038054600b9093027f290decd9548b62a8d60345a988386fc84ba6bc95484008f6362f93160ef3e56301939192909190620000c79084906200032f565b90915550620000d790506200020f565b81558251620000f0906001830190602086019062000273565b506004810180546001600160a01b0319163317905581516200011c906005830190602085019062000273565b5042600382015560028101805460ff191660019081179091556000600683018190556007830181905560088301819055805490916200015b916200034a565b82546000908152600260205260408082208390558454600180548082018255938190527fb10e2d527612073b26eecdfd717e6a320cf44b4afac2b0732d9fcbe2b7fa0cf69093015551919250620001b69190840190620003a1565b604051908190038120600484015484546003860154845291926001600160a01b0390911691907f8946c268c4725059354ef9b4c2a0ae1a4510e2e45354cb61f70f6ecf7132230f9060200160405180910390a450505050565b6000620f42404244336040516020016200024993929190928352602083019190915260601b6001600160601b031916604082015260540190565b6040516020818303038152906040528051906020012060001c6200026e919062000445565b905090565b828054620002819062000364565b90600052602060002090601f016020900481019282620002a55760008555620002f0565b82601f10620002c057805160ff1916838001178555620002f0565b82800160010185558215620002f0579182015b82811115620002f0578251825591602001919060010190620002d3565b50620002fe92915062000302565b5090565b5b80821115620002fe576000815560010162000303565b634e487b7160e01b600052601160045260246000fd5b6000821982111562000345576200034562000319565b500190565b6000828210156200035f576200035f62000319565b500390565b600181811c908216806200037957607f821691505b602082108114156200039b57634e487b7160e01b600052602260045260246000fd5b50919050565b600080835481600182811c915080831680620003be57607f831692505b6020808410821415620003df57634e487b7160e01b86526022600452602486fd5b818015620003f65760018114620004085762000437565b60ff1986168952848901965062000437565b60008a81526020902060005b868110156200042f5781548b82015290850190830162000414565b505084890196505b509498975050505050505050565b6000826200046357634e487b7160e01b600052601260045260246000fd5b500690565b6112ba80620004786000396000f3fe6080604052600436106100ab5760003560e01c80636d145730116100645780636d1457301461018a57806396324bd4146101aa578063a2a4498b146101df578063c9744950146101f2578063d0e4567e14610212578063f6d87c051461022857600080fd5b80630636f5d4146100b75780631e4a97dd146100db5780632e3dcc06146100fd5780632f14f6c91461011f5780634093d7a1146101555780635d39c56b1461017557600080fd5b366100b257005b600080fd5b3480156100c357600080fd5b506003545b6040519081526020015b60405180910390f35b3480156100e757600080fd5b506100fb6100f6366004610e32565b61023b565b005b34801561010957600080fd5b506101126103c3565b6040516100d29190610e96565b34801561012b57600080fd5b5061013f61013a366004610eda565b61041b565b6040516100d29a99989796959493929190610f40565b34801561016157600080fd5b506100c8610170366004610eda565b610644565b34801561018157600080fd5b506000546100c8565b34801561019657600080fd5b506100c86101a5366004610eda565b610665565b3480156101b657600080fd5b506101ca6101c5366004610eda565b6106cf565b6040516100d299989796959493929190610ff5565b6100fb6101ed366004610eda565b61084c565b3480156101fe57600080fd5b506100fb61020d366004611064565b6109f1565b34801561021e57600080fd5b506100c860035481565b6100fb6102363660046110d1565b610b5c565b600080546001818101835582805260038054600b9093027f290decd9548b62a8d60345a988386fc84ba6bc95484008f6362f93160ef3e56301939192909190610285908490611124565b909155506102939050610c90565b815582516102aa9060018301906020860190610cf6565b506004810180546001600160a01b0319163317905581516102d49060058301906020850190610cf6565b5042600382015560028101805460ff191660019081179091556000600683018190556007830181905560088301819055805490916103119161113c565b82546000908152600260205260408082208390558454600180548082018255938190527fb10e2d527612073b26eecdfd717e6a320cf44b4afac2b0732d9fcbe2b7fa0cf6909301555191925061036a919084019061118e565b604051908190038120600484015484546003860154845291926001600160a01b0390911691907f8946c268c4725059354ef9b4c2a0ae1a4510e2e45354cb61f70f6ecf7132230f9060200160405180910390a450505050565b6060600180548060200260200160405190810160405280929190818152602001828054801561041157602002820191906000526020600020905b8154815260200190600101908083116103fd575b5050505050905090565b60006060600060606000806000806000606060006104388c610665565b9050600080828154811061044e5761044e61122a565b90600052602060002090600b020190508060000154816001018260040160009054906101000a90046001600160a01b03168360050184600301548560020160009054906101000a900460ff16866006015487600701548860080154896009018880546104b990611153565b80601f01602080910402602001604051908101604052809291908181526020018280546104e590611153565b80156105325780601f1061050757610100808354040283529160200191610532565b820191906000526020600020905b81548152906001019060200180831161051557829003601f168201915b5050505050985086805461054590611153565b80601f016020809104026020016040519081016040528092919081815260200182805461057190611153565b80156105be5780601f10610593576101008083540402835291602001916105be565b820191906000526020600020905b8154815290600101906020018083116105a157829003601f168201915b505050505096508080548060200260200160405190810160405280929190818152602001828054801561061a57602002820191906000526020600020905b81546001600160a01b031681526001909101906020018083116105fc575b505050505090509b509b509b509b509b509b509b509b509b509b5050509193959799509193959799565b6001818154811061065457600080fd5b600091825260209091200154905081565b6000818152600260205260408120546106bc5760405162461bcd60e51b815260206004820152601460248201527311dc9bdd5c08191bd95cc81b9bdd08195e1a5cdd60621b60448201526064015b60405180910390fd5b5060009081526002602052604090205490565b600081815481106106df57600080fd5b60009182526020909120600b9091020180546001820180549193509061070490611153565b80601f016020809104026020016040519081016040528092919081815260200182805461073090611153565b801561077d5780601f106107525761010080835404028352916020019161077d565b820191906000526020600020905b81548152906001019060200180831161076057829003601f168201915b505050600284015460038501546004860154600587018054969760ff909416969295506001600160a01b039091169350906107b790611153565b80601f01602080910402602001604051908101604052809291908181526020018280546107e390611153565b80156108305780601f1061080557610100808354040283529160200191610830565b820191906000526020600020905b81548152906001019060200180831161081357829003601f168201915b5050505050908060060154908060070154908060080154905089565b600061085782610665565b9050600080828154811061086d5761086d61122a565b60009182526020909120600b9091020160048101549091506001600160a01b031633146108dc5760405162461bcd60e51b815260206004820152601d60248201527f4f6e6c792067726f7570206f776e65722063616e20776974686472617700000060448201526064016106b3565b600481015460068201546040516000926001600160a01b031691908381818185875af1925050503d806000811461092f576040519150601f19603f3d011682016040523d82523d6000602084013e610934565b606091505b50509050801561099f5760068201805460088401819055600091829055600784015460408051938452426020850152830152606082015284907f58641ce868980aeb6306e3e970c4e4198dcaccaaef04e111d3c34200b747fdbe9060800160405180910390a26109eb565b600482015460068301546040519081526001600160a01b039091169085907fab49030aec719fa86f2138287668534e0d05c4e13cd36669a3f5b8052d327d329060200160405180910390a35b50505050565b60006109fc85610665565b90506000808281548110610a1257610a1261122a565b600091825260208083206001600160a01b038981168552600b9390930201600a81019091526040909220549192501615610a7e576001600160a01b0385166000908152600a8201602052604081206002018054859290610a73908490611124565b90915550610b209050565b604080516060810182526001600160a01b0387811680835260208084018981528486018990526000928352600a8701825294909120835181546001600160a01b03191693169290921782559251805192939192610ae19260018501920190610cf6565b5060409190910151600290910155600981018054600181018255600091825260209091200180546001600160a01b0319166001600160a01b0387161790555b82816006016000828254610b349190611124565b9250508190555082816007016000828254610b4f9190611124565b9091555050505050505050565b816000610b6882610665565b905060008181548110610b7d57610b7d61122a565b600091825260209091206002600b90920201015460ff161515600114610bd75760405162461bcd60e51b815260206004820152600f60248201526e11dc9bdd5c081a5cc818db1bdcd959608a1b60448201526064016106b3565b60003411610c385760405162461bcd60e51b815260206004820152602860248201527f4465706f73697420616d6f756e74206d7573742062652067726561746572207460448201526768616e207a65726f60c01b60648201526084016106b3565b34610c45853386846109f1565b336001600160a01b0316857f061a3a1f9f4c2bac8da4625370b6afa9f9b2f7b7a03b54591754873cc308126c8684604051610c81929190611240565b60405180910390a35050505050565b6000620f4240424433604051602001610cce93929190928352602083019190915260601b6bffffffffffffffffffffffff1916604082015260540190565b6040516020818303038152906040528051906020012060001c610cf19190611262565b905090565b828054610d0290611153565b90600052602060002090601f016020900481019282610d245760008555610d6a565b82601f10610d3d57805160ff1916838001178555610d6a565b82800160010185558215610d6a579182015b82811115610d6a578251825591602001919060010190610d4f565b50610d76929150610d7a565b5090565b5b80821115610d765760008155600101610d7b565b634e487b7160e01b600052604160045260246000fd5b600082601f830112610db657600080fd5b813567ffffffffffffffff80821115610dd157610dd1610d8f565b604051601f8301601f19908116603f01168101908282118183101715610df957610df9610d8f565b81604052838152866020858801011115610e1257600080fd5b836020870160208301376000602085830101528094505050505092915050565b60008060408385031215610e4557600080fd5b823567ffffffffffffffff80821115610e5d57600080fd5b610e6986838701610da5565b93506020850135915080821115610e7f57600080fd5b50610e8c85828601610da5565b9150509250929050565b6020808252825182820181905260009190848201906040850190845b81811015610ece57835183529284019291840191600101610eb2565b50909695505050505050565b600060208284031215610eec57600080fd5b5035919050565b6000815180845260005b81811015610f1957602081850181015186830182015201610efd565b81811115610f2b576000602083870101525b50601f01601f19169290920160200192915050565b60006101408c835260208181850152610f5b8285018e610ef3565b6001600160a01b038d811660408701528582036060870152909250610f80838d610ef3565b92508a608086015289151560a08601528860c08601528760e0860152866101008601528483036101208601528286518085528385019150838801945060005b81811015610fdd578551841683529484019491840191600101610fbf565b5050809450505050509b9a5050505050505050505050565b60006101208b835280602084015261100f8184018c610ef3565b8a15156040850152606084018a90526001600160a01b038916608085015283810360a085015290506110418188610ef3565b60c0840196909652505060e0810192909252610100909101529695505050505050565b6000806000806080858703121561107a57600080fd5b8435935060208501356001600160a01b038116811461109857600080fd5b9250604085013567ffffffffffffffff8111156110b457600080fd5b6110c087828801610da5565b949793965093946060013593505050565b600080604083850312156110e457600080fd5b82359150602083013567ffffffffffffffff81111561110257600080fd5b610e8c85828601610da5565b634e487b7160e01b600052601160045260246000fd5b600082198211156111375761113761110e565b500190565b60008282101561114e5761114e61110e565b500390565b600181811c9082168061116757607f821691505b6020821081141561118857634e487b7160e01b600052602260045260246000fd5b50919050565b600080835481600182811c9150808316806111aa57607f831692505b60208084108214156111ca57634e487b7160e01b86526022600452602486fd5b8180156111de57600181146111ef5761121c565b60ff1986168952848901965061121c565b60008a81526020902060005b868110156112145781548b8201529085019083016111fb565b505084890196505b509498975050505050505050565b634e487b7160e01b600052603260045260246000fd5b6040815260006112536040830185610ef3565b90508260208301529392505050565b60008261127f57634e487b7160e01b600052601260045260246000fd5b50069056fea26469706673582212204e82cfef698197cdf16cddbe992a1aa46c5fc2ea0d7382e613d03e9b9a78c1b264736f6c63430008090033",
  "linkReferences": {},
  "deployedLinkReferences": {}
}