{
  "_format": "hh-sol-artifact-1",
  "contractName": "GroupSplit",
  "sourceName": "contracts/GroupSplit.sol",
  "abi": [
    {
      "inputs": [],
      "stateMutability": "nonpayable",
      "type": "constructor"
    },
    {
      "anonymous": false,
      "inputs": [
        {
          "indexed": true,
          "internalType": "uint256",
          "name": "groupId",
          "type": "uint256"
        },
        {
          "indexed": true,
          "internalType": "address",
          "name": "owner",
          "type": "address"
        },
        {
          "indexed": true,
          "internalType": "string",
          "name": "groupName",
          "type": "string"
        },
        {
          "indexed": false,
          "internalType": "uint256",
          "name": "closingTime",
          "type": "uint256"
        }
      ],
      "name": "logGroupClosed",
      "type": "event"
    },
    {
      "anonymous": false,
      "inputs": [
        {
          "indexed": true,
          "internalType": "uint256",
          "name": "groupId",
          "type": "uint256"
        },
        {
          "indexed": true,
          "internalType": "address",
          "name": "owner",
          "type": "address"
        },
        {
          "indexed": true,
          "internalType": "string",
          "name": "groupName",
          "type": "string"
        },
        {
          "indexed": false,
          "internalType": "uint256",
          "name": "creationTime",
          "type": "uint256"
        }
      ],
      "name": "logGroupCreated",
      "type": "event"
    },
    {
      "anonymous": false,
      "inputs": [
        {
          "indexed": true,
          "internalType": "uint256",
          "name": "groupId",
          "type": "uint256"
        },
        {
          "indexed": true,
          "internalType": "address",
          "name": "participant",
          "type": "address"
        },
        {
          "indexed": false,
          "internalType": "string",
          "name": "nickname",
          "type": "string"
        },
        {
          "indexed": false,
          "internalType": "uint256",
          "name": "deposit",
          "type": "uint256"
        }
      ],
      "name": "logGroupDepositReceived",
      "type": "event"
    },
    {
      "anonymous": false,
      "inputs": [
        {
          "indexed": true,
          "internalType": "uint256",
          "name": "groupId",
          "type": "uint256"
        },
        {
          "indexed": true,
          "internalType": "address",
          "name": "owner",
          "type": "address"
        },
        {
          "indexed": true,
          "internalType": "string",
          "name": "groupName",
          "type": "string"
        },
        {
          "indexed": false,
          "internalType": "uint256",
          "name": "openingTime",
          "type": "uint256"
        }
      ],
      "name": "logGroupOpened",
      "type": "event"
    },
    {
      "anonymous": false,
      "inputs": [
        {
          "indexed": true,
          "internalType": "uint256",
          "name": "groupId",
          "type": "uint256"
        },
        {
          "indexed": false,
          "internalType": "uint256",
          "name": "amountWithdrawn",
          "type": "uint256"
        },
        {
          "indexed": false,
          "internalType": "uint256",
          "name": "time",
          "type": "uint256"
        },
        {
          "indexed": false,
          "internalType": "uint256",
          "name": "totalCollected",
          "type": "uint256"
        },
        {
          "indexed": false,
          "internalType": "uint256",
          "name": "totalWithdrawn",
          "type": "uint256"
        }
      ],
      "name": "logGroupWithdrawal",
      "type": "event"
    },
    {
      "anonymous": false,
      "inputs": [
        {
          "indexed": true,
          "internalType": "uint256",
          "name": "groupId",
          "type": "uint256"
        },
        {
          "indexed": true,
          "internalType": "address",
          "name": "owner",
          "type": "address"
        },
        {
          "indexed": false,
          "internalType": "uint256",
          "name": "amount",
          "type": "uint256"
        }
      ],
      "name": "logWithdrawalFailed",
      "type": "event"
    },
    {
      "inputs": [],
      "name": "activeGroups",
      "outputs": [
        {
          "internalType": "uint256",
          "name": "",
          "type": "uint256"
        }
      ],
      "stateMutability": "view",
      "type": "function"
    },
    {
      "inputs": [
        {
          "internalType": "uint256",
          "name": "_groupId",
          "type": "uint256"
        },
        {
          "internalType": "address",
          "name": "_participantAddress",
          "type": "address"
        },
        {
          "internalType": "string",
          "name": "_nickname",
          "type": "string"
        },
        {
          "internalType": "uint256",
          "name": "_deposit",
          "type": "uint256"
        }
      ],
      "name": "addParticipantToGroup",
      "outputs": [],
      "stateMutability": "nonpayable",
      "type": "function"
    },
    {
      "inputs": [
        {
          "internalType": "uint256",
          "name": "_groupId",
          "type": "uint256"
        }
      ],
      "name": "closeGroup",
      "outputs": [],
      "stateMutability": "nonpayable",
      "type": "function"
    },
    {
      "inputs": [
        {
          "internalType": "string",
          "name": "_groupName",
          "type": "string"
        },
        {
          "internalType": "string",
          "name": "_ownerNickname",
          "type": "string"
        }
      ],
      "name": "createGroup",
      "outputs": [],
      "stateMutability": "nonpayable",
      "type": "function"
    },
    {
      "inputs": [
        {
          "internalType": "uint256",
          "name": "_groupId",
          "type": "uint256"
        },
        {
          "internalType": "string",
          "name": "_nickname",
          "type": "string"
        }
      ],
      "name": "depositToGroup",
      "outputs": [],
      "stateMutability": "payable",
      "type": "function"
    },
    {
      "inputs": [],
      "name": "getActivegroups",
      "outputs": [
        {
          "internalType": "uint256",
          "name": "",
          "type": "uint256"
        }
      ],
      "stateMutability": "view",
      "type": "function"
    },
    {
      "inputs": [],
      "name": "getAllGroupIds",
      "outputs": [
        {
          "internalType": "uint256[]",
          "name": "",
          "type": "uint256[]"
        }
      ],
      "stateMutability": "view",
      "type": "function"
    },
    {
      "inputs": [
        {
          "internalType": "uint256",
          "name": "_groupId",
          "type": "uint256"
        }
      ],
      "name": "getGroupIndexById",
      "outputs": [
        {
          "internalType": "uint256",
          "name": "",
          "type": "uint256"
        }
      ],
      "stateMutability": "view",
      "type": "function"
    },
    {
      "inputs": [
        {
          "internalType": "uint256",
          "name": "_groupId",
          "type": "uint256"
        }
      ],
      "name": "getGroupInfoById",
      "outputs": [
        {
          "internalType": "uint256",
          "name": "",
          "type": "uint256"
        },
        {
          "internalType": "string",
          "name": "",
          "type": "string"
        },
        {
          "internalType": "address",
          "name": "",
          "type": "address"
        },
        {
          "internalType": "string",
          "name": "",
          "type": "string"
        },
        {
          "internalType": "uint256",
          "name": "",
          "type": "uint256"
        },
        {
          "internalType": "uint256",
          "name": "",
          "type": "uint256"
        },
        {
          "internalType": "uint256",
          "name": "",
          "type": "uint256"
        },
        {
          "internalType": "uint256",
          "name": "",
          "type": "uint256"
        },
        {
          "internalType": "uint256",
          "name": "",
          "type": "uint256"
        },
        {
          "internalType": "address[]",
          "name": "",
          "type": "address[]"
        }
      ],
      "stateMutability": "view",
      "type": "function"
    },
    {
      "inputs": [],
      "name": "getGroupsNum",
      "outputs": [
        {
          "internalType": "uint256",
          "name": "",
          "type": "uint256"
        }
      ],
      "stateMutability": "view",
      "type": "function"
    },
    {
      "inputs": [
        {
          "internalType": "uint256",
          "name": "_groupId",
          "type": "uint256"
        },
        {
          "internalType": "address",
          "name": "_participantAddress",
          "type": "address"
        }
      ],
      "name": "getParticipantDetails",
      "outputs": [
        {
          "internalType": "address",
          "name": "participantAddress",
          "type": "address"
        },
        {
          "internalType": "string",
          "name": "nickname",
          "type": "string"
        },
        {
          "internalType": "uint256",
          "name": "totalDeposits",
          "type": "uint256"
        }
      ],
      "stateMutability": "view",
      "type": "function"
    },
    {
      "inputs": [
        {
          "internalType": "uint256",
          "name": "",
          "type": "uint256"
        }
      ],
      "name": "groupIds",
      "outputs": [
        {
          "internalType": "uint256",
          "name": "",
          "type": "uint256"
        }
      ],
      "stateMutability": "view",
      "type": "function"
    },
    {
      "inputs": [
        {
          "internalType": "uint256",
          "name": "",
          "type": "uint256"
        }
      ],
      "name": "groups",
      "outputs": [
        {
          "internalType": "uint256",
          "name": "groupId",
          "type": "uint256"
        },
        {
          "internalType": "string",
          "name": "groupName",
          "type": "string"
        },
        {
          "internalType": "uint256",
          "name": "status",
          "type": "uint256"
        },
        {
          "internalType": "uint256",
          "name": "creationTime",
          "type": "uint256"
        },
        {
          "internalType": "address",
          "name": "owner",
          "type": "address"
        },
        {
          "internalType": "string",
          "name": "ownerNickname",
          "type": "string"
        },
        {
          "internalType": "uint256",
          "name": "balance",
          "type": "uint256"
        },
        {
          "internalType": "uint256",
          "name": "totalCollected",
          "type": "uint256"
        },
        {
          "internalType": "uint256",
          "name": "totalWithdrawn",
          "type": "uint256"
        }
      ],
      "stateMutability": "view",
      "type": "function"
    },
    {
      "inputs": [
        {
          "internalType": "uint256",
          "name": "_groupId",
          "type": "uint256"
        }
      ],
      "name": "withdrawFromGroup",
      "outputs": [],
      "stateMutability": "payable",
      "type": "function"
    }
  ],
  "bytecode": "0x6080604052600060035534801561001557600080fd5b506000805460010181558052611780806100306000396000f3fe6080604052600436106100dd5760003560e01c80636d1457301161007f578063c974495011610059578063c97449501461024c578063d0e4567e1461026c578063f6d87c0514610282578063fe73cf0b1461029557600080fd5b80636d145730146101e457806396324bd414610204578063a2a4498b1461023957600080fd5b80632f14f6c9116100bb5780632f14f6c91461014a57806332bee467146101805780634093d7a1146101af5780635d39c56b146101cf57600080fd5b80630636f5d4146100e25780631e4a97dd146101065780632e3dcc0614610128575b600080fd5b3480156100ee57600080fd5b506003545b6040519081526020015b60405180910390f35b34801561011257600080fd5b50610126610121366004611166565b6102b5565b005b34801561013457600080fd5b5061013d61045e565b6040516100fd91906111ca565b34801561015657600080fd5b5061016a61016536600461120e565b6104b6565b6040516100fd9a99989796959493929190611277565b34801561018c57600080fd5b506101a061019b366004611346565b6106d2565b6040516100fd93929190611372565b3480156101bb57600080fd5b506100f36101ca36600461120e565b610852565b3480156101db57600080fd5b506000546100f3565b3480156101f057600080fd5b506100f36101ff36600461120e565b610873565b34801561021057600080fd5b5061022461021f36600461120e565b6108da565b6040516100fd999897969594939291906113a6565b61012661024736600461120e565b610a53565b34801561025857600080fd5b50610126610267366004611414565b610c85565b34801561027857600080fd5b506100f360035481565b610126610290366004611473565b610e58565b3480156102a157600080fd5b506101266102b036600461120e565b610f76565b600080546001818101835582805260038054600b9093027f290decd9548b62a8d60345a988386fc84ba6bc95484008f6362f93160ef3e563019391929091906102ff9084906114c6565b909155505060005460405161032091859133918691429144916020016114df565b60408051601f19818403018152919052805160209091012081556001810161034884826115c9565b506004810180546001600160a01b031916331790556005810161036b83826115c9565b504260038201556002808201556000600682018190556007820181905560088201819055805461039d90600190611689565b8254600090815260026020526040812082905583546001805480820182559083527fb10e2d527612073b26eecdfd717e6a320cf44b4afac2b0732d9fcbe2b7fa0cf6015583549192506103f4919033908690610c85565b81600101604051610405919061169c565b604051908190038120600484015484546003860154845291926001600160a01b0390911691907f8946c268c4725059354ef9b4c2a0ae1a4510e2e45354cb61f70f6ecf7132230f9060200160405180910390a450505050565b606060018054806020026020016040519081016040528092919081815260200182805480156104ac57602002820191906000526020600020905b815481526020019060010190808311610498575b5050505050905090565b60006060600060606000806000806000606060006104d38c610873565b905060008082815481106104e9576104e9611712565b90600052602060002090600b020190508060000154816001018260040160009054906101000a90046001600160a01b031683600501846003015485600201548660060154876007015488600801548960090188805461054790611540565b80601f016020809104026020016040519081016040528092919081815260200182805461057390611540565b80156105c05780601f10610595576101008083540402835291602001916105c0565b820191906000526020600020905b8154815290600101906020018083116105a357829003601f168201915b505050505098508680546105d390611540565b80601f01602080910402602001604051908101604052809291908181526020018280546105ff90611540565b801561064c5780601f106106215761010080835404028352916020019161064c565b820191906000526020600020905b81548152906001019060200180831161062f57829003601f168201915b50505050509650808054806020026020016040519081016040528092919081815260200182805480156106a857602002820191906000526020600020905b81546001600160a01b0316815260019091019060200180831161068a575b505050505090509b509b509b509b509b509b509b509b509b509b5050509193959799509193959799565b600060606000806106e286610873565b905060008082815481106106f8576106f8611712565b600091825260208083206001600160a01b038a81168552600b9390930201600a8101825260408085208151606081019092528054909416815260018401805492965090939284019161074990611540565b80601f016020809104026020016040519081016040528092919081815260200182805461077590611540565b80156107c25780601f10610797576101008083540402835291602001916107c2565b820191906000526020600020905b8154815290600101906020018083116107a557829003601f168201915b50505091835250506002919091015460209091015280519091506001600160a01b03166108365760405162461bcd60e51b815260206004820152601a60248201527f5061727469636970616e7420646f6573206e6f7420657869737400000000000060448201526064015b60405180910390fd5b8051602082015160409092015190999198509650945050505050565b6001818154811061086257600080fd5b600091825260209091200154905081565b60008181526002602052604081205481036108c75760405162461bcd60e51b815260206004820152601460248201527311dc9bdd5c08191bd95cc81b9bdd08195e1a5cdd60621b604482015260640161082d565b5060009081526002602052604090205490565b600081815481106108ea57600080fd5b60009182526020909120600b9091020180546001820180549193509061090f90611540565b80601f016020809104026020016040519081016040528092919081815260200182805461093b90611540565b80156109885780601f1061095d57610100808354040283529160200191610988565b820191906000526020600020905b81548152906001019060200180831161096b57829003601f168201915b505050600284015460038501546004860154600587018054969793969295506001600160a01b039091169350906109be90611540565b80601f01602080910402602001604051908101604052809291908181526020018280546109ea90611540565b8015610a375780601f10610a0c57610100808354040283529160200191610a37565b820191906000526020600020905b815481529060010190602001808311610a1a57829003601f168201915b5050505050908060060154908060070154908060080154905089565b6000610a5e82610873565b90506000808281548110610a7457610a74611712565b60009182526020909120600b9091020160048101549091506001600160a01b03163314610ae35760405162461bcd60e51b815260206004820152601d60248201527f4f6e6c792067726f7570206f776e65722063616e207769746864726177000000604482015260640161082d565b6000816006015411610b305760405162461bcd60e51b81526020600482015260166024820152754e6f2062616c616e636520746f20776974686472617760501b604482015260640161082d565b60008160060154905080826008016000828254610b4d91906114c6565b909155505060006006830181905560048301546040516001600160a01b039091169083908381818185875af1925050503d8060008114610ba9576040519150601f19603f3d011682016040523d82523d6000602084013e610bae565b606091505b5050905080610c2c5781836006018190555081836008016000828254610bd49190611689565b9091555050600483015460068401546040519081526001600160a01b039091169086907fab49030aec719fa86f2138287668534e0d05c4e13cd36669a3f5b8052d327d32906020015b60405180910390a35050505050565b600783015460088401546040805185815242602082015290810192909252606082015285907f58641ce868980aeb6306e3e970c4e4198dcaccaaef04e111d3c34200b747fdbe9060800160405180910390a25050505050565b6000610c9085610873565b90508460008281548110610ca657610ca6611712565b90600052602060002090600b02016000015414610cfc5760405162461bcd60e51b815260206004820152601460248201527311dc9bdd5c08191bd95cc81b9bdd08195e1a5cdd60621b604482015260640161082d565b6000808281548110610d1057610d10611712565b600091825260208083206001600160a01b038981168552600b9390930201600a81019091526040909220549192501615610d7c576001600160a01b0385166000908152600a8201602052604081206002018054859290610d719084906114c6565b90915550610e1c9050565b604080516060810182526001600160a01b0387811680835260208084018981528486018990526000928352600a8701909152939020825181546001600160a01b03191692169190911781559151909182916001820190610ddc90826115c9565b506040919091015160029091015550600981018054600181018255600091825260209091200180546001600160a01b0319166001600160a01b0387161790555b82816006016000828254610e3091906114c6565b9250508190555082816007016000828254610e4b91906114c6565b9091555050505050505050565b816000610e6482610873565b9050600260008281548110610e7b57610e7b611712565b90600052602060002090600b02016002015414610ecc5760405162461bcd60e51b815260206004820152600f60248201526e11dc9bdd5c081a5cc818db1bdcd959608a1b604482015260640161082d565b60003411610f2d5760405162461bcd60e51b815260206004820152602860248201527f4465706f73697420616d6f756e74206d7573742062652067726561746572207460448201526768616e207a65726f60c01b606482015260840161082d565b34610f3a85338684610c85565b336001600160a01b0316857f061a3a1f9f4c2bac8da4625370b6afa9f9b2f7b7a03b54591754873cc308126c8684604051610c1d929190611728565b6000610f8182610873565b90506000808281548110610f9757610f97611712565b60009182526020909120600b9091020160048101549091506001600160a01b031633146110065760405162461bcd60e51b815260206004820181905260248201527f4f6e6c792067726f7570206f776e65722063616e20636c6f73652067726f7570604482015260640161082d565b6006810154156110585760405162461bcd60e51b815260206004820152601e60248201527f43616e277420636c6f73652067726f757020776974682062616c616e63650000604482015260640161082d565b6001600282018190556040516110709183019061169c565b604051908190038120600483015442835290916001600160a01b039091169085907fef7f39a361482e67067b06732d892d1f1b46010bc24b371bf059d7c0e6d4e82d9060200160405180910390a4505050565b634e487b7160e01b600052604160045260246000fd5b600082601f8301126110ea57600080fd5b813567ffffffffffffffff80821115611105576111056110c3565b604051601f8301601f19908116603f0116810190828211818310171561112d5761112d6110c3565b8160405283815286602085880101111561114657600080fd5b836020870160208301376000602085830101528094505050505092915050565b6000806040838503121561117957600080fd5b823567ffffffffffffffff8082111561119157600080fd5b61119d868387016110d9565b935060208501359150808211156111b357600080fd5b506111c0858286016110d9565b9150509250929050565b6020808252825182820181905260009190848201906040850190845b81811015611202578351835292840192918401916001016111e6565b50909695505050505050565b60006020828403121561122057600080fd5b5035919050565b60005b8381101561124257818101518382015260200161122a565b50506000910152565b60008151808452611263816020860160208601611227565b601f01601f19169290920160200192915050565b60006101408c8352602081818501526112928285018e61124b565b6001600160a01b038d8116604087015285820360608701529092506112b7838d61124b565b92508a60808601528960a08601528860c08601528760e0860152866101008601528483036101208601528286518085528385019150838801945060005b818110156113125785518416835294840194918401916001016112f4565b5050809450505050509b9a5050505050505050505050565b80356001600160a01b038116811461134157600080fd5b919050565b6000806040838503121561135957600080fd5b823591506113696020840161132a565b90509250929050565b6001600160a01b03841681526060602082018190526000906113969083018561124b565b9050826040830152949350505050565b60006101208b83528060208401526113c08184018c61124b565b604084018b9052606084018a90526001600160a01b038916608085015283810360a085015290506113f1818861124b565b60c0840196909652505060e0810192909252610100909101529695505050505050565b6000806000806080858703121561142a57600080fd5b8435935061143a6020860161132a565b9250604085013567ffffffffffffffff81111561145657600080fd5b611462878288016110d9565b949793965093946060013593505050565b6000806040838503121561148657600080fd5b82359150602083013567ffffffffffffffff8111156114a457600080fd5b6111c0858286016110d9565b634e487b7160e01b600052601160045260246000fd5b808201808211156114d9576114d96114b0565b92915050565b600087516114f1818460208c01611227565b606088901b6bffffffffffffffffffffffff1916908301908152865161151e816014840160208b01611227565b0160148101959095525050603483019190915260548201526074019392505050565b600181811c9082168061155457607f821691505b60208210810361157457634e487b7160e01b600052602260045260246000fd5b50919050565b601f8211156115c457600081815260208120601f850160051c810160208610156115a15750805b601f850160051c820191505b818110156115c0578281556001016115ad565b5050505b505050565b815167ffffffffffffffff8111156115e3576115e36110c3565b6115f7816115f18454611540565b8461157a565b602080601f83116001811461162c57600084156116145750858301515b600019600386901b1c1916600185901b1785556115c0565b600085815260208120601f198616915b8281101561165b5788860151825594840194600190910190840161163c565b50858210156116795787850151600019600388901b60f8161c191681555b5050505050600190811b01905550565b818103818111156114d9576114d96114b0565b60008083546116aa81611540565b600182811680156116c257600181146116d757611706565b60ff1984168752821515830287019450611706565b8760005260208060002060005b858110156116fd5781548a8201529084019082016116e4565b50505082870194505b50929695505050505050565b634e487b7160e01b600052603260045260246000fd5b60408152600061173b604083018561124b565b9050826020830152939250505056fea26469706673582212204a027dcdb5a6994754b099e15d895819001cfa7a92a298bb0d75cb667e57783d64736f6c63430008140033",
  "linkReferences": {},
  "deployedLinkReferences": {}
}