{
  "_format": "hh-sol-artifact-1",
  "contractName": "GroupSplit",
  "sourceName": "contracts/GroupSplit.sol",
  "abi": [
    {
      "anonymous": false,
      "inputs": [
        {
          "indexed": true,
          "internalType": "uint256",
          "name": "groupId",
          "type": "uint256"
        },
        {
          "indexed": true,
          "internalType": "address",
          "name": "owner",
          "type": "address"
        },
        {
          "indexed": true,
          "internalType": "string",
          "name": "groupName",
          "type": "string"
        },
        {
          "indexed": false,
          "internalType": "uint256",
          "name": "closingTime",
          "type": "uint256"
        }
      ],
      "name": "logGroupClosed",
      "type": "event"
    },
    {
      "anonymous": false,
      "inputs": [
        {
          "indexed": true,
          "internalType": "uint256",
          "name": "groupId",
          "type": "uint256"
        },
        {
          "indexed": true,
          "internalType": "address",
          "name": "owner",
          "type": "address"
        },
        {
          "indexed": true,
          "internalType": "string",
          "name": "groupName",
          "type": "string"
        },
        {
          "indexed": false,
          "internalType": "uint256",
          "name": "creationTime",
          "type": "uint256"
        }
      ],
      "name": "logGroupCreated",
      "type": "event"
    },
    {
      "anonymous": false,
      "inputs": [
        {
          "indexed": true,
          "internalType": "uint256",
          "name": "groupId",
          "type": "uint256"
        },
        {
          "indexed": true,
          "internalType": "address",
          "name": "owner",
          "type": "address"
        },
        {
          "indexed": true,
          "internalType": "string",
          "name": "groupName",
          "type": "string"
        },
        {
          "indexed": false,
          "internalType": "uint256",
          "name": "openingTime",
          "type": "uint256"
        }
      ],
      "name": "logGroupOpened",
      "type": "event"
    },
    {
      "anonymous": false,
      "inputs": [
        {
          "indexed": true,
          "internalType": "uint256",
          "name": "groupId",
          "type": "uint256"
        },
        {
          "indexed": true,
          "internalType": "address",
          "name": "participant",
          "type": "address"
        },
        {
          "indexed": false,
          "internalType": "string",
          "name": "nickname",
          "type": "string"
        },
        {
          "indexed": false,
          "internalType": "uint256",
          "name": "paymentAmount",
          "type": "uint256"
        }
      ],
      "name": "logGroupPaymentReceived",
      "type": "event"
    },
    {
      "anonymous": false,
      "inputs": [
        {
          "indexed": true,
          "internalType": "uint256",
          "name": "groupId",
          "type": "uint256"
        },
        {
          "indexed": false,
          "internalType": "uint256",
          "name": "amountTransferred",
          "type": "uint256"
        },
        {
          "indexed": false,
          "internalType": "string",
          "name": "time",
          "type": "string"
        },
        {
          "indexed": false,
          "internalType": "uint256",
          "name": "balance",
          "type": "uint256"
        },
        {
          "indexed": false,
          "internalType": "uint256",
          "name": "totalCollected",
          "type": "uint256"
        },
        {
          "indexed": false,
          "internalType": "uint256",
          "name": "totalWithdrawn",
          "type": "uint256"
        }
      ],
      "name": "logGroupWithdrawal",
      "type": "event"
    },
    {
      "anonymous": false,
      "inputs": [
        {
          "indexed": true,
          "internalType": "uint256",
          "name": "groupId",
          "type": "uint256"
        },
        {
          "indexed": true,
          "internalType": "address",
          "name": "owner",
          "type": "address"
        },
        {
          "indexed": false,
          "internalType": "uint256",
          "name": "amount",
          "type": "uint256"
        }
      ],
      "name": "logTransferFailed",
      "type": "event"
    },
    {
      "inputs": [],
      "name": "activeGroups",
      "outputs": [
        {
          "internalType": "uint256",
          "name": "",
          "type": "uint256"
        }
      ],
      "stateMutability": "view",
      "type": "function"
    },
    {
      "inputs": [
        {
          "internalType": "uint256",
          "name": "_groupId",
          "type": "uint256"
        },
        {
          "internalType": "string",
          "name": "nickname",
          "type": "string"
        }
      ],
      "name": "addFunds",
      "outputs": [],
      "stateMutability": "payable",
      "type": "function"
    },
    {
      "inputs": [
        {
          "internalType": "string",
          "name": "_groupName",
          "type": "string"
        },
        {
          "internalType": "string",
          "name": "_ownerNickname",
          "type": "string"
        },
        {
          "internalType": "string",
          "name": "_url",
          "type": "string"
        }
      ],
      "name": "createGroup",
      "outputs": [],
      "stateMutability": "nonpayable",
      "type": "function"
    },
    {
      "inputs": [],
      "name": "getAllGroupIds",
      "outputs": [
        {
          "internalType": "uint256[]",
          "name": "",
          "type": "uint256[]"
        }
      ],
      "stateMutability": "view",
      "type": "function"
    },
    {
      "inputs": [
        {
          "internalType": "uint256",
          "name": "_url",
          "type": "uint256"
        }
      ],
      "name": "getGroupIdByUrl",
      "outputs": [
        {
          "internalType": "uint256",
          "name": "",
          "type": "uint256"
        }
      ],
      "stateMutability": "view",
      "type": "function"
    },
    {
      "inputs": [
        {
          "internalType": "uint256",
          "name": "_groupId",
          "type": "uint256"
        }
      ],
      "name": "getGroupIndexById",
      "outputs": [
        {
          "internalType": "uint256",
          "name": "",
          "type": "uint256"
        }
      ],
      "stateMutability": "view",
      "type": "function"
    },
    {
      "inputs": [
        {
          "internalType": "uint256",
          "name": "_groupId",
          "type": "uint256"
        }
      ],
      "name": "getGroupInfoById",
      "outputs": [
        {
          "internalType": "uint256",
          "name": "",
          "type": "uint256"
        },
        {
          "internalType": "string",
          "name": "",
          "type": "string"
        },
        {
          "internalType": "address",
          "name": "",
          "type": "address"
        },
        {
          "internalType": "string",
          "name": "",
          "type": "string"
        },
        {
          "internalType": "string",
          "name": "",
          "type": "string"
        },
        {
          "internalType": "uint256",
          "name": "",
          "type": "uint256"
        },
        {
          "internalType": "bool",
          "name": "",
          "type": "bool"
        },
        {
          "internalType": "uint256",
          "name": "",
          "type": "uint256"
        },
        {
          "internalType": "uint256",
          "name": "",
          "type": "uint256"
        },
        {
          "internalType": "uint256",
          "name": "",
          "type": "uint256"
        },
        {
          "internalType": "address[]",
          "name": "",
          "type": "address[]"
        }
      ],
      "stateMutability": "view",
      "type": "function"
    },
    {
      "inputs": [],
      "name": "getGroupsNum",
      "outputs": [
        {
          "internalType": "uint256",
          "name": "",
          "type": "uint256"
        }
      ],
      "stateMutability": "view",
      "type": "function"
    },
    {
      "inputs": [
        {
          "internalType": "uint256",
          "name": "",
          "type": "uint256"
        }
      ],
      "name": "groupIds",
      "outputs": [
        {
          "internalType": "uint256",
          "name": "",
          "type": "uint256"
        }
      ],
      "stateMutability": "view",
      "type": "function"
    },
    {
      "inputs": [
        {
          "internalType": "uint256",
          "name": "",
          "type": "uint256"
        }
      ],
      "name": "groups",
      "outputs": [
        {
          "internalType": "uint256",
          "name": "groupId",
          "type": "uint256"
        },
        {
          "internalType": "string",
          "name": "groupName",
          "type": "string"
        },
        {
          "internalType": "bool",
          "name": "status",
          "type": "bool"
        },
        {
          "internalType": "string",
          "name": "url",
          "type": "string"
        },
        {
          "internalType": "uint256",
          "name": "creationTime",
          "type": "uint256"
        },
        {
          "internalType": "address",
          "name": "owner",
          "type": "address"
        },
        {
          "internalType": "string",
          "name": "ownerNickname",
          "type": "string"
        },
        {
          "internalType": "uint256",
          "name": "balance",
          "type": "uint256"
        },
        {
          "internalType": "uint256",
          "name": "totalCollected",
          "type": "uint256"
        },
        {
          "internalType": "uint256",
          "name": "totalWithdrawn",
          "type": "uint256"
        }
      ],
      "stateMutability": "view",
      "type": "function"
    },
    {
      "inputs": [
        {
          "internalType": "uint256",
          "name": "_groupId",
          "type": "uint256"
        }
      ],
      "name": "withdrawFunds",
      "outputs": [],
      "stateMutability": "payable",
      "type": "function"
    }
  ],
  "bytecode": "0x6080604052600060045534801561001557600080fd5b50610fe6806100256000396000f3fe60806040526004361061009c5760003560e01c80634093d7a1116100645780634093d7a1146101485780635d39c56b146101765780636d1457301461018b57806396324bd4146101ab578063b1cacc8e146101e1578063d0e4567e1461020157600080fd5b8063155dd5ee146100a15780632db00354146100b45780632e3dcc06146100c65780632f14f6c9146100f15780633073efdd14610128575b600080fd5b6100b26100af366004610af0565b50565b005b6100b26100c2366004610bac565b5050565b3480156100d257600080fd5b506100db610217565b6040516100e89190610bf3565b60405180910390f35b3480156100fd57600080fd5b5061011161010c366004610af0565b61026f565b6040516100e89b9a99989796959493929190610c84565b34801561013457600080fd5b506100b2610143366004610d4f565b61052d565b34801561015457600080fd5b50610168610163366004610af0565b610710565b6040519081526020016100e8565b34801561018257600080fd5b50600054610168565b34801561019757600080fd5b506101686101a6366004610af0565b610731565b3480156101b757600080fd5b506101cb6101c6366004610af0565b61079d565b6040516100e89a99989796959493929190610dd7565b3480156101ed57600080fd5b506101686101fc366004610af0565b6109ac565b34801561020d57600080fd5b5061016860045481565b6060600180548060200260200160405190810160405280929190818152602001828054801561026557602002820191906000526020600020905b815481526020019060010190808311610251575b5050505050905090565b60006060600060608060008060008060006060600061028d8d610731565b905060008082815481106102a3576102a3610e5c565b90600052602060002090600c020190508060000154816001018260050160009054906101000a90046001600160a01b0316836006018460030185600401548660020160009054906101000a900460ff168760070154886008015489600901548a600a0189805461031290610e72565b80601f016020809104026020016040519081016040528092919081815260200182805461033e90610e72565b801561038b5780601f106103605761010080835404028352916020019161038b565b820191906000526020600020905b81548152906001019060200180831161036e57829003601f168201915b5050505050995087805461039e90610e72565b80601f01602080910402602001604051908101604052809291908181526020018280546103ca90610e72565b80156104175780601f106103ec57610100808354040283529160200191610417565b820191906000526020600020905b8154815290600101906020018083116103fa57829003601f168201915b5050505050975086805461042a90610e72565b80601f016020809104026020016040519081016040528092919081815260200182805461045690610e72565b80156104a35780601f10610478576101008083540402835291602001916104a3565b820191906000526020600020905b81548152906001019060200180831161048657829003601f168201915b50505050509650808054806020026020016040519081016040528092919081815260200182805480156104ff57602002820191906000526020600020905b81546001600160a01b031681526001909101906020018083116104e1575b505050505090509c509c509c509c509c509c509c509c509c509c509c50505091939597999b90929496989a50565b600080546001818101835582805260048054600c9093027f290decd9548b62a8d60345a988386fc84ba6bc95484008f6362f93160ef3e56301939192909190610577908490610ec3565b9091555061058590506109f1565b8155835161059c9060018301906020870190610a57565b506005810180546001600160a01b0319163317905582516105c69060068301906020860190610a57565b5081516105dc9060038301906020850190610a57565b5042600482015560028101805460ff1916600190811790915560006007830181905560088301819055600983018190558054909161061991610edb565b82546000908152600260209081526040808320849055855490519394509260039291610649918488019101610ef2565b60408051601f19818403018152918152815160209283012083529082019290925281016000908120929092558354600180548082018255938190527fb10e2d527612073b26eecdfd717e6a320cf44b4afac2b0732d9fcbe2b7fa0cf690930155516106b691840190610ef2565b604051908190038120600584015484546004860154845291926001600160a01b0390911691907f8946c268c4725059354ef9b4c2a0ae1a4510e2e45354cb61f70f6ecf7132230f9060200160405180910390a45050505050565b6001818154811061072057600080fd5b600091825260209091200154905081565b60008054828252600260205260408220541061078a5760405162461bcd60e51b815260206004820152601460248201527311dc9bdd5c08191bd95cc81b9bdd08195e1a5cdd60621b604482015260640160405180910390fd5b5060009081526002602052604090205490565b600081815481106107ad57600080fd5b60009182526020909120600c909102018054600182018054919350906107d290610e72565b80601f01602080910402602001604051908101604052809291908181526020018280546107fe90610e72565b801561084b5780601f106108205761010080835404028352916020019161084b565b820191906000526020600020905b81548152906001019060200180831161082e57829003601f168201915b5050506002840154600385018054949560ff90921694919350915061086f90610e72565b80601f016020809104026020016040519081016040528092919081815260200182805461089b90610e72565b80156108e85780601f106108bd576101008083540402835291602001916108e8565b820191906000526020600020905b8154815290600101906020018083116108cb57829003601f168201915b5050505060048301546005840154600685018054949592946001600160a01b0390921693509061091790610e72565b80601f016020809104026020016040519081016040528092919081815260200182805461094390610e72565b80156109905780601f1061096557610100808354040283529160200191610990565b820191906000526020600020905b81548152906001019060200180831161097357829003601f168201915b505050505090806007015490806008015490806009015490508a565b600060036000836040516020016109c591815260200190565b604051602081830303815290604052805190602001208152602001908152602001600020549050919050565b6000620f4240424433604051602001610a2f93929190928352602083019190915260601b6bffffffffffffffffffffffff1916604082015260540190565b6040516020818303038152906040528051906020012060001c610a529190610f8e565b905090565b828054610a6390610e72565b90600052602060002090601f016020900481019282610a855760008555610acb565b82601f10610a9e57805160ff1916838001178555610acb565b82800160010185558215610acb579182015b82811115610acb578251825591602001919060010190610ab0565b50610ad7929150610adb565b5090565b5b80821115610ad75760008155600101610adc565b600060208284031215610b0257600080fd5b5035919050565b634e487b7160e01b600052604160045260246000fd5b600082601f830112610b3057600080fd5b813567ffffffffffffffff80821115610b4b57610b4b610b09565b604051601f8301601f19908116603f01168101908282118183101715610b7357610b73610b09565b81604052838152866020858801011115610b8c57600080fd5b836020870160208301376000602085830101528094505050505092915050565b60008060408385031215610bbf57600080fd5b82359150602083013567ffffffffffffffff811115610bdd57600080fd5b610be985828601610b1f565b9150509250929050565b6020808252825182820181905260009190848201906040850190845b81811015610c2b57835183529284019291840191600101610c0f565b50909695505050505050565b6000815180845260005b81811015610c5d57602081850181015186830182015201610c41565b81811115610c6f576000602083870101525b50601f01601f19169290920160200192915050565b60006101608d835260208181850152610c9f8285018f610c37565b6001600160a01b038e811660408701528582036060870152909250610cc4838e610c37565b92508483036080860152610cd8838d610c37565b92508a60a086015289151560c08601528860e086015287610100860152866101208601528483036101408601528286518085528385019150838801945060005b81811015610d36578551841683529484019491840191600101610d18565b5050809450505050509c9b505050505050505050505050565b600080600060608486031215610d6457600080fd5b833567ffffffffffffffff80821115610d7c57600080fd5b610d8887838801610b1f565b94506020860135915080821115610d9e57600080fd5b610daa87838801610b1f565b93506040860135915080821115610dc057600080fd5b50610dcd86828701610b1f565b9150509250925092565b60006101408c8352806020840152610df18184018d610c37565b90508a151560408401528281036060840152610e0d818b610c37565b608084018a90526001600160a01b03891660a085015283810360c08501529050610e378188610c37565b60e0840196909652505061010081019290925261012090910152979650505050505050565b634e487b7160e01b600052603260045260246000fd5b600181811c90821680610e8657607f821691505b60208210811415610ea757634e487b7160e01b600052602260045260246000fd5b50919050565b634e487b7160e01b600052601160045260246000fd5b60008219821115610ed657610ed6610ead565b500190565b600082821015610eed57610eed610ead565b500390565b600080835481600182811c915080831680610f0e57607f831692505b6020808410821415610f2e57634e487b7160e01b86526022600452602486fd5b818015610f425760018114610f5357610f80565b60ff19861689528489019650610f80565b60008a81526020902060005b86811015610f785781548b820152908501908301610f5f565b505084890196505b509498975050505050505050565b600082610fab57634e487b7160e01b600052601260045260246000fd5b50069056fea2646970667358221220a96335186c12667f5a09205c5e0312e7be1906e0d7ecf6e7206406e930be6e8c64736f6c63430008090033",
  "linkReferences": {},
  "deployedLinkReferences": {}
}