{
  "_format": "hh-sol-artifact-1",
  "contractName": "GroupSplit",
  "sourceName": "contracts/GroupSplit.sol",
  "abi": [
    {
      "inputs": [
        {
          "internalType": "address",
          "name": "_usdcTokenAddress",
          "type": "address"
        }
      ],
      "stateMutability": "nonpayable",
      "type": "constructor"
    },
    {
      "anonymous": false,
      "inputs": [
        {
          "indexed": true,
          "internalType": "uint256",
          "name": "groupId",
          "type": "uint256"
        },
        {
          "indexed": true,
          "internalType": "address",
          "name": "owner",
          "type": "address"
        },
        {
          "indexed": true,
          "internalType": "string",
          "name": "groupName",
          "type": "string"
        },
        {
          "indexed": false,
          "internalType": "uint256",
          "name": "closingTime",
          "type": "uint256"
        },
        {
          "indexed": false,
          "internalType": "bool",
          "name": "isUSDC",
          "type": "bool"
        }
      ],
      "name": "logGroupClosed",
      "type": "event"
    },
    {
      "anonymous": false,
      "inputs": [
        {
          "indexed": true,
          "internalType": "uint256",
          "name": "groupId",
          "type": "uint256"
        },
        {
          "indexed": true,
          "internalType": "address",
          "name": "owner",
          "type": "address"
        },
        {
          "indexed": true,
          "internalType": "string",
          "name": "groupName",
          "type": "string"
        },
        {
          "indexed": false,
          "internalType": "uint256",
          "name": "creationTime",
          "type": "uint256"
        },
        {
          "indexed": false,
          "internalType": "bool",
          "name": "isUSDC",
          "type": "bool"
        }
      ],
      "name": "logGroupCreated",
      "type": "event"
    },
    {
      "anonymous": false,
      "inputs": [
        {
          "indexed": true,
          "internalType": "uint256",
          "name": "groupId",
          "type": "uint256"
        },
        {
          "indexed": true,
          "internalType": "address",
          "name": "participant",
          "type": "address"
        },
        {
          "indexed": false,
          "internalType": "string",
          "name": "nickname",
          "type": "string"
        },
        {
          "indexed": false,
          "internalType": "uint256",
          "name": "deposit",
          "type": "uint256"
        },
        {
          "indexed": false,
          "internalType": "bool",
          "name": "isUSDC",
          "type": "bool"
        }
      ],
      "name": "logGroupDepositReceived",
      "type": "event"
    },
    {
      "anonymous": false,
      "inputs": [
        {
          "indexed": true,
          "internalType": "uint256",
          "name": "groupId",
          "type": "uint256"
        },
        {
          "indexed": true,
          "internalType": "address",
          "name": "owner",
          "type": "address"
        },
        {
          "indexed": true,
          "internalType": "string",
          "name": "groupName",
          "type": "string"
        },
        {
          "indexed": false,
          "internalType": "uint256",
          "name": "openingTime",
          "type": "uint256"
        },
        {
          "indexed": false,
          "internalType": "bool",
          "name": "isUSDC",
          "type": "bool"
        }
      ],
      "name": "logGroupOpened",
      "type": "event"
    },
    {
      "anonymous": false,
      "inputs": [
        {
          "indexed": true,
          "internalType": "uint256",
          "name": "groupId",
          "type": "uint256"
        },
        {
          "indexed": false,
          "internalType": "uint256",
          "name": "amountWithdrawn",
          "type": "uint256"
        },
        {
          "indexed": false,
          "internalType": "uint256",
          "name": "time",
          "type": "uint256"
        },
        {
          "indexed": false,
          "internalType": "uint256",
          "name": "totalCollected",
          "type": "uint256"
        },
        {
          "indexed": false,
          "internalType": "uint256",
          "name": "totalWithdrawn",
          "type": "uint256"
        },
        {
          "indexed": false,
          "internalType": "bool",
          "name": "isUSDC",
          "type": "bool"
        }
      ],
      "name": "logGroupWithdrawal",
      "type": "event"
    },
    {
      "anonymous": false,
      "inputs": [
        {
          "indexed": true,
          "internalType": "uint256",
          "name": "groupId",
          "type": "uint256"
        },
        {
          "indexed": true,
          "internalType": "address",
          "name": "owner",
          "type": "address"
        },
        {
          "indexed": false,
          "internalType": "uint256",
          "name": "amount",
          "type": "uint256"
        },
        {
          "indexed": false,
          "internalType": "bool",
          "name": "isUSDC",
          "type": "bool"
        }
      ],
      "name": "logWithdrawalFailed",
      "type": "event"
    },
    {
      "inputs": [],
      "name": "USDC",
      "outputs": [
        {
          "internalType": "contract IERC20",
          "name": "",
          "type": "address"
        }
      ],
      "stateMutability": "view",
      "type": "function"
    },
    {
      "inputs": [],
      "name": "activeGroups",
      "outputs": [
        {
          "internalType": "uint256",
          "name": "",
          "type": "uint256"
        }
      ],
      "stateMutability": "view",
      "type": "function"
    },
    {
      "inputs": [
        {
          "internalType": "uint256",
          "name": "_groupId",
          "type": "uint256"
        },
        {
          "internalType": "address",
          "name": "_participantAddress",
          "type": "address"
        },
        {
          "internalType": "string",
          "name": "_nickname",
          "type": "string"
        },
        {
          "internalType": "uint256",
          "name": "_deposit",
          "type": "uint256"
        }
      ],
      "name": "addParticipantToGroup",
      "outputs": [],
      "stateMutability": "nonpayable",
      "type": "function"
    },
    {
      "inputs": [
        {
          "internalType": "string",
          "name": "_groupName",
          "type": "string"
        },
        {
          "internalType": "string",
          "name": "_ownerNickname",
          "type": "string"
        },
        {
          "internalType": "bool",
          "name": "isUSDC",
          "type": "bool"
        }
      ],
      "name": "createGroup",
      "outputs": [],
      "stateMutability": "nonpayable",
      "type": "function"
    },
    {
      "inputs": [
        {
          "internalType": "uint256",
          "name": "_groupId",
          "type": "uint256"
        },
        {
          "internalType": "string",
          "name": "_nickname",
          "type": "string"
        },
        {
          "internalType": "bool",
          "name": "isUSDCDeposit",
          "type": "bool"
        },
        {
          "internalType": "uint256",
          "name": "usdcAmount",
          "type": "uint256"
        }
      ],
      "name": "depositToGroup",
      "outputs": [],
      "stateMutability": "payable",
      "type": "function"
    },
    {
      "inputs": [],
      "name": "getActivegroups",
      "outputs": [
        {
          "internalType": "uint256",
          "name": "",
          "type": "uint256"
        }
      ],
      "stateMutability": "view",
      "type": "function"
    },
    {
      "inputs": [],
      "name": "getAllGroupIds",
      "outputs": [
        {
          "internalType": "uint256[]",
          "name": "",
          "type": "uint256[]"
        }
      ],
      "stateMutability": "view",
      "type": "function"
    },
    {
      "inputs": [
        {
          "internalType": "uint256",
          "name": "_groupId",
          "type": "uint256"
        }
      ],
      "name": "getGroupIndexById",
      "outputs": [
        {
          "internalType": "uint256",
          "name": "",
          "type": "uint256"
        }
      ],
      "stateMutability": "view",
      "type": "function"
    },
    {
      "inputs": [
        {
          "internalType": "uint256",
          "name": "_groupId",
          "type": "uint256"
        }
      ],
      "name": "getGroupInfoById",
      "outputs": [
        {
          "internalType": "uint256",
          "name": "",
          "type": "uint256"
        },
        {
          "internalType": "string",
          "name": "",
          "type": "string"
        },
        {
          "internalType": "bool",
          "name": "",
          "type": "bool"
        },
        {
          "internalType": "address",
          "name": "",
          "type": "address"
        },
        {
          "internalType": "string",
          "name": "",
          "type": "string"
        },
        {
          "internalType": "uint256",
          "name": "",
          "type": "uint256"
        },
        {
          "internalType": "uint256",
          "name": "",
          "type": "uint256"
        },
        {
          "internalType": "uint256",
          "name": "",
          "type": "uint256"
        },
        {
          "internalType": "uint256",
          "name": "",
          "type": "uint256"
        },
        {
          "internalType": "uint256",
          "name": "",
          "type": "uint256"
        },
        {
          "internalType": "address[]",
          "name": "",
          "type": "address[]"
        }
      ],
      "stateMutability": "view",
      "type": "function"
    },
    {
      "inputs": [],
      "name": "getGroupsNum",
      "outputs": [
        {
          "internalType": "uint256",
          "name": "",
          "type": "uint256"
        }
      ],
      "stateMutability": "view",
      "type": "function"
    },
    {
      "inputs": [
        {
          "internalType": "uint256",
          "name": "_groupId",
          "type": "uint256"
        },
        {
          "internalType": "address",
          "name": "_participantAddress",
          "type": "address"
        }
      ],
      "name": "getParticipantDetails",
      "outputs": [
        {
          "internalType": "address",
          "name": "participantAddress",
          "type": "address"
        },
        {
          "internalType": "string",
          "name": "nickname",
          "type": "string"
        },
        {
          "internalType": "uint256",
          "name": "totalDeposits",
          "type": "uint256"
        }
      ],
      "stateMutability": "view",
      "type": "function"
    },
    {
      "inputs": [
        {
          "internalType": "uint256",
          "name": "",
          "type": "uint256"
        }
      ],
      "name": "groupIds",
      "outputs": [
        {
          "internalType": "uint256",
          "name": "",
          "type": "uint256"
        }
      ],
      "stateMutability": "view",
      "type": "function"
    },
    {
      "inputs": [
        {
          "internalType": "uint256",
          "name": "",
          "type": "uint256"
        }
      ],
      "name": "groups",
      "outputs": [
        {
          "internalType": "uint256",
          "name": "groupId",
          "type": "uint256"
        },
        {
          "internalType": "string",
          "name": "groupName",
          "type": "string"
        },
        {
          "internalType": "bool",
          "name": "isUSDC",
          "type": "bool"
        },
        {
          "internalType": "uint256",
          "name": "status",
          "type": "uint256"
        },
        {
          "internalType": "uint256",
          "name": "creationTime",
          "type": "uint256"
        },
        {
          "internalType": "address",
          "name": "owner",
          "type": "address"
        },
        {
          "internalType": "string",
          "name": "ownerNickname",
          "type": "string"
        },
        {
          "internalType": "uint256",
          "name": "balance",
          "type": "uint256"
        },
        {
          "internalType": "uint256",
          "name": "totalCollected",
          "type": "uint256"
        },
        {
          "internalType": "uint256",
          "name": "totalWithdrawn",
          "type": "uint256"
        }
      ],
      "stateMutability": "view",
      "type": "function"
    },
    {
      "inputs": [
        {
          "internalType": "uint256",
          "name": "_groupId",
          "type": "uint256"
        }
      ],
      "name": "withdrawFromGroup",
      "outputs": [],
      "stateMutability": "payable",
      "type": "function"
    }
  ],
  "bytecode": "0x6080604052600060035534801561001557600080fd5b50604051611b06380380611b0683398101604081905261003491610064565b6000805460010181558052600480546001600160a01b0319166001600160a01b0392909216919091179055610094565b60006020828403121561007657600080fd5b81516001600160a01b038116811461008d57600080fd5b9392505050565b611a63806100a36000396000f3fe6080604052600436106100dd5760003560e01c806389a302711161007f578063a30013e111610059578063a30013e114610266578063c974495014610286578063d0e4567e146102a6578063f35ea5d0146102bc57600080fd5b806389a30271146101e357806396324bd41461021b578063a2a4498b1461025157600080fd5b806332bee467116100bb57806332bee4671461015f5780634093d7a11461018e5780635d39c56b146101ae5780636d145730146101c357600080fd5b80630636f5d4146100e25780632e3dcc06146101065780632f14f6c914610128575b600080fd5b3480156100ee57600080fd5b506003545b6040519081526020015b60405180910390f35b34801561011257600080fd5b5061011b6102cf565b6040516100fd91906112d9565b34801561013457600080fd5b5061014861014336600461131d565b610327565b6040516100fd9b9a99989796959493929190611386565b34801561016b57600080fd5b5061017f61017a36600461145f565b61055a565b6040516100fd9392919061148b565b34801561019a57600080fd5b506100f36101a936600461131d565b6106da565b3480156101ba57600080fd5b506000546100f3565b3480156101cf57600080fd5b506100f36101de36600461131d565b6106fb565b3480156101ef57600080fd5b50600454610203906001600160a01b031681565b6040516001600160a01b0390911681526020016100fd565b34801561022757600080fd5b5061023b61023636600461131d565b610762565b6040516100fd9a999897969594939291906114bf565b61026461025f36600461131d565b6108e4565b005b34801561027257600080fd5b506102646102813660046115eb565b610cc6565b34801561029257600080fd5b506102646102a1366004611663565b610e86565b3480156102b257600080fd5b506100f360035481565b6102646102ca3660046116c2565b611025565b6060600180548060200260200160405190810160405280929190818152602001828054801561031d57602002820191906000526020600020905b815481526020019060010190808311610309575b5050505050905090565b6000606060008060606000806000806000606060006103458d6106fb565b9050600080828154811061035b5761035b611723565b90600052602060002090600c020190508060000154816001018260020160009054906101000a900460ff168360050160009054906101000a90046001600160a01b031684600601856004015486600301548760070154886008015489600901548a600a018980546103cb90611739565b80601f01602080910402602001604051908101604052809291908181526020018280546103f790611739565b80156104445780601f1061041957610100808354040283529160200191610444565b820191906000526020600020905b81548152906001019060200180831161042757829003601f168201915b5050505050995086805461045790611739565b80601f016020809104026020016040519081016040528092919081815260200182805461048390611739565b80156104d05780601f106104a5576101008083540402835291602001916104d0565b820191906000526020600020905b8154815290600101906020018083116104b357829003601f168201915b505050505096508080548060200260200160405190810160405280929190818152602001828054801561052c57602002820191906000526020600020905b81546001600160a01b0316815260019091019060200180831161050e575b505050505090509c509c509c509c509c509c509c509c509c509c509c50505091939597999b90929496989a50565b6000606060008061056a866106fb565b9050600080828154811061058057610580611723565b600091825260208083206001600160a01b038a81168552600c9390930201600b810182526040808520815160608101909252805490941681526001840180549296509093928401916105d190611739565b80601f01602080910402602001604051908101604052809291908181526020018280546105fd90611739565b801561064a5780601f1061061f5761010080835404028352916020019161064a565b820191906000526020600020905b81548152906001019060200180831161062d57829003601f168201915b50505091835250506002919091015460209091015280519091506001600160a01b03166106be5760405162461bcd60e51b815260206004820152601a60248201527f5061727469636970616e7420646f6573206e6f7420657869737400000000000060448201526064015b60405180910390fd5b8051602082015160409092015190999198509650945050505050565b600181815481106106ea57600080fd5b600091825260209091200154905081565b600081815260026020526040812054810361074f5760405162461bcd60e51b815260206004820152601460248201527311dc9bdd5c08191bd95cc81b9bdd08195e1a5cdd60621b60448201526064016106b5565b5060009081526002602052604090205490565b6000818154811061077257600080fd5b60009182526020909120600c9091020180546001820180549193509061079790611739565b80601f01602080910402602001604051908101604052809291908181526020018280546107c390611739565b80156108105780601f106107e557610100808354040283529160200191610810565b820191906000526020600020905b8154815290600101906020018083116107f357829003601f168201915b5050506002840154600385015460048601546005870154600688018054979860ff909516979396509194506001600160a01b0316929161084f90611739565b80601f016020809104026020016040519081016040528092919081815260200182805461087b90611739565b80156108c85780601f1061089d576101008083540402835291602001916108c8565b820191906000526020600020905b8154815290600101906020018083116108ab57829003601f168201915b505050505090806007015490806008015490806009015490508a565b60006108ef826106fb565b9050600080828154811061090557610905611723565b60009182526020909120600c9091020160058101549091506001600160a01b031633146109745760405162461bcd60e51b815260206004820152601d60248201527f4f6e6c792067726f7570206f776e65722063616e20776974686472617700000060448201526064016106b5565b60008160070154116109c15760405162461bcd60e51b81526020600482015260166024820152754e6f2062616c616e636520746f20776974686472617760501b60448201526064016106b5565b60008082600701549050808360090160008282546109df9190611789565b909155505060006007840155600283015460ff1615610ac05760048054600585015460405163a9059cbb60e01b81526001600160a01b039182169381019390935260248301849052169063a9059cbb906044016020604051808303816000875af1158015610a51573d6000803e3d6000fd5b505050506040513d601f19601f82011682018060405250810190610a7591906117a2565b915081610abb5760405162461bcd60e51b81526020600482015260146024820152731554d110c8151c985b9cd9995c8819985a5b195960621b60448201526064016106b5565b610b5d565b60058301546040516001600160a01b03909116908290600081818185875af1925050503d8060008114610b0f576040519150601f19603f3d011682016040523d82523d6000602084013e610b14565b606091505b50508092505081610b5d5760405162461bcd60e51b815260206004820152601360248201527211551208151c985b9cd9995c8819985a5b1959606a1b60448201526064016106b5565b81610be65780836007018190555080836009016000828254610b7f91906117c6565b90915550506005830154600784015460028501546040805192835260ff909116151560208301526001600160a01b039092169187917f2f78437c72aa947f251fe01f835b4450a48d4b480aed48c6ec52096b66bcf995910160405180910390a35050505050565b600160038401556008830154600984015460028501546040805185815242602082015290810193909352606083019190915260ff161515608082015285907f4737f4b5f110339198b10ac9c9ecc84dda24e5e07af201b6228e352bf22b80789060a00160405180910390a282600101604051610c6291906117d9565b604080519182900382206005860154600287015442855260ff161515602085015290926001600160a01b039091169188917f258a2e08c90ae0f3b8822777e4a046207be1faf120cf603acd32c2b82427765291015b60405180910390a45050505050565b600080546001818101835582805260038054600c9093027f290decd9548b62a8d60345a988386fc84ba6bc95484008f6362f93160ef3e56301939192909190610d10908490611789565b9091555050600054604051610d31918691339187914291449160200161184f565b60408051601f198184030181529190528051602090910120815560018101610d5985826118fb565b506005810180546001600160a01b0319163317905560068101610d7c84826118fb565b504260048201556002600382018190556000600783018190556008830181905560098301819055908201805460ff19168415151790558054610dc0906001906117c6565b8254600090815260026020526040812082905583546001805480820182559083527fb10e2d527612073b26eecdfd717e6a320cf44b4afac2b0732d9fcbe2b7fa0cf601558354919250610e17919033908790610e86565b81600101604051610e2891906117d9565b60408051918290038220600585015485546004870154600288015490865260ff161515602086015291936001600160a01b03909116927f349b4d94306c01936126a1bde7b3c123a28136a2c761880ad044f5cade7a5a4d9101610cb7565b6000610e91856106fb565b90508460008281548110610ea757610ea7611723565b90600052602060002090600c02016000015414610efd5760405162461bcd60e51b815260206004820152601460248201527311dc9bdd5c08191bd95cc81b9bdd08195e1a5cdd60621b60448201526064016106b5565b6000808281548110610f1157610f11611723565b600091825260208083206001600160a01b038981168552600c9390930201600b81019091526040909220549192501615610f7d576001600160a01b0385166000908152600b8201602052604081206002018054859290610f72908490611789565b9091555061101d9050565b604080516060810182526001600160a01b0387811680835260208084018981528486018990526000928352600b8701909152939020825181546001600160a01b03191692169190911781559151909182916001820190610fdd90826118fb565b506040919091015160029091015550600a81018054600181018255600091825260209091200180546001600160a01b0319166001600160a01b0387161790555b505050505050565b836000611031826106fb565b905060026000828154811061104857611048611723565b90600052602060002090600c020160030154146110995760405162461bcd60e51b815260206004820152600f60248201526e11dc9bdd5c081a5cc818db1bdcd959608a1b60448201526064016106b5565b60006110a4876106fb565b905060008082815481106110ba576110ba611723565b600091825260209091206002600c909202019081015490915060ff161515861515146111345760405162461bcd60e51b815260206004820152602360248201527f496e76616c6964206465706f736974207479706520666f72207468697320677260448201526206f75760ec1b60648201526084016106b5565b60008615611222576000861161115c5760405162461bcd60e51b81526004016106b5906119bb565b600480546040516323b872dd60e01b81523392810192909252306024830152604482018890526001600160a01b0316906323b872dd906064016020604051808303816000875af11580156111b4573d6000803e3d6000fd5b505050506040513d601f19601f820116820180604052508101906111d891906117a2565b61121b5760405162461bcd60e51b81526020600482015260146024820152731554d110c8151c985b9cd9995c8819985a5b195960621b60448201526064016106b5565b5084611245565b600034116112425760405162461bcd60e51b81526004016106b5906119bb565b50345b61125189338a84610e86565b808260070160008282546112659190611789565b92505081905550808260080160008282546112809190611789565b9091555050600282015460405133918b917fb5493b1023d3022b165a5630e4e5d5368e76adb463e90c2020a7a3d3b31606b8916112c6918d91879160ff90911690611a03565b60405180910390a3505050505050505050565b6020808252825182820181905260009190848201906040850190845b81811015611311578351835292840192918401916001016112f5565b50909695505050505050565b60006020828403121561132f57600080fd5b5035919050565b60005b83811015611351578181015183820152602001611339565b50506000910152565b60008151808452611372816020860160208601611336565b601f01601f19169290920160200192915050565b60006101608d8352602081818501526113a18285018f61135a565b8d151560408601526001600160a01b038d8116606087015285820360808701529092506113ce838d61135a565b92508a60a08601528960c08601528860e086015287610100860152866101208601528483036101408601528286518085528385019150838801945060005b8181101561142a57855184168352948401949184019160010161140c565b5050809450505050509c9b505050505050505050505050565b80356001600160a01b038116811461145a57600080fd5b919050565b6000806040838503121561147257600080fd5b8235915061148260208401611443565b90509250929050565b6001600160a01b03841681526060602082018190526000906114af9083018561135a565b9050826040830152949350505050565b60006101408c83528060208401526114d98184018d61135a565b8b15156040850152606084018b9052608084018a90526001600160a01b03891660a085015283810360c08501529050611512818861135a565b60e0840196909652505061010081019290925261012090910152979650505050505050565b634e487b7160e01b600052604160045260246000fd5b600082601f83011261155e57600080fd5b813567ffffffffffffffff8082111561157957611579611537565b604051601f8301601f19908116603f011681019082821181831017156115a1576115a1611537565b816040528381528660208588010111156115ba57600080fd5b836020870160208301376000602085830101528094505050505092915050565b80151581146115e857600080fd5b50565b60008060006060848603121561160057600080fd5b833567ffffffffffffffff8082111561161857600080fd5b6116248783880161154d565b9450602086013591508082111561163a57600080fd5b506116478682870161154d565b9250506040840135611658816115da565b809150509250925092565b6000806000806080858703121561167957600080fd5b8435935061168960208601611443565b9250604085013567ffffffffffffffff8111156116a557600080fd5b6116b18782880161154d565b949793965093946060013593505050565b600080600080608085870312156116d857600080fd5b84359350602085013567ffffffffffffffff8111156116f657600080fd5b6117028782880161154d565b9350506040850135611713816115da565b9396929550929360600135925050565b634e487b7160e01b600052603260045260246000fd5b600181811c9082168061174d57607f821691505b60208210810361176d57634e487b7160e01b600052602260045260246000fd5b50919050565b634e487b7160e01b600052601160045260246000fd5b8082018082111561179c5761179c611773565b92915050565b6000602082840312156117b457600080fd5b81516117bf816115da565b9392505050565b8181038181111561179c5761179c611773565b60008083546117e781611739565b600182811680156117ff576001811461181457611843565b60ff1984168752821515830287019450611843565b8760005260208060002060005b8581101561183a5781548a820152908401908201611821565b50505082870194505b50929695505050505050565b60008751611861818460208c01611336565b606088901b6bffffffffffffffffffffffff1916908301908152865161188e816014840160208b01611336565b0160148101959095525050603483019190915260548201526074019392505050565b601f8211156118f657600081815260208120601f850160051c810160208610156118d75750805b601f850160051c820191505b8181101561101d578281556001016118e3565b505050565b815167ffffffffffffffff81111561191557611915611537565b611929816119238454611739565b846118b0565b602080601f83116001811461195e57600084156119465750858301515b600019600386901b1c1916600185901b17855561101d565b600085815260208120601f198616915b8281101561198d5788860151825594840194600190910190840161196e565b50858210156119ab5787850151600019600388901b60f8161c191681555b5050505050600190811b01905550565b60208082526028908201527f4465706f73697420616d6f756e74206d7573742062652067726561746572207460408201526768616e207a65726f60c01b606082015260800190565b606081526000611a16606083018661135a565b60208301949094525090151560409091015291905056fea26469706673582212200eed56bc2ca5c00b7b896a0ea90cb5844ced89d6e1d8f67a166c6634d19a1bc364736f6c63430008140033",
  "linkReferences": {},
  "deployedLinkReferences": {}
}