{
  "_format": "hh-sol-artifact-1",
  "contractName": "GroupSplit",
  "sourceName": "contracts/GroupSplit.sol",
  "abi": [
    {
      "inputs": [
        {
          "internalType": "address",
          "name": "_usdcTokenAddress",
          "type": "address"
        }
      ],
      "stateMutability": "nonpayable",
      "type": "constructor"
    },
    {
      "anonymous": false,
      "inputs": [
        {
          "indexed": true,
          "internalType": "uint256",
          "name": "groupId",
          "type": "uint256"
        },
        {
          "indexed": true,
          "internalType": "address",
          "name": "owner",
          "type": "address"
        },
        {
          "indexed": true,
          "internalType": "string",
          "name": "groupName",
          "type": "string"
        },
        {
          "indexed": false,
          "internalType": "uint256",
          "name": "closingTime",
          "type": "uint256"
        },
        {
          "indexed": false,
          "internalType": "bool",
          "name": "isUSDC",
          "type": "bool"
        }
      ],
      "name": "logGroupClosed",
      "type": "event"
    },
    {
      "anonymous": false,
      "inputs": [
        {
          "indexed": true,
          "internalType": "uint256",
          "name": "groupId",
          "type": "uint256"
        },
        {
          "indexed": true,
          "internalType": "address",
          "name": "owner",
          "type": "address"
        },
        {
          "indexed": true,
          "internalType": "string",
          "name": "groupName",
          "type": "string"
        },
        {
          "indexed": false,
          "internalType": "uint256",
          "name": "creationTime",
          "type": "uint256"
        },
        {
          "indexed": false,
          "internalType": "bool",
          "name": "isUSDC",
          "type": "bool"
        }
      ],
      "name": "logGroupCreated",
      "type": "event"
    },
    {
      "anonymous": false,
      "inputs": [
        {
          "indexed": true,
          "internalType": "uint256",
          "name": "groupId",
          "type": "uint256"
        },
        {
          "indexed": true,
          "internalType": "address",
          "name": "participant",
          "type": "address"
        },
        {
          "indexed": false,
          "internalType": "string",
          "name": "nickname",
          "type": "string"
        },
        {
          "indexed": false,
          "internalType": "uint256",
          "name": "deposit",
          "type": "uint256"
        },
        {
          "indexed": false,
          "internalType": "bool",
          "name": "isUSDC",
          "type": "bool"
        }
      ],
      "name": "logGroupDepositReceived",
      "type": "event"
    },
    {
      "anonymous": false,
      "inputs": [
        {
          "indexed": true,
          "internalType": "uint256",
          "name": "groupId",
          "type": "uint256"
        },
        {
          "indexed": true,
          "internalType": "address",
          "name": "owner",
          "type": "address"
        },
        {
          "indexed": true,
          "internalType": "string",
          "name": "groupName",
          "type": "string"
        },
        {
          "indexed": false,
          "internalType": "uint256",
          "name": "openingTime",
          "type": "uint256"
        },
        {
          "indexed": false,
          "internalType": "bool",
          "name": "isUSDC",
          "type": "bool"
        }
      ],
      "name": "logGroupOpened",
      "type": "event"
    },
    {
      "anonymous": false,
      "inputs": [
        {
          "indexed": true,
          "internalType": "uint256",
          "name": "groupId",
          "type": "uint256"
        },
        {
          "indexed": false,
          "internalType": "uint256",
          "name": "amountWithdrawn",
          "type": "uint256"
        },
        {
          "indexed": false,
          "internalType": "uint256",
          "name": "time",
          "type": "uint256"
        },
        {
          "indexed": false,
          "internalType": "uint256",
          "name": "totalCollected",
          "type": "uint256"
        },
        {
          "indexed": false,
          "internalType": "uint256",
          "name": "totalWithdrawn",
          "type": "uint256"
        },
        {
          "indexed": false,
          "internalType": "bool",
          "name": "isUSDC",
          "type": "bool"
        }
      ],
      "name": "logGroupWithdrawal",
      "type": "event"
    },
    {
      "anonymous": false,
      "inputs": [
        {
          "indexed": true,
          "internalType": "uint256",
          "name": "groupId",
          "type": "uint256"
        },
        {
          "indexed": true,
          "internalType": "address",
          "name": "owner",
          "type": "address"
        },
        {
          "indexed": false,
          "internalType": "uint256",
          "name": "amount",
          "type": "uint256"
        },
        {
          "indexed": false,
          "internalType": "bool",
          "name": "isUSDC",
          "type": "bool"
        }
      ],
      "name": "logWithdrawalFailed",
      "type": "event"
    },
    {
      "inputs": [],
      "name": "USDC",
      "outputs": [
        {
          "internalType": "contract IERC20",
          "name": "",
          "type": "address"
        }
      ],
      "stateMutability": "view",
      "type": "function"
    },
    {
      "inputs": [],
      "name": "activeGroups",
      "outputs": [
        {
          "internalType": "uint256",
          "name": "",
          "type": "uint256"
        }
      ],
      "stateMutability": "view",
      "type": "function"
    },
    {
      "inputs": [
        {
          "internalType": "string",
          "name": "_groupName",
          "type": "string"
        },
        {
          "internalType": "string",
          "name": "_ownerNickname",
          "type": "string"
        },
        {
          "internalType": "bool",
          "name": "isUSDC",
          "type": "bool"
        }
      ],
      "name": "createGroup",
      "outputs": [],
      "stateMutability": "nonpayable",
      "type": "function"
    },
    {
      "inputs": [
        {
          "internalType": "uint256",
          "name": "_groupId",
          "type": "uint256"
        },
        {
          "internalType": "string",
          "name": "_nickname",
          "type": "string"
        },
        {
          "internalType": "bool",
          "name": "isUSDCDeposit",
          "type": "bool"
        },
        {
          "internalType": "uint256",
          "name": "usdcAmount",
          "type": "uint256"
        }
      ],
      "name": "depositToGroup",
      "outputs": [],
      "stateMutability": "payable",
      "type": "function"
    },
    {
      "inputs": [],
      "name": "getActivegroups",
      "outputs": [
        {
          "internalType": "uint256",
          "name": "",
          "type": "uint256"
        }
      ],
      "stateMutability": "view",
      "type": "function"
    },
    {
      "inputs": [],
      "name": "getAllGroupIds",
      "outputs": [
        {
          "internalType": "uint256[]",
          "name": "",
          "type": "uint256[]"
        }
      ],
      "stateMutability": "view",
      "type": "function"
    },
    {
      "inputs": [
        {
          "internalType": "uint256",
          "name": "_groupId",
          "type": "uint256"
        }
      ],
      "name": "getGroupInfoById",
      "outputs": [
        {
          "internalType": "uint256",
          "name": "",
          "type": "uint256"
        },
        {
          "internalType": "string",
          "name": "",
          "type": "string"
        },
        {
          "internalType": "bool",
          "name": "",
          "type": "bool"
        },
        {
          "internalType": "address",
          "name": "",
          "type": "address"
        },
        {
          "internalType": "string",
          "name": "",
          "type": "string"
        },
        {
          "internalType": "uint256",
          "name": "",
          "type": "uint256"
        },
        {
          "internalType": "uint256",
          "name": "",
          "type": "uint256"
        },
        {
          "internalType": "uint256",
          "name": "",
          "type": "uint256"
        },
        {
          "internalType": "uint256",
          "name": "",
          "type": "uint256"
        },
        {
          "internalType": "uint256",
          "name": "",
          "type": "uint256"
        },
        {
          "internalType": "address[]",
          "name": "",
          "type": "address[]"
        }
      ],
      "stateMutability": "view",
      "type": "function"
    },
    {
      "inputs": [],
      "name": "getGroupsNum",
      "outputs": [
        {
          "internalType": "uint256",
          "name": "",
          "type": "uint256"
        }
      ],
      "stateMutability": "view",
      "type": "function"
    },
    {
      "inputs": [
        {
          "internalType": "uint256",
          "name": "_groupId",
          "type": "uint256"
        },
        {
          "internalType": "address",
          "name": "_participantAddress",
          "type": "address"
        }
      ],
      "name": "getParticipantDetails",
      "outputs": [
        {
          "internalType": "address",
          "name": "participantAddress",
          "type": "address"
        },
        {
          "internalType": "string",
          "name": "nickname",
          "type": "string"
        },
        {
          "internalType": "uint256",
          "name": "totalDeposits",
          "type": "uint256"
        },
        {
          "internalType": "uint256",
          "name": "lastDeposited",
          "type": "uint256"
        }
      ],
      "stateMutability": "view",
      "type": "function"
    },
    {
      "inputs": [
        {
          "internalType": "uint256",
          "name": "",
          "type": "uint256"
        }
      ],
      "name": "groupIds",
      "outputs": [
        {
          "internalType": "uint256",
          "name": "",
          "type": "uint256"
        }
      ],
      "stateMutability": "view",
      "type": "function"
    },
    {
      "inputs": [
        {
          "internalType": "uint256",
          "name": "",
          "type": "uint256"
        }
      ],
      "name": "groups",
      "outputs": [
        {
          "internalType": "uint256",
          "name": "groupId",
          "type": "uint256"
        },
        {
          "internalType": "string",
          "name": "groupName",
          "type": "string"
        },
        {
          "internalType": "bool",
          "name": "isUSDC",
          "type": "bool"
        },
        {
          "internalType": "uint256",
          "name": "status",
          "type": "uint256"
        },
        {
          "internalType": "uint256",
          "name": "creationTime",
          "type": "uint256"
        },
        {
          "internalType": "address",
          "name": "owner",
          "type": "address"
        },
        {
          "internalType": "string",
          "name": "ownerNickname",
          "type": "string"
        },
        {
          "internalType": "uint256",
          "name": "balance",
          "type": "uint256"
        },
        {
          "internalType": "uint256",
          "name": "totalCollected",
          "type": "uint256"
        },
        {
          "internalType": "uint256",
          "name": "totalWithdrawn",
          "type": "uint256"
        }
      ],
      "stateMutability": "view",
      "type": "function"
    },
    {
      "inputs": [
        {
          "internalType": "uint256",
          "name": "_groupId",
          "type": "uint256"
        }
      ],
      "name": "withdrawFromGroup",
      "outputs": [],
      "stateMutability": "payable",
      "type": "function"
    }
  ],
  "bytecode": "0x6080604052600060035534801561001557600080fd5b50604051611ab9380380611ab983398101604081905261003491610064565b6000805460010181558052600480546001600160a01b0319166001600160a01b0392909216919091179055610094565b60006020828403121561007657600080fd5b81516001600160a01b038116811461008d57600080fd5b9392505050565b611a16806100a36000396000f3fe6080604052600436106100a75760003560e01c806389a302711161006457806389a302711461018e57806396324bd4146101c6578063a2a4498b146101fc578063a30013e114610211578063d0e4567e14610231578063f35ea5d01461024757600080fd5b80630636f5d4146100ac5780632e3dcc06146100d05780632f14f6c9146100f257806332bee467146101295780634093d7a1146101595780635d39c56b14610179575b600080fd5b3480156100b857600080fd5b506003545b6040519081526020015b60405180910390f35b3480156100dc57600080fd5b506100e561025a565b6040516100c791906112f4565b3480156100fe57600080fd5b5061011261010d366004611338565b6102b2565b6040516100c79b9a999897969594939291906113a1565b34801561013557600080fd5b5061014961014436600461145e565b6104e5565b6040516100c7949392919061149a565b34801561016557600080fd5b506100bd610174366004611338565b610678565b34801561018557600080fd5b506000546100bd565b34801561019a57600080fd5b506004546101ae906001600160a01b031681565b6040516001600160a01b0390911681526020016100c7565b3480156101d257600080fd5b506101e66101e1366004611338565b610699565b6040516100c79a999897969594939291906114d1565b61020f61020a366004611338565b61081b565b005b34801561021d57600080fd5b5061020f61022c3660046115fd565b610bfd565b34801561023d57600080fd5b506100bd60035481565b61020f610255366004611675565b610dbd565b606060018054806020026020016040519081016040528092919081815260200182805480156102a857602002820191906000526020600020905b815481526020019060010190808311610294575b5050505050905090565b6000606060008060606000806000806000606060006102d08d6110bf565b905060008082815481106102e6576102e66116d6565b90600052602060002090600c020190508060000154816001018260020160009054906101000a900460ff168360050160009054906101000a90046001600160a01b031684600601856004015486600301548760070154886008015489600901548a600a01898054610356906116ec565b80601f0160208091040260200160405190810160405280929190818152602001828054610382906116ec565b80156103cf5780601f106103a4576101008083540402835291602001916103cf565b820191906000526020600020905b8154815290600101906020018083116103b257829003601f168201915b505050505099508680546103e2906116ec565b80601f016020809104026020016040519081016040528092919081815260200182805461040e906116ec565b801561045b5780601f106104305761010080835404028352916020019161045b565b820191906000526020600020905b81548152906001019060200180831161043e57829003601f168201915b50505050509650808054806020026020016040519081016040528092919081815260200182805480156104b757602002820191906000526020600020905b81546001600160a01b03168152600190910190602001808311610499575b505050505090509c509c509c509c509c509c509c509c509c509c509c50505091939597999b90929496989a50565b6000606060008060006104f7876110bf565b9050600080828154811061050d5761050d6116d6565b600091825260208083206001600160a01b038b81168552600c9390930201600b8101825260408085208151608081019092528054909416815260018401805492965090939284019161055e906116ec565b80601f016020809104026020016040519081016040528092919081815260200182805461058a906116ec565b80156105d75780601f106105ac576101008083540402835291602001916105d7565b820191906000526020600020905b8154815290600101906020018083116105ba57829003601f168201915b50505091835250506002820154602082015260039091015460409091015280519091506001600160a01b03166106545760405162461bcd60e51b815260206004820152601a60248201527f5061727469636970616e7420646f6573206e6f7420657869737400000000000060448201526064015b60405180910390fd5b805160208201516040830151606090930151919b909a509198509650945050505050565b6001818154811061068857600080fd5b600091825260209091200154905081565b600081815481106106a957600080fd5b60009182526020909120600c909102018054600182018054919350906106ce906116ec565b80601f01602080910402602001604051908101604052809291908181526020018280546106fa906116ec565b80156107475780601f1061071c57610100808354040283529160200191610747565b820191906000526020600020905b81548152906001019060200180831161072a57829003601f168201915b5050506002840154600385015460048601546005870154600688018054979860ff909516979396509194506001600160a01b03169291610786906116ec565b80601f01602080910402602001604051908101604052809291908181526020018280546107b2906116ec565b80156107ff5780601f106107d4576101008083540402835291602001916107ff565b820191906000526020600020905b8154815290600101906020018083116107e257829003601f168201915b505050505090806007015490806008015490806009015490508a565b6000610826826110bf565b9050600080828154811061083c5761083c6116d6565b60009182526020909120600c9091020160058101549091506001600160a01b031633146108ab5760405162461bcd60e51b815260206004820152601d60248201527f4f6e6c792067726f7570206f776e65722063616e207769746864726177000000604482015260640161064b565b60008160070154116108f85760405162461bcd60e51b81526020600482015260166024820152754e6f2062616c616e636520746f20776974686472617760501b604482015260640161064b565b6000808260070154905080836009016000828254610916919061173c565b909155505060006007840155600283015460ff16156109f75760048054600585015460405163a9059cbb60e01b81526001600160a01b039182169381019390935260248301849052169063a9059cbb906044016020604051808303816000875af1158015610988573d6000803e3d6000fd5b505050506040513d601f19601f820116820180604052508101906109ac9190611755565b9150816109f25760405162461bcd60e51b81526020600482015260146024820152731554d110c8151c985b9cd9995c8819985a5b195960621b604482015260640161064b565b610a94565b60058301546040516001600160a01b03909116908290600081818185875af1925050503d8060008114610a46576040519150601f19603f3d011682016040523d82523d6000602084013e610a4b565b606091505b50508092505081610a945760405162461bcd60e51b815260206004820152601360248201527211551208151c985b9cd9995c8819985a5b1959606a1b604482015260640161064b565b81610b1d5780836007018190555080836009016000828254610ab69190611779565b90915550506005830154600784015460028501546040805192835260ff909116151560208301526001600160a01b039092169187917f2f78437c72aa947f251fe01f835b4450a48d4b480aed48c6ec52096b66bcf995910160405180910390a35050505050565b600160038401556008830154600984015460028501546040805185815242602082015290810193909352606083019190915260ff161515608082015285907f4737f4b5f110339198b10ac9c9ecc84dda24e5e07af201b6228e352bf22b80789060a00160405180910390a282600101604051610b99919061178c565b604080519182900382206005860154600287015442855260ff161515602085015290926001600160a01b039091169188917f258a2e08c90ae0f3b8822777e4a046207be1faf120cf603acd32c2b82427765291015b60405180910390a45050505050565b600080546001818101835582805260038054600c9093027f290decd9548b62a8d60345a988386fc84ba6bc95484008f6362f93160ef3e56301939192909190610c4790849061173c565b9091555050600054604051610c689186913391879142914491602001611802565b60408051601f198184030181529190528051602090910120815560018101610c9085826118ae565b506005810180546001600160a01b0319163317905560068101610cb384826118ae565b504260048201556002600382018190556000600783018190556008830181905560098301819055908201805460ff19168415151790558054610cf790600190611779565b8254600090815260026020526040812082905583546001805480820182559083527fb10e2d527612073b26eecdfd717e6a320cf44b4afac2b0732d9fcbe2b7fa0cf601558354919250610d4e919033908790611126565b81600101604051610d5f919061178c565b60408051918290038220600585015485546004870154600288015490865260ff161515602086015291936001600160a01b03909116927f349b4d94306c01936126a1bde7b3c123a28136a2c761880ad044f5cade7a5a4d9101610bee565b836000610dc9826110bf565b9050600260008281548110610de057610de06116d6565b90600052602060002090600c02016003015414610e315760405162461bcd60e51b815260206004820152600f60248201526e11dc9bdd5c081a5cc818db1bdcd959608a1b604482015260640161064b565b6000610e3c876110bf565b90506000808281548110610e5257610e526116d6565b600091825260209091206002600c909202019081015490915060ff16151586151514610ecc5760405162461bcd60e51b815260206004820152602360248201527f496e76616c6964206465706f736974207479706520666f72207468697320677260448201526206f75760ec1b606482015260840161064b565b600086156110085760008611610ef45760405162461bcd60e51b815260040161064b9061196e565b3415610f425760405162461bcd60e51b815260206004820152601760248201527f4e6f2065746865722073686f756c642062652073656e74000000000000000000604482015260640161064b565b600480546040516323b872dd60e01b81523392810192909252306024830152604482018890526001600160a01b0316906323b872dd906064016020604051808303816000875af1158015610f9a573d6000803e3d6000fd5b505050506040513d601f19601f82011682018060405250810190610fbe9190611755565b6110015760405162461bcd60e51b81526020600482015260146024820152731554d110c8151c985b9cd9995c8819985a5b195960621b604482015260640161064b565b508461102b565b600034116110285760405162461bcd60e51b815260040161064b9061196e565b50345b61103789338a84611126565b8082600701600082825461104b919061173c565b9250508190555080826008016000828254611066919061173c565b9091555050600282015460405133918b917fb5493b1023d3022b165a5630e4e5d5368e76adb463e90c2020a7a3d3b31606b8916110ac918d91879160ff909116906119b6565b60405180910390a3505050505050505050565b60008181526002602052604081205481036111135760405162461bcd60e51b815260206004820152601460248201527311dc9bdd5c08191bd95cc81b9bdd08195e1a5cdd60621b604482015260640161064b565b5060009081526002602052604090205490565b6000611131856110bf565b90508460008281548110611147576111476116d6565b90600052602060002090600c0201600001541461119d5760405162461bcd60e51b815260206004820152601460248201527311dc9bdd5c08191bd95cc81b9bdd08195e1a5cdd60621b604482015260640161064b565b60008082815481106111b1576111b16116d6565b600091825260208083206001600160a01b038981168552600c9390930201600b8101909152604090922054919250161561123d576001600160a01b0385166000908152600b820160205260408120600201805485929061121290849061173c565b90915550506001600160a01b0385166000908152600b820160205260409020426003909101556112ec565b604080516080810182526001600160a01b0387811680835260208084018981528486018990524260608601526000928352600b8701909152939020825181546001600160a01b031916921691909117815591519091829160018201906112a390826118ae565b506040820151600282015560609091015160039091015550600a81018054600181018255600091825260209091200180546001600160a01b0319166001600160a01b0387161790555b505050505050565b6020808252825182820181905260009190848201906040850190845b8181101561132c57835183529284019291840191600101611310565b50909695505050505050565b60006020828403121561134a57600080fd5b5035919050565b60005b8381101561136c578181015183820152602001611354565b50506000910152565b6000815180845261138d816020860160208601611351565b601f01601f19169290920160200192915050565b60006101608d8352602081818501526113bc8285018f611375565b8d151560408601526001600160a01b038d8116606087015285820360808701529092506113e9838d611375565b92508a60a08601528960c08601528860e086015287610100860152866101208601528483036101408601528286518085528385019150838801945060005b81811015611445578551841683529484019491840191600101611427565b5050809450505050509c9b505050505050505050505050565b6000806040838503121561147157600080fd5b8235915060208301356001600160a01b038116811461148f57600080fd5b809150509250929050565b6001600160a01b03851681526080602082018190526000906114be90830186611375565b6040830194909452506060015292915050565b60006101408c83528060208401526114eb8184018d611375565b8b15156040850152606084018b9052608084018a90526001600160a01b03891660a085015283810360c085015290506115248188611375565b60e0840196909652505061010081019290925261012090910152979650505050505050565b634e487b7160e01b600052604160045260246000fd5b600082601f83011261157057600080fd5b813567ffffffffffffffff8082111561158b5761158b611549565b604051601f8301601f19908116603f011681019082821181831017156115b3576115b3611549565b816040528381528660208588010111156115cc57600080fd5b836020870160208301376000602085830101528094505050505092915050565b80151581146115fa57600080fd5b50565b60008060006060848603121561161257600080fd5b833567ffffffffffffffff8082111561162a57600080fd5b6116368783880161155f565b9450602086013591508082111561164c57600080fd5b506116598682870161155f565b925050604084013561166a816115ec565b809150509250925092565b6000806000806080858703121561168b57600080fd5b84359350602085013567ffffffffffffffff8111156116a957600080fd5b6116b58782880161155f565b93505060408501356116c6816115ec565b9396929550929360600135925050565b634e487b7160e01b600052603260045260246000fd5b600181811c9082168061170057607f821691505b60208210810361172057634e487b7160e01b600052602260045260246000fd5b50919050565b634e487b7160e01b600052601160045260246000fd5b8082018082111561174f5761174f611726565b92915050565b60006020828403121561176757600080fd5b8151611772816115ec565b9392505050565b8181038181111561174f5761174f611726565b600080835461179a816116ec565b600182811680156117b257600181146117c7576117f6565b60ff19841687528215158302870194506117f6565b8760005260208060002060005b858110156117ed5781548a8201529084019082016117d4565b50505082870194505b50929695505050505050565b60008751611814818460208c01611351565b606088901b6bffffffffffffffffffffffff19169083019081528651611841816014840160208b01611351565b0160148101959095525050603483019190915260548201526074019392505050565b601f8211156118a957600081815260208120601f850160051c8101602086101561188a5750805b601f850160051c820191505b818110156112ec57828155600101611896565b505050565b815167ffffffffffffffff8111156118c8576118c8611549565b6118dc816118d684546116ec565b84611863565b602080601f83116001811461191157600084156118f95750858301515b600019600386901b1c1916600185901b1785556112ec565b600085815260208120601f198616915b8281101561194057888601518255948401946001909101908401611921565b508582101561195e5787850151600019600388901b60f8161c191681555b5050505050600190811b01905550565b60208082526028908201527f4465706f73697420616d6f756e74206d7573742062652067726561746572207460408201526768616e207a65726f60c01b606082015260800190565b6060815260006119c96060830186611375565b60208301949094525090151560409091015291905056fea2646970667358221220175c8d69577361e5457c4e40615f20964399ff1d7600a7bde437534f39854b3164736f6c63430008140033",
  "linkReferences": {},
  "deployedLinkReferences": {}
}