{
  "_format": "hh-sol-artifact-1",
  "contractName": "ExpenseSplitter",
  "sourceName": "contracts/ExpenseSplitter.sol",
  "abi": [
    {
      "anonymous": false,
      "inputs": [
        {
          "indexed": true,
          "internalType": "uint256",
          "name": "expenseId",
          "type": "uint256"
        },
        {
          "indexed": true,
          "internalType": "address",
          "name": "approver",
          "type": "address"
        },
        {
          "indexed": false,
          "internalType": "uint256",
          "name": "amount",
          "type": "uint256"
        }
      ],
      "name": "LogExpenseApproved",
      "type": "event"
    },
    {
      "anonymous": false,
      "inputs": [
        {
          "indexed": true,
          "internalType": "uint256",
          "name": "expenseId",
          "type": "uint256"
        },
        {
          "indexed": false,
          "internalType": "uint256",
          "name": "amountTransferred",
          "type": "uint256"
        }
      ],
      "name": "LogExpenseCompleted",
      "type": "event"
    },
    {
      "anonymous": false,
      "inputs": [
        {
          "indexed": true,
          "internalType": "uint256",
          "name": "index",
          "type": "uint256"
        },
        {
          "indexed": true,
          "internalType": "address",
          "name": "creator",
          "type": "address"
        },
        {
          "indexed": false,
          "internalType": "uint256",
          "name": "amount",
          "type": "uint256"
        },
        {
          "indexed": false,
          "internalType": "address[]",
          "name": "splitAddresses",
          "type": "address[]"
        }
      ],
      "name": "LogExpenseCreated",
      "type": "event"
    },
    {
      "anonymous": false,
      "inputs": [
        {
          "indexed": true,
          "internalType": "uint256",
          "name": "expenseId",
          "type": "uint256"
        },
        {
          "indexed": true,
          "internalType": "address",
          "name": "creator",
          "type": "address"
        },
        {
          "indexed": false,
          "internalType": "uint256",
          "name": "amount",
          "type": "uint256"
        }
      ],
      "name": "LogTransferFailed",
      "type": "event"
    },
    {
      "inputs": [],
      "name": "activeExpenses",
      "outputs": [
        {
          "internalType": "uint256",
          "name": "",
          "type": "uint256"
        }
      ],
      "stateMutability": "view",
      "type": "function"
    },
    {
      "inputs": [
        {
          "internalType": "uint256",
          "name": "_expenseId",
          "type": "uint256"
        }
      ],
      "name": "approveExpense",
      "outputs": [],
      "stateMutability": "payable",
      "type": "function"
    },
    {
      "inputs": [],
      "name": "cashFlow",
      "outputs": [
        {
          "internalType": "uint256",
          "name": "",
          "type": "uint256"
        }
      ],
      "stateMutability": "view",
      "type": "function"
    },
    {
      "inputs": [
        {
          "internalType": "uint256",
          "name": "_amount",
          "type": "uint256"
        },
        {
          "internalType": "address[]",
          "name": "_splitAddresses",
          "type": "address[]"
        }
      ],
      "name": "createExpense",
      "outputs": [],
      "stateMutability": "nonpayable",
      "type": "function"
    },
    {
      "inputs": [
        {
          "internalType": "uint256",
          "name": "",
          "type": "uint256"
        }
      ],
      "name": "expenses",
      "outputs": [
        {
          "internalType": "address",
          "name": "creator",
          "type": "address"
        },
        {
          "internalType": "uint256",
          "name": "amount",
          "type": "uint256"
        },
        {
          "internalType": "bool",
          "name": "completed",
          "type": "bool"
        },
        {
          "internalType": "uint256",
          "name": "collectedAmount",
          "type": "uint256"
        }
      ],
      "stateMutability": "view",
      "type": "function"
    },
    {
      "inputs": [],
      "name": "getActiveExpenses",
      "outputs": [
        {
          "internalType": "uint256",
          "name": "",
          "type": "uint256"
        }
      ],
      "stateMutability": "view",
      "type": "function"
    },
    {
      "inputs": [
        {
          "internalType": "uint256",
          "name": "_index",
          "type": "uint256"
        }
      ],
      "name": "getExpense",
      "outputs": [
        {
          "internalType": "address",
          "name": "",
          "type": "address"
        },
        {
          "internalType": "uint256",
          "name": "",
          "type": "uint256"
        },
        {
          "internalType": "address[]",
          "name": "",
          "type": "address[]"
        },
        {
          "internalType": "bool",
          "name": "",
          "type": "bool"
        },
        {
          "internalType": "bool[]",
          "name": "",
          "type": "bool[]"
        },
        {
          "internalType": "uint256",
          "name": "",
          "type": "uint256"
        }
      ],
      "stateMutability": "view",
      "type": "function"
    },
    {
      "inputs": [],
      "name": "getExpensesLength",
      "outputs": [
        {
          "internalType": "uint256",
          "name": "",
          "type": "uint256"
        }
      ],
      "stateMutability": "view",
      "type": "function"
    },
    {
      "stateMutability": "payable",
      "type": "receive"
    }
  ],
  "bytecode": "0x60806040526000600155600060025534801561001a57600080fd5b506114498061002a6000396000f3fe60806040526004361061007f5760003560e01c8063af4afe0a1161004e578063af4afe0a1461014c578063b579e7f11461018c578063e23b5bec146101a8578063e3af51cd146101d357610086565b80633014d4891461008b578063662a1233146100b4578063735e5db6146100df57806394e52dfc1461012157610086565b3661008657005b600080fd5b34801561009757600080fd5b506100b260048036038101906100ad9190610de3565b6101fe565b005b3480156100c057600080fd5b506100c9610309565b6040516100d69190610e4e565b60405180910390f35b3480156100eb57600080fd5b5061010660048036038101906101019190610e69565b610315565b6040516101189695949392919061103c565b60405180910390f35b34801561012d57600080fd5b50610136610552565b6040516101439190610e4e565b60405180910390f35b34801561015857600080fd5b50610173600480360381019061016e9190610e69565b610558565b60405161018394939291906110ab565b60405180910390f35b6101a660048036038101906101a19190610e69565b6105c5565b005b3480156101b457600080fd5b506101bd610b29565b6040516101ca9190610e4e565b60405180910390f35b3480156101df57600080fd5b506101e8610b2f565b6040516101f59190610e4e565b60405180910390f35b6000808054905090506000806001816001815401808255809150500390600052602060002090600602019050338160000160006101000a81548173ffffffffffffffffffffffffffffffffffffffff021916908373ffffffffffffffffffffffffffffffffffffffff1602179055508381600101819055508281600201908051906020019061028e929190610b3b565b506000816005018190555060018060008282546102ab919061111f565b925050819055503373ffffffffffffffffffffffffffffffffffffffff16827f824eb3e7dda5ce351ec7b252f76d2836f46c6b709b6f6e8de1dab80ce948d18286866040516102fb929190611153565b60405180910390a350505050565b60008080549050905090565b6000806060600060606000806000888154811061033557610334611183565b5b906000526020600020906006020190506000816002018054905067ffffffffffffffff81111561036857610367610c42565b5b6040519080825280602002602001820160405280156103965781602001602082028036833780820191505090505b50905060005b826002018054905081101561046c578260030160008460020183815481106103c7576103c6611183565b5b9060005260206000200160009054906101000a900473ffffffffffffffffffffffffffffffffffffffff1673ffffffffffffffffffffffffffffffffffffffff1673ffffffffffffffffffffffffffffffffffffffff16815260200190815260200160002060009054906101000a900460ff1682828151811061044d5761044c611183565b5b602002602001019015159081151581525050808060010191505061039c565b508160000160009054906101000a900473ffffffffffffffffffffffffffffffffffffffff168260010154836002018460040160009054906101000a900460ff168486600501548380548060200260200160405190810160405280929190818152602001828054801561053457602002820191906000526020600020905b8160009054906101000a900473ffffffffffffffffffffffffffffffffffffffff1673ffffffffffffffffffffffffffffffffffffffff16815260200190600101908083116104ea575b50505050509350975097509750975097509750505091939550919395565b60015481565b6000818154811061056857600080fd5b90600052602060002090600602016000915090508060000160009054906101000a900473ffffffffffffffffffffffffffffffffffffffff16908060010154908060040160009054906101000a900460ff16908060050154905084565b60008082815481106105da576105d9611183565b5b906000526020600020906006020190508060040160009054906101000a900460ff161561063c576040517f08c379a00000000000000000000000000000000000000000000000000000000081526004016106339061120f565b60405180910390fd5b8060030160003373ffffffffffffffffffffffffffffffffffffffff1673ffffffffffffffffffffffffffffffffffffffff16815260200190815260200160002060009054906101000a900460ff16156106cb576040517f08c379a00000000000000000000000000000000000000000000000000000000081526004016106c29061127b565b60405180910390fd5b6000341161070e576040517f08c379a0000000000000000000000000000000000000000000000000000000008152600401610705906112e7565b60405180910390fd5b6000805b82600201805490508110156107aa573373ffffffffffffffffffffffffffffffffffffffff1683600201828154811061074e5761074d611183565b5b9060005260206000200160009054906101000a900473ffffffffffffffffffffffffffffffffffffffff1673ffffffffffffffffffffffffffffffffffffffff160361079d57600191506107aa565b8080600101915050610712565b50806107eb576040517f08c379a00000000000000000000000000000000000000000000000000000000081526004016107e290611379565b60405180910390fd5b60018260030160003373ffffffffffffffffffffffffffffffffffffffff1673ffffffffffffffffffffffffffffffffffffffff16815260200190815260200160002060006101000a81548160ff02191690831515021790555034826005016000828254610859919061111f565b925050819055503460026000828254610872919061111f565b925050819055503373ffffffffffffffffffffffffffffffffffffffff16837fb7eb06caae3f4145fad5d1f3617d854f9c04b02c7135cd23e178453c6701acdc346040516108c09190610e4e565b60405180910390a360006001905060005b8360020180549050811015610989578360030160008560020183815481106108fc576108fb611183565b5b9060005260206000200160009054906101000a900473ffffffffffffffffffffffffffffffffffffffff1673ffffffffffffffffffffffffffffffffffffffff1673ffffffffffffffffffffffffffffffffffffffff16815260200190815260200160002060009054906101000a900460ff1661097c5760009150610989565b80806001019150506108d1565b508015610b235760018360040160006101000a81548160ff02191690831515021790555060018060008282546109bf9190611399565b925050819055506000836005015490506000846005018190555060008460000160009054906101000a900473ffffffffffffffffffffffffffffffffffffffff1673ffffffffffffffffffffffffffffffffffffffff1682604051610a23906113fe565b60006040518083038185875af1925050503d8060008114610a60576040519150601f19603f3d011682016040523d82523d6000602084013e610a65565b606091505b505090508015610aac57857f37830338d9ed156f5f52d3d7077d2a3afdc0b9dce9d3279b94b004c081436b6083604051610a9f9190610e4e565b60405180910390a2610b20565b8460000160009054906101000a900473ffffffffffffffffffffffffffffffffffffffff1673ffffffffffffffffffffffffffffffffffffffff16867f3ab7c38c040cba24621cf00dbe3dd5823495cac6b3a66bc5f456b1fbe67948a584604051610b179190610e4e565b60405180910390a35b50505b50505050565b60025481565b60008080549050905090565b828054828255906000526020600020908101928215610bb4579160200282015b82811115610bb35782518260006101000a81548173ffffffffffffffffffffffffffffffffffffffff021916908373ffffffffffffffffffffffffffffffffffffffff16021790555091602001919060010190610b5b565b5b509050610bc19190610bc5565b5090565b5b80821115610bde576000816000905550600101610bc6565b5090565b6000604051905090565b600080fd5b600080fd5b6000819050919050565b610c0981610bf6565b8114610c1457600080fd5b50565b600081359050610c2681610c00565b92915050565b600080fd5b6000601f19601f8301169050919050565b7f4e487b7100000000000000000000000000000000000000000000000000000000600052604160045260246000fd5b610c7a82610c31565b810181811067ffffffffffffffff82111715610c9957610c98610c42565b5b80604052505050565b6000610cac610be2565b9050610cb88282610c71565b919050565b600067ffffffffffffffff821115610cd857610cd7610c42565b5b602082029050602081019050919050565b600080fd5b600073ffffffffffffffffffffffffffffffffffffffff82169050919050565b6000610d1982610cee565b9050919050565b610d2981610d0e565b8114610d3457600080fd5b50565b600081359050610d4681610d20565b92915050565b6000610d5f610d5a84610cbd565b610ca2565b90508083825260208201905060208402830185811115610d8257610d81610ce9565b5b835b81811015610dab5780610d978882610d37565b845260208401935050602081019050610d84565b5050509392505050565b600082601f830112610dca57610dc9610c2c565b5b8135610dda848260208601610d4c565b91505092915050565b60008060408385031215610dfa57610df9610bec565b5b6000610e0885828601610c17565b925050602083013567ffffffffffffffff811115610e2957610e28610bf1565b5b610e3585828601610db5565b9150509250929050565b610e4881610bf6565b82525050565b6000602082019050610e636000830184610e3f565b92915050565b600060208284031215610e7f57610e7e610bec565b5b6000610e8d84828501610c17565b91505092915050565b610e9f81610d0e565b82525050565b600081519050919050565b600082825260208201905092915050565b6000819050602082019050919050565b610eda81610d0e565b82525050565b6000610eec8383610ed1565b60208301905092915050565b6000602082019050919050565b6000610f1082610ea5565b610f1a8185610eb0565b9350610f2583610ec1565b8060005b83811015610f56578151610f3d8882610ee0565b9750610f4883610ef8565b925050600181019050610f29565b5085935050505092915050565b60008115159050919050565b610f7881610f63565b82525050565b600081519050919050565b600082825260208201905092915050565b6000819050602082019050919050565b610fb381610f63565b82525050565b6000610fc58383610faa565b60208301905092915050565b6000602082019050919050565b6000610fe982610f7e565b610ff38185610f89565b9350610ffe83610f9a565b8060005b8381101561102f5781516110168882610fb9565b975061102183610fd1565b925050600181019050611002565b5085935050505092915050565b600060c0820190506110516000830189610e96565b61105e6020830188610e3f565b81810360408301526110708187610f05565b905061107f6060830186610f6f565b81810360808301526110918185610fde565b90506110a060a0830184610e3f565b979650505050505050565b60006080820190506110c06000830187610e96565b6110cd6020830186610e3f565b6110da6040830185610f6f565b6110e76060830184610e3f565b95945050505050565b7f4e487b7100000000000000000000000000000000000000000000000000000000600052601160045260246000fd5b600061112a82610bf6565b915061113583610bf6565b925082820190508082111561114d5761114c6110f0565b5b92915050565b60006040820190506111686000830185610e3f565b818103602083015261117a8184610f05565b90509392505050565b7f4e487b7100000000000000000000000000000000000000000000000000000000600052603260045260246000fd5b600082825260208201905092915050565b7f457870656e736520616c726561647920636f6d706c6574656400000000000000600082015250565b60006111f96019836111b2565b9150611204826111c3565b602082019050919050565b60006020820190508181036000830152611228816111ec565b9050919050565b7f416c726561647920617070726f76656400000000000000000000000000000000600082015250565b60006112656010836111b2565b91506112708261122f565b602082019050919050565b6000602082019050818103600083015261129481611258565b9050919050565b7f4d7573742073656e642045544820746f20617070726f76650000000000000000600082015250565b60006112d16018836111b2565b91506112dc8261129b565b602082019050919050565b60006020820190508181036000830152611300816112c4565b9050919050565b7f596f7520617265206e6f7420617574686f72697a656420746f20617070726f7660008201527f65207468697320657870656e7365000000000000000000000000000000000000602082015250565b6000611363602e836111b2565b915061136e82611307565b604082019050919050565b6000602082019050818103600083015261139281611356565b9050919050565b60006113a482610bf6565b91506113af83610bf6565b92508282039050818111156113c7576113c66110f0565b5b92915050565b600081905092915050565b50565b60006113e86000836113cd565b91506113f3826113d8565b600082019050919050565b6000611409826113db565b915081905091905056fea26469706673582212207b4291ed3a9cfe022a35e9bd782b08e191f02c6864f10f0d239ba7d0754c47b064736f6c63430008180033",
  "linkReferences": {},
  "deployedLinkReferences": {}
}