{
  "_format": "hh-sol-artifact-1",
  "contractName": "GroupSplitV2",
  "sourceName": "contracts/GroupSplitV2.sol",
  "abi": [
    {
      "inputs": [],
      "name": "InvalidInitialization",
      "type": "error"
    },
    {
      "inputs": [],
      "name": "NotInitializing",
      "type": "error"
    },
    {
      "anonymous": false,
      "inputs": [
        {
          "indexed": false,
          "internalType": "uint64",
          "name": "version",
          "type": "uint64"
        }
      ],
      "name": "Initialized",
      "type": "event"
    },
    {
      "anonymous": false,
      "inputs": [
        {
          "indexed": true,
          "internalType": "uint256",
          "name": "groupId",
          "type": "uint256"
        },
        {
          "indexed": true,
          "internalType": "address",
          "name": "owner",
          "type": "address"
        },
        {
          "indexed": true,
          "internalType": "string",
          "name": "groupName",
          "type": "string"
        },
        {
          "indexed": false,
          "internalType": "uint256",
          "name": "closingTime",
          "type": "uint256"
        },
        {
          "indexed": false,
          "internalType": "bool",
          "name": "isUSDC",
          "type": "bool"
        }
      ],
      "name": "logGroupClosed",
      "type": "event"
    },
    {
      "anonymous": false,
      "inputs": [
        {
          "indexed": true,
          "internalType": "uint256",
          "name": "groupId",
          "type": "uint256"
        },
        {
          "indexed": true,
          "internalType": "address",
          "name": "owner",
          "type": "address"
        },
        {
          "indexed": true,
          "internalType": "string",
          "name": "groupName",
          "type": "string"
        },
        {
          "indexed": false,
          "internalType": "uint256",
          "name": "creationTime",
          "type": "uint256"
        },
        {
          "indexed": false,
          "internalType": "bool",
          "name": "isUSDC",
          "type": "bool"
        }
      ],
      "name": "logGroupCreated",
      "type": "event"
    },
    {
      "anonymous": false,
      "inputs": [
        {
          "indexed": true,
          "internalType": "uint256",
          "name": "groupId",
          "type": "uint256"
        },
        {
          "indexed": true,
          "internalType": "address",
          "name": "participant",
          "type": "address"
        },
        {
          "indexed": false,
          "internalType": "string",
          "name": "nickname",
          "type": "string"
        },
        {
          "indexed": false,
          "internalType": "uint256",
          "name": "deposit",
          "type": "uint256"
        },
        {
          "indexed": false,
          "internalType": "bool",
          "name": "isUSDC",
          "type": "bool"
        }
      ],
      "name": "logGroupDepositReceived",
      "type": "event"
    },
    {
      "anonymous": false,
      "inputs": [
        {
          "indexed": true,
          "internalType": "uint256",
          "name": "groupId",
          "type": "uint256"
        },
        {
          "indexed": true,
          "internalType": "address",
          "name": "owner",
          "type": "address"
        },
        {
          "indexed": true,
          "internalType": "string",
          "name": "groupName",
          "type": "string"
        },
        {
          "indexed": false,
          "internalType": "uint256",
          "name": "openingTime",
          "type": "uint256"
        },
        {
          "indexed": false,
          "internalType": "bool",
          "name": "isUSDC",
          "type": "bool"
        }
      ],
      "name": "logGroupOpened",
      "type": "event"
    },
    {
      "anonymous": false,
      "inputs": [
        {
          "indexed": true,
          "internalType": "uint256",
          "name": "groupId",
          "type": "uint256"
        },
        {
          "indexed": false,
          "internalType": "uint256",
          "name": "amountWithdrawn",
          "type": "uint256"
        },
        {
          "indexed": false,
          "internalType": "uint256",
          "name": "time",
          "type": "uint256"
        },
        {
          "indexed": false,
          "internalType": "uint256",
          "name": "totalCollected",
          "type": "uint256"
        },
        {
          "indexed": false,
          "internalType": "uint256",
          "name": "totalWithdrawn",
          "type": "uint256"
        },
        {
          "indexed": false,
          "internalType": "bool",
          "name": "isUSDC",
          "type": "bool"
        }
      ],
      "name": "logGroupWithdrawal",
      "type": "event"
    },
    {
      "anonymous": false,
      "inputs": [
        {
          "indexed": true,
          "internalType": "uint256",
          "name": "groupId",
          "type": "uint256"
        },
        {
          "indexed": true,
          "internalType": "address",
          "name": "owner",
          "type": "address"
        },
        {
          "indexed": false,
          "internalType": "uint256",
          "name": "amount",
          "type": "uint256"
        },
        {
          "indexed": false,
          "internalType": "bool",
          "name": "isUSDC",
          "type": "bool"
        }
      ],
      "name": "logWithdrawalFailed",
      "type": "event"
    },
    {
      "inputs": [],
      "name": "USDC",
      "outputs": [
        {
          "internalType": "contract IERC20",
          "name": "",
          "type": "address"
        }
      ],
      "stateMutability": "view",
      "type": "function"
    },
    {
      "inputs": [],
      "name": "contractOpenedGroupsStat",
      "outputs": [
        {
          "internalType": "uint256",
          "name": "",
          "type": "uint256"
        }
      ],
      "stateMutability": "view",
      "type": "function"
    },
    {
      "inputs": [],
      "name": "contractTotalCollectedEthStat",
      "outputs": [
        {
          "internalType": "uint256",
          "name": "",
          "type": "uint256"
        }
      ],
      "stateMutability": "view",
      "type": "function"
    },
    {
      "inputs": [],
      "name": "contractTotalCollectedUSDCStat",
      "outputs": [
        {
          "internalType": "uint256",
          "name": "",
          "type": "uint256"
        }
      ],
      "stateMutability": "view",
      "type": "function"
    },
    {
      "inputs": [
        {
          "internalType": "string",
          "name": "_groupName",
          "type": "string"
        },
        {
          "internalType": "string",
          "name": "_ownerNickname",
          "type": "string"
        },
        {
          "internalType": "bool",
          "name": "isUSDC",
          "type": "bool"
        }
      ],
      "name": "createGroup",
      "outputs": [],
      "stateMutability": "nonpayable",
      "type": "function"
    },
    {
      "inputs": [
        {
          "internalType": "uint256",
          "name": "_groupId",
          "type": "uint256"
        },
        {
          "internalType": "string",
          "name": "_nickname",
          "type": "string"
        },
        {
          "internalType": "bool",
          "name": "isUSDCDeposit",
          "type": "bool"
        },
        {
          "internalType": "uint256",
          "name": "usdcAmount",
          "type": "uint256"
        }
      ],
      "name": "depositToGroup",
      "outputs": [],
      "stateMutability": "payable",
      "type": "function"
    },
    {
      "inputs": [],
      "name": "getAllGroupIds",
      "outputs": [
        {
          "internalType": "uint256[]",
          "name": "",
          "type": "uint256[]"
        }
      ],
      "stateMutability": "view",
      "type": "function"
    },
    {
      "inputs": [
        {
          "internalType": "uint256",
          "name": "_groupId",
          "type": "uint256"
        }
      ],
      "name": "getGroupInfoById",
      "outputs": [
        {
          "internalType": "uint256",
          "name": "",
          "type": "uint256"
        },
        {
          "internalType": "string",
          "name": "",
          "type": "string"
        },
        {
          "internalType": "bool",
          "name": "",
          "type": "bool"
        },
        {
          "internalType": "address",
          "name": "",
          "type": "address"
        },
        {
          "internalType": "string",
          "name": "",
          "type": "string"
        },
        {
          "internalType": "uint256",
          "name": "",
          "type": "uint256"
        },
        {
          "internalType": "uint256",
          "name": "",
          "type": "uint256"
        },
        {
          "internalType": "uint256",
          "name": "",
          "type": "uint256"
        },
        {
          "internalType": "uint256",
          "name": "",
          "type": "uint256"
        },
        {
          "internalType": "uint256",
          "name": "",
          "type": "uint256"
        },
        {
          "internalType": "address[]",
          "name": "",
          "type": "address[]"
        }
      ],
      "stateMutability": "view",
      "type": "function"
    },
    {
      "inputs": [],
      "name": "getGroupsNum",
      "outputs": [
        {
          "internalType": "uint256",
          "name": "",
          "type": "uint256"
        }
      ],
      "stateMutability": "view",
      "type": "function"
    },
    {
      "inputs": [
        {
          "internalType": "uint256",
          "name": "_groupId",
          "type": "uint256"
        },
        {
          "internalType": "address",
          "name": "_participantAddress",
          "type": "address"
        }
      ],
      "name": "getParticipantDetails",
      "outputs": [
        {
          "internalType": "address",
          "name": "participantAddress",
          "type": "address"
        },
        {
          "internalType": "string",
          "name": "nickname",
          "type": "string"
        },
        {
          "internalType": "uint256",
          "name": "totalDeposits",
          "type": "uint256"
        },
        {
          "internalType": "uint256",
          "name": "lastDeposited",
          "type": "uint256"
        }
      ],
      "stateMutability": "view",
      "type": "function"
    },
    {
      "inputs": [
        {
          "internalType": "uint256",
          "name": "",
          "type": "uint256"
        }
      ],
      "name": "groupIds",
      "outputs": [
        {
          "internalType": "uint256",
          "name": "",
          "type": "uint256"
        }
      ],
      "stateMutability": "view",
      "type": "function"
    },
    {
      "inputs": [
        {
          "internalType": "uint256",
          "name": "",
          "type": "uint256"
        }
      ],
      "name": "groups",
      "outputs": [
        {
          "internalType": "uint256",
          "name": "groupId",
          "type": "uint256"
        },
        {
          "internalType": "string",
          "name": "groupName",
          "type": "string"
        },
        {
          "internalType": "bool",
          "name": "isUSDC",
          "type": "bool"
        },
        {
          "internalType": "uint256",
          "name": "status",
          "type": "uint256"
        },
        {
          "internalType": "uint256",
          "name": "creationTime",
          "type": "uint256"
        },
        {
          "internalType": "address",
          "name": "owner",
          "type": "address"
        },
        {
          "internalType": "string",
          "name": "ownerNickname",
          "type": "string"
        },
        {
          "internalType": "uint256",
          "name": "balance",
          "type": "uint256"
        },
        {
          "internalType": "uint256",
          "name": "totalCollected",
          "type": "uint256"
        },
        {
          "internalType": "uint256",
          "name": "totalWithdrawn",
          "type": "uint256"
        }
      ],
      "stateMutability": "view",
      "type": "function"
    },
    {
      "inputs": [
        {
          "internalType": "address",
          "name": "_usdcTokenAddress",
          "type": "address"
        }
      ],
      "name": "initialize",
      "outputs": [],
      "stateMutability": "nonpayable",
      "type": "function"
    },
    {
      "inputs": [
        {
          "internalType": "uint256",
          "name": "_groupId",
          "type": "uint256"
        }
      ],
      "name": "withdrawFromGroup",
      "outputs": [],
      "stateMutability": "payable",
      "type": "function"
    }
  ],
  "bytecode": "0x608060405234801561001057600080fd5b50611d09806100206000396000f3fe6080604052600436106100dd5760003560e01c80637ceee3401161007f578063a2a4498b11610059578063a2a4498b14610263578063a30013e114610278578063c4d66de814610298578063f35ea5d0146102b857600080fd5b80637ceee340146101df57806389a30271146101f557806396324bd41461022d57600080fd5b806332bee467116100bb57806332bee467146101645780633756eeb8146101945780634093d7a1146101aa5780635d39c56b146101ca57600080fd5b806306e0b1cc146100e25780632e3dcc061461010b5780632f14f6c91461012d575b600080fd5b3480156100ee57600080fd5b506100f860045481565b6040519081526020015b60405180910390f35b34801561011757600080fd5b506101206102cb565b60405161010291906115b0565b34801561013957600080fd5b5061014d6101483660046115f4565b610323565b6040516101029b9a9998979695949392919061165d565b34801561017057600080fd5b5061018461017f366004611736565b610556565b6040516101029493929190611762565b3480156101a057600080fd5b506100f860055481565b3480156101b657600080fd5b506100f86101c53660046115f4565b6106e9565b3480156101d657600080fd5b506000546100f8565b3480156101eb57600080fd5b506100f860035481565b34801561020157600080fd5b50600654610215906001600160a01b031681565b6040516001600160a01b039091168152602001610102565b34801561023957600080fd5b5061024d6102483660046115f4565b61070a565b6040516101029a99989796959493929190611799565b6102766102713660046115f4565b61088c565b005b34801561028457600080fd5b506102766102933660046118c5565b610c6c565b3480156102a457600080fd5b506102766102b336600461193d565b610e41565b6102766102c636600461195f565b610f7d565b6060600180548060200260200160405190810160405280929190818152602001828054801561031957602002820191906000526020600020905b815481526020019060010190808311610305575b5050505050905090565b6000606060008060606000806000806000606060006103418d61137a565b90506000808281548110610357576103576119c0565b90600052602060002090600c020190508060000154816001018260020160009054906101000a900460ff168360050160009054906101000a90046001600160a01b031684600601856004015486600301548760070154886008015489600901548a600a018980546103c7906119d6565b80601f01602080910402602001604051908101604052809291908181526020018280546103f3906119d6565b80156104405780601f1061041557610100808354040283529160200191610440565b820191906000526020600020905b81548152906001019060200180831161042357829003601f168201915b50505050509950868054610453906119d6565b80601f016020809104026020016040519081016040528092919081815260200182805461047f906119d6565b80156104cc5780601f106104a1576101008083540402835291602001916104cc565b820191906000526020600020905b8154815290600101906020018083116104af57829003601f168201915b505050505096508080548060200260200160405190810160405280929190818152602001828054801561052857602002820191906000526020600020905b81546001600160a01b0316815260019091019060200180831161050a575b505050505090509c509c509c509c509c509c509c509c509c509c509c50505091939597999b90929496989a50565b6000606060008060006105688761137a565b9050600080828154811061057e5761057e6119c0565b600091825260208083206001600160a01b038b81168552600c9390930201600b810182526040808520815160808101909252805490941681526001840180549296509093928401916105cf906119d6565b80601f01602080910402602001604051908101604052809291908181526020018280546105fb906119d6565b80156106485780601f1061061d57610100808354040283529160200191610648565b820191906000526020600020905b81548152906001019060200180831161062b57829003601f168201915b50505091835250506002820154602082015260039091015460409091015280519091506001600160a01b03166106c55760405162461bcd60e51b815260206004820152601a60248201527f5061727469636970616e7420646f6573206e6f7420657869737400000000000060448201526064015b60405180910390fd5b805160208201516040830151606090930151919b909a509198509650945050505050565b600181815481106106f957600080fd5b600091825260209091200154905081565b6000818154811061071a57600080fd5b60009182526020909120600c9091020180546001820180549193509061073f906119d6565b80601f016020809104026020016040519081016040528092919081815260200182805461076b906119d6565b80156107b85780601f1061078d576101008083540402835291602001916107b8565b820191906000526020600020905b81548152906001019060200180831161079b57829003601f168201915b5050506002840154600385015460048601546005870154600688018054979860ff909516979396509194506001600160a01b031692916107f7906119d6565b80601f0160208091040260200160405190810160405280929190818152602001828054610823906119d6565b80156108705780601f1061084557610100808354040283529160200191610870565b820191906000526020600020905b81548152906001019060200180831161085357829003601f168201915b505050505090806007015490806008015490806009015490508a565b60006108978261137a565b905060008082815481106108ad576108ad6119c0565b60009182526020909120600c9091020160058101549091506001600160a01b0316331461091c5760405162461bcd60e51b815260206004820152601d60248201527f4f6e6c792067726f7570206f776e65722063616e20776974686472617700000060448201526064016106bc565b60008160070154116109695760405162461bcd60e51b81526020600482015260166024820152754e6f2062616c616e636520746f20776974686472617760501b60448201526064016106bc565b60008082600701549050808360090160008282546109879190611a26565b909155505060006007840155600283015460ff1615610a6657600654600584015460405163a9059cbb60e01b81526001600160a01b0391821660048201526024810184905291169063a9059cbb906044016020604051808303816000875af11580156109f7573d6000803e3d6000fd5b505050506040513d601f19601f82011682018060405250810190610a1b9190611a3f565b915081610a615760405162461bcd60e51b81526020600482015260146024820152731554d110c8151c985b9cd9995c8819985a5b195960621b60448201526064016106bc565b610b03565b60058301546040516001600160a01b03909116908290600081818185875af1925050503d8060008114610ab5576040519150601f19603f3d011682016040523d82523d6000602084013e610aba565b606091505b50508092505081610b035760405162461bcd60e51b815260206004820152601360248201527211551208151c985b9cd9995c8819985a5b1959606a1b60448201526064016106bc565b81610b8c5780836007018190555080836009016000828254610b259190611a5c565b90915550506005830154600784015460028501546040805192835260ff909116151560208301526001600160a01b039092169187917f2f78437c72aa947f251fe01f835b4450a48d4b480aed48c6ec52096b66bcf995910160405180910390a35050505050565b600160038401556008830154600984015460028501546040805185815242602082015290810193909352606083019190915260ff161515608082015285907f4737f4b5f110339198b10ac9c9ecc84dda24e5e07af201b6228e352bf22b80789060a00160405180910390a282600101604051610c089190611a6f565b604080519182900382206005860154600287015442855260ff161515602085015290926001600160a01b039091169188917f258a2e08c90ae0f3b8822777e4a046207be1faf120cf603acd32c2b82427765291015b60405180910390a45050505050565b600080546001818101835582805260038054600c9093027f290decd9548b62a8d60345a988386fc84ba6bc95484008f6362f93160ef3e56301939192909190610cb6908490611a26565b9091555050600054604051610cd691339186914291449190602001611ae5565b60408051601f198184030181528282528051602091820120845582820190915260038252624e455760e81b908201526001820190610d149082611b88565b506005810180546001600160a01b0319163317905560068101610d378482611b88565b504260048201556002600382018190556000600783018190556008830181905560098301819055908201805460ff19168415151790558054610d7b90600190611a5c565b8254600090815260026020526040812082905583546001805480820182559083527fb10e2d527612073b26eecdfd717e6a320cf44b4afac2b0732d9fcbe2b7fa0cf601558354919250610dd29190339087906113e1565b81600101604051610de39190611a6f565b60408051918290038220600585015485546004870154600288015490865260ff161515602086015291936001600160a01b03909116927f349b4d94306c01936126a1bde7b3c123a28136a2c761880ad044f5cade7a5a4d9101610c5d565b7ff0c57e16840df040f15088dc2f81fe391c3923bec73e23a9662efc9c229c6a008054600160401b810460ff16159067ffffffffffffffff16600081158015610e875750825b905060008267ffffffffffffffff166001148015610ea45750303b155b905081158015610eb2575080155b15610ed05760405163f92ee8a960e01b815260040160405180910390fd5b845467ffffffffffffffff191660011785558315610efa57845460ff60401b1916600160401b1785555b6000600381905560048190556005819055805460010181558052600680546001600160a01b0319166001600160a01b0388161790558315610f7557845460ff60401b19168555604051600181527fc7f505b2f371ae2175ee4913f4499e1f2633a7b5936321eed1cdaeb6115181d29060200160405180910390a15b505050505050565b836000610f898261137a565b9050600260008281548110610fa057610fa06119c0565b90600052602060002090600c02016003015414610ff15760405162461bcd60e51b815260206004820152600f60248201526e11dc9bdd5c081a5cc818db1bdcd959608a1b60448201526064016106bc565b6000610ffc8761137a565b90506000808281548110611012576110126119c0565b600091825260209091206002600c909202019081015490915060ff1615158615151461108c5760405162461bcd60e51b815260206004820152602360248201527f496e76616c6964206465706f736974207479706520666f72207468697320677260448201526206f75760ec1b60648201526084016106bc565b6000861561128857600086116110b45760405162461bcd60e51b81526004016106bc90611c48565b34156111025760405162461bcd60e51b815260206004820152601760248201527f4e6f2065746865722073686f756c642062652073656e7400000000000000000060448201526064016106bc565b6006546040516370a0823160e01b81523360048201526000916001600160a01b0316906370a0823190602401602060405180830381865afa15801561114b573d6000803e3d6000fd5b505050506040513d601f19601f8201168201806040525081019061116f9190611c90565b9050868110156111c15760405162461bcd60e51b815260206004820152601960248201527f496e73756666696369656e7420555344432062616c616e63650000000000000060448201526064016106bc565b6006546040516323b872dd60e01b8152336004820152306024820152604481018990526001600160a01b03909116906323b872dd906064016020604051808303816000875af1158015611218573d6000803e3d6000fd5b505050506040513d601f19601f8201168201806040525081019061123c9190611a3f565b61127f5760405162461bcd60e51b81526020600482015260146024820152731554d110c8151c985b9cd9995c8819985a5b195960621b60448201526064016106bc565b869150506112ab565b600034116112a85760405162461bcd60e51b81526004016106bc90611c48565b50345b6112b789338a846113e1565b808260070160008282546112cb9190611a26565b92505081905550808260080160008282546112e69190611a26565b9091555050861561130e5780600560008282546113039190611a26565b909155506113269050565b80600460008282546113209190611a26565b90915550505b600282015460405133918b917fb5493b1023d3022b165a5630e4e5d5368e76adb463e90c2020a7a3d3b31606b891611367918d91879160ff90911690611ca9565b60405180910390a3505050505050505050565b60008181526002602052604081205481036113ce5760405162461bcd60e51b815260206004820152601460248201527311dc9bdd5c08191bd95cc81b9bdd08195e1a5cdd60621b60448201526064016106bc565b5060009081526002602052604090205490565b60006113ec8561137a565b90508460008281548110611402576114026119c0565b90600052602060002090600c020160000154146114585760405162461bcd60e51b815260206004820152601460248201527311dc9bdd5c08191bd95cc81b9bdd08195e1a5cdd60621b60448201526064016106bc565b600080828154811061146c5761146c6119c0565b600091825260208083206001600160a01b038981168552600c9390930201600b810190915260409092205491925016156114f8576001600160a01b0385166000908152600b82016020526040812060020180548592906114cd908490611a26565b90915550506001600160a01b0385166000908152600b82016020526040902042600390910155610f75565b604080516080810182526001600160a01b0387811680835260208084018981528486018990524260608601526000928352600b8701909152939020825181546001600160a01b0319169216919091178155915190918291600182019061155e9082611b88565b506040820151600282015560609091015160039091015550600a81018054600181018255600091825260209091200180546001600160a01b0387166001600160a01b0319909116179055505050505050565b6020808252825182820181905260009190848201906040850190845b818110156115e8578351835292840192918401916001016115cc565b50909695505050505050565b60006020828403121561160657600080fd5b5035919050565b60005b83811015611628578181015183820152602001611610565b50506000910152565b6000815180845261164981602086016020860161160d565b601f01601f19169290920160200192915050565b60006101608d8352602081818501526116788285018f611631565b8d151560408601526001600160a01b038d8116606087015285820360808701529092506116a5838d611631565b92508a60a08601528960c08601528860e086015287610100860152866101208601528483036101408601528286518085528385019150838801945060005b818110156117015785518416835294840194918401916001016116e3565b5050809450505050509c9b505050505050505050505050565b80356001600160a01b038116811461173157600080fd5b919050565b6000806040838503121561174957600080fd5b823591506117596020840161171a565b90509250929050565b6001600160a01b038516815260806020820181905260009061178690830186611631565b6040830194909452506060015292915050565b60006101408c83528060208401526117b38184018d611631565b8b15156040850152606084018b9052608084018a90526001600160a01b03891660a085015283810360c085015290506117ec8188611631565b60e0840196909652505061010081019290925261012090910152979650505050505050565b634e487b7160e01b600052604160045260246000fd5b600082601f83011261183857600080fd5b813567ffffffffffffffff8082111561185357611853611811565b604051601f8301601f19908116603f0116810190828211818310171561187b5761187b611811565b8160405283815286602085880101111561189457600080fd5b836020870160208301376000602085830101528094505050505092915050565b80151581146118c257600080fd5b50565b6000806000606084860312156118da57600080fd5b833567ffffffffffffffff808211156118f257600080fd5b6118fe87838801611827565b9450602086013591508082111561191457600080fd5b5061192186828701611827565b9250506040840135611932816118b4565b809150509250925092565b60006020828403121561194f57600080fd5b6119588261171a565b9392505050565b6000806000806080858703121561197557600080fd5b84359350602085013567ffffffffffffffff81111561199357600080fd5b61199f87828801611827565b93505060408501356119b0816118b4565b9396929550929360600135925050565b634e487b7160e01b600052603260045260246000fd5b600181811c908216806119ea57607f821691505b602082108103611a0a57634e487b7160e01b600052602260045260246000fd5b50919050565b634e487b7160e01b600052601160045260246000fd5b80820180821115611a3957611a39611a10565b92915050565b600060208284031215611a5157600080fd5b8151611958816118b4565b81810381811115611a3957611a39611a10565b6000808354611a7d816119d6565b60018281168015611a955760018114611aaa57611ad9565b60ff1984168752821515830287019450611ad9565b8760005260208060002060005b85811015611ad05781548a820152908401908201611ab7565b50505082870194505b50929695505050505050565b624e455760e81b81526bffffffffffffffffffffffff198660601b16600382015260008551611b1b816017850160208a0161160d565b6017920191820194909452603781019290925260578201526077019392505050565b601f821115611b8357600081815260208120601f850160051c81016020861015611b645750805b601f850160051c820191505b81811015610f7557828155600101611b70565b505050565b815167ffffffffffffffff811115611ba257611ba2611811565b611bb681611bb084546119d6565b84611b3d565b602080601f831160018114611beb5760008415611bd35750858301515b600019600386901b1c1916600185901b178555610f75565b600085815260208120601f198616915b82811015611c1a57888601518255948401946001909101908401611bfb565b5085821015611c385787850151600019600388901b60f8161c191681555b5050505050600190811b01905550565b60208082526028908201527f4465706f73697420616d6f756e74206d7573742062652067726561746572207460408201526768616e207a65726f60c01b606082015260800190565b600060208284031215611ca257600080fd5b5051919050565b606081526000611cbc6060830186611631565b60208301949094525090151560409091015291905056fea2646970667358221220649918755c49cfa5bff58661a04054493a2c15541c1032b38b98d5bb3c11af1964736f6c63430008140033",
  "linkReferences": {},
  "deployedLinkReferences": {}
}